:03000000028D74FA
:0C8D7400787FE4F6D8FD758178028DBB95
:108CDB00474D00444C003A002E0075006D004700D4
:108CEB00202000474D202020202020202020202045
:108CFB002020202020202020202020202000444C39
:108D0B002020202020202020202020202020202058
:108D1B00202020202020202000B1EAB6A8CCBDCDF9
:108D2B00B700B8C7B8EFB9DC007547792F680043B7
:108D3B00504D00B5E7C0EBCAD2006D47792F6800E4
:108D4B0043503553003D8000003D8000003E000045
:108D5B00003E8000003F000000010204081020408C
:098D6B0080FEFDFBF7EFDFBF7F86
:10798600E4FFFE79287825E4F608D9FC7908900208
:1079960018E4F0A3D9FC9083007484F0908200E090
:1079A600FEC374FF9E900169F0908200E0FFC374ED
:1079B600FF9F90016AF09083007444F0908100E08C
:1079C600FEC374FF9E90016BF0908100E0FFC374CC
:1079D600FF9F90016CF09083007404F0908000E0AB
:1079E600FEC374FF9E90016DF0908000E0FFC374AB
:1079F600FF9F90016EF0908B007484F0908A00E0F7
:107A0600FEC374FF9E90016FF0908A00E0FFC3747E
:107A1600FF9F900170F0908B007444F0908900E015
:107A2600FEC374FF9E900171F0908900E0FFC3745D
:107A3600FF9F900172F0908B007404F0908800E034
:107A4600FEC374FF9E900173F0908800E0FFC3743C
:107A5600FF9F900174F09093007484F0909200E080
:107A6600FEC374FF9E900175F0909200E0FFC37410
:107A7600FF9F900176F09093007444F0909100E09F
:107A8600FEC374FF9E900177F0909100E0FFC374EF
:107A9600FF9F900178F09093007404F0909000E0BE
:107AA600FEC374FF9E900179F0909000E0FFC374CE
:107AB600FF9F90017AF0909B007484F0909A00E00A
:107AC600FEC374FF9E90017BF0909A00E0FFC374A2
:107AD600FF9F90017CF0909B007444F0909900E029
:107AE600FEC374FF9E90017DF0909900E0FFC37481
:107AF600FF9F90017EF0909B007404F0909800E048
:107B0600FEC374FF9E90017FF0909800E0FFC3745F
:107B1600FF9F900180F090A3007484F090A200E093
:107B2600FEC374FF9E900181F090A200E0FFC37433
:107B3600FF9F900182F090A3007444F090A100E0B2
:107B4600FEC374FF9E900183F090A100E0FFC37412
:107B5600FF9F900184F090A3007404F090A000E0D1
:107B6600FFC374FF9F900185F090A000E0FFC374EF
:107B7600FF9F900186F09001D4E0900167F090019C
:067B860016E0900168F01A
:017B8C0022D6
:1089CA0090830074B4F090820074FFF0F0908300FA
:1089DA007474F090810074FFF0F09083007434F0A6
:1089EA0090800074FFF0F0908B0074B4F0908A00CD
:1089FA0074FFF0F0908B007474F090890074FFF0AB
:108A0A00F0908B007434F090880074FFF0F090932B
:108A1A000074B4F090920074FFF0F09093007474B4
:108A2A00F090910074FFF0F09093007434F09090FD
:108A3A000074FFF0F0909B0074B4F0909A0074FFF9
:108A4A00F0F0909B007474F090990074FFF0F0902D
:108A5A009B007434F090980074FFF0F090A30074B7
:108A6A00B4F090A20074FFF0F090A3007474F09038
:108A7A00A10074FFF0F090A3007434F090A0007489
:108A8A00FFF0F07F4390046FE4F0A3DFFC7F2090B7
:108A9A0000F6E4F0A3DFFC785076FF90C00074FF84
:0C8AAA00F0C2A8D20AE490057EF0A3F010
:018AB600229D
:10004600129972E49004FCF09004FCE0D39407400B
:1000560003021CEBE0FF25E024DFF582E43401F522
:1000660083E0FEEF25E024DEF582E43401F583E04B
:100076006E6003021360EE6404600302038790045B
:10008600FCE02418F582E43402F583E06003020301
:10009600879004FCE0FB25E025E024F0F582E434BB
:1000A60001F58312707400000000EB75F00CA424B7
:1000B6009AF582E43400F583E0FCA3E0FDA3E0FEBC
:1000C600A3E0FF9004FCE0FB75F00CA42496F582F7
:1000D600E43400F58312704FEB75F00CA4249EF502
:1000E60082E43400F583E0FCA3E0FDA3E0FEA3E098
:1000F600FFEB75F00CA4249AF582E43400F5831224
:10010600704FEBC39407505F9004FCE0FD25E0259B
:10011600E0246CF582E43401F583E0FEED25E0256C
:10012600E0246BF582E43401F583E07C002400FFD3
:10013600EC3EFEE4FDEB75F00CA4249EF582E4345F
:1001460000F58312704FEB25E025E0246CF582E480
:100156003401F583E0FEEB25E025E0246BF582E42F
:100166003401F583E080329004FCE0FB64077049BB
:10017600900186E0FAFE900185E0F97C002400FFFC
:10018600EC3EFEE4FDEB75F00CA4249EF582E4340F
:1001960000F58312704FEAFEE97C002400FDEC3E78
:1001A600FCE4126BCE9004FCE025E025E024F0F59B
:1001B60082E43401F58312704F9004FCE0FB2418AE
:1001C600F582E43402F5837401F090046EE075F074
:1001D60025A4FFAEF0E4FCFDEB75F00CA4249AF523
:1001E60082E43400F583E0F8A3E0F9A3E0FAA3E0A3
:1001F600FBC3126FED400302028090046EE075F0BF
:1002060025A4FFAEF0E4FCFD9004FCE075F00CA420
:10021600249EF582E43400F583E0F8A3E0F9A3E038
:10022600FAA3E0FBC3126FED50509004FCE0FFC34D
:1002360094075046E0FE25E024DFF582E43401F51C
:1002460083E0FDEE25E024DEF582E43401F583ED5E
:10025600F09004FCE0FE25E024DFF582E43401F5AD
:10026600837403F0EE908D6493FE784D46F6EE08A7
:1002760046F6EF908D6C930856F690046EE075F096
:100286001CA4FFAEF0E4FCFD9004FCE075F00CA4A9
:10029600249AF582E43400F583E0F8A3E0F9A3E0BC
:1002A600FAA3E0FBC3126FED400302033290046E23
:1002B600E075F01CA4FFAEF0E4FCFD9004FCE075D4
:1002C600F00CA4249EF582E43400F583E0F8A3E064
:1002D600F9A3E0FAA3E0FBC3126FED504F9004FCC4
:1002E600E0FF64077046E0FE25E024DFF582E43493
:1002F60001F583E0FDEE25E024DEF582E43401F528
:1003060083EDF09004FCE0FE25E024DFF582E43482
:1003160001F5837403F0EE908D6493FE784D46F6F6
:10032600EE0846F6EF908D6C930856F69004FCE0C6
:1003360025E025E024F0F582E43401F583E0FCA312
:10034600E0FDA3E0FEA3E0FFE4FBFA79A07841120A
:1003560069AA9004FCE0FB25E025E02433F582E45D
:100366003405F58312704F74202BF582E43402F5C0
:10037600837404F074662BF582E43404F583740107
:10038600F09004FCE0FF25E024DFF582E43401F57B
:1003960083E06403600302097C74182FF582E43459
:1003A60002F583E0600302097C9004FCE0FB75F033
:1003B6000CA4249AF582E43400F583E0FCA3E0FD66
:1003C600A3E0FEA3E0FFEB75F00CA42496F582E40F
:1003D6003400F58312704F9004FCE0FB75F00CA41A
:1003E600249EF582E43400F583E0FCA3E0FDA3E05F
:1003F600FEA3E0FFEB75F00CA4249AF582E434002A
:10040600F58312704F9004FCE0FBC39407505CE048
:10041600FD25E025E0246CF582E43401F583E0FE59
:10042600ED25E025E0246BF582E43401F583E07CDC
:10043600002400FFEC3EFEE4FDEB75F00CA4249EC8
:10044600F582E43400F58312704FEB25E025E024B5
:100456006CF582E43401F583E0FEEB25E025E0242B
:100466006BF582E43401F583E080329004FCE0FB16
:1004760064077049900186E0FAFE900185E0F97CF8
:10048600002400FFEC3EFEE4FDEB75F00CA4249E78
:10049600F582E43400F58312704FEAFEE97C00240D
:1004A60000FDEC3EFCE4126BCE9004FCE025E0255A
:1004B600E024F0F582E43401F58312704F9004FCD9
:1004C600E0FB2418F582E43402F5837401F090040D
:1004D6006EE0FF7E007C167D57126E5EE4FCFDEB3F
:1004E60075F00CA4249AF582E43400F583E0F8A3B1
:1004F600E0F9A3E0FAA3E0FBD3126FED5003020587
:100506008990046EE0FF7E007C167D57126E5EE4D5
:10051600FCFD9004FCE075F00CA4249EF582E43406
:1005260000F583E0F8A3E0F9A3E0FAA3E0FBD31219
:100536006FED404F9004FCE0FF94075046E0FE2527
:10054600E024DFF582E43401F583E0FDEE25E024C6
:10055600DEF582E43401F583EDF09004FCE0FE253F
:10056600E024DFF582E43401F5837404F0EE908D27
:100576006493FE784D46F6EF908D6C930856F6EE32
:100586000846F690046EE0FF7E007C1D7D17126E15
:100596005EE4FCFD9004FCE075F00CA4249AF58260
:1005A600E43400F583E0F8A3E0F9A3E0FAA3E0FB66
:1005B600D3126FED500302064190046EE0FF7E00F9
:1005C6007C1D7D17126E5EE4FCFD9004FCE075F068
:1005D6000CA4249EF582E43400F583E0F8A3E0F948
:1005E600A3E0FAA3E0FBD3126FED404F9004FCE0CA
:1005F600FF64077046E0FE25E024DFF582E434015F
:10060600F583E0FDEE25E024DEF582E43401F58392
:10061600EDF09004FCE0FE25E024DFF582E43401F1
:10062600F5837404F0EE908D6493FE784D46F6EFF4
:10063600908D6C930856F6EE0846F690046EE075BB
:10064600F023A4FFAEF0E4FCFD9004FCE075F00C92
:10065600A4249AF582E43400F583E0F8A3E0F9A334
:10066600E0FAA3E0FBC3126FED40030206F3900429
:100676006EE075F023A4FFAEF0E4FCFD9004FCE010
:1006860075F00CA4249EF582E43400F583E0F8A30B
:10069600E0F9A3E0FAA3E0FBC3126FED504F90041C
:1006A600FCE0FF64076046E0FE25E024DFF582E417
:1006B6003401F583E0FDEE25E024DEF582E4340125
:1006C600F583EDF09004FCE0FE25E024DFF582E4FE
:1006D6003401F5837402F0EE908D6493784D46F6FE
:1006E600EF908D6C93FF0856F6EF0856F69004FCD3
:1006F600E025E025E024F0F582E43401F583E0FC12
:10070600A3E0FDA3E0FEA3E0FFE4FBFA79A07841B5
:100716001269AA9004FCE0FB25E025E02433F5826B
:10072600E43405F58312704F74662BF582E43404C5
:10073600F5837401F074202BF582E43402F583749A
:1007460003F0EB25E025E024F0F582E43401F5839F
:100756001270740000000074662BF582E43404F510
:1007660083E064016003020811EB25E025E02433F1
:10077600F582E43405F583E0FCA3E0FDA3E0FEA3E7
:10078600E0FFE4FBFA79A07840126AB37B007AB8FE
:1007960079B27845126B5050729004FCE0FF25E068
:1007A60024DFF582E43401F583E0FEEF25E024DE64
:1007B600F582E43401F583E06E70509004FCE0C3EA
:1007C60094075047EF25E024DEF582E43401F583F3
:1007D600EEF09004FCE0FF25E024DFF582E434012E
:1007E600F5837404F074662FF582E43404F583E42B
:1007F600F09004FCE0FF908D6493FE784D46F6EF92
:10080600908D6C930856F6EE0846F69004FCE0FFD1
:100816002466F582E43404F583E06401600302088B
:10082600C8EF25E025E02433F582E43405F583E0BE
:10083600FCA3E0FDA3E0FEA3E0FFE4FBFA79A078C9
:1008460040126AB37B007AB879E87845126B50504B
:10085600719004FCE0FF25E024DFF582E43401F525
:1008660083E0FEEF25E024DEF582E43401F583E043
:100876006E704F9004FCE064077047EF25E024DEBD
:10088600F582E43401F583EEF09004FCE0FF25E008
:1008960024DFF582E43401F5837404F074662FF5E1
:1008A60082E43404F583E4F09004FCE0FF908D6468
:1008B60093FE784D46F6EF908D6C930856F6EE084B
:1008C60046F69004FCE0FF2466F582E43404F583E2
:1008D600E06401600302097CEF25E025E02433F59E
:1008E60082E43405F583E0FCA3E0FDA3E0FEA3E08B
:1008F600FFE4FBFA79A07840126AB3E4FBFA790CBC
:100906007842126B50606F406D9004FCE0FF25E06A
:1009160024DFF582E43401F583E0FEEF25E024DEF2
:10092600F582E43401F583E06E704B9004FCE064DC
:10093600076043E025E024DEF582E43401F583EE2A
:10094600F09004FCE0FE25E024DFF582E43401F5B6
:10095600837402F074662EF582E43404F583E4F0C1
:10096600EF908D6493784D46F6EF908D6C93FF086B
:1009760056F6EF0856F69004FCE0FF25E024DFF576
:1009860082E43401F583E064026003020DAC74185E
:100996002FF582E43402F583E06003020DAC900487
:1009A600FCE0FB75F00CA4249AF582E43400F58390
:1009B600E0FCA3E0FDA3E0FEA3E0FFEB75F00CA4D2
:1009C6002496F582E43400F58312704F9004FCE01F
:1009D600FB75F00CA4249EF582E43400F583E0FC5C
:1009E600A3E0FDA3E0FEA3E0FFEB75F00CA4249AC0
:1009F600F582E43400F58312704F9004FCE0FD2587
:100A0600E025E0246CF582E43401F583E0FEED2573
:100A1600E025E0246BF582E43401F583E07C0024D4
:100A260000FFEC3EFEE4FD9004FCE0FB75F00CA438
:100A3600249EF582E43400F58312704FEB25E02501
:100A4600E0246CF582E43401F583E0FEEB25E02535
:100A5600E0246BF582E43401F583E07C002400FD9C
:100A6600EC3EFCE4126BCE9004FCE0FB25E025E0B6
:100A760024F0F582E43401F58312704F74182BF5D7
:100A860082E43402F5837401F090046EE0FF7E0088
:100A96007C157D23126E5EE4FCFDEB75F00CA42440
:100AA6009AF582E43400F583E0F8A3E0F9A3E0FACE
:100AB600A3E0FBD3126FED5003020B4190046EE0EE
:100AC600FF7E007C157D23126E5EE4FCFD9004FC27
:100AD600E075F00CA4249EF582E43400F583E0F87A
:100AE600A3E0F9A3E0FAA3E0FBD3126FED404C902C
:100AF60004FCE0FF25E024DFF582E43401F583E021
:100B0600FEEF25E024DEF582E43401F583EEF09075
:100B160004FCE0FF25E024DFF582E43401F583746C
:100B260003F0EF908D6493FF784D46F6EF0846F696
:100B36009004FCE0908D6C930856F690046EE07578
:100B4600F09EA4FFAEF0E4FCFD9004FCE075F00C12
:100B5600A4249AF582E43400F583E0F8A3E0F9A32F
:100B6600E0FAA3E0FBC3126FED507590046EE075DA
:100B7600F09EA4FFAEF0E4FCFD9004FCE075F00CE2
:100B8600A4249EF582E43400F583E0F8A3E0F9A3FB
:100B9600E0FAA3E0FBC3126FED50459004FCE0FFC2
:100BA60025E024DFF582E43401F583E0FEEF25E05D
:100BB60024DEF582E43401F583EEF09004FCE0FFD8
:100BC60025E024DFF582E43401F5837401F0EF902B
:100BD6008D6C93FF784D56F6EF0856F6EF0856F6ED
:100BE6009004FCE025E025E024F0F582E43401F5EC
:100BF60083E0FCA3E0FDA3E0FEA3E0FFE4FBFA79BB
:100C0600A078411269AA9004FCE0FB25E025E024C7
:100C160033F582E43405F58312704F74662BF58242
:100C2600E43404F5837401F074202BF582E4340275
:100C3600F5837402F0EB25E025E024F0F582E43438
:100C460001F5831270740000000074662BF582E4CF
:100C56003404F583E064016003020CFEEB25E02515
:100C6600E02433F582E43405F583E0FCA3E0FDA33C
:100C7600E0FEA3E0FFE4FBFA79A07840126AB37BBA
:100C8600007A1879A97845126B50506C9004FCE0F4
:100C9600FF25E024DFF582E43401F583E0FEEF254D
:100CA600E024DEF582E43401F583E06E704A9004B8
:100CB600FCE025E024DEF582E43401F583EEF090D5
:100CC60004FCE0FF25E024DFF582E43401F58374BB
:100CD60003F074662FF582E43404F583E4F090049F
:100CE600FCE0FF908D6493FE784D46F6EE0846F6DE
:100CF600EF908D6C930856F69004FCE0FF2466F5A1
:100D060082E43404F583E064016003020DACEF2550
:100D1600E025E02433F582E43405F583E0FCA3E026
:100D2600FDA3E0FEA3E0FFE4FBFA79A07840126A97
:100D3600B3E4FBFA791E7843126B50606940679002
:100D460004FCE0FF25E024DFF582E43401F583E0CE
:100D5600FEEF25E024DEF582E43401F583E06E70D3
:100D6600459004FCE025E024DEF582E43401F583B9
:100D7600EEF09004FCE0FF25E024DFF582E4340188
:100D8600F5837401F074662FF582E43404F583E488
:100D9600F09004FCE0908D6C93FF784D56F6EF08CA
:100DA60056F6EF0856F69004FCE0FF25E024DFF542
:100DB60082E43401F583E0640160030210FB7418D9
:100DC6002FF582E43402F583E060030210FB900401
:100DD600FCE0FB75F00CA4249AF582E43400F5835C
:100DE600E0FCA3E0FDA3E0FEA3E0FFEB75F00CA49E
:100DF6002496F582E43400F58312704F9004FCE0EB
:100E0600FB75F00CA4249EF582E43400F583E0FC27
:100E1600A3E0FDA3E0FEA3E0FFEB75F00CA4249A8B
:100E2600F582E43400F58312704F9004FCE0FD2552
:100E3600E025E0246AF582E43401F583E0FEED2541
:100E4600E025E02469F582E43401F583E07C0024A2
:100E560000FFEC3EFEE4FD9004FCE0FB75F00CA404
:100E6600249EF582E43400F58312704FEB25E025CD
:100E7600E0246AF582E43401F583E0FEEB25E02503
:100E8600E02469F582E43401F583E07C002400FD6A
:100E9600EC3EFCE4126BCE9004FCE0FB25E025E082
:100EA60024F0F582E43401F58312704F74182BF5A3
:100EB60082E43402F5837401F090046EE0FF7E0054
:100EC6007C177D83126E5EE4FCFDEB75F00CA424AA
:100ED60096F582E43400F583E0F8A3E0F9A3E0FA9E
:100EE600A3E0FBD3126FED5003020FA790046EE050
:100EF600FF7E007C177D83126E5EE4FCFD9004FC91
:100F0600E075F00CA4249AF582E43400F583E0F849
:100F1600A3E0F9A3E0FAA3E0FBD3126FED500302BE
:100F26000FA790046EE0FF7E007C177D83126E5E35
:100F3600E4FCFD9004FCE075F00CA4249EF582E42C
:100F46003400F583E0F8A3E0F9A3E0FAA3E0FBD3CD
:100F5600126FED404C9004FCE0FF25E024DFF582A3
:100F6600E43401F583E0FEEF25E024DEF582E43487
:100F760001F583EEF09004FCE0FF25E024DFF58226
:100F8600E43401F5837402F0EF908D6493784D4656
:100F9600F69004FCE0908D6C93FF0856F6EF085629
:100FA600F690046EE075F002A4FFAEF0E4FCFD904E
:100FB60004FCE075F00CA42496F582E43400F58375
:100FC600E0F8A3E0F9A3E0FAA3E0FBC3126FED405B
:100FD6000302107E90046EE075F002A4FFAEF0E40A
:100FE600FCFD9004FCE075F00CA4249AF582E43430
:100FF60000F583E0F8A3E0F9A3E0FAA3E0FBC3124F
:101006006FED507490046EE075F002A4FFAEF0E44C
:10101600FCFD9004FCE075F00CA4249EF582E434FB
:1010260000F583E0F8A3E0F9A3E0FAA3E0FBC3121E
:101036006FED50449004FCE0FF25E024DFF582E4E8
:101046003401F583E0FEEF25E024DEF582E4340189
:10105600F583EEF09004FCE0FF25E024DFF582E462
:101066003401F583E4F0EF908D6C93FF784D56F6DE
:10107600EF0856F6EF0856F69004FCE025E025E06A
:1010860024F0F582E43401F583C083C082E0FCA33A
:10109600E0FDA3E0FEA3E0FFE4FBFA79A0784112AD
:1010A60069AAD082D08312704F9004FCE0FB25E041
:1010B60025E024F0F582E43401F583E0FCA3E0FDAD
:1010C600A3E0FEA3E0FFEB25E025E02433F582E470
:1010D6003405F58312704F9004FCE0FF2466F58218
:1010E600E43404F5837401F074202FF582E43402AD
:1010F600F5837401F09004FCE0FF25E024DFF5821F
:10110600E43401F583E06003021CE274182FF582D3
:10111600E43402F583E06003021CE29004FCE0FB89
:1011260075F00CA4249AF582E43400F583E0FCA360
:10113600E0FDA3E0FEA3E0FFEB75F00CA42496F51A
:1011460082E43400F58312704F9004FCE0FB75F0E6
:101156000CA4249EF582E43400F583E0FCA3E0FDB4
:10116600A3E0FEA3E0FFEB75F00CA4249AF582E45D
:101176003400F58312704F9004FCE0FD25E025E075
:10118600246AF582E43401F583E0FEED25E025E0EE
:101196002469F582E43401F583E07C002400FFEC49
:1011A6003EFEE4FD9004FCE0FB75F00CA4249EF5E5
:1011B60082E43400F58312704FEB25E025E0246AC3
:1011C600F582E43401F583E0FEEB25E025E02469B1
:1011D600F582E43401F583E07C002400FDEC3EFC5E
:1011E600E4126BCE9004FCE0FB25E025E024F0F54C
:1011F60082E43401F58312704F74182BF582E434BF
:1012060002F5837401F090046EE075F003A4FFAE5E
:10121600F0E4FCFDEB75F00CA42496F582E43400B2
:10122600F583E0F8A3E0F9A3E0FAA3E0FBD3126F9D
:10123600ED50030212E190046EE075F003A4FFAED8
:10124600F0E4FCFD9004FCE075F00CA4249AF58211
:10125600E43400F583E0F8A3E0F9A3E0FAA3E0FBA9
:10126600D3126FED407590046EE075F003A4FFAEE7
:10127600F0E4FCFD9004FCE075F00CA4249EF582DD
:10128600E43400F583E0F8A3E0F9A3E0FAA3E0FB79
:10129600D3126FED40459004FCE0FF25E024DFF516
:1012A60082E43401F583E0FEEF25E024DEF582E4F6
:1012B6003401F583EEF09004FCE0FF25E024DFF531
:1012C60082E43401F5837401F0EF908D6C93FF781E
:1012D6004D56F6EF0856F6EF0856F69004FCE02554
:1012E600E025E024F0F582E43401F583C083C08272
:1012F600E0FCA3E0FDA3E0FEA3E0FFE4FBFA79A097
:1013060078411269AAD082D08312704F9004FCE013
:10131600FB25E025E024F0F582E43401F583E0FCCA
:10132600A3E0FDA3E0FEA3E0FFEB25E025E02433E8
:10133600F582E43405F58312704F9004FCE0FF2437
:1013460066F582E43404F5837401F074202FF58287
:10135600E43402F583E4F0021CE29004FCE0FF258D
:10136600E024DFF582E43401F583E0FEEF25E02496
:10137600DEF582E43401F583E06E7003021CE2EED2
:10138600640460030215389004FCE02418F582E436
:101396003402F583E060030215389004FFF09004F0
:1013A6006EE0FF7E007C037DE8126E5EE4FCFD903D
:1013B60004FCE075F00CA42496F582E43400F58371
:1013C600C083C0829004FFE0D082D08375F00412FF
:1013D60070A512704F9004FFE004F0E0B403BF90D4
:1013E60004FCE0FB25E025E024F0F582E43401F579
:1013F6008312707400000000EBC3940750639004DE
:10140600FCE0FD25E025E0246CF582E43401F5835B
:10141600E0FEED25E025E0246BF582E43401F5835A
:10142600E07C002400FFEC3EFEE4FD9004FCE0FBC3
:1014360075F00CA4249EF582E43400F58312704FF7
:10144600EB25E025E0246CF582E43401F583E0FE2B
:10145600EB25E025E0246BF582E43401F583E0809A
:10146600329004FCE0FB64077049900186E0FAFEC6
:10147600900185E0F97C002400FFEC3EFEE4FDEBE4
:1014860075F00CA4249EF582E43400F58312704FA7
:10149600EAFEE97C002400FDEC3EFCE4126BCE90F3
:1014A60004FCE025E025E024F0F582E43401F58330
:1014B60012704F9004FCE0FF2418F582E43402F524
:1014C600837401F0EF25E025E024F0F582E4340191
:1014D600F583E0FCA3E0FDA3E0FEA3E0FFE4FBFA56
:1014E60079A078411269AA9004FCE0FB25E025E08A
:1014F6002433F582E43405F58312704F74662BF5B8
:1015060082E43404F5837401F074202BF582E4340C
:1015160002F5837404F0EB25E024DFF582E4340160
:10152600F583E0FFEB25E024DEF582E43401F58364
:10153600EFF09004FCE0FF25E024DFF582E43401BF
:10154600F583E0640360030216F474182FF582E451
:101556003402F583E060030216F49004FFF0900471
:101566006EE0FF7E007C077DD0126E5EE4FCFD908F
:1015760004FCE075F00CA42496F582E43400F583AF
:10158600C083C0829004FFE0D082D08375F004123D
:1015960070A512704F9004FFE004F0E0B403BF9012
:1015A60004FCE0FB25E025E024F0F582E43401F5B7
:1015B600831270740000000074662BF582E4340414
:1015C600F583E4F09004FCE0FBC39407505CE0FD77
:1015D60025E025E0246CF582E43401F583E0FEED98
:1015E60025E025E0246BF582E43401F583E07C00F8
:1015F6002400FFEC3EFEE4FDEB75F00CA4249EF502
:1016060082E43400F58312704FEB25E025E0246C6C
:10161600F582E43401F583E0FEEB25E025E0246B5A
:10162600F582E43401F583E080329004FCE0FB644B
:10163600077049900186E0FAFE900185E0F97C008A
:101646002400FFEC3EFEE4FDEB75F00CA4249EF5B1
:1016560082E43400F58312704FEAFEE97C00240030
:10166600FDEC3EFCE4126BCE9004FCE025E025E0A8
:1016760024F0F582E43401F58312704F9004FCE007
:10168600FF2418F582E43402F5837401F0EF25E0B7
:1016960025E024F0F582E43401F583E0FCA3E0FDC7
:1016A600A3E0FEA3E0FFE4FBFA79A078411269AA61
:1016B6009004FCE0FB25E025E02433F582E43405C4
:1016C600F58312704F74202BF582E43402F583748F
:1016D60003F0EB25E024DFF582E43401F583E0FF37
:1016E600EB25E024DEF582E43401F583EFF0900487
:1016F600FCE0FF25E024DFF582E43401F583E064B5
:101706000260030218F174182FF582E43402F5839F
:10171600E060030218F19004FFF090046EE0FF7E93
:10172600007C077DD0126E5EE4FCFD9004FCE07543
:10173600F00CA42496F582E43400F583C083C082BD
:101746009004FFE0D082D08375F0041270A5127069
:101756004F9004FFE004F0E0B403BF9004FCE0FB0C
:1017660025E025E024F0F582E43401F58312707457
:101776000000000074662BF582E43404F583E4F07F
:101786009004FCE0FBC39407507CE0FD25E025E0D7
:10179600246CF582E43401F583E0FEED25E025E0D6
:1017A600246BF582E43401F583E07C002400FFEC31
:1017B6003EFEE4FDEB75F00CA4249EF582E43400B5
:1017C600F58312704FEB25E025E0246CF582E434B6
:1017D60001F583E0FEEB25E025E0246BF582E43499
:1017E60001F583E07C002400FDEC3EFCE4126BCEA8
:1017F6009004FCE025E025E024F0F582E43401F5D0
:101806008312704F80739004FCE06407706B900144
:1018160086E0FBFE900185E0F97C002400FFEC3EAB
:10182600FEE4FD9004FCE075F00CA4249EF582E431
:101836003400F58312704FEBFEE97C002400FDECCA
:101846003EFCE4126BCE9004FCE0FB25E025E02490
:10185600F0F582E43401F58312704FEB25E024DFC6
:10186600F582E43401F5837403F0EB25E024DEF51C
:1018760082E43401F5837403F09004FCE0FF24183D
:10188600F582E43402F5837401F0EF25E025E024C7
:10189600F0F582E43401F583E0FCA3E0FDA3E0FE6D
:1018A600A3E0FFE4FBFA79A078411269AA9004FC50
:1018B600E0FB25E025E02433F582E43405F58312C8
:1018C600704F74202BF582E43402F5837402F0EB3A
:1018D60025E024DFF582E43401F583E0FFEB25E023
:1018E60024DEF582E43401F583EFF09004FCE0FF9A
:1018F60025E024DFF582E43401F583E0640160032A
:10190600021AEF74182FF582E43402F583E06003BF
:10191600021AEF9004FFF090046EE0FF7E007C0355
:101926007DE8126E5EE4FCFD9004FCE075F00CA40C
:101936002496F582E43400F583C083C0829004FFC8
:10194600E0D082D08375F0041270A512704F900417
:10195600FFE004F0E0B403BF9004FCE0FB25E025C3
:10196600E024F0F582E43401F5831270740000007F
:101976000074662BF582E43404F583E4F09004FCED
:10198600E0245EF582E43404F583E4F09004FEF08E
:101996009004FEE0FFC3940A50279004FCE075F023
:1019A60014A424BEF582E43403F58375F004EF1223
:1019B60070A5127074000000009004FEE004F08030
:1019C600CF9004FCE0FD25E025E0246AF582E434AE
:1019D60001F583E0FEED25E025E02469F582E43497
:1019E60001F583E07C002400FFEC3EFEE4FD90045C
:1019F600FCE0FB75F00CA4249EF582E43400F5832C
:101A060012704FEB25E025E0246AF582E43401F5F7
:101A160083E0FEEB25E025E02469F582E43401F558
:101A260083E07C002400FDEC3EFCE4126BCE9004C7
:101A3600FCE0FB25E025E024F0F582E43401F583A3
:101A460012704FEB25E025E024F0F582E43401F531
:101A560083C083C082E0FCA3E0FDA3E0FEA3E0FF19
:101A6600E4FBFA79A078411269AAD082D083127079
:101A76004F9004FCE0FB25E025E024F0F582E434F9
:101A860001F583E0FCA3E0FDA3E0FEA3E0FFEB2568
:101A9600E025E02433F582E43405F58312704F9097
:101AA60004FCE0FF2466F582E43404F5837401F057
:101AB60074202FF582E43402F5837401F074182F34
:101AC600F582E43402F5837401F0EF25E024DFF5B6
:101AD60082E43401F583E0FF9004FCE025E024DE97
:101AE600F582E43401F583EFF09004FCE0FF25E095
:101AF60024DFF582E43401F583E06003021CE2741E
:101B0600182FF582E43402F583E06003021CE290AC
:101B160004FFF090046EE0FFE4FCFDFE9004FCE0A0
:101B260075F00CA42496F582E43400F583C083C0D6
:101B3600829004FFE0D082D08375F0041270A51263
:101B4600704F9004FFE004F0E0B403C79004FCE09B
:101B5600FB25E025E024F0F582E43401F5831270DC
:101B6600740000000074662BF582E43404F583E407
:101B7600F09004FCE0245EF582E43404F583E4F09E
:101B86009004FEF09004FEE0FFC3940A50279004F0
:101B9600FCE075F014A424BEF582E43403F58375E5
:101BA600F004EF1270A5127074000000009004FE9D
:101BB600E004F080CF9004FCE0FD25E025E0246AF7
:101BC600F582E43401F583E0FEED25E025E02469A5
:101BD600F582E43401F583E07C002400FFEC3EFE50
:101BE600E4FD9004FCE0FB75F00CA4249EF582E471
:101BF6003400F58312704FEB25E025E0246AF58268
:101C0600E43401F583E0FEEB25E025E02469F58266
:101C1600E43401F583E07C002400FDEC3EFCE41294
:101C26006BCE9004FCE0FB25E025E024F0F582E491
:101C36003401F58312704FEB25E025E024F0F582A0
:101C4600E43401F583C083C082E0FCA3E0FDA3E099
:101C5600FEA3E0FFE4FBFA79A078411269AAD082DC
:101C6600D08312704F9004FCE0FB25E025E024F0C1
:101C7600F582E43401F583E0FCA3E0FDA3E0FEA3D6
:101C8600E0FFEB25E025E02433F582E43405F58317
:101C960012704F9004FCE0FF2466F582E43404F5EC
:101CA600837401F074202FF582E43402F583E4F0A6
:101CB60074182FF582E43402F5837401F0EF25E001
:101CC60024DFF582E43401F583E0FF9004FCE0258F
:101CD600E024DEF582E43401F583EFF09004FCE0C5
:101CE60004F002004E784DE690A800F0784FE6909A
:101CF600B000F018E690B800F0201803024273E432
:101D06009004FEF09004FEE0FFC3940840030242F4
:101D16000EEF75F00CA4249EF582E43400F583E002
:101D2600FCA3E0FDA3E0FEA3E0FFE47B03FAF9F8E1
:101D3600126F4D9001EEEEF0A3EFF0785912705B42
:101D4600000000009005101270740000000090055D
:101D5600141270740000000090050C1270740000DC
:101D66000000E490051DF090051CF090051BF09016
:101D7600051AF0900519F0900518F09004FEE0FFA2
:101D860075F00AA49004FDF0EFC394074003022205
:101D9600A2A3E02466F582E43404F583E4F074201B
:101DA6002FF582E43402F583E06003021E8490047A
:101DB600FDE0FB2429F582E43402F583E0FF7E0092
:101DC6007C037DE8126E5EAC06AD07744C2BF58283
:101DD600E43400F583E075F064A42DFDEC35F0FCE9
:101DE6009004FDE02401F582E43400F583E075F00B
:101DF6000AA42DFFE5F03CFE74182BF582E43401AD
:101E0600F583E07C002FFDEC3EFCE4126BCE7825DA
:101E16001270439004FDE0FB242AF582E43402F5B7
:101E260083E0FF7E007C037DE8126E5EAC06AD07A4
:101E3600744D2BF582E43400F583E075F064A42D2F
:101E4600FDEC35F0FC9004FDE02402F582E434005C
:101E5600F583E075F00AA42DFFE5F03CFE74192B1E
:101E6600F582E43401F583E07C002FFDEC3EFCE4D2
:101E7600126BCE7B007A24797478490223989004F9
:101E8600FEE02420F582E43402F583E06401600379
:101E9600021F6C9004FDE0FB242BF582E43402F56E
:101EA60083E0FF7E007C037DE8126E5EAC06AD0724
:101EB600744E2BF582E43400F583E075F064A42DAE
:101EC600FDEC35F0FC9004FDE02403F582E43400DB
:101ED600F583E075F00AA42DFFE5F03CFE741A2B9D
:101EE600F582E43401F583E07C002FFDEC3EFCE452
:101EF600126BCE782D1270439004FDE0FB242CF576
:101F060082E43402F583E0FF7E007C037DE8126EF6
:101F16005EAC06AD07744F2BF582E43400F583E022
:101F260075F064A42DFDEC35F0FC9004FDE024046E
:101F3600F582E43400F583E075F00AA42DFFE5F0A0
:101F46003CFE741B2BF582E43401F583E07C002F04
:101F5600FDEC3EFCE4126BCE7B007A247974784962
:101F6600126AB30224AD9004FEE02420F582E43424
:101F760002F583E06402600302207E9004FDE0FB2C
:101F8600242DF582E43402F583E0FF7E007C037D98
:101F9600E8126E5EAC06AD0774502BF582E4340091
:101FA600F583E075F064A42DFDEC35F0FC9004FD9E
:101FB600E02405F582E43400F583E075F00AA42DEB
:101FC600FFE5F03CFE741C2BF582E43401F583E05A
:101FD6007C002FFDEC3EFCE4126BCE78351270438C
:101FE6009004FDE0FB242EF582E43402F583E0FF45
:101FF6007E007C037DE8126E5EAC06AD0774512B45
:10200600F582E43400F583E075F064A42DFDEC352B
:10201600F0FC9004FDE02406F582E43400F583E04C
:1020260075F00AA42DFFE5F03CFE741D2BF582E445
:102036003401F583E07C002FFDEC3EFCE4126BCE10
:10204600E4FBFA797A7844126AB3783912704390CD
:1020560004FEE025E025E02433F582E43405F5832B
:10206600E0FCA3E0FDA3E0FEA3E0FF783512701AC2
:102076001268B578390224D89004FEE02420F5824F
:10208600E43402F583E0640360030221909004FDCA
:10209600E0FB242FF582E43402F583E0FF7E007C2A
:1020A600037DE8126E5EAC06AD0774522BF582E432
:1020B6003400F583E075F064A42DFDEC35F0FC905A
:1020C60004FDE02407F582E43400F583E075F00AA8
:1020D600A42DFFE5F03CFE741E2BF582E43401F5D9
:1020E60083E07C002FFDEC3EFCE4126BCE783D12C3
:1020F60070439004FDE0FB2430F582E43402F5835E
:10210600E0FF7E007C037DE8126E5EAC06AD0774D0
:10211600532BF582E43400F583E075F064A42DFDBD
:10212600EC35F0FC9004FDE02408F582E43400F57B
:1021360083E075F00AA42DFFE5F03CFE741F2BF535
:1021460082E43401F583E07C002FFDEC3EFCE412D2
:102156006BCEE4FBFA79207841126AB378411270AB
:10216600439004FEE025E025E02433F582E43405BF
:10217600F583E0FCA3E0FDA3E0FEA3E0FF783D12BB
:10218600701A1268B578410224D89004FEE0242023
:10219600F582E43402F583E0640460030224F290DD
:1021A60004FDE0FB2431F582E43402F583E0FF7E92
:1021B600007C037DE8126E5EAC06AD0774542BF509
:1021C60082E43400F583E075F064A42DFDEC35F06F
:1021D600FC9004FDE02409F582E43400F583E07503
:1021E600F00AA42DFFE5F03CFE74202BF582E434C2
:1021F60001F583E07C002FFDEC3EFCE4126BCE780B
:10220600451270439004FDE0FB2432F582E434026B
:10221600F583E0FF7E007C037DE8126E5EAC06ADC2
:102226000774552BF582E43400F583E075F064A459
:102236002DFDEC35F0FC9004FDE0240AF582E43433
:1022460000F583E075F00AA42DFFE5F03CFE74214D
:102256002BF582E43401F583E07C002FFDEC3EFC97
:10226600E4126BCEE4FBFA792078411269AA784928
:102276001270439004FEE025E025E02433F582E465
:102286003405F583E0FCA3E0FDA3E0FEA3E0FF78C0
:102296004512701A1268B578490224D89004FEE0F7
:1022A600FF640760030224F274662FF582E43404A7
:1022B600F583E4F074202FF582E43402F583E064BC
:1022C6000360030223C99004FDE0FB2429F582E4A0
:1022D6003402F583E0FF7E007C037DE8126E5EAC7F
:1022E60006AD07744C2BF582E43400F583E075F0F7
:1022F60064A42DFDEC35F0FC9004FDE02401F5828C
:10230600E43400F583E075F00AA42DFFE5F03CFE09
:1023160074182BF582E43401F583E07C002FFDEC84
:102326003EFCE4126BCE78251270439004FDE0FB70
:10233600242AF582E43402F583E0FF7E007C037DE7
:10234600E8126E5EAC06AD07744D2BF582E43400E0
:10235600F583E075F064A42DFDEC35F0FC9004FDEA
:10236600E02402F582E43400F583E075F00AA42D3A
:10237600FFE5F03CFE74192BF582E43401F583E0A9
:102386007C002FFDEC3EFCE4126BCEE4FBFA7920D8
:102396007841126AB378291270439004FEE025E072
:1023A60025E02433F582E43405F583E0FCA3E0FD63
:1023B600A3E0FEA3E0FF782512701A1268B578290B
:1023C6000224D89004FEE02420F582E43402F5834A
:1023D600E0640460030224F29004FDE0FB242BF584
:1023E60082E43402F583E0FF7E007C037DE8126E12
:1023F6005EAC06AD07744E2BF582E43400F583E03F
:1024060075F064A42DFDEC35F0FC9004FDE024038A
:10241600F582E43400F583E075F00AA42DFFE5F0BB
:102426003CFE741A2BF582E43401F583E07C002F20
:10243600FDEC3EFCE4126BCE782D1270439004FD49
:10244600E0FB242CF582E43402F583E0FF7E007C79
:10245600037DE8126E5EAC06AD07744F2BF582E481
:102466003400F583E075F064A42DFDEC35F0FC90A6
:1024760004FDE02404F582E43400F583E075F00AF7
:10248600A42DFFE5F03CFE741B2BF582E43401F528
:1024960083E07C002FFDEC3EFCE4126BCEE4FBFAFD
:1024A600792078411269AA78311270439004FEE0CF
:1024B60025E025E02433F582E43405F583E0FCA32A
:1024C600E0FDA3E0FEA3E0FF782D12701A1268B5B6
:1024D600783112701A1269AA9004FEE025E025E010
:1024E60024F6F582E43400F58312704F9004FEE082
:1024F60025E025E024F6F582E43400F583E0FCA32C
:10250600E0FDA3E0FEA3E0FFE4FBFAF9F8126B504E
:10251600600D400B785912705B00000000807690C9
:1025260004FEE025E025E024F6F582E43400F58398
:10253600E0FCA3E0FDA3E0FEA3E0FFE4FBFAF9F86C
:10254600126B50600540030226899004FEE025E0E8
:1025560025E024F6F582E43400F583E0FCA3E0FDF3
:10256600A3E0FEA3E0FFE4FBFA797A7844126B500D
:10257600602C402A9004FEE025E025E024F6F58252
:10258600E43400F583E0FCA3E0FDA3E0FEA3E0FF56
:1025960078591270439001667401F00226899004FE
:1025A600FEE025E025E024F6F582E43400F583E03C
:1025B600FCA3E0FDA3E0FEA3E0FFE4FBFA797A7852
:1025C60044126B506002505E9004FEE025E025E068
:1025D60024F6F582E43400F583E0FCA3E0FDA3E0F5
:1025E600FEA3E0FF7B007A2479747849126B506071
:1025F6003540339004FEE025E025E024F6F582E43C
:102606003400F583E0FCA3E0FDA3E0FEA3E0FFE4D5
:10261600FBFA797A7844126AB378591270439001BA
:10262600667402F0805D9004FEE025E025E024F665
:10263600F582E43400F583E0FCA3E0FDA3E0FEA30D
:10264600E0FF7B007A2479747849126B506002505F
:10265600329004FEE025E025E024F6F582E434001D
:10266600F583E0FCA3E0FDA3E0FEA3E0FF7B007A98
:102676002479747849126AB37859127043900166C6
:102686007403F09004FEE025E025E024F6F582E4EC
:102696003400F583E0FCA3E0FDA3E0FEA3E0FFE445
:1026A600FBFAF9F8126B50603D403B9004FEE0FFE8
:1026B60025E025E02473F582E43404F5837430F0D4
:1026C600EF25E025E02474F582E43404F5837430C4
:1026D600F0EF25E025E02475F582E43404F58374F3
:1026E60030F0EF0227EE9004FEE025E025E024F628
:1026F600F582E43400F583E0FCA3E0FDA3E0FEA34D
:10270600E0FFE4FBFAF9F8126B5060054003023172
:10271600D19004FEE025E025E024F6F582E43400BD
:10272600F583E0FCA3E0FDA3E0FEA3E0FFE4FBFAF3
:102736007980783F126B50600250030228019004A2
:10274600FEE025E025E024F6F582E43400F583E09A
:10275600FCA3E0FDA3E0FEA3E0FFE4FBFA797A78B0
:10276600441269AA78551270437855126FFE126C9E
:1027760007AB07AA067C007D64126EC5EF2430FF06
:102786009004FEE025E025E02473F582E43404F5A8
:1027960083EFF07C007D64AF03AE02126EC5AA041F
:1027A600AB057D0A7C00AF03AE02126EC5EF243086
:1027B600FF9004FEE025E025E02474F582E434046D
:1027C600F583EFF07D0A7C00AF03AE02126EC5ED15
:1027D6002430FF9004FEE0FE25E025E02475F58216
:1027E600E43404F583EFF0EE25E025E02476F58267
:1027F600E43404F5837430F00231D19004FEE02510
:10280600E025E024F6F582E43400F583E0FCA3E05D
:10281600FDA3E0FEA3E0FFE4FBFA7980783F126BAC
:1028260050600540030229189004FEE025E025E0EB
:1028360024F6F582E43400F583E0FCA3E0FDA3E092
:10284600FEA3E0FFE4FBFA79207841126B506002A8
:1028560050030229189004FEE025E025E024F6F551
:1028660082E43400F583E0FCA3E0FDA3E0FEA3E0F0
:10287600FFE4FBFA79C878421269AA7855127043C8
:102886007855126FFE126C07AB07AA067C007D64B2
:10289600126EC5EF2430FF9004FEE025E025E0240B
:1028A60073F582E43404F583EFF07C007D64AF03B6
:1028B600AE02126EC5AA04AB057D0A7C00AF03AE5C
:1028C60002126EC5EF2430FF9004FEE025E025E0FD
:1028D6002474F582E43404F583EFF07D0A7C00AFBE
:1028E60003AE02126EC5ED2430FF9004FEE0FE2515
:1028F600E025E02475F582E43404F583EFF0EE2557
:10290600E025E02476F582E43404F5837431F002A0
:1029160031D19004FEE025E025E024F6F582E4348A
:1029260000F583E0FCA3E0FDA3E0FEA3E0FFE4FBEB
:10293600FA79207841126B5060054003022A2F90E5
:1029460004FEE025E025E024F6F582E43400F58374
:10295600E0FCA3E0FDA3E0FEA3E0FFE4FBFA79C8F8
:102966007842126B5060025003022A2F9004FEE058
:1029760025E025E024F6F582E43400F583E0FCA3A7
:10298600E0FDA3E0FEA3E0FFE4FBFA792078411224
:1029960069AA78551270437855126FFE126C07AB10
:1029A60007AA067C007D64126EC5EF2430FF9004F2
:1029B600FEE025E025E02473F582E43404F583EF98
:1029C600F07C007D64AF03AE02126EC5AA04AB05AF
:1029D6007D0A7C00AF03AE02126EC5EF2430FF9075
:1029E60004FEE025E025E02474F582E43404F58352
:1029F600EFF07D0A7C00AF03AE02126EC5ED243007
:102A0600FF9004FEE0FE25E025E02475F582E4341F
:102A160004F583EFF0EE25E025E02476F582E43434
:102A260004F5837432F00231D19004FEE025E025EE
:102A3600E024F6F582E43400F583E0FCA3E0FDA390
:102A4600E0FEA3E0FFE4FBFA79C87842126B50601F
:102A5600054003022B3C9004FEE025E025E024F629
:102A6600F582E43400F583E0FCA3E0FDA3E0FEA3D9
:102A7600E0FFE4FBFA797A7844126B506002500367
:102A8600022B3C9004FEE025E025E024F6F582E4E6
:102A96003400F583E0FCA3E0FDA3E0FEA3E0FF78AD
:102AA600551270437855126FFE126C07AB07AA06D3
:102AB6007C007D64126EC5EF2430FF9004FEE02595
:102AC600E025E02473F582E43404F583EFF07C001E
:102AD6007D64AF03AE02126EC5AA04AB057D0A7C07
:102AE60000AF03AE02126EC5EF2430FF9004FEE085
:102AF60025E025E02474F582E43404F583EFF07DC7
:102B06000A7C00AF03AE02126EC5ED2430FF9004BE
:102B1600FEE0FE25E025E02475F582E43404F58325
:102B2600EFF0EE25E025E02476F582E43404F58323
:102B36007433F00231D19004FEE025E025E024F65E
:102B4600F582E43400F583E0FCA3E0FDA3E0FEA3F8
:102B5600E0FFE4FBFA797A7844126B506005400393
:102B6600022C549004FEE025E025E024F6F582E4EC
:102B76003400F583E0FCA3E0FDA3E0FEA3E0FF7BC9
:102B8600007A40791C7846126B5060025003022C82
:102B9600549004FEE025E025E024F6F582E43400B6
:102BA600F583E0FCA3E0FDA3E0FEA3E0FFE4FBFA6F
:102BB60079207841126AB378551270437855126FAE
:102BC600FE126C07AB07AA067C007D64126EC5EF89
:102BD6002430FF9004FEE025E025E02473F582E42E
:102BE6003404F583EFF07C007D64AF03AE02126E11
:102BF600C5AA04AB057D0A7C00AF03AE02126EC502
:102C0600EF2430FF9004FEE025E025E02474F582F1
:102C1600E43404F583EFF07D0A7C00AF03AE0212C4
:102C26006EC5ED2430FF9004FEE0FE25E025E0248D
:102C360075F582E43404F583EFF0EE25E025E02413
:102C460076F582E43404F5837434F00231D19004CD
:102C5600FEE025E025E024F6F582E43400F583E085
:102C6600FCA3E0FDA3E0FEA3E0FF7B007A40791C15
:102C76007846126B5060054003022D6D9004FEE00D
:102C860025E025E024F6F582E43400F583E0FCA394
:102C9600E0FDA3E0FEA3E0FF7B007A5079C378470E
:102CA600126B5060025003022D6D9004FEE025E089
:102CB60025E024F6F582E43400F583E0FCA3E0FD8C
:102CC600A3E0FEA3E0FFE4FBFA79C87842126AB3F8
:102CD60078551270437855126FFE126C07AB07AA2F
:102CE600067C007D64126EC5EF2430FF9004FEE082
:102CF60025E025E02473F582E43404F583EFF07CC7
:102D0600007D64AF03AE02126EC5AA04AB057D0A50
:102D16007C00AF03AE02126EC5EF2430FF9004FEB6
:102D2600E025E025E02474F582E43404F583EFF031
:102D36007D0A7C00AF03AE02126EC5ED2430FF9013
:102D460004FEE0FE25E025E02475F582E43404F572
:102D560083EFF0EE25E025E02476F582E43404F5F1
:102D6600837435F00231D19004FEE025E025E0249D
:102D7600F6F582E43400F583E0FCA3E0FDA3E0FE73
:102D8600A3E0FF7B007A5079C37847126B50600549
:102D96004003022E869004FEE025E025E024F6F5A9
:102DA60082E43400F583E0FCA3E0FDA3E0FEA3E0AB
:102DB600FF7B007A2479747849126B5060025003C5
:102DC600022E869004FEE025E025E024F6F582E456
:102DD6003400F583E0FCA3E0FDA3E0FEA3E0FFE4FE
:102DE600FBFA797A7844126AB378551270437855AB
:102DF600126FFE126C07AB07AA067C007D64126E8A
:102E0600C5EF2430FF9004FEE025E025E02473F5AD
:102E160082E43404F583EFF07C007D64AF03AE02F8
:102E2600126EC5AA04AB057D0A7C00AF03AE021282
:102E36006EC5EF2430FF9004FEE025E025E0247403
:102E4600F582E43404F583EFF07D0A7C00AF03AE2F
:102E560002126EC5ED2430FF9004FEE0FE25E0254B
:102E6600E02475F582E43404F583EFF0EE25E025E1
:102E7600E02476F582E43404F5837436F00231D129
:102E86009004FEE025E025E024F6F582E43400F522
:102E960083E0FCA3E0FDA3E0FEA3E0FF7B007A2431
:102EA60079747849126B5060054003022FA0900494
:102EB600FEE025E025E024F6F582E43400F583E023
:102EC600FCA3E0FDA3E0FEA3E0FF7B807A967918E1
:102ED600784B126B5060025003022FA09004FEE064
:102EE60025E025E024F6F582E43400F583E0FCA332
:102EF600E0FDA3E0FEA3E0FF7B007A40791C784664
:102F0600126AB378551270437855126FFE126C0729
:102F1600AB07AA067C007D64126EC5EF2430FF90D5
:102F260004FEE025E025E02473F582E43404F5830D
:102F3600EFF07C007D64AF03AE02126EC5AA04AB4F
:102F4600057D0A7C00AF03AE02126EC5EF2430FF8A
:102F56009004FEE025E025E02474F582E43404F5CF
:102F660083EFF07D0A7C00AF03AE02126EC5ED243E
:102F760030FF9004FEE0FE25E025E02475F582E4AE
:102F86003404F583EFF0EE25E025E02476F582E4BF
:102F96003404F5837437F00231D19004FEE025E065
:102FA60025E024F6F582E43400F583E0FCA3E0FD99
:102FB600A3E0FEA3E0FF7B807A967918784B126B2C
:102FC60050600540030230BA9004FEE025E025E09B
:102FD60024F6F582E43400F583E0FCA3E0FDA3E0EB
:102FE600FEA3E0FF7B207ABC79BE784C126B506062
:102FF6000250030230BA9004FEE025E025E024F6F4
:10300600F582E43400F583E0FCA3E0FDA3E0FEA333
:10301600E0FF7B007A5079C37847126AB37855127D
:1030260070437855126FFE126C07AB07AA067C0038
:103036007D64126EC5EF2430FF9004FEE025E02586
:10304600E02473F582E43404F583EFF07C007D64BC
:10305600AF03AE02126EC5AA04AB057D0A7C00AFB3
:1030660003AE02126EC5EF2430FF9004FEE025E0A9
:1030760025E02474F582E43404F583EFF07D0A7CC0
:1030860000AF03AE02126EC5ED2430FF9004FEE0E1
:10309600FE25E025E02475F582E43404F583EFF09F
:1030A600EE25E025E02476F582E43404F5837438D1
:1030B600F00231D19004FEE025E025E024F6F58209
:1030C600E43400F583E0FCA3E0FDA3E0FEA3E0FF0B
:1030D6007B207ABC79BE784C126B506005400302A7
:1030E60031D19004FEE025E025E024F6F582E434B3
:1030F60000F583E0FCA3E0FDA3E0FEA3E0FF7B2850
:103106007A6B796E784E126B50600250030231D1A1
:103116009004FEE025E025E024F6F582E43400F58F
:1031260083E0FCA3E0FDA3E0FEA3E0FF7B007A249E
:1031360079747849126AB378551270437855126FCC
:10314600FE126C07AB07AA067C007D64126EC5EF03
:103156002430FF9004FEE025E025E02473F582E4A8
:103166003404F583EFF07C007D64AF03AE02126E8B
:10317600C5AA04AB057D0A7C00AF03AE02126EC57C
:10318600EF2430FF9004FEE025E025E02474F5826C
:10319600E43404F583EFF07D0A7C00AF03AE02123F
:1031A6006EC5ED2430FF9004FEE0FE25E025E02408
:1031B60075F582E43404F583EFF0EE25E025E0248E
:1031C60076F582E43404F5837439F090051DE0D376
:1031D6009409400302351F90051CE0940940030240
:1031E600351F90051BE09409400302351F90051A10
:1031F600E09409400302351F900519E09409400345
:1032060002351F900518E09409400302351F7859CE
:10321600126FFE126C07AB07AA067C007D64126E65
:10322600C590051DEFF07C007D64AF03AE02126E03
:10323600C5AA04AB057D0A7C00AF03AE02126EC5BB
:1032460090051CEFF07D0A7C00AF03AE02126EC53E
:1032560090051BEDF07859126FFE126C07AD07ACA6
:1032660006EC126BCEC004C005C006C00778591222
:103276006FFED003D002D001D0001268B5E4FBFA8D
:10328600797A78441269AA126C0790050012704F79
:10329600E47B64FAF9F8900500E0FCA3E0FDA3E006
:1032A600FEA3E0FF126F4D90051AEFF0E47B64FA7F
:1032B600F9F8900500E0FCA3E0FDA3E0FEA3E0FF23
:1032C600126F4DAC00AD01AE02AF03E47B0AFAF912
:1032D600F8126F4D900519EFF0E47B64FAF9F89057
:1032E6000500E0FCA3E0FDA3E0FEA3E0FF126F4DA6
:1032F600AC00AD01AE02AF03E47B0AFAF9F8126F37
:103306004D900518EBF0900166E06401600302330E
:10331600B690051CE075F00AA4FDACF0A3E075F0CC
:1033260064A42DFFE5F03CFE90051BE07C002FFD1C
:10333600EC3EFC126BCEC004C005C006C00790056B
:103346001AE0FCE4126BD37BCD7ACC79CC783D12B3
:1033560069AAD003D002D001D0001268B9C004C057
:1033660005C006C007900519E0FCE4126BD37B0A82
:103376007AD77923783C1269AAD003D002D001D03B
:10338600001268B9C004C005C006C007900518E061
:10339600FCE4126BD37B6F7A127983783A1269AAAE
:1033A600D003D002D001D0001268B9785D12704304
:1033B600900166E06402600302346A90051CE075C1
:1033C600F00AA4FDACF0A3E075F064A42DFFE5F0CF
:1033D6003CFE90051BE07C002FFDEC3EFC126BCE04
:1033E600C004C005C006C00790051AE0FCE4126BD5
:1033F600D37BCD7ACC79CC783D1269AAD003D002A2
:10340600D001D0001268B9C004C005C006C007903C
:103416000519E0FCE4126BD37B0A7AD77923783C52
:103426001269AAD003D002D001D0001268B9C00434
:10343600C005C006C007900518E0FCE4126BD37BFC
:103446006F7A127983783A1269AAD003D002D00132
:10345600D0001268B9E4FBFA797A78441269AA783E
:103466005D127043900166E06403600302351F90AD
:10347600051CE075F00AA4FDACF0A3E075F064A4A9
:103486002DFFE5F03CFE90051BE07C002FFDEC3E99
:10349600FC126BCEC004C005C006C00790051AE03A
:1034A600FCE4126BD37BCD7ACC79CC783D1269AA39
:1034B600D003D002D001D0001268B9C004C005C044
:1034C60006C007900519E0FCE4126BD37B0A7AD795
:1034D6007923783C1269AAD003D002D001D0001219
:1034E60068B9C004C005C006C007900518E0FCE432
:1034F600126BD37B6F7A127983783A1269AAD0035A
:10350600D002D001D0001268B97B007A2479747891
:10351600491269AA785D1270439004FEE0246EF5A4
:1035260082E43405F583E0FCE4126BD37BCD7ACCE0
:1035360079CC783D1269AAC004C005C006C00790C0
:1035460004FEE0245DF582E43405F583E0FCE41234
:103556006BD3D003D002D001D0001268B9C004C02A
:1035660005C006C0079004FEE02465F582E4340534
:10357600F583E0FCE4126BD37B0A7AD77923783C97
:103586001269AAD003D002D001D0001268B9900502
:103596001412704F9004FEE02476F582E43405F5AB
:1035A60083E0FCE4126BD390052812704F7F007EF7
:1035B600007D207C41127F7090050C12704F9005A3
:1035C6000CE0FCA3E0FDA3E0FEA3E0FF900514E001
:1035D600F8A3E0F9A3E0FAA3E0FB1269AA900510AC
:1035E60012704F900510E0FCA3E0FDA3E0FEA3E0FF
:1035F600FF785D12701A126B50403630CD05129767
:10360600FF5002D21C9004FEE0FF24C8F582E43489
:1036160001F5837401F074D52FF582E43401F58346
:103626007401F09004FEE0908D6C93785056F6800D
:1036360040900510E0FCA3E0FDA3E0FEA3E0FF78C8
:103646005D12701A126B5050289004FEE0FF24C8D9
:10365600F582E43401F583E4F074D52FF582E43481
:1036660001F583E4F09004FEE0908D649378504673
:10367600F69004FEE0FF24C8F582E43401F583E009
:103686006003023BC774202FF582E43402F583E021
:103696006003B401179004FEE075F03AA4240DFD12
:1036A600E435F0FC7BFF7A8C79DB80159004FEE034
:1036B60075F03AA4240DFDE435F0FC7BFF7A8C7995
:1036C600DE7F0A7E001290FD9004FEE0FB75F03A64
:1036D600A4240DFDE435F0FCEB2401FBE433FA7F72
:1036E6003C7E001282219004FEE075F03AA4240D7F
:1036F600FDE435F0FC7BFF7A8C79E17F5A7E00127F
:1037060090FD9004FEE0FB75F03AA4240DFDE4352F
:10371600F0FCEB25E024DFF582E43401F583E0FBE1
:103726007A007FD67E011282219004FEE0FB75F0BE
:103736003AA4240DFDE435F0FCEB25E024DEF58209
:10374600E43401F583E0FB7A007FB87E0112822122
:103756009004FEE0FB75F03AA4240DFDE435F0FC80
:10376600745E2BF582E43404F583E0FB7A007F86F1
:103776007E0112822190051DE0FB70030238C49081
:1037860004FEE075F03AA4240DFDE435F0FC7A0061
:103796007F827E001282219004FEE075F03AA42416
:1037A6000DFDE435F0FC90051CE0FB7A007FA07E61
:1037B600001282219004FEE075F03AA4240DFDE487
:1037C60035F0FC90051BE0FB7A007FBE7E0012827E
:1037D600219004FEE075F03AA4240DFDE435F0FCDA
:1037E6007BFF7A8C79E37FDC7E001290FD9004FEED
:1037F600E075F03AA4240DFDE435F0FC90051AE0DE
:10380600FB7A007FF07E001282219004FEE075F0C4
:103816003AA4240DFDE435F0FC900519E0FB7A008E
:103826007F0E7E011282219004FEE075F03AA424F8
:103836000DFDE435F0FC900518E0FB7A007F2C7E48
:10384600011282219001EEE0FAA3E0FBC3940AEA9A
:1038560094005003023A909001EEE0FEA3E0FFC30D
:10386600940AEE9400400BEF9464EE940050030229
:103876003ABC9001EEE0FEA3E0FFC39464EE940030
:10388600400BEF94E8EE94035003023AEF9001EEFA
:10389600E0FEA3E0FFC394E8EE9403400BEF941020
:1038A600EE94275003023B229001EEE0FAA3E0FBE0
:1038B600C39410EA94275003023B65023B4F9005E0
:1038C6001CE0FB70030239F09004FEE075F03AA4A8
:1038D600240DFDE435F0FC7A007FA07E00128221E3
:1038E6009004FEE075F03AA4240DFDE435F0FC905A
:1038F600051BE0FB7A007FBE7E001282219004FE4B
:10390600E075F03AA4240DFDE435F0FC7BFF7A8CDB
:1039160079E37FDC7E001290FD9004FEE075F03ABC
:10392600A4240DFDE435F0FC90051AE0FB7A007F37
:10393600F07E001282219004FEE075F03AA4240D78
:10394600FDE435F0FC900519E0FB7A007F0E7E0160
:103956001282219004FEE075F03AA4240DFDE435B0
:10396600F0FC900518E0FB7A007F2C7E0112822184
:103976009001EEE0FAA3E0FBC3940AEA9400500338
:10398600023A909001EEE0FEA3E0FFC3940AEE94A3
:1039960000400BEF9464EE94005003023ABC900191
:1039A600EEE0FEA3E0FFC39464EE9400400BEF94B8
:1039B600E8EE94035003023AEF9001EEE0FEA3E036
:1039C600FFC394E8EE9403400BEF9410EE94275057
:1039D60003023B229001EEE0FAA3E0FBC39410EA57
:1039E60094275003023B65023B4F9004FEE075F0BE
:1039F6003AA4240DFDE435F0FC90051BE0FB7A00AB
:103A06007FBE7E001282219004FEE075F03AA42467
:103A16000DFDE435F0FC7BFF7A8C79E37FDC7E00DC
:103A26001290FD9004FEE075F03AA4240DFDE435F5
:103A3600F0FC90051AE0FB7A007FF07E00128221EE
:103A46009004FEE075F03AA4240DFDE435F0FC90F8
:103A56000519E0FB7A007F0E7E011282219004FE9A
:103A6600E075F03AA4240DFDE435F0FC900518E06D
:103A7600FB7A007F2C7E011282219001EEE0FAA3F0
:103A8600E0FBC3940AEA940050149004FEE075F03B
:103A96003AA4240DFDE435F0FC7F40023B3B900147
:103AA600EEE0FEA3E0FFC3940AEE94004023EF94F9
:103AB60064EE9400501B9004FEE075F03AA4240DC9
:103AC600FDE435F0FC9001EEE0FAA3E0FB7F2C80EC
:103AD600649001EEE0FEA3E0FFC39464EE94004020
:103AE60023EF94E8EE9403501B9004FEE075F03A41
:103AF600A4240DFDE435F0FC9001EEE0FAA3E0FB12
:103B06007F1880319001EEE0FEA3E0FFC394E8EE5B
:103B160094034025EF9410EE9427501D9004FEE088
:103B260075F03AA4240DFDE435F0FC9001EEE0FAC0
:103B3600A3E0FB7F047E0280239001EEE0FAA3E07F
:103B4600FBC39410EA942740169004FEE075F03A01
:103B5600A4240DFDE435F0FC7FF07E011282219055
:103B66000166E0B401179004FEE075F03AA4240D56
:103B7600FDE435F0FC7BFF7A8C79E5803A900166AE
:103B8600E0B402179004FEE075F03AA4240DFDE4BB
:103B960035F0FC7BFF7A8C79E7801C900166E0B4F7
:103BA600031C9004FEE075F03AA4240DFDE435F004
:103BB600FC7BFF7A8C79E97F547E011290FD129886
:103BC600EA9004FEE0FF24C8F582E43401F583E0C0
:103BD6006401600302415274202FF582E43402F539
:103BE60083E06004640170339004FEE075F03AA44B
:103BF600240DFDE435F0FC7BFF7A8C79EB7F077EA4
:103C0600001291A79004FEE075F03AA4240DFDE49D
:103C160035F0FC7BFF7A8C79EE80319004FEE075FE
:103C2600F03AA4240DFDE435F0FC7BFF7A8C79EBA9
:103C36007F077E001291A79004FEE075F03AA42457
:103C46000DFDE435F0FC7BFF7A8D79097F0A7E0055
:103C56001291A79004FEE0FB75F03AA4240DFDE452
:103C660035F0FCEB2401FBE433FA7F3C7E00128046
:103C7600D69004FEE075F03AA4240DFDE435F0FC80
:103C86007BFF7A8C79E17F5A7E001291A79004FE21
:103C9600E0FB75F03AA4240DFDE435F0FCEB25E0DD
:103CA60024DFF582E43401F583E0FB7A007FD67EDB
:103CB600011280D69004FEE0FB75F03AA4240DFDB7
:103CC600E435F0FCEB25E024DEF582E43401F583EF
:103CD600E0FB7A007FB87E011280D69004FEE0FBFE
:103CE60075F03AA4240DFDE435F0FC745E2BF582E4
:103CF600E43404F583E0FB7A007F867E011280D6E9
:103D060090051DE0FB7003023E4F9004FEE075F047
:103D16003AA4240DFDE435F0FC7A007F827E001281
:103D260080D69004FEE075F03AA4240DFDE435F04B
:103D3600FC90051CE0FB7A007FA07E001280D690E6
:103D460004FEE075F03AA4240DFDE435F0FC900580
:103D56001BE0FB7A007FBE7E001280D69004FEE058
:103D660075F03AA4240DFDE435F0FC7BFF7A8C79DE
:103D7600E37FDC7E001291A79004FEE075F03AA482
:103D8600240DFDE435F0FC90051AE0FB7A007FF087
:103D96007E001280D69004FEE075F03AA4240DFD54
:103DA600E435F0FC900519E0FB7A007F0E7E0112E7
:103DB60080D69004FEE075F03AA4240DFDE435F0BB
:103DC600FC900518E0FB7A007F2C7E011280D690CD
:103DD60001EEE0FAA3E0FBC3940AEA940050030262
:103DE600401B9001EEE0FEA3E0FFC3940AEE9400B0
:103DF600400BEF9464EE940050030240479001EEAE
:103E0600E0FEA3E0FFC39464EE9400400BEF94E859
:103E1600EE9403500302407A9001EEE0FEA3E0FF29
:103E2600C394E8EE9403400BEF9410EE94275003EE
:103E36000240AD9001EEE0FAA3E0FBC39410EA94D1
:103E46002750030240F00240DA90051CE0FB7003A5
:103E5600023F7B9004FEE075F03AA4240DFDE435A4
:103E6600F0FC7A007FA07E001280D69004FEE075FA
:103E7600F03AA4240DFDE435F0FC90051BE0FB7A36
:103E8600007FBE7E001280D69004FEE075F03AA454
:103E9600240DFDE435F0FC7BFF7A8C79E37FDC7E34
:103EA600001291A79004FEE075F03AA4240DFDE4FB
:103EB60035F0FC90051AE0FB7A007FF07E00128058
:103EC600D69004FEE075F03AA4240DFDE435F0FC2E
:103ED600900519E0FB7A007F0E7E011280D69004D1
:103EE600FEE075F03AA4240DFDE435F0FC900518CB
:103EF600E0FB7A007F2C7E011280D69001EEE0FA7C
:103F0600A3E0FBC3940AEA9400500302401B90010D
:103F1600EEE0FEA3E0FFC3940AEE9400400BEF949C
:103F260064EE940050030240479001EEE0FEA3E0E9
:103F3600FFC39464EE9400400BEF94E8EE940350B4
:103F46000302407A9001EEE0FEA3E0FFC394E8EEA0
:103F56009403400BEF9410EE942750030240AD906B
:103F660001EEE0FAA3E0FBC39410EA9427500302A3
:103F760040F00240DA9004FEE075F03AA4240DFD0C
:103F8600E435F0FC90051BE0FB7A007FBE7E001254
:103F960080D69004FEE075F03AA4240DFDE435F0D9
:103FA600FC7BFF7A8C79E37FDC7E001291A790047C
:103FB600FEE075F03AA4240DFDE435F0FC90051AF8
:103FC600E0FB7A007FF07E001280D69004FEE0755A
:103FD600F03AA4240DFDE435F0FC900519E0FB7AD7
:103FE600007F0E7E011280D69004FEE075F03AA4A2
:103FF600240DFDE435F0FC900518E0FB7A007F2CDB
:104006007E011280D69001EEE0FAA3E0FBC3940A8B
:10401600EA940050149004FEE075F03AA4240DFDD5
:10402600E435F0FC7F400240C69001EEE0FEA3E0DE
:10403600FFC3940AEE94004023EF9464EE9400507C
:104046001B9004FEE075F03AA4240DFDE435F0FC67
:104056009001EEE0FAA3E0FB7F2C80649001EEE095
:10406600FEA3E0FFC39464EE94004023EF94E8EED1
:104076009403501B9004FEE075F03AA4240DFDE471
:1040860035F0FC9001EEE0FAA3E0FB7F188031905A
:1040960001EEE0FEA3E0FFC394E8EE94034025EFB3
:1040A6009410EE9427501D9004FEE075F03AA42477
:1040B6000DFDE435F0FC9001EEE0FAA3E0FB7F0491
:1040C6007E0280239001EEE0FAA3E0FBC39410EA9F
:1040D600942740169004FEE075F03AA4240DFDE402
:1040E60035F0FC7FF07E011280D6900166E0B401C7
:1040F600179004FEE075F03AA4240DFDE435F0FCBB
:104106007BFF7A8C79E5803A900166E0B4021790DD
:1041160004FEE075F03AA4240DFDE435F0FC7BFFC7
:104126007A8C79E7801C900166E0B4031C9004FE4B
:10413600E075F03AA4240DFDE435F0FC7BFF7A8CA3
:1041460079E97F547E011291A71298EA90051DE045
:10415600FF9004FEE0FE75F008A42487F582E4349F
:1041660001F583EFF090051CE0FFEE75F008A4243E
:1041760088F582E43401F583EFF090051BE0FFEE4D
:1041860075F008A42489F582E43401F583EFF090F4
:10419600051AE0FFEE75F008A4248AF582E43401DE
:1041A600F583EFF0900519E0FFEE75F008A4248B77
:1041B600F582E43401F583EFF0900518E0FFEE7523
:1041C600F008A4248CF582E43401F583EFF0900125
:1041D60066E0FFEE75F008A4248DF582E43401F55F
:1041E60083EFF074C82EF582E43401F583E0FFEE28
:1041F60075F008A4248EF582E43401F583EFF0907F
:1042060004FEE004F0021D0AE49004FEF09004FEB1
:10421600E0FFC39408503874C82FF582E43401F5E2
:1042260083E09004AF600FE0FF9004FEE0908D64A1
:1042360093FEEF4E800DE0FF9004FEE0908D6C93B0
:10424600FEEF5E9004AFF09004FEE004F080BED274
:10425600239004B2E004F0E0B4FF037408F0900485
:10426600B2E0D394044003D21222C21222E478535D
:10427600F608F67851F608F6786112705B000000D1
:1042860000786512705B00000000786912705B00B0
:10429600000000E4900523F0900522F0900521F03F
:1042A600900520F090051FF090051EF090051DF07A
:1042B60090051CF090051BF090051AF0900519F07A
:1042C600900518F09001DDE0FD75F00AA424F99040
:1042D60004FEF0ED25E025E02466F582E43401F5E0
:1042E60083E0FE9001DDE025E025E02465F582E42B
:1042F6003401F583E07C0024007854F6EC3E18F691
:10430600E6FE08E6FF7D0C126E5EAC06AD07E41213
:104316006BCE78611270439001DDE0FD25E025E06B
:104326002468F582E43401F583E0FEED25E025E01E
:104336002467F582E43401F583E07C00240078529A
:10434600F6EC3E18F69004FEE0FB2428F582E434F1
:1043560002F583E0FF7E007C037DE8126E5EAC060C
:10436600AD07744B2BF582E43400F583E075F064F9
:10437600A42DFDEC35F0FC9004FEE02400F582E46B
:104386003400F583E075F00AA42DFFE5F03CFE74D9
:10439600172BF582E43401F583E07C002FFDEC3E1B
:1043A600FCE4126BCE78251270439004FEE0FB24E9
:1043B60029F582E43402F583E0FF7E007C037DE884
:1043C600126E5EAC06AD07744C2BF582E43400F534
:1043D60083E075F064A42DFDEC35F0FC9004FEE05E
:1043E6002401F582E43400F583E075F00AA42DFF7C
:1043F600E5F03CFE74182BF582E43401F583E07C8D
:10440600002FFDEC3EFCE4126BCE7B007A2479741F
:104416007849126AB37829127043782512701AC047
:10442600007861126FFED0001268B5782912701AF2
:104436001269AA9001D012704FE4FFFEFDFC9001B4
:10444600D0E0F8A3E0F9A3E0FAA3E0FB126B50502A
:104456000A9001D0127074000000009001D0E0FCB8
:10446600A3E0FDA3E0FEA3E0FF786512704390058C
:1044760023E0D3940940030245AF900522E0940956
:1044860040030245AF900521E0940940030245AF81
:10449600900520E0940940030245AF90051FE09483
:1044A6000940030245AF90051EE09409400302450A
:1044B600AF7865126FFE126C07AB07AA067C007D0B
:1044C60064126EC5900523EFF07C007D64AF03AEE9
:1044D60002126EC5AA04AB057D0A7C00AF03AE02CC
:1044E600126EC5900522EFF07D0A7C00AF03AE0286
:1044F600126EC5900521EDF07865126FFE126C07FD
:10450600AD07AC06EC126BCEC004C005C006C007F2
:104516007865126FFED003D002D001D0001268B5C4
:10452600E4FBFA797A78441269AA126C07900504BA
:1045360012704FE47B64FAF9F8900504E0FCA3E0FE
:10454600FDA3E0FEA3E0FF126F4D900520EFF0E41F
:104556007B64FAF9F8900504E0FCA3E0FDA3E0FE15
:10456600A3E0FF126F4DAC00AD01AE02AF03E47BDA
:104576000AFAF9F8126F4D90051FEFF0E47B64FA22
:10458600F9F8900504E0FCA3E0FDA3E0FEA3E0FF3C
:10459600126F4DAC00AD01AE02AF03E47B0AFAF92F
:1045A600F8126F4D90051EEBF09004FEE0FB242AF6
:1045B600F582E43402F583E0FF7E007C037DE81299
:1045C6006E5EAC06AD07744D2BF582E43400F583C0
:1045D600E075F064A42DFDEC35F0FC9004FEE024BB
:1045E60002F582E43400F583E075F00AA42DFFE5B8
:1045F600F03CFE74192BF582E43401F583E07C006F
:104606002FFDEC3EFCE4126BCE782D127043900425
:10461600FEE0FB242BF582E43402F583E0FF7E0006
:104626007C037DE8126E5EAC06AD07744E2BF582F8
:10463600E43400F583E075F064A42DFDEC35F0FC60
:104646009004FEE02403F582E43400F583E075F07F
:104656000AA42DFFE5F03CFE741A2BF582E4340122
:10466600F583E07C002FFDEC3EFCE4126BCEE4FB10
:10467600FA797A7844126AB378311270437851E63F
:10468600FC08E6FDE4126BCE782D12701A1268B59E
:10469600783112701A1269AA90016212704FE4FF03
:1046A600FEFDFC900162E0F8A3E0F9A3E0FAA3E0C6
:1046B600FB126B50500A90016212707400000000E9
:1046C600E4FBFA797A7844900162E0FCA3E0FDA36A
:1046D600E0FEA3E0FF126AB3786912704390051DED
:1046E600E0D39409400302481E90051CE09409405B
:1046F6000302481E90051BE09409400302481E90E1
:10470600051AE09409400302481E900519E0940931
:10471600400302481E900518E09409400302481E13
:104726007869126FFE126C07AB07AA067C007D64DF
:10473600126EC590051DEFF07C007D64AF03AE02DE
:10474600126EC5AA04AB057D0A7C00AF03AE021249
:104756006EC590051CEFF07D0A7C00AF03AE021219
:104766006EC590051BEDF07869126FFE126C07ADF1
:1047760007AC06EC126BCEC004C005C006C00778B5
:1047860069126FFED003D002D001D0001268B5E4E2
:10479600FBFA797A78441269AA126C079005081216
:1047A600704FE47B64FAF9F8900508E0FCA3E0FD9D
:1047B600A3E0FEA3E0FF126F4D90051AEFF0E47B35
:1047C60064FAF9F8900508E0FCA3E0FDA3E0FEA377
:1047D600E0FF126F4DAC00AD01AE02AF03E47B0A01
:1047E600FAF9F8126F4D900519EFF0E47B64FAF9C7
:1047F600F8900508E0FCA3E0FDA3E0FEA3E0FF12AD
:104806006F4DAC00AD01AE02AF03E47B0AFAF9F8D6
:10481600126F4D900518EBF07BFF7A8D79247D3A67
:104826007C007FC87E001290FD9001DDE0FB7A00DF
:104836007D3A7C007F907E011282217BFF7A8D7902
:104846002D7D747C007F0A7E001290FD7BFF7A8CA2
:1048560079E17D747C007FA07E001290FD7BFF7A5B
:104866008D79347DAE7C007FDC7E001290FD7BFF6F
:104876007A8D793A7DAE7C007F087E021290FD7BB0
:10488600FF7A8D793E7D227C017F0A7E001290FDA3
:104896007BFF7A8C79E17D227C017FA07E001290DD
:1048A600FD7BFF7A8D79457D5C7C017FDC7E001285
:1048B60090FD7BFF7A8D794B7D5C7C017F087E02C3
:1048C6001290FD900523E070030249C0FB7A007D3B
:1048D600AE7C007F0A7E00128221900522E0FB7AE0
:1048E600007DAE7C007F287E00128221900521E0AB
:1048F600FB7A007DAE7C007F467E001282217BFF24
:104906007A8C79E37DAE7C007F647E001290FD9008
:104916000520E0FB7A007DAE7C007F827E0012825D
:104926002190051FE0FB7A007DAE7C007FA07E0013
:1049360012822190051EE0FB7A007DAE7C007FBED0
:104946007E001282217853E6FA08E6FBC3940AEA4F
:1049560094005003024B0D7853E6FE08E6FFC3941D
:104966000AEE9400400BEF9464EE94005003024B61
:104976002D7853E6FE08E6FFC39464EE9400400BE0
:10498600EF94E8EE94035003024B527853E6FE0888
:10499600E6FFC394E8EE9403400BEF9410EE9427E1
:1049A6005003024B777853E6FA08E6FBC39410EA05
:1049B60094275003024B9F024B94900522E070030C
:1049C600024AA5FB7A007DAE7C007F287E0012821B
:1049D60021900521E0FB7A007DAE7C007F467E00BB
:1049E6001282217BFF7A8C79E37DAE7C007F647E28
:1049F600001290FD900520E0FB7A007DAE7C007FE2
:104A0600827E0012822190051FE0FB7A007DAE7C3B
:104A1600007FA07E0012822190051EE0FB7A007DB9
:104A2600AE7C007FBE7E001282217853E6FA08E64D
:104A3600FBC3940AEA94005003024B0D7853E6FE3A
:104A460008E6FFC3940AEE9400400BEF9464EE94DC
:104A5600005003024B2D7853E6FE08E6FFC394642C
:104A6600EE9400400BEF94E8EE94035003024B5291
:104A76007853E6FE08E6FFC394E8EE9403400BEF96
:104A86009410EE94275003024B777853E6FA08E623
:104A9600FBC39410EA94275003024B9F024B949059
:104AA6000521E0FB7A007DAE7C007F467E00128207
:104AB600217BFF7A8C79E37DAE7C007F647E0012D9
:104AC60090FD900520E0FB7A007DAE7C007F827E23
:104AD6000012822190051FE0FB7A007DAE7C007FEC
:104AE600A07E0012822190051EE0FB7A007DAE7C3E
:104AF600007FBE7E001282217853E6FA08E6FBC3E9
:104B0600940AEA940050097DAE7C007FEA024B9A33
:104B16007853E6FE08E6FFC3940AEE94004016EFCB
:104B26009464EE9400500E18E6FA08E6FB7DAE7C1F
:104B3600007FCC805F7853E6FE08E6FFC39464EE00
:104B460094004016EF94E8EE9403500E18E6FA0827
:104B5600E6FB7DAE7C007FAE803A7853E6FE08E643
:104B6600FFC394E8EE94034016EF9410EE9427509A
:104B76000E18E6FA08E6FB7DAE7C007F908015787D
:104B860053E6FA08E6FBC39410EA9427400B7DAE81
:104B96007C007F727E0112822190051DE070030267
:104BA6004C96FB7A007D5C7C017F0A7E0012822196
:104BB60090051CE0FB7A007D5C7C017F287E00125C
:104BC600822190051BE0FB7A007D5C7C017F467E9E
:104BD600001282217BFF7A8C79E37D5C7C017F6405
:104BE6007E001290FD90051AE0FB7A007D5C7C0148
:104BF6007F827E00128221900519E0FB7A007D5C9F
:104C06007C017FA07E00128221900518E0FB7A00CD
:104C16007D5C7C017FBE7E001282217851E6FA0817
:104C2600E6FBC3940AEA94005003024DE37851E68A
:104C3600FE08E6FFC3940AEE9400400BEF9464EE80
:104C460094005003024E037851E6FE08E6FFC39433
:104C560064EE9400400BEF94E8EE94035003024E8A
:104C6600287851E6FE08E6FFC394E8EE9403400B6D
:104C7600EF9410EE94275003024E4D7851E6FA0851
:104C8600E6FBC39410EA94275003024E75024E6A5F
:104C960090051CE07003024D7BFB7A007D5C7C0175
:104CA6007F287E0012822190051BE0FB7A007D5C46
:104CB6007C017F467E001282217BFF7A8C79E37D20
:104CC6005C7C017F647E001290FD90051AE0FB7A01
:104CD600007D5C7C017F827E00128221900519E0B6
:104CE600FB7A007D5C7C017FA07E0012822190050C
:104CF60018E0FB7A007D5C7C017FBE7E001282217B
:104D06007851E6FA08E6FBC3940AEA9400500302D7
:104D16004DE37851E6FE08E6FFC3940AEE940040A0
:104D26000BEF9464EE94005003024E037851E6FEB6
:104D360008E6FFC39464EE9400400BEF94E8EE940B
:104D4600035003024E287851E6FE08E6FFC394E8B6
:104D5600EE9403400BEF9410EE94275003024E4D51
:104D66007851E6FA08E6FBC39410EA94275003024A
:104D76004E75024E6A90051BE0FB7A007D5C7C0155
:104D86007F467E001282217BFF7A8C79E37D5C7CF4
:104D9600017F647E001290FD90051AE0FB7A007D8B
:104DA6005C7C017F827E00128221900519E0FB7AED
:104DB600007D5C7C017FA07E00128221900518E0B8
:104DC600FB7A007D5C7C017FBE7E001282217851D9
:104DD600E6FA08E6FBC3940AEA940050097D5C7C77
:104DE600017FEA024E707851E6FE08E6FFC3940A98
:104DF600EE94004016EF9464EE9400500E18E6FA16
:104E060008E6FB7D5C7C017FCC805F7851E6FE087E
:104E1600E6FFC39464EE94004016EF94E8EE940324
:104E2600500E18E6FA08E6FB7D5C7C017FAE803A00
:104E36007851E6FE08E6FFC394E8EE94034016EFC9
:104E46009410EE9427500E18E6FA08E6FB7D5C7C7B
:104E5600017F9080157851E6FA08E6FBC39410EAC4
:0F4E66009427400B7D5C7C017F727E01128221BC
:014E7500221A
:1097E000E4FDFCC3ED9FEC9E50147BC87A00EB1B9C
:0E97F00070011AEB4A70F70DBD00010C80E508
:0197FE002248
:1098EA00E4FF7850E690C000F0301C02D2920FEFED
:0398FA00B40AEFBE
:0198FD002248
:1095750074C82FF582E43401F583E0601E74D52F9D
:10958500F582E43401F583E0B40102800E74D52F31
:10959500F582E43401F5837401F02274D52FF58248
:0895A500E43401F583E4F02237
:1094C100E49004FCF09004FCE0FFC39408502D12DA
:1094D10095759004FCE0FF24C8F582E43401F5831E
:1094E100E0FD9004FCE024D5F582E43401F583E04D
:0C94F100FB12961C9004FCE004F080C903
:0194FD00224C
:10961C00A907ED6017EB6014E9908D6C93785056A8
:10962C00F690C000F0301C1DC2928012E9908D643F
:10963C0093785046F690C000F0301C09D2927F64AB
:06964C007E001297E022EF
:109937000000000000000000000000000000000020
:1099120000C294D295D29400C2950000C294000075
:03992200D29522B9
:0D996500C294C295D29400D29500C2942203
:108F0400785C7C007D007BFF7A9979377E007F084E
:108F1400126DD0E47859F6C294D29408F6785AE6E1
:108F2400FFC394085015D29400A295E433FE745CF8
:108F34002FF8A606C294785A0680E2C294D295D23B
:108F4400940000C294E4785BF6785BE6FFC394086F
:108F5400501D7859E625E0F6745C2FF8E67859B48C
:108F64000106E64401F68002E6F6785B0680DA78CC
:038F740059E6FFBC
:018F770022D7
:058E8900900502EFF06E
:108E8E00785D7C007D007BFF7A99793F7E007F08BC
:108E9E00126DD0900502E07859F6E408F6785AE69D
:108EAE00FFC39408502618E6FE5480FD785CF6BD8C
:108EBE008008745D2FF876018008785AE6245DF8F4
:108ECE00E4F6EE25E07859F6080680D1D295C294E4
:108EDE00E4785BF6785BE6FFC394085013745D2F5D
:108EEE00F8E624FF9295D29400C294785B0680E453
:058EFE00D29400C294B3
:018F0300224B
:04929400AD07AC0670
:10929800EC7856F6AE0508A6060408F67F01129784
:1092A800701299127856E6FF128E89000000007835
:1092B80057E6FF128E89000000001299127858E6CE
:1092C800FF128E8900000000128F047855A607004F
:0892D800000000129965E6FF99
:0192E000226B
:0994FE009004FFEDF0AB07AA0693
:10950700EA7855F608A6077F011297701299127824
:1095170055E6FF128E89000000007856E6FF128E8E
:1095270089000000009004FFE0FF128E8900000010
:049537000002996530
:10977000E47859F67859E6C39F501BE408F608F6DA
:10978000785B06E618700106785AB613F308B688B7
:06979000EF78590680DEAF
:0197960022B0
:0B8FDD009004FCEBF0A3EAF0A3E9F025
:108FE800750AA0750B00E4F508F5099004FCE0FB90
:108FF800A3E0FAA3E0F9850982850883126E0FFDC4
:10900800AF0BAE0A1294FE7F02129770050BE50BA8
:109018007002050AB4000BE50AB4A106750AA27528
:109028000B000509E50970020508C3944BE508948F
:039038000140B83C
:01903B002212
:0B903C009004FFEBF0A3EAF0A3E9F0C2
:10904700750AA0750B00E4F508F509AF0BAE0A1217
:1090570092949004FFE0FBA3E0FAA3E0F98509826C
:10906700850883EF126E3C7F02129770050BE50BA4
:109077007002050AB4000BE50AB4A106750AA275C9
:109087000B000509E50970020508C3944BE5089430
:039097000140B8DD
:01909A0022B3
:10000E00B4D3BBFABDD3CAD5CED5CAD6C3FCC1EEC6
:05001E00CAA7B0DC00E0
:10971800301E02801B90D000E0900501F0E070F050
:10972800E0700DC21EC215900584F0A3F07F0122DF
:0C973800C21EC215E4900584F0A3F0FFEF
:019744002202
:108E00009004FCEBF0A3EAF0A3E9F0A3ECF0A3EDEF
:018E1000F071
:108E1100129718EF604BE4FDFCD3900500E09D90A4
:108E210004FFE09C4061129718EF605BA2B59224A9
:108E31003024F39004FCE0FBA3E0FAA3E0F98D8277
:108E41008C83126E0F90D800F0C2B7129718EF60A2
:108E510036A2B592242024F3D2B70DBD00010C80B7
:108E6100B812997290D000E0FB7A007D527C007FAD
:108E7100647E001282217BFF7A00790E7DB67C0030
:078E81007F647E001290FDEA
:018E880022C7
:104E76009004FCEBF0A3EAF0A3E9F0A3ECF0A3EDB9
:014E8600F03B
:104E870090D800E4F0D2B6FFFEC222D3900500E02E
:104E97009F9004FFE09E4050E4900588F0A3F03017
:104EA70021028029A2B492242024F490D000E0FDAE
:104EB7009004FCE0FBA3E0FAA3E0F98F828E83ED78
:104EC700126E3CC2B60FBF00010E302110C221C2C4
:104ED70022E4900588F0A3F0C219C21622A2B49268
:104EE700243024E6D2B680A3C222E4900588F0A33A
:104EF700F0C22130B303025BEF7FC8FE1297E012C6
:104F070074B1E4900501F0A3F0900501E0FEA3E081
:104F1700FFC39407EE94004003025BEDEF7803C3F1
:104F270033CE33CED8F924B4F58274043EF583E04A
:104F3700FF7E007C007D0A126E5EAC06AD07EC12A8
:104F47006BCEC004C005C006C007900501E0FEA3F4
:104F5700E07803C333CE33CED8F924B3F582740493
:104F67003EF583E0FF7E007C007D64126E5EAC063A
:104F7700AD07EC126BCED003D002D001D00012687F
:104F8700B9C004C005C006C007900501E0FEA3E054
:104F97007803C333CE33CED8F924B5F58274043EF3
:104FA700F583E0FCE4126BD3D003D002D001D0002C
:104FB7001268B990050312704F900503E0F8A3E05B
:104FC700F9A3E0FAA3E0FBC000C001C002C0039050
:104FD7000501E0FEA3E07803C333CE33CED8F9242E
:104FE700B7F58274043EF583E0FCE4126BD3E4FB6F
:104FF700FA79C87842126AB3C004C005C006C00770
:10500700900501E0FEA3E07803C333CE33CED8F991
:1050170024B6F58274043EF583E0FCE4126BD3E416
:10502700FBFA79207841126AB3D003D002D001D0BD
:10503700001268B9C004C005C006C007900501E0AA
:10504700FEA3E07803C333CE33CED8F924B8F58274
:1050570074043EF583E0FCE4126BD3E4FBFA797A3F
:105067007844126AB3D003D002D001D0001268B9D5
:10507700D003D002D001D0001268B9900503127096
:105087004F900501E0FEA3E07803C333CE33CED8BB
:10509700F924B9F58274043EF583E0B4021790054C
:1050A70003E0FCA3E0FDA3E0FEA3E0FFE4FBFA7945
:1050B7007A78448033900501E0FEA3E07803C33398
:1050C700CE33CED8F924B9F58274043EF583E0B423
:1050D700031F900503E0FCA3E0FDA3E0FEA3E0FFB0
:1050E7007B007A24797478491269AA9005031270B3
:1050F7004FE4FFFEFDFC900503E0F8A3E0F9A3E011
:10510700FAA3E0FB126B505039900501E0FEA3E0D3
:105117007802C333CE33CED8F9FF2493F5827404D3
:105127003EF5837430F074942FF58274043EF58352
:105137007430F074952FF58274043EF58374300251
:10514700523DE4FFFEFDFC900503E0F8A3E0F9A360
:10515700E0FAA3E0FB126B505003025B8CE4FFFE06
:105167007D807C3F900503E0F8A3E0F9A3E0FAA374
:10517700E0FB126B50400302524EE4FFFE7D7A7C47
:1051870044900503E0F8A3E0F9A3E0FAA3E0FB12DB
:1051970069AA90050712704F900507E0FCA3E0FD90
:1051A700A3E0FEA3E0FF126C07AB07AA067C007D15
:1051B70064126EC5EF2430FD900501E0FEA3E07890
:1051C70002C333CE33CED8F92493F58274043EF567
:1051D70083EDF07C007D64AF03AE02126EC5AA04B6
:1051E700AB057D0A7C00AF03AE02126EC5EF24301B
:1051F700FD900501E0FEA3E07802C333CE33CED89D
:10520700F92494F58274043EF583EDF07D0A7C0061
:10521700AF03AE02126EC5ED2430FD900501E0FE2E
:10522700A3E07802C333CE33CED8F9FF2495F582B5
:1052370074043EF583EDF074962FF58274043EF501
:10524700837430F0025B8CE4FFFE7D807C3F900529
:1052570003E0F8A3E0F9A3E0FAA3E0FB126B5050D8
:1052670003025355E4FFFE7D207C41900503E0F8DF
:10527700A3E0F9A3E0FAA3E0FB126B50400302534B
:1052870055E4FFFE7DC87C42900503E0F8A3E0F9F2
:10529700A3E0FAA3E0FB1269AA90050712704F90EA
:1052A7000507E0FCA3E0FDA3E0FEA3E0FF126C0707
:1052B700AB07AA067C007D64126EC5EF2430FD9013
:1052C7000501E0FEA3E07802C333CE33CED8F9243C
