:030000000290E08B
:0C90E000787FE4F6D8FD7581C802912766
:108EEF00474D00444C003A002E007547792F68001B
:108EFF006D47792F680047792F6800202000474D74
:108F0F002020202020202020202020202020202052
:108F1F00202020202020202000444C202020202012
:108F2F002020202020202020202020202020202032
:108F3F0020202000B1EAB6A8CCBDCDB700B8C7B885
:108F4F00EFB9DC0043504D00B5E7C0EBCAD2004388
:108F5F00503553003E99999A3E4CCCCD3E19999A73
:108F6F003DE147AE3DA3D70A3D4CCCCD3D0F5C292B
:108F7F003CC49BA63C9BA5E33C79096C3C09A0270C
:108F8F003C09A0270102040810204080FEFDFBF7DA
:048F9F00EFDFBF7FC2
:109564002030750000000000000000000000000032
:1095740000000000000000000000000000000000E7
:1095840000000000000000000000000000000000D7
:03959400000000D4
:1074B100900655EEF0A3EFF0A3EBF0A3EAF0A3E9F9
:0174C100F0DA
:1074C200A312704900000000C3900656E0940C908D
:1074D2000655E0648094804003027779E490065E6A
:1074E200F0A3F0900656E024FFFF900655E034FF2B
:1074F200FE90065EE0FCA3E0FDC39FEE6480F8EC24
:1075020064809840030275AAAE04ED7802C333CEBC
:1075120033CED8F92463F582748F3EF583126FAFB0
:10752200C004C005C006C00790065EE0FEA3E07876
:1075320002C333CE33CED8F9FF900657E0FBA3E067
:10754200FAA3E0F98F828E83D007D006D005D0044B
:10755200126F7F90065AE0FCA3E0FDA3E0FEA3E0D9
:10756200FFC004C005C006C007A3E0FEA3E0780286
:10757200C333CE33CED8F92463F582748F3EF583BC
:10758200126FD8D007D006D005D0041267F090064B
:107592005A12702490065FE004F060030274E590D2
:1075A200065EE004F00274E590065AE0F8A3E0F902
:1075B200A3E0FAA3E0FBE4FFFE7D807C3F1267ECD0
:1075C200900657E0FBA3E0FAA3E0F9126F65E4909E
:1075D200065EF0A3F0900656E024FFFF900655E009
:1075E20034FFFEC390065FE09FEE6480F890065E73
:1075F200E06480984003027802E4900660F0A3F011
:1076020090065EE0FEA3E0FFC3900656E09FFF9067
:107612000655E09ECF24FFCF34FFFE900660E0FCCB
:10762200A3E0FDC39FEE6480F8EC648098400302FF
:107632007768ED2401FFE43CFEEF7802C333CE33DA
:10764200CED8F9FF900657E0FBA3E0FAA3E0F98F4A
:10765200828E83126F35C004C005C006C007900633
:1076620060E0FEA3E07802C333CE33CED8F9FF90B8
:107672000657E0FBA3E0FAA3E0F98F828E83126F34
:10768200E8D007D006D005D004126A8740030277FB
:0176920057A0
:10769300900660E0FEA3E07802C333CE33CED8F980
:1076A300FF900657E0FBA3E0FAA3E0F98F828E83F5
:1076B300126F35900662127024900661E02401FF78
:1076C300900660E03400FEEF7802C333CE33CED8A9
:1076D300F9F5828E83126F35C004C005C006C0075A
:1076E300900660E0FEA3E07802C333CE33CED8F930
:1076F300FF900657E0FBA3E0FAA3E0F98F828E83A5
:10770300D007D006D005D004126F7F900662E0FC4C
:10771300A3E0FDA3E0FEA3E0FFC004C005C006C0D4
:1077230007900661E02401FF900660E03400FEEF5D
:107733007802C333CE33CED8F9FF900657E0FBA3CC
:10774300E0FAA3E0F98F828E83D007D006D005D06C
:0477530004126F7F2E
:10775700900661E004F07006900660E004F002769F
:107767000290065FE004F0700690065EE004F00207
:1077770075D7900655E07004A3E0640C707D900601
:107787005EF0A3F0900655E0FEA3E0FF90065EE0F2
:10779700FCA3E0FDC39FEE6480F8EC648098505B27
:1077A700AE04ED7802C333CE33CED8F92463F58225
:1077B700748F3EF583126FAFC004C005C006C007C3
:1077C70090065EE0FEA3E07802C333CE33CED8F94D
:1077D700FF900657E0FBA3E0FAA3E0F98F828E83C0
:1077E700D007D006D005D004126F7F90065FE00463
:0B77F700F0709190065EE004F08089C5
:017802002263
:107CD800E4FFFE79287825E4F608D9FC79089003B2
:107CE80048E4F0A3D9FC9083007484F0908200E00B
:107CF800FEC374FF9E900149F0908200E0FFC374B8
:107D0800FF9F90014AF09083007444F0908100E056
:107D1800FEC374FF9E90014BF0908100E0FFC37496
:107D2800FF9F90014CF09083007404F0908000E075
:107D3800FEC374FF9E90014DF0908000E0FFC37475
:107D4800FF9F90014EF0908B007484F0908A00E0C1
:107D5800FEC374FF9E90014FF0908A00E0FFC37449
:107D6800FF9F900150F0908B007444F0908900E0E0
:107D7800FEC374FF9E900151F0908900E0FFC37428
:107D8800FF9F900152F0908B007404F0908800E0FF
:107D9800FEC374FF9E900153F0908800E0FFC37407
:107DA800FF9F900154F09093007484F0909200E04B
:107DB800FEC374FF9E900155F0909200E0FFC374DB
:107DC800FF9F900156F09093007444F0909100E06A
:107DD800FEC374FF9E900157F0909100E0FFC374BA
:107DE800FF9F900158F09093007404F0909000E089
:107DF800FEC374FF9E900159F0909000E0FFC37499
:107E0800FF9F90015AF0909B007484F0909A00E0D4
:107E1800FEC374FF9E90015BF0909A00E0FFC3746C
:107E2800FF9F90015CF0909B007444F0909900E0F3
:107E3800FEC374FF9E90015DF0909900E0FFC3744B
:107E4800FF9F90015EF0909B007404F0909800E012
:107E5800FEC374FF9E90015FF0909800E0FFC3742A
:107E6800FF9F900160F090A3007484F090A200E05E
:107E7800FEC374FF9E900161F090A200E0FFC374FE
:107E8800FF9F900162F090A3007444F090A100E07D
:107E9800FEC374FF9E900163F090A100E0FFC374DD
:107EA800FF9F900164F090A3007404F090A000E09C
:107EB800FFC374FF9F900165F090A000E0FFC374BA
:107EC800FF9F900166F09001B4E0900147F09000A8
:067ED800F6E0900148F005
:017EDE002281
:108D1C0090830074B4F090820074FFF0F0908300A4
:108D2C007474F090810074FFF0F09083007434F050
:108D3C0090800074FFF0F0908B0074B4F0908A0077
:108D4C0074FFF0F0908B007474F090890074FFF055
:108D5C00F0908B007434F090880074FFF0F09093D6
:108D6C000074B4F090920074FFF0F090930074745F
:108D7C00F090910074FFF0F09093007434F09090A8
:108D8C000074FFF0F0909B0074B4F0909A0074FFA4
:108D9C00F0F0909B007474F090990074FFF0F090D8
:108DAC009B007434F090980074FFF0F090A3007462
:108DBC00B4F090A20074FFF0F090A3007474F090E3
:108DCC00A10074FFF0F090A3007434F090A0007434
:108DDC00FFF0F07F4390059FE4F0A3DFFC7F207849
:108DEC004DE4F608DFFC787076FF90C00074FFF05D
:0B8DFC00C2A8D20AE49006B2F0A3F077
:018E07002248
:10004600129D11E490062CF090062CE0D394074004
:1000560003021CEBE0FF25E024BFF582E43401F542
:1000660083E0FEEF25E024BEF582E43401F583E06B
:100076006E6003021360EE64046003020387900659
:100086002CE02448F582E43403F583E060030203A0
:100096008790062CE0FB25E025E024D0F582E434A9
:1000A60001F58312704900000000EB75F00CA424E2
:1000B6009AF582E43400F583E0FCA3E0FDA3E0FEBC
:1000C600A3E0FF90062CE0FB75F00CA42496F582C5
:1000D600E43400F583127024EB75F00CA4249EF52D
:1000E60082E43400F583E0FCA3E0FDA3E0FEA3E098
:1000F600FFEB75F00CA4249AF582E43400F5831224
:100106007024EBC39407505F90062CE0FD25E02594
:10011600E0244CF582E43401F583E0FEED25E0258C
:10012600E0244BF582E43401F583E07C002400FFF3
:10013600EC3EFEE4FDEB75F00CA4249EF582E4345F
:1001460000F583127024EB25E025E0244CF582E4CB
:100156003401F583E0FEEB25E025E0244BF582E44F
:100166003401F583E0803290062CE0FB6407704989
:10017600900166E0FAFE900165E0F97C002400FF3C
:10018600EC3EFEE4FDEB75F00CA4249EF582E4340F
:1001960000F583127024EAFEE97C002400FDEC3EA3
:1001A600FCE4126B0590062CE025E025E024D0F552
:1001B60082E43401F58312702490062CE0FB244877
:1001C600F582E43403F5837401F090059EE075F042
:1001D60025A4FFAEF0E4FCFDEB75F00CA4249AF523
:1001E60082E43400F583E0F8A3E0F9A3E0FAA3E0A3
:1001F600FBC3126F24400302028090059EE075F057
:1002060025A4FFAEF0E4FCFD90062CE075F00CA4EE
:10021600249EF582E43400F583E0F8A3E0F9A3E038
:10022600FAA3E0FBC3126F24505090062CE0FFC3E4
:1002360094075046E0FE25E024BFF582E43401F53C
:1002460083E0FDEE25E024BEF582E43401F583ED7E
:10025600F090062CE0FE25E024BFF582E43401F59B
:10026600837403F0EE908F9393FE786D46F6EE0856
:1002760046F6EF908F9B930856F690059EE075F034
:100286001CA4FFAEF0E4FCFD90062CE075F00CA477
:10029600249AF582E43400F583E0F8A3E0F9A3E0BC
:1002A600FAA3E0FBC3126F24400302033290059EBB
:1002B600E075F01CA4FFAEF0E4FCFD90062CE075A2
:1002C600F00CA4249EF582E43400F583E0F8A3E064
:1002D600F9A3E0FAA3E0FBC3126F24504F90062C5B
:1002E600E0FF64077046E0FE25E024BFF582E434B3
:1002F60001F583E0FDEE25E024BEF582E43401F548
:1003060083EDF090062CE0FE25E024BFF582E43470
:1003160001F5837403F0EE908F9393FE786D46F6A5
:10032600EE0846F6EF908F9B930856F690062CE063
:1003360025E025E024D0F582E43401F583E0FCA332
:10034600E0FDA3E0FEA3E0FFE4FBFA79A07841120A
:1003560068E190062CE0FB25E025E02467F582E4C1
:100366003406F58312702474502BF582E43403F5B9
:10037600837404F074962BF582E43405F5837401D6
:10038600F090062CE0FF25E024BFF582E43401F569
:1003960083E06403600302097C74482FF582E43429
:1003A60003F583E0600302097C90062CE0FB75F000
:1003B6000CA4249AF582E43400F583E0FCA3E0FD66
:1003C600A3E0FEA3E0FFEB75F00CA42496F582E40F
:1003D6003400F58312702490062CE0FB75F00CA413
:1003E600249EF582E43400F583E0FCA3E0FDA3E05F
:1003F600FEA3E0FFEB75F00CA4249AF582E434002A
:10040600F58312702490062CE0FBC39407505CE041
:10041600FD25E025E0244CF582E43401F583E0FE79
:10042600ED25E025E0244BF582E43401F583E07CFC
:10043600002400FFEC3EFEE4FDEB75F00CA4249EC8
:10044600F582E43400F583127024EB25E025E024E0
:100456004CF582E43401F583E0FEEB25E025E0244B
:100466004BF582E43401F583E0803290062CE0FB04
:1004760064077049900166E0FAFE900165E0F97C38
:10048600002400FFEC3EFEE4FDEB75F00CA4249E78
:10049600F582E43400F583127024EAFEE97C002438
:1004A60000FDEC3EFCE4126B0590062CE025E025F1
:1004B600E024D0F582E43401F58312702490062CF2
:1004C600E0FB2448F582E43403F5837401F09005DB
:1004D6009EE0FF7E007C167D57126D95E4FCFDEBD9
:1004E60075F00CA4249AF582E43400F583E0F8A3B1
:1004F600E0F9A3E0FAA3E0FBD3126F245003020550
:100506008990059EE0FF7E007C167D57126D95E46E
:10051600FCFD90062CE075F00CA4249EF582E434D4
:1005260000F583E0F8A3E0F9A3E0FAA3E0FBD31219
:100536006F24404F90062CE0FF94075046E0FE25BE
:10054600E024BFF582E43401F583E0FDEE25E024E6
:10055600BEF582E43401F583EDF090062CE0FE252D
:10056600E024BFF582E43401F5837404F0EE908F45
:100576009393FE786D46F6EF908F9B930856F6EEB2
:100586000846F690059EE0FF7E007C1D7D17126DE5
:1005960095E4FCFD90062CE075F00CA4249AF582F7
:1005A600E43400F583E0F8A3E0F9A3E0FAA3E0FB66
:1005B600D3126F24500302064190059EE0FF7E0091
:1005C6007C1D7D17126D95E4FCFD90062CE075F000
:1005D6000CA4249EF582E43400F583E0F8A3E0F948
:1005E600A3E0FAA3E0FBD3126F24404F90062CE061
:1005F600FF64077046E0FE25E024BFF582E434017F
:10060600F583E0FDEE25E024BEF582E43401F583B2
:10061600EDF090062CE0FE25E024BFF582E43401DF
:10062600F5837404F0EE908F9393FE786D46F6EFA3
:10063600908F9B930856F6EE0846F690059EE07559
:10064600F023A4FFAEF0E4FCFD90062CE075F00C60
:10065600A4249AF582E43400F583E0F8A3E0F9A334
:10066600E0FAA3E0FBC3126F2440030206F39005F1
:100676009EE075F023A4FFAEF0E4FCFD90062CE0AE
:1006860075F00CA4249EF582E43400F583E0F8A30B
:10069600E0F9A3E0FAA3E0FBC3126F24504F9006E3
:1006A6002CE0FF64076046E0FE25E024BFF582E407
:1006B6003401F583E0FDEE25E024BEF582E4340145
:1006C600F583EDF090062CE0FE25E024BFF582E4EC
:1006D6003401F5837402F0EE908F9393786D46F6AD
:1006E600EF908F9B93FF0856F6EF0856F690062C70
:1006F600E025E025E024D0F582E43401F583E0FC32
:10070600A3E0FDA3E0FEA3E0FFE4FBFA79A07841B5
:100716001268E190062CE0FB25E025E02467F582CF
:10072600E43406F58312702474962BF582E43405BE
:10073600F5837401F074502BF582E43403F5837469
:1007460003F0EB25E025E024D0F582E43401F583BF
:100756001270490000000074962BF582E43405F50A
:1007660083E064016003020811EB25E025E02467BD
:10077600F582E43406F583E0FCA3E0FDA3E0FEA3E6
:10078600E0FFE4FBFA79A078401269EA7B007AB8C8
:1007960079B27845126A87507290062CE0FF25E000
:1007A60024BFF582E43401F583E0FEEF25E024BEA4
:1007B600F582E43401F583E06E705090062CE0C3B8
:1007C60094075047EF25E024BEF582E43401F58313
:1007D600EEF090062CE0FF25E024BFF582E434011C
:1007E600F5837404F074962FF582E43405F583E4FA
:1007F600F090062CE0FF908F9393FE786D46F6EF0F
:10080600908F9B930856F6EE0846F690062CE0FF6E
:100816002496F582E43405F583E06401600302085A
:10082600C8EF25E025E02467F582E43406F583E089
:10083600FCA3E0FDA3E0FEA3E0FFE4FBFA79A078C9
:10084600401269EA7B007AB879E87845126A8750DF
:100856007190062CE0FF25E024BFF582E43401F513
:1008660083E0FEEF25E024BEF582E43401F583E063
:100876006E704F90062CE064077047EF25E024BEAB
:10088600F582E43401F583EEF090062CE0FF25E0D6
:1008960024BFF582E43401F5837404F074962FF5D1
:1008A60082E43405F583E4F090062CE0FF908F9304
:1008B60093FE786D46F6EF908F9B930856F6EE08FA
:1008C60046F690062CE0FF2496F582E43405F5837F
:1008D600E06401600302097CEF25E025E02467F56A
:1008E60082E43406F583E0FCA3E0FDA3E0FEA3E08A
:1008F600FFE4FBFA79A078401269EAE4FBFA790C86
:100906007842126A87606F406D90062CE0FF25E002
:1009160024BFF582E43401F583E0FEEF25E024BE32
:10092600F582E43401F583E06E704B90062CE064AA
:10093600076043E025E024BEF582E43401F583EE4A
:10094600F090062CE0FE25E024BFF582E43401F5A4
:10095600837402F074962EF582E43405F583E4F090
:10096600EF908F9393786D46F6EF908F9B93FF08E9
:1009760056F6EF0856F690062CE0FF25E024BFF564
:1009860082E43401F583E064026003020DAC74482E
:100996002FF582E43403F583E06003020DAC900684
:1009A6002CE0FB75F00CA4249AF582E43400F58360
:1009B600E0FCA3E0FDA3E0FEA3E0FFEB75F00CA4D2
:1009C6002496F582E43400F58312702490062CE018
:1009D600FB75F00CA4249EF582E43400F583E0FC5C
:1009E600A3E0FDA3E0FEA3E0FFEB75F00CA4249AC0
:1009F600F582E43400F58312702490062CE0FD2580
:100A0600E025E0244CF582E43401F583E0FEED2593
:100A1600E025E0244BF582E43401F583E07C0024F4
:100A260000FFEC3EFEE4FD90062CE0FB75F00CA406
:100A3600249EF582E43400F583127024EB25E0252C
:100A4600E0244CF582E43401F583E0FEEB25E02555
:100A5600E0244BF582E43401F583E07C002400FDBC
:100A6600EC3EFCE4126B0590062CE0FB25E025E04D
:100A760024D0F582E43401F58312702474482BF5F2
:100A860082E43403F5837401F090059EE0FF7E0056
:100A96007C157D23126D95E4FCFDEB75F00CA4240A
:100AA6009AF582E43400F583E0F8A3E0F9A3E0FACE
:100AB600A3E0FBD3126F245003020B4190059EE086
:100AC600FF7E007C157D23126D95E4FCFD90062CBF
:100AD600E075F00CA4249EF582E43400F583E0F87A
:100AE600A3E0F9A3E0FAA3E0FBD3126F24404C90F5
:100AF600062CE0FF25E024BFF582E43401F583E00F
:100B0600FEEF25E024BEF582E43401F583EEF09095
:100B1600062CE0FF25E024BFF582E43401F583745A
:100B260003F0EF908F9393FF786D46F6EF0846F645
:100B360090062CE0908F9B930856F690059EE075E4
:100B4600F09EA4FFAEF0E4FCFD90062CE075F00CE0
:100B5600A4249AF582E43400F583E0F8A3E0F9A32F
:100B6600E0FAA3E0FBC3126F24507590059EE07572
:100B7600F09EA4FFAEF0E4FCFD90062CE075F00CB0
:100B8600A4249EF582E43400F583E0F8A3E0F9A3FB
:100B9600E0FAA3E0FBC3126F24504590062CE0FF59
:100BA60025E024BFF582E43401F583E0FEEF25E07D
:100BB60024BEF582E43401F583EEF090062CE0FFC6
:100BC60025E024BFF582E43401F5837401F0EF904B
:100BD6008F9B93FF786D56F6EF0856F6EF0856F69C
:100BE60090062CE025E025E024D0F582E43401F5DA
:100BF60083E0FCA3E0FDA3E0FEA3E0FFE4FBFA79BB
:100C0600A078411268E190062CE0FB25E025E0245F
:100C160067F582E43406F58312702474962BF58208
:100C2600E43405F5837401F074502BF582E4340343
:100C3600F5837402F0EB25E025E024D0F582E43458
:100C460001F5831270490000000074962BF582E4CA
:100C56003405F583E064016003020CFEEB25E02514
:100C6600E02467F582E43406F583E0FCA3E0FDA307
:100C7600E0FEA3E0FFE4FBFA79A078401269EA7B84
:100C8600007A1879A97845126A87506C90062CE08C
:100C9600FF25E024BFF582E43401F583E0FEEF256D
:100CA600E024BEF582E43401F583E06E704A9006D6
:100CB6002CE025E024BEF582E43401F583EEF090C5
:100CC600062CE0FF25E024BFF582E43401F58374A9
:100CD60003F074962FF582E43405F583E4F090066C
:100CE6002CE0FF908F9393FE786D46F6EE0846F65D
:100CF600EF908F9B930856F690062CE0FF2496F50E
:100D060082E43405F583E064016003020DACEF254F
:100D1600E025E02467F582E43406F583E0FCA3E0F1
:100D2600FDA3E0FEA3E0FFE4FBFA79A07840126998
:100D3600EAE4FBFA791E7843126A87606940679095
:100D4600062CE0FF25E024BFF582E43401F583E0BC
:100D5600FEEF25E024BEF582E43401F583E06E70F3
:100D66004590062CE025E024BEF582E43401F583A7
:100D7600EEF090062CE0FF25E024BFF582E4340176
:100D8600F5837401F074962FF582E43405F583E457
:100D9600F090062CE0908F9B93FF786D56F6EF0847
:100DA60056F6EF0856F690062CE0FF25E024BFF530
:100DB60082E43401F583E0640160030210FB7448A9
:100DC6002FF582E43403F583E060030210FB9006FE
:100DD6002CE0FB75F00CA4249AF582E43400F5832C
:100DE600E0FCA3E0FDA3E0FEA3E0FFEB75F00CA49E
:100DF6002496F582E43400F58312702490062CE0E4
:100E0600FB75F00CA4249EF582E43400F583E0FC27
:100E1600A3E0FDA3E0FEA3E0FFEB75F00CA4249A8B
:100E2600F582E43400F58312702490062CE0FD254B
:100E3600E025E0244AF582E43401F583E0FEED2561
:100E4600E025E02449F582E43401F583E07C0024C2
:100E560000FFEC3EFEE4FD90062CE0FB75F00CA4D2
:100E6600249EF582E43400F583127024EB25E025F8
:100E7600E0244AF582E43401F583E0FEEB25E02523
:100E8600E02449F582E43401F583E07C002400FD8A
:100E9600EC3EFCE4126B0590062CE0FB25E025E019
:100EA60024D0F582E43401F58312702474482BF5BE
:100EB60082E43403F5837401F090059EE0FF7E0022
:100EC6007C177D83126D95E4FCFDEB75F00CA42474
:100ED60096F582E43400F583E0F8A3E0F9A3E0FA9E
:100EE600A3E0FBD3126F245003020FA790059EE0E8
:100EF600FF7E007C177D83126D95E4FCFD90062C29
:100F0600E075F00CA4249AF582E43400F583E0F849
:100F1600A3E0F9A3E0FAA3E0FBD3126F2450030287
:100F26000FA790059EE0FF7E007C177D83126D95CE
:100F3600E4FCFD90062CE075F00CA4249EF582E4FA
:100F46003400F583E0F8A3E0F9A3E0FAA3E0FBD3CD
:100F5600126F24404C90062CE0FF25E024BFF5825A
:100F6600E43401F583E0FEEF25E024BEF582E434A7
:100F760001F583EEF090062CE0FF25E024BFF58214
:100F8600E43401F5837402F0EF908F9393786D4605
:100F9600F690062CE0908F9B93FF0856F6EF0856C6
:100FA600F690059EE075F002A4FFAEF0E4FCFD901D
:100FB600062CE075F00CA42496F582E43400F58343
:100FC600E0F8A3E0F9A3E0FAA3E0FBC3126F244024
:100FD6000302107E90059EE075F002A4FFAEF0E4D9
:100FE600FCFD90062CE075F00CA4249AF582E434FE
:100FF60000F583E0F8A3E0F9A3E0FAA3E0FBC3124F
:101006006F24507490059EE075F002A4FFAEF0E4E4
:10101600FCFD90062CE075F00CA4249EF582E434C9
:1010260000F583E0F8A3E0F9A3E0FAA3E0FBC3121E
:101036006F24504490062CE0FF25E024BFF582E49F
:101046003401F583E0FEEF25E024BEF582E43401A9
:10105600F583EEF090062CE0FF25E024BFF582E450
:101066003401F583E4F0EF908F9B93FF786D56F68D
:10107600EF0856F6EF0856F690062CE025E025E038
:1010860024D0F582E43401F583C083C082E0FCA35A
:10109600E0FDA3E0FEA3E0FFE4FBFA79A0784112AD
:1010A60068E1D082D08312702490062CE0FB25E004
:1010B60025E024D0F582E43401F583E0FCA3E0FDCD
:1010C600A3E0FEA3E0FFEB25E025E02467F582E43C
:1010D6003406F58312702490062CE0FF2496F582E0
:1010E600E43405F5837401F074502FF582E434037B
:1010F600F5837401F090062CE0FF25E024BFF5820D
:10110600E43401F583E06003021CE274482FF582A3
:10111600E43403F583E06003021CE290062CE0FB56
:1011260075F00CA4249AF582E43400F583E0FCA360
:10113600E0FDA3E0FEA3E0FFEB75F00CA42496F51A
:1011460082E43400F58312702490062CE0FB75F0DF
:101156000CA4249EF582E43400F583E0FCA3E0FDB4
:10116600A3E0FEA3E0FFEB75F00CA4249AF582E45D
:101176003400F58312702490062CE0FD25E025E06E
:10118600244AF582E43401F583E0FEED25E025E00E
:101196002449F582E43401F583E07C002400FFEC69
:1011A6003EFEE4FD90062CE0FB75F00CA4249EF5B3
:1011B60082E43400F583127024EB25E025E0244A0E
:1011C600F582E43401F583E0FEEB25E025E02449D1
:1011D600F582E43401F583E07C002400FDEC3EFC5E
:1011E600E4126B0590062CE0FB25E025E024D0F503
:1011F60082E43401F58312702474482BF582E434BA
:1012060003F5837401F090059EE075F003A4FFAE2C
:10121600F0E4FCFDEB75F00CA42496F582E43400B2
:10122600F583E0F8A3E0F9A3E0FAA3E0FBD3126F9D
:101236002450030212E190059EE075F003A4FFAE70
:10124600F0E4FCFD90062CE075F00CA4249AF582DF
:10125600E43400F583E0F8A3E0F9A3E0FAA3E0FBA9
:10126600D3126F24407590059EE075F003A4FFAE7F
:10127600F0E4FCFD90062CE075F00CA4249EF582AB
:10128600E43400F583E0F8A3E0F9A3E0FAA3E0FB79
:10129600D3126F24404590062CE0FF25E024BFF5CD
:1012A60082E43401F583E0FEEF25E024BEF582E416
:1012B6003401F583EEF090062CE0FF25E024BFF51F
:1012C60082E43401F5837401F0EF908F9B93FF78ED
:1012D6006D56F6EF0856F6EF0856F690062CE02502
:1012E600E025E024D0F582E43401F583C083C08292
:1012F600E0FCA3E0FDA3E0FEA3E0FFE4FBFA79A097
:1013060078411268E1D082D08312702490062CE0D6
:10131600FB25E025E024D0F582E43401F583E0FCEA
:10132600A3E0FDA3E0FEA3E0FFEB25E025E02467B4
:10133600F582E43406F58312702490062CE0FF242F
:1013460096F582E43405F5837401F074502FF58226
:10135600E43403F583E4F0021CE290062CE0FF255A
:10136600E024BFF582E43401F583E0FEEF25E024B6
:10137600BEF582E43401F583E06E7003021CE2EEF2
:101386006404600302153890062CE02448F582E4D4
:101396003403F583E0600302153890062FF09005BC
:1013A6009EE0FF7E007C037DE8126D95E4FCFD90D7
:1013B600062CE075F00CA42496F582E43400F5833F
:1013C600C083C08290062FE0D082D08375F00412CD
:1013D600707A12702490062FE004F0E0B403BF90F8
:1013E600062CE0FB25E025E024D0F582E43401F567
:1013F6008312704900000000EBC394075063900607
:101406002CE0FD25E025E0244CF582E43401F5834B
:10141600E0FEED25E025E0244BF582E43401F5837A
:10142600E07C002400FFEC3EFEE4FD90062CE0FB91
:1014360075F00CA4249EF582E43400F58312702422
:10144600EB25E025E0244CF582E43401F583E0FE4B
:10145600EB25E025E0244BF582E43401F583E080BA
:101466003290062CE0FB64077049900166E0FAFEB4
:10147600900165E0F97C002400FFEC3EFEE4FDEB04
:1014860075F00CA4249EF582E43400F583127024D2
:10149600EAFEE97C002400FDEC3EFCE4126B0590BC
:1014A600062CE025E025E024D0F582E43401F5831E
:1014B60012702490062CE0FF2448F582E43403F5EC
:1014C600837401F0EF25E025E024D0F582E43401B1
:1014D600F583E0FCA3E0FDA3E0FEA3E0FFE4FBFA56
:1014E60079A078411268E190062CE0FB25E025E022
:1014F6002467F582E43406F58312702474962BF57E
:1015060082E43405F5837401F074502BF582E434DB
:1015160003F5837404F0EB25E024BFF582E434017F
:10152600F583E0FFEB25E024BEF582E43401F58384
:10153600EFF090062CE0FF25E024BFF582E43401AD
:10154600F583E0640360030216F474482FF582E421
:101556003403F583E060030216F490062FF090053D
:101566009EE0FF7E007C077DD0126D95E4FCFD9029
:10157600062CE075F00CA42496F582E43400F5837D
:10158600C083C08290062FE0D082D08375F004120B
:10159600707A12702490062FE004F0E0B403BF9036
:1015A600062CE0FB25E025E024D0F582E43401F5A5
:1015B600831270490000000074962BF582E434050E
:1015C600F583E4F090062CE0FBC39407505CE0FD45
:1015D60025E025E0244CF582E43401F583E0FEEDB8
:1015E60025E025E0244BF582E43401F583E07C0018
:1015F6002400FFEC3EFEE4FDEB75F00CA4249EF502
:1016060082E43400F583127024EB25E025E0244CB7
:10161600F582E43401F583E0FEEB25E025E0244B7A
:10162600F582E43401F583E0803290062CE0FB6419
:10163600077049900166E0FAFE900165E0F97C00CA
:101646002400FFEC3EFEE4FDEB75F00CA4249EF5B1
:1016560082E43400F583127024EAFEE97C0024005B
:10166600FDEC3EFCE4126B0590062CE025E025E03F
:1016760024D0F582E43401F58312702490062CE020
:10168600FF2448F582E43403F5837401F0EF25E086
:1016960025E024D0F582E43401F583E0FCA3E0FDE7
:1016A600A3E0FEA3E0FFE4FBFA79A078411268E12B
:1016B60090062CE0FB25E025E02467F582E434065D
:1016C600F58312702474502BF582E43403F5837489
:1016D60003F0EB25E024BFF582E43401F583E0FF57
:1016E600EB25E024BEF582E43401F583EFF09006A5
:1016F6002CE0FF25E024BFF582E43401F583E064A5
:101706000260030218F174482FF582E43403F5836E
:10171600E060030218F190062FF090059EE0FF7E30
:10172600007C077DD0126D95E4FCFD90062CE075DB
:10173600F00CA42496F582E43400F583C083C082BD
:1017460090062FE0D082D08375F00412707A127062
:101756002490062FE004F0E0B403BF90062CE0FBD3
:1017660025E025E024D0F582E43401F583127049A2
:101776000000000074962BF582E43405F583E4F04E
:1017860090062CE0FBC39407507CE0FD25E025E0A5
:10179600244CF582E43401F583E0FEED25E025E0F6
:1017A600244BF582E43401F583E07C002400FFEC51
:1017B6003EFEE4FDEB75F00CA4249EF582E43400B5
:1017C600F583127024EB25E025E0244CF582E43401
:1017D60001F583E0FEEB25E025E0244BF582E434B9
:1017E60001F583E07C002400FDEC3EFCE4126B0571
:1017F60090062CE025E025E024D0F582E43401F5BE
:1018060083127024807390062CE06407706B90013D
:1018160066E0FBFE900165E0F97C002400FFEC3EEB
:10182600FEE4FD90062CE075F00CA4249EF582E4FF
:101836003400F583127024EBFEE97C002400FDECF5
:101846003EFCE4126B0590062CE0FB25E025E02427
:10185600D0F582E43401F583127024EB25E024BF31
:10186600F582E43401F5837403F0EB25E024BEF53C
:1018760082E43401F5837403F090062CE0FF2448DB
:10188600F582E43403F5837401F0EF25E025E024C6
:10189600D0F582E43401F583E0FCA3E0FDA3E0FE8D
:1018A600A3E0FFE4FBFA79A078411268E190062CE8
:1018B600E0FB25E025E02467F582E43406F5831293
:1018C600702474502BF582E43403F5837402F0EB34
:1018D60025E024BFF582E43401F583E0FFEB25E043
:1018E60024BEF582E43401F583EFF090062CE0FF88
:1018F60025E024BFF582E43401F583E0640160034A
:10190600021AEF74482FF582E43403F583E060038E
:10191600021AEF90062FF090059EE0FF7E007C03F2
:101926007DE8126D95E4FCFD90062CE075F00CA4A4
:101936002496F582E43400F583C083C08290062F96
:10194600E0D082D08375F00412707A12702490066B
:101956002FE004F0E0B403BF90062CE0FB25E02561
:10196600E024D0F582E43401F583127049000000CA
:101976000074962BF582E43405F583E4F090062C8A
:10198600E0248EF582E43405F583E4F090062EF02B
:1019960090062EE0FFC3940A502790062CE075F0BF
:1019A60014A424EEF582E43404F58375F004EF12F2
:1019B600707A1270490000000090062EE004F08054
:1019C600CF90062CE0FD25E025E0244AF582E4349C
:1019D60001F583E0FEED25E025E02449F582E434B7
:1019E60001F583E07C002400FFEC3EFEE4FD90065A
:1019F6002CE0FB75F00CA4249EF582E43400F583FC
:101A0600127024EB25E025E0244AF582E43401F542
:101A160083E0FEEB25E025E02449F582E43401F578
:101A260083E07C002400FDEC3EFCE4126B0590068E
:101A36002CE0FB25E025E024D0F582E43401F58393
:101A4600127024EB25E025E024D0F582E43401F57C
:101A560083C083C082E0FCA3E0FDA3E0FEA3E0FF19
:101A6600E4FBFA79A078411268E1D082D083127043
:101A76002490062CE0FB25E025E024D0F582E43412
:101A860001F583E0FCA3E0FDA3E0FEA3E0FFEB2568
:101A9600E025E02467F582E43406F583127024908D
:101AA600062CE0FF2496F582E43405F5837401F0F4
:101AB60074502FF582E43403F5837401F074482FD3
:101AC600F582E43403F5837401F0EF25E024BFF5D5
:101AD60082E43401F583E0FF90062CE025E024BE85
:101AE600F582E43401F583EFF090062CE0FF25E063
:101AF60024BFF582E43401F583E06003021CE2743E
:101B0600482FF582E43403F583E06003021CE2907B
:101B1600062FF090059EE0FFE4FCFDFE90062CE00B
:101B260075F00CA42496F582E43400F583C083C0D6
:101B36008290062FE0D082D08375F00412707A125C
:101B4600702490062FE004F0E0B403C790062CE062
:101B5600FB25E025E024D0F582E43401F5831270FC
:101B6600490000000074962BF582E43405F583E401
:101B7600F090062CE0248EF582E43405F583E4F03B
:101B860090062EF090062EE0FFC3940A502790068A
:101B96002CE075F014A424EEF582E43404F5837584
:101BA600F004EF12707A1270490000000090062EC1
:101BB600E004F080CF90062CE0FD25E025E0244AE5
:101BC600F582E43401F583E0FEED25E025E02449C5
:101BD600F582E43401F583E07C002400FFEC3EFE50
:101BE600E4FD90062CE0FB75F00CA4249EF582E43F
:101BF6003400F583127024EB25E025E0244AF582B3
:101C0600E43401F583E0FEEB25E025E02449F58286
:101C1600E43401F583E07C002400FDEC3EFCE41294
:101C26006B0590062CE0FB25E025E024D0F582E448
:101C36003401F583127024EB25E025E024D0F582EB
:101C4600E43401F583C083C082E0FCA3E0FDA3E099
:101C5600FEA3E0FFE4FBFA79A078411268E1D082A6
:101C6600D08312702490062CE0FB25E025E024D0DA
:101C7600F582E43401F583E0FCA3E0FDA3E0FEA3D6
:101C8600E0FFEB25E025E02467F582E43406F583E2
:101C960012702490062CE0FF2496F582E43405F5B4
:101CA600837401F074502FF582E43403F583E4F075
:101CB60074482FF582E43403F5837401F0EF25E0D0
:101CC60024BFF582E43401F583E0FF90062CE0257D
:101CD600E024BEF582E43401F583EFF090062CE0B3
:101CE60004F002004E786DE690A800F0786FE6905A
:101CF600B000F018E690B800F02018030241AAE4FC
:101D060090062EF090062EE0FBC394084003024195
:101D160045EB75F00CA4249EF582E43400F583A30C
:101D2600A3E0FFA3E09001CECFF0A3EFF078A912D5
:101D3600703000000000900641127049000000005B
:101D46009006451270490000000090063D12704949
:101D560000000000E490064EF090064DF090064C10
:101D6600F090064BF090064AF0900649F0EB75F0BD
:101D76000AA490062DF0A3E0FFC3940740030222B5
:101D86009174962FF582E43405F583E4F074502FB0
:101D9600F582E43403F583E06003021E7390062D9A
:101DA600E0FB2459F582E43403F583E0FF7E007CF2
:101DB600037DE8126D95AC06AD07744C2BF582E4F5
:101DC6003400F583E075F064A42DFDEC35F0FC904D
:101DD600062DE02401F582E43400F583E075F00A6F
:101DE600A42DFFE5F03CFE74F82BF582E43400F5F3
:101DF60083E07C002FFDEC3EFCE4126B0578251297
:101E0600701890062DE0FB245AF582E43403F5831E
:101E1600E0FF7E007C037DE8126D95AC06AD07748D
:101E26004D2BF582E43400F583E075F064A42DFDB6
:101E3600EC35F0FC90062DE02402F582E43400F542
:101E460083E075F00AA42DFFE5F03CFE74F92BF54E
:101E560082E43400F583E07C002FFDEC3EFCE412C6
:101E66006B057B007A247974784902238790062EC5
:101E7600E02450F582E43403F583E0640160030254
:101E86001F5B90062DE0FB245BF582E43403F583AB
:101E9600E0FF7E007C037DE8126D95AC06AD07740D
:101EA6004E2BF582E43400F583E075F064A42DFD35
:101EB600EC35F0FC90062DE02403F582E43400F5C1
:101EC60083E075F00AA42DFFE5F03CFE74FA2BF5CD
:101ED60082E43400F583E07C002FFDEC3EFCE41246
:101EE6006B05782D12701890062DE0FB245CF582A8
:101EF600E43403F583E0FF7E007C037DE8126D95F4
:101F0600AC06AD07744F2BF582E43400F583E0751B
:101F1600F064A42DFDEC35F0FC90062DE02404F5CC
:101F260082E43400F583E075F00AA42DFFE5F03C69
:101F3600FE74FB2BF582E43400F583E07C002FFD74
:101F4600EC3EFCE4126B057B007A24797478491226
:101F560069EA02249C90062EE02450F582E43403BC
:101F6600F583E06402600302206D90062DE0FB24F9
:101F76005DF582E43403F583E0FF7E007C037DE8B3
:101F8600126D95AC06AD0774502BF582E43400F55E
:101F960083E075F064A42DFDEC35F0FC90062DE091
:101FA6002405F582E43400F583E075F00AA42DFFDC
:101FB600E5F03CFE74FC2BF582E43400F583E07C0E
:101FC600002FFDEC3EFCE4126B057835127018907C
:101FD600062DE0FB245EF582E43403F583E0FF7E04
:101FE600007C037DE8126D95AC06AD0774512BF5A8
:101FF60082E43400F583E075F064A42DFDEC35F041
:10200600FC90062DE02406F582E43400F583E075A5
:10201600F00AA42DFFE5F03CFE74FD2BF582E434B6
:1020260000F583E07C002FFDEC3EFCE4126B05E43A
:10203600FBFA797A78441269EA78391270189006B0
:102046002EE025E025E02467F582E43406F583E0FA
:10205600FCA3E0FDA3E0FEA3E0FF7835126FBF12FC
:1020660067EC78390224C790062EE02450F582E406
:102076003403F583E06403600302217F90062DE0BC
:10208600FB245FF582E43403F583E0FF7E007C03E6
:102096007DE8126D95AC06AD0774522BF582E434DB
:1020A60000F583E075F064A42DFDEC35F0FC900698
:1020B6002DE02407F582E43400F583E075F00AA4E8
:1020C6002DFFE5F03CFE74FE2BF582E43400F5832B
:1020D600E07C002FFDEC3EFCE4126B05783D1270AF
:1020E6001890062DE0FB2460F582E43403F583E0C6
:1020F600FF7E007C037DE8126D95AC06AD07745338
:102106002BF582E43400F583E075F064A42DFDEC34
:1021160035F0FC90062DE02408F582E43400F583C2
:10212600E075F00AA42DFFE5F03CFE74FF2BF58266
:10213600E43400F583E07C002FFDEC3EFCE4126BFA
:1021460005E4FBFA792078411269EA7841127018A1
:1021560090062EE025E025E02467F582E43406F5B6
:1021660083E0FCA3E0FDA3E0FEA3E0FF783D126F51
:10217600BF1267EC78410224C790062EE02450F582
:1021860082E43403F583E0640460030224DB9006F2
:102196002DE0FB2461F582E43403F583E0FF7E0045
:1021A6007C037DE8126D95AC06AD0774542BF58261
:1021B600E43400F583E075F064A42DFDEC35F0FC05
:1021C60090062DE02409F582E43400F583E075F0ED
:1021D6000AA42DFFE5F03CFE74002BF582E43401E1
:1021E600F583E07C002FFDEC3EFCE4126B057845A0
:1021F60012701890062DE0FB2462F582E43403F594
:1022060083E0FF7E007C037DE8126D95AC06AD078A
:1022160074552BF582E43400F583E075F064A42D43
:10222600FDEC35F0FC90062DE0240AF582E434003E
:10223600F583E075F00AA42DFFE5F03CFE74012B52
:10224600F582E43401F583E07C002FFDEC3EFCE4EE
:10225600126B05E4FBFA792078411268E17849129D
:10226600701890062EE025E025E02467F582E43418
:1022760006F583E0FCA3E0FDA3E0FEA3E0FF7845BE
:10228600126FBF1267EC78490224C790062EE0FF52
:10229600640760030224DB74962FF582E43405F5A7
:1022A60083E4F074502FF582E43403F583E064038D
:1022B60060030223B890062DE0FB2459F582E4342E
:1022C60003F583E0FF7E007C037DE8126D95AC0686
:1022D600AD07744C2BF582E43400F583E075F064A9
:1022E600A42DFDEC35F0FC90062DE02401F582E4EA
:1022F6003400F583E075F00AA42DFFE5F03CFE748A
:10230600F82BF582E43400F583E07C002FFDEC3EEB
:10231600FCE4126B05782512701890062DE0FB245C
:102326005AF582E43403F583E0FF7E007C037DE802
:10233600126D95AC06AD07744D2BF582E43400F5AD
:1023460083E075F064A42DFDEC35F0FC90062DE0DD
:102356002402F582E43400F583E075F00AA42DFF2B
:10236600E5F03CFE74F92BF582E43400F583E07C5D
:10237600002FFDEC3EFCE4126B05E4FBFA792078B5
:10238600411269EA782912701890062EE025E02598
:10239600E02467F582E43406F583E0FCA3E0FDA3C0
:1023A600E0FEA3E0FF7825126FBF1267EC782902E2
:1023B60024C790062EE02450F582E43403F583E02A
:1023C600640460030224DB90062DE0FB245BF582A7
:1023D600E43403F583E0FF7E007C037DE8126D950F
:1023E600AC06AD07744E2BF582E43400F583E07538
:1023F600F064A42DFDEC35F0FC90062DE02403F5E9
:1024060082E43400F583E075F00AA42DFFE5F03C84
:10241600FE74FA2BF582E43400F583E07C002FFD90
:10242600EC3EFCE4126B05782D12701890062DE038
:10243600FB245CF582E43403F583E0FF7E007C0335
:102446007DE8126D95AC06AD07744F2BF582E4342A
:1024560000F583E075F064A42DFDEC35F0FC9006E4
:102466002DE02404F582E43400F583E075F00AA437
:102476002DFFE5F03CFE74FB2BF582E43400F5837A
:10248600E07C002FFDEC3EFCE4126B05E4FBFA79E0
:102496002078411268E1783112701890062EE025F6
:1024A600E025E02467F582E43406F583E0FCA3E04A
:1024B600FDA3E0FEA3E0FF782D126FBF1267EC7854
:1024C60031126FBF1268E190062EE025E025E02468
:1024D6004DF812701890062EE025E025E0244DF800
:1024E600126FA3E4FBFAF9F8126A8760144012909F
:1024F600062EE025E025E0244DF81270300000009D
:102506000090062EE0FF2450F582E43403F583E0C4
:1025160060030226D9748E2FF582E43405F583E034
:10252600FB702490062EE0FA25E025E0244DF812F3
:102536006FA375F030EAA424F8F582E5F03401F5CE
:10254600831270240226A7EB70030226A79006309A
:10255600740BF090062EE075F030A424F4F582E5B5
:10256600F03401F583C083C082900630E0D082D07B
:102576008375F00412707AE0FCA3E0FDA3E0FEA3ED
:10258600E0FF90062EE075F030A424F8F582E5F021
:102596003401F583C083C082900630E0D082D083B8
:1025A60075F00412707A127024900630E014F0E090
:1025B60070A190062EE0FB25E025E0244DF8126F71
:1025C600A375F030EBA424F8F582E5F03401F58329
:1025D60012702490062EE0FB25E025E0244DF8122B
:1025E600703000000000748E2BF582E43405F5830C
:1025F600E02401FFE433FE7B007A0079751274B1A2
:10260600E4900630F090062EE0FF248EF582E43446
:1026160005F583E02401FDE433FC900630E0C39D1C
:10262600EC6480F87480985078EF25E025E0244D1E
:10263600F8C000126FA3C004C005C006C00790060C
:102646002EE075F030A424F8F582E5F03401F58328
:10265600C083C082900630E0FFD082D08375F0043C
:1026660012707AE0F8A3E0F9A3E0FAA3E0FBC00059
:10267600EF25E025E02475F8126FA3D0001268E17B
:10268600A804A905AA06AB07D007D006D005D00432
:102696001267F0D000127018900630E004F002269F
:1026A6000B90062EE0FF248EF582E43405F583E0D8
:1026B60004F0748E2FF582E43405F583E0640C7023
:1026C6007890062EE0248EF582E43405F583740BAB
:1026D600F0806690062EE0FF2450F582E43403F580
:1026E60083E06055748E2FF582E43405F583E4F0BB
:1026F600900630F090062EE075F030A424F8F582AE
:10270600E5F03401F583C083C082900630E0FBD04B
:1027160082D08375F00412707A12704900000000AE
:10272600EB25E025E02475F81270300000000090DB
:102736000630E004F0E0B40CBB90062EE025E02560
:10274600E0244DF8126FA3E4FBFAF9F8126A8760E9
:102756000D400B78A912703000000000804C9006E6
:102766002EE025E025E0244DF8126FA3E4FBFAF9EC
:10277600F8126A876005400302285890062EE02565
:10278600E025E0244DF8126FA3E4FBFA797A784449
:10279600126A87601E401C90062EE025E025E02484
:1027A6004DF8126FA378A91270189001467401F0C3
:1027B60002285890062EE025E025E0244DF8126FF9
:1027C600A3E4FBFA797A7844126A87600250429051
:1027D600062EE025E025E0244DF8126FA37B007A53
:1027E6002479747849126A876027402590062EE07E
:1027F60025E025E0244DF8126FA3E4FBFA797A78F8
:10280600441269EA78A91270189001467402F080A1
:102816004190062EE025E025E0244DF8126FA37BBB
:10282600007A2479747849126A87600250249006E7
:102836002EE025E025E0244DF8126FA37B007A24D4
:10284600797478491269EA78A91270189001467469
:1028560003F090062EE025E025E0244DF8126FA344
:10286600E4FBFAF9F8126A87603D403B90062EE0D9
:10287600FF25E025E024A3F582E43405F5837430D2
:10288600F0EF25E025E024A4F582E43405F5837411
:1028960030F0EF25E025E024A5F582E43405F58344
:1028A6007430F0EF02298590062EE025E025E0241D
:1028B6004DF8126FA3E4FBFAF9F8126A8760054037
:1028C600030231EE90062EE025E025E0244DF812B5
:1028D6006FA3E4FBFA7980783F126A87600250039F
:1028E60002299890062EE025E025E0244DF8126F87
:1028F600A3E4FBFA797A78441268E178A512701895
:1029060078A5126FA3126B3EAB07AA067C007D6406
:10291600126DFCEF2430FF90062EE025E025E02422
:10292600A3F582E43405F583EFF07C007D64AF0304
:10293600AE02126DFCAA04AB057D0A7C00AF03AEA5
:1029460002126DFCEF2430FF90062EE025E025E014
:1029560024A4F582E43405F583EFF07D0A7C00AF0C
:1029660003AE02126DFCED2430FF90062EE0FE252C
:10297600E025E024A5F582E43405F583EFF0EE25A5
:10298600E025E024A6F582E43405F5837430F002F0
:1029960031EE90062EE025E025E0244DF8126FA3D7
:1029A600E4FBFA7980783F126A8760054003022AC1
:1029B6008590062EE025E025E0244DF8126FA3E46D
:1029C600FBFA79207841126A8760025003022A8551
:1029D60090062EE025E025E0244DF8126FA3E4FBD7
:1029E600FA79C878421268E178A512701878A512AB
:1029F6006FA3126B3EAB07AA067C007D64126DFCCA
:102A0600EF2430FF90062EE025E025E024A3F58292
:102A1600E43405F583EFF07C007D64AF03AE02126B
:102A26006DFCAA04AB057D0A7C00AF03AE02126DF5
:102A3600FCEF2430FF90062EE025E025E024A4F5E7
:102A460082E43405F583EFF07D0A7C00AF03AE0225
:102A5600126DFCED2430FF90062EE0FE25E025E009
:102A660024A5F582E43405F583EFF0EE25E025E0B4
:102A760024A6F582E43405F5837431F00231EE9034
:102A8600062EE025E025E0244DF8126FA3E4FBFABC
:102A960079207841126A8760054003022B729006FE
:102AA6002EE025E025E0244DF8126FA3E4FBFA7929
:102AB600C87842126A8760025003022B7290062E73
:102AC600E025E025E0244DF8126FA3E4FBFA792017
:102AD60078411268E178A512701878A5126FA312D2
:102AE6006B3EAB07AA067C007D64126DFCEF2430BA
:102AF600FF90062EE025E025E024A3F582E43405C8
:102B0600F583EFF07C007D64AF03AE02126DFCAA84
:102B160004AB057D0A7C00AF03AE02126DFCEF2408
:102B260030FF90062EE025E025E024A4F582E4346B
:102B360005F583EFF07D0A7C00AF03AE02126DFC53
:102B4600ED2430FF90062EE0FE25E025E024A5F5D5
:102B560082E43405F583EFF0EE25E025E024A6F5C2
:102B660082E43405F5837432F00231EE90062EE0ED
:102B760025E025E0244DF8126FA3E4FBFA79C87826
:102B860042126A8760054003022C5590062EE02506
:102B9600E025E0244DF8126FA3E4FBFA797A784435
:102BA600126A8760025003022C5590062EE025E03B
:102BB60025E0244DF8126FA378A512701878A51297
:102BC6006FA3126B3EAB07AA067C007D64126DFCF8
:102BD600EF2430FF90062EE025E025E024A3F582C1
:102BE600E43405F583EFF07C007D64AF03AE02129A
:102BF6006DFCAA04AB057D0A7C00AF03AE02126D24
:102C0600FCEF2430FF90062EE025E025E024A4F515
:102C160082E43405F583EFF07D0A7C00AF03AE0253
:102C2600126DFCED2430FF90062EE0FE25E025E037
:102C360024A5F582E43405F583EFF0EE25E025E0E2
:102C460024A6F582E43405F5837433F00231EE9060
:102C5600062EE025E025E0244DF8126FA3E4FBFAEA
:102C6600797A7844126A8760054003022D439006FC
:102C76002EE025E025E0244DF8126FA37B007A4074
:102C8600791C7846126A8760025003022D4390062B
:102C96002EE025E025E0244DF8126FA3E4FBFA7937
:102CA6002078411269EA78A512701878A5126FA3E8
:102CB600126B3EAB07AA067C007D64126DFCEF2406
:102CC60030FF90062EE025E025E024A3F582E434CB
:102CD60005F583EFF07C007D64AF03AE02126DFC58
:102CE600AA04AB057D0A7C00AF03AE02126DFCEFB1
:102CF6002430FF90062EE025E025E024A4F582E4AA
:102D06003405F583EFF07D0A7C00AF03AE02126D49
:102D1600FCED2430FF90062EE0FE25E025E024A5FC
:102D2600F582E43405F583EFF0EE25E025E024A6F0
:102D3600F582E43405F5837434F00231EE90062E04
:102D4600E025E025E0244DF8126FA37B007A407958
:102D56001C7846126A8760054003022E3290062EC2
:102D6600E025E025E0244DF8126FA37B007A507928
:102D7600C37847126A8760025003022E3290062EED
:102D8600E025E025E0244DF8126FA3E4FBFA79C8AC
:102D960078421269EA78A512701878A5126FA31204
:102DA6006B3EAB07AA067C007D64126DFCEF2430F7
:102DB600FF90062EE025E025E024A3F582E4340505
:102DC600F583EFF07C007D64AF03AE02126DFCAAC2
:102DD60004AB057D0A7C00AF03AE02126DFCEF2446
:102DE60030FF90062EE025E025E024A4F582E434A9
:102DF60005F583EFF07D0A7C00AF03AE02126DFC91
:102E0600ED2430FF90062EE0FE25E025E024A5F512
:102E160082E43405F583EFF0EE25E025E024A6F5FF
:102E260082E43405F5837435F00231EE90062EE027
:102E360025E025E0244DF8126FA37B007A5079C374
:102E46007847126A8760054003022F2190062EE01C
:102E560025E025E0244DF8126FA37B007A247974CF
:102E66007849126A8760025003022F2190062EE0ED
:102E760025E025E0244DF8126FA3E4FBFA797A7871
:102E8600441269EA78A512701878A5126FA3126B1E
:102E96003EAB07AA067C007D64126DFCEF2430FF72
:102EA60090062EE025E025E024A3F582E43405F51E
:102EB60083EFF07C007D64AF03AE02126DFCAA04C2
:102EC600AB057D0A7C00AF03AE02126DFCEF243029
:102ED600FF90062EE025E025E024A4F582E43405E3
:102EE600F583EFF07D0A7C00AF03AE02126DFCEDB8
:102EF6002430FF90062EE0FE25E025E024A5F5828D
:102F0600E43405F583EFF0EE25E025E024A6F5820E
:102F1600E43405F5837436F00231EE90062EE02592
:102F2600E025E0244DF8126FA37B007A24797478AB
:102F360049126A876005400302301190062EE0258B
:102F4600E025E0244DF8126FA37B807A96791878F5
:102F56004B126A876002500302301190062EE0255C
:102F6600E025E0244DF8126FA37B007A40791C78A7
:102F7600461269EA78A512701878A5126FA3126B2B
:102F86003EAB07AA067C007D64126DFCEF2430FF81
:102F960090062EE025E025E024A3F582E43405F52D
:102FA60083EFF07C007D64AF03AE02126DFCAA04D1
:102FB600AB057D0A7C00AF03AE02126DFCEF243038
:102FC600FF90062EE025E025E024A4F582E43405F2
:102FD600F583EFF07D0A7C00AF03AE02126DFCEDC7
:102FE6002430FF90062EE0FE25E025E024A5F5829C
:102FF600E43405F583EFF0EE25E025E024A6F5821E
:10300600E43405F5837437F00231EE90062EE025A0
:10301600E025E0244DF8126FA37B807A9679187824
:103026004B126A876005400302310190062EE025A7
:10303600E025E0244DF8126FA37B207ABC79BE7898
:103046004C126A876002500302310190062EE02579
:10305600E025E0244DF8126FA37B007A5079C378FF
:10306600471269EA78A512701878A5126FA3126B39
:103076003EAB07AA067C007D64126DFCEF2430FF90
:1030860090062EE025E025E024A3F582E43405F53C
:1030960083EFF07C007D64AF03AE02126DFCAA04E0
:1030A600AB057D0A7C00AF03AE02126DFCEF243047
:1030B600FF90062EE025E025E024A4F582E4340501
:1030C600F583EFF07D0A7C00AF03AE02126DFCEDD6
:1030D6002430FF90062EE0FE25E025E024A5F582AB
:1030E600E43405F583EFF0EE25E025E024A6F5822D
:1030F600E43405F5837438F00231EE90062EE025AF
:10310600E025E0244DF8126FA37B207ABC79BE78C7
:103116004C126A87600540030231EE90062EE025C8
:10312600E025E0244DF8126FA37B287A6B796E7840
:103136004E126A87600250030231EE90062EE02599
:10314600E025E0244DF8126FA37B007A2479747889
:10315600491269EA78A512701878A5126FA3126B46
:103166003EAB07AA067C007D64126DFCEF2430FF9F
:1031760090062EE025E025E024A3F582E43405F54B
:1031860083EFF07C007D64AF03AE02126DFCAA04EF
:10319600AB057D0A7C00AF03AE02126DFCEF243056
:1031A600FF90062EE025E025E024A4F582E4340510
:1031B600F583EFF07D0A7C00AF03AE02126DFCEDE5
:1031C6002430FF90062EE0FE25E025E024A5F582BA
:1031D600E43405F583EFF0EE25E025E024A6F5823C
:1031E600E43405F5837439F090064EE0D394094033
:1031F6000302353C90064DE09409400302353C90AD
:10320600064CE09409400302353C90064BE09409D5
:10321600400302353C90064AE09409400302353CDF
:10322600900649E09409400302353C78A9126FA341
:10323600126B3EAB07AA067C007D64126DFC9006FD
:103246004EEFF07C007D64AF03AE02126DFCAA0463
:10325600AB057D0A7C00AF03AE02126DFC90064DF5
:10326600EFF07D0A7C00AF03AE02126DFC90064CB7
:10327600EDF078A9126FA3126B3EAD07AC06EC1207
:103286006B05C004C005C006C00778A9126FA3D09D
:1032960003D002D001D0001267ECE4FBFA797A7809
:1032A600441268E1126B3E900631127024E47B648E
:1032B600FAF9F8900631E0FCA3E0FDA3E0FEA3E0F6
:1032C600FF126E8490064BEFF0E47B64FAF9F890F7
:1032D6000631E0FCA3E0FDA3E0FEA3E0FF126E844E
:1032E600AC00AD01AE02AF03E47B0AFAF9F8126E48
:1032F6008490064AEFF0E47B64FAF9F8900631E030
:10330600FCA3E0FDA3E0FEA3E0FF126E84AC00ADDB
:1033160001AE02AF03E47B0AFAF9F8126E84900656
:1033260049EBF0900146E0640160030233D3900656
:103336004DE075F00AA4FDACF0A3E075F064A42D91
:10334600FFE5F03CFE90064CE07C002FFDEC3EFCD9
:10335600126B05C004C005C006C00790064BE0FC12
:10336600E4126B0A7BCD7ACC79CC783D1268E1D039
:1033760003D002D001D0001267F0C004C005C00619
:10338600C00790064AE0FCE4126B0A7B0A7AD779FA
:1033960023783C1268E1D003D002D001D000126736
:1033A600F0C004C005C006C007900649E0FCE41260
:1033B6006B0A7B6F7A127983783A1268E1D003D070
:1033C60002D001D0001267F078AD12701890014655
:1033D600E06402600302348790064DE075F00AA4AB
:1033E600FDACF0A3E075F064A42DFFE5F03CFE9083
:1033F600064CE07C002FFDEC3EFC126B05C004C0C1
:1034060005C006C00790064BE0FCE4126B0A7BCDB4
:103416007ACC79CC783D1268E1D003D002D001D0C5
:10342600001267F0C004C005C006C00790064AE057
:10343600FCE4126B0A7B0A7AD77923783C1268E19E
:10344600D003D002D001D0001267F0C004C005C07E
:1034560006C007900649E0FCE4126B0A7B6F7A12FD
:103466007983783A1268E1D003D002D001D00012F5
:1034760067F0E4FBFA797A78441268E178AD127065
:1034860018900146E06403600302353C90064DE067
:1034960075F00AA4FDACF0A3E075F064A42DFFE579
:1034A600F03CFE90064CE07C002FFDEC3EFC126BDF
:1034B60005C004C005C006C00790064BE0FCE41238
:1034C6006B0A7BCD7ACC79CC783D1268E1D003D0FB
:1034D60002D001D0001267F0C004C005C006C007C4
:1034E60090064AE0FCE4126B0A7B0A7AD7792378C5
:1034F6003C1268E1D003D002D001D0001267F0C0C0
:1035060004C005C006C007900649E0FCE4126B0A39
:103516007B6F7A127983783A1268E1D003D002D0B1
:1035260001D0001267F07B007A247974784912681A
:10353600E178AD12701890062EE024A2F582E434EC
:1035460006F583E0FCE4126B0A7BCD7ACC79CC7865
:103556003D1268E1C004C005C006C00790062EE013
:103566002491F582E43406F583E0FCE4126B0AD07C
:1035760003D002D001D0001267F0C004C005C00617
:10358600C00790062EE02499F582E43406F583E020
:10359600FCE4126B0A7B0A7AD77923783C1268E13D
:1035A600D003D002D001D0001267F0900645127009
:1035B6002490062EE024AAF582E43406F583E0FC86
:1035C600E4126B0A9006591270247F007E007D205B
:1035D6007C411282C290063D12702490063DE0FCAA
:1035E600A3E0FDA3E0FEA3E0FF900645E0F8A3E01C
:1035F600F9A3E0FAA3E0FB1268E1900641127024F9
:10360600900641E0FCA3E0FDA3E0FEA3E0FF78AD59
:10361600126FBF126A87403630CD05129BB9500231
:10362600D21C90062EE0FF24A8F582E43401F5832F
:103636007401F074B52FF582E43401F5837401F05A
:1036460090062EE0908F9B93787056F680409006F9
:1036560041E0FCA3E0FDA3E0FEA3E0FF78AD126F1E
:10366600BF126A87502890062EE0FF24A8F582E450
:103676003401F583E4F074B52FF582E43401F58363
:10368600E4F090062EE0908F9393787046F69006BD
:103696002EE0FF24A8F582E43401F583E0600302FE
:1036A6003B7174502FF582E43403F583E06003B474
:1036B600011790062EE075F03AA4240DFDE435F0CE
:1036C600FC7BFF7A8E79EF801590062EE075F03A36
:1036D600A4240DFDE435F0FC7BFF7A8E79F27F0A97
:1036E6007E0012946990062EE0FB75F03AA4240D34
:1036F600FDE435F0FCEB2401FBE433FA7F3C7E006D
:1037060012857390062EE075F03AA4240DFDE4357B
:10371600F0FC7BFF7A8E79F57F5A7E0012946990D1
:10372600064EE0FB700302386E90062EE075F03A06
:10373600A4240DFDE435F0FC7A007F827E0012851C
:103746007390062EE075F03AA4240DFDE435F0FCE6
:1037560090064DE0FB7A007FA07E001285739006EE
:103766002EE075F03AA4240DFDE435F0FC90064CED
:10377600E0FB7A007FBE7E0012857390062EE07510
:10378600F03AA4240DFDE435F0FC7BFF7A8E79F740
:103796007FDC7E0012946990062EE075F03AA42430
:1037A6000DFDE435F0FC90064BE0FB7A007FF07EE1
:1037B6000012857390062EE075F03AA4240DFDE400
:1037C60035F0FC90064AE0FB7A007F0E7E011285FA
:1037D6007390062EE075F03AA4240DFDE435F0FC56
:1037E600900649E0FB7A007F2C7E011285739001DA
:1037F600CEE0FAA3E0FBC3940AEA94005003023A2F
:103806003A9001CEE0FEA3E0FFC3940AEE94004096
:103816000BEF9464EE94005003023A669001CEE0FA
:10382600FEA3E0FFC39464EE9400400BEF94E8EE31
:1038360094035003023A999001CEE0FEA3E0FFC341
:1038460094E8EE9403400BEF9410EE942750030295
:103856003ACC9001CEE0FAA3E0FBC39410EA942799
:103866005003023B0F023AF990064DE0FB7003024B
:10387600399A90062EE075F03AA4240DFDE435F051
:10388600FC7A007FA07E0012857390062EE075F00C
:103896003AA4240DFDE435F0FC90064CE0FB7A00DA
:1038A6007FBE7E0012857390062EE075F03AA42442
:1038B6000DFDE435F0FC7BFF7A8E79F77FDC7E0028
:1038C60012946990062EE075F03AA4240DFDE435B5
:1038D600F0FC90064BE0FB7A007FF07E00128573C9
:1038E60090062EE075F03AA4240DFDE435F0FC9028
:1038F600064AE0FB7A007F0E7E0112857390062E43
:10390600E075F03AA4240DFDE435F0FC900649E09C
:10391600FB7A007F2C7E011285739001CEE0FAA31C
:10392600E0FBC3940AEA94005003023A3A9001CEAF
:10393600E0FEA3E0FFC3940AEE9400400BEF94640C
:10394600EE94005003023A669001CEE0FEA3E0FF3B
:10395600C39464EE9400400BEF94E8EE9403500396
:10396600023A999001CEE0FEA3E0FFC394E8EE94FC
:1039760003400BEF9410EE94275003023ACC9001CB
:10398600CEE0FAA3E0FBC39410EA94275003023B6F
:103996000F023AF990062EE075F03AA4240DFDE4E4
:1039A60035F0FC90064CE0FB7A007FBE7E00128567
:1039B6007390062EE075F03AA4240DFDE435F0FC74
:1039C6007BFF7A8E79F77FDC7E0012946990062E53
:1039D600E075F03AA4240DFDE435F0FC90064BE0CA
:1039E600FB7A007FF07E0012857390062EE075F05C
:1039F6003AA4240DFDE435F0FC90064AE0FB7A007B
:103A06007F0E7E0112857390062EE075F03AA4248F
:103A16000DFDE435F0FC900649E0FB7A007F2C7E34
:103A2600011285739001CEE0FAA3E0FBC3940AEA83
:103A36009400501490062EE075F03AA4240DFDE48F
:103A460035F0FC7F40023AE59001CEE0FEA3E0FFB0
:103A5600C3940AEE94004023EF9464EE9400501B46
:103A660090062EE075F03AA4240DFDE435F0FC90A6
:103A760001CEE0FAA3E0FB7F2C80649001CEE0FE4D
:103A8600A3E0FFC39464EE94004023EF94E8EE9421
:103A960003501B90062EE075F03AA4240DFDE43584
:103AA600F0FC9001CEE0FAA3E0FB7F188031900194
:103AB600CEE0FEA3E0FFC394E8EE94034025EF9426
:103AC60010EE9427501D90062EE075F03AA4240DB2
:103AD600FDE435F0FC9001CEE0FAA3E0FB7F047E26
:103AE6000280239001CEE0FAA3E0FBC39410EA948F
:103AF60027401690062EE075F03AA4240DFDE43515
:103B0600F0FC7FF07E01128573900146E0B4011748
:103B160090062EE075F03AA4240DFDE435F0FC7B0A
:103B2600FF7A8E79F9803A900146E0B40217900642
:103B36002EE075F03AA4240DFDE435F0FC7BFF7A07
:103B46008E79FF801C900146E0B4031C90062EE09F
:103B560075F03AA4240DFDE435F0FC7BFF7A8F79ED
:103B6600057F547E01129469129C8990062EE0FF0F
:103B760024A8F582E43401F583E064016003024081
:103B86008974502FF582E43403F583E06004640100
:103B9600703390062EE075F03AA4240DFDE435F05E
:103BA600FC7BFF7A8F790A7F077E001295139006B9
:103BB6002EE075F03AA4240DFDE435F0FC7BFF7A87
:103BC6008F790D803190062EE075F03AA4240DFD14
:103BD600E435F0FC7BFF7A8F790A7F077E00129529
:103BE6001390062EE075F03AA4240DFDE435F0FCA2
:103BF6007BFF7A8F79287F0A7E0012951390062E16
:103C0600E0FB75F03AA4240DFDE435F0FCEB24014D
:103C1600FBE433FA7F3C7E0012842890062EE07582
:103C2600F03AA4240DFDE435F0FC7BFF7A8E79F59D
:103C36007F5A7E0012951390064EE0FB7003023DFC
:103C46008690062EE075F03AA4240DFDE435F0FCCE
:103C56007A007F827E0012842890062EE075F03A64
:103C6600A4240DFDE435F0FC90064DE0FB7A007FC0
:103C7600A07E0012842890062EE075F03AA4240D4A
:103C8600FDE435F0FC90064CE0FB7A007FBE7E003A
:103C960012842890062EE075F03AA4240DFDE43532
:103CA600F0FC7BFF7A8E79F77FDC7E00129513900D
:103CB600062EE075F03AA4240DFDE435F0FC9006DE
:103CC6004BE0FB7A007FF07E0012842890062EE0FF
:103CD60075F03AA4240DFDE435F0FC90064AE0FBAD
:103CE6007A007F0E7E0112842890062EE075F03A47
:103CF600A4240DFDE435F0FC900649E0FB7A007F34
:103D06002C7E011284289001CEE0FAA3E0FBC39436
:103D16000AEA94005003023F529001CEE0FEA3E06F
:103D2600FFC3940AEE9400400BEF9464EE940050A7
:103D360003023F7E9001CEE0FEA3E0FFC39464EE53
:103D46009400400BEF94E8EE94035003023FB190C9
:103D560001CEE0FEA3E0FFC394E8EE9403400BEF30
:103D66009410EE94275003023FE49001CEE0FAA3AC
:103D7600E0FBC39410EA9427500302402702401147
:103D860090064DE0FB7003023EB290062EE075F001
:103D96003AA4240DFDE435F0FC7A007FA07E0012E3
:103DA600842890062EE075F03AA4240DFDE435F043
:103DB600FC90064CE0FB7A007FBE7E0012842890C1
:103DC600062EE075F03AA4240DFDE435F0FC7BFFE9
:103DD6007A8E79F77FDC7E0012951390062EE075B9
:103DE600F03AA4240DFDE435F0FC90064BE0FB7A96
:103DF600007FF07E0012842890062EE075F03AA42B
:103E0600240DFDE435F0FC90064AE0FB7A007F0EB7
:103E16007E0112842890062EE075F03AA4240DFD4A
:103E2600E435F0FC900649E0FB7A007F2C7E011217
:103E360084289001CEE0FAA3E0FBC3940AEA94003A
:103E46005003023F529001CEE0FEA3E0FFC3940A66
:103E5600EE9400400BEF9464EE94005003023F7E14
:103E66009001CEE0FEA3E0FFC39464EE9400400B05
:103E7600EF94E8EE94035003023FB19001CEE0FECA
:103E8600A3E0FFC394E8EE9403400BEF9410EE9486
:103E9600275003023FE49001CEE0FAA3E0FBC3946F
:103EA60010EA9427500302402702401190062EE0A4
:103EB60075F03AA4240DFDE435F0FC90064CE0FBC9
:103EC6007A007FBE7E0012842890062EE075F03AB6
:103ED600A4240DFDE435F0FC7BFF7A8E79F77FDCB8
:103EE6007E0012951390062EE075F03AA4240DFD7F
:103EF600E435F0FC90064BE0FB7A007FF07E001282
:103F0600842890062EE075F03AA4240DFDE435F0E1
:103F1600FC90064AE0FB7A007F0E7E011284289010
:103F2600062EE075F03AA4240DFDE435F0FC90066B
:103F360049E0FB7A007F2C7E011284289001CEE0B6
:103F4600FAA3E0FBC3940AEA9400501490062EE00C
:103F560075F03AA4240DFDE435F0FC7F40023FFDE8
:103F66009001CEE0FEA3E0FFC3940AEE9400402346
:103F7600EF9464EE9400501B90062EE075F03AA480
:103F8600240DFDE435F0FC9001CEE0FAA3E0FB7FC2
:103F96002C80649001CEE0FEA3E0FFC39464EE940F
:103FA600004023EF94E8EE9403501B90062EE07534
:103FB600F03AA4240DFDE435F0FC9001CEE0FAA31E
:103FC600E0FB7F1880319001CEE0FEA3E0FFC394B2
:103FD600E8EE94034025EF9410EE9427501D9006CA
:103FE6002EE075F03AA4240DFDE435F0FC9001CEE8
:103FF600E0FAA3E0FB7F047E0280239001CEE0FA84
:10400600A3E0FBC39410EA9427401690062EE075B1
:10401600F03AA4240DFDE435F0FC7FF07E01128415
:1040260028900146E0B4011790062EE075F03AA4F8
:10403600240DFDE435F0FC7BFF7A8E79F9803A9009
:104046000146E0B4021790062EE075F03AA4240D5E
:10405600FDE435F0FC7BFF7A8E79FF801C900146EB
:10406600E0B4031C90062EE075F03AA4240DFDE49E
:1040760035F0FC7BFF7A8F79057F547E011295130C
:10408600129C8990064EE0FF90062EE0FE75F00821
:10409600A42467F582E43401F583EFF090064DE041
:1040A600FFEE75F008A42468F582E43401F583EF89
:1040B600F090064CE0FFEE75F008A42469F582E462
:1040C6003401F583EFF090064BE0FFEE75F008A49F
:1040D600246AF582E43401F583EFF090064AE0FFA6
:1040E600EE75F008A4246BF582E43401F583EFF055
:1040F600900649E0FFEE75F008A4246CF582E434DE
:1041060001F583EFF0900146E0FFEE75F008A42478
:104116006DF582E43401F583EFF074A82EF582E4A0
:104126003401F583E0FFEE75F008A4246EF582E411
:104136003401F583EFF090062EE004F0021D0AE448
:1041460090062EF090062EE0FFC39408503874A80F
:104156002FF582E43401F583E09005DF600FE0FF80
:1041660090062EE0908F9393FEEF4E800DE0FF9029
:10417600062EE0908F9B93FEEF5E9005DFF0900693
:104186002EE004F080BED2239005E2E004F0E0B415
:10419600FF037408F09005E2E0D394044003D212C2
:1041A60022C21222E47873F608F67871F608F678D9
:1041B600B11270300000000078B5127030000000B7
:1041C6000078B912703000000000E4900654F090B8
:1041D6000653F0900652F0900651F0900650F0907B
:1041E600064FF090064EF090064DF090064CF0907B
:1041F600064BF090064AF0900649F09001BDE0FDAE
:1042060075F00AA424F990062EF0ED25E025E024A9
:1042160046F582E43401F583E0FE9001BDE025E039
:1042260025E02445F582E43401F583E07C00240092
:104236007874F6EC3E18F6E6FE08E6FF7D0C126D85
:1042460095AC06AD07E4126B0578B11270189001B3
:10425600BDE0FD25E025E02448F582E43401F58340
:10426600E0FEED25E025E02447F582E43401F58300
:10427600E07C0024007872F6EC3E18F690062EE0FC
:10428600FB2458F582E43403F583E0FF7E007C03CB
:104296007DE8126D95AC06AD07744B2BF582E434C0
:1042A60000F583E075F064A42DFDEC35F0FC900676
:1042B6002EE02400F582E43400F583E075F00AA4CC
:1042C6002DFFE5F03CFE74F72BF582E43400F58310
:1042D600E07C002FFDEC3EFCE4126B0578251270A5
:1042E6001890062EE0FB2459F582E43403F583E0AA
:1042F600FF7E007C037DE8126D95AC06AD07744C1D
:104306002BF582E43400F583E075F064A42DFDEC12
:1043160035F0FC90062EE02401F582E43400F583A6
:10432600E075F00AA42DFFE5F03CFE74F82BF5824B
:10433600E43400F583E07C002FFDEC3EFCE4126BD8
:10434600057B007A24797478491269EA7829127013
:10435600187825126FBFC00078B1126FA3D0001273
:1043660067EC7829126FBF1268E19001B0127024D1
:10437600E4FFFEFDFC9001B0E0F8A3E0F9A3E0FA4B
:10438600A3E0FB126A87500A9001B0127049000040
:1043960000009001B0E0FCA3E0FDA3E0FEA3E0FF77
:1043A60078B5127018900654E0D39409400302447D
:1043B600E6900653E0940940030244E6900652E074
:1043C600940940030244E6900651E0940940030232
:1043D60044E6900650E0940940030244E690064FF6
:1043E600E0940940030244E678B5126FA3126B3ECF
:1043F600AB07AA067C007D64126DFC900654EFF0B4
:104406007C007D64AF03AE02126DFCAA04AB057D91
:104416000A7C00AF03AE02126DFC900653EFF07DEE
:104426000A7C00AF03AE02126DFC900652EDF078E6
:10443600B5126FA3126B3EAD07AC06EC126B05C04E
:1044460004C005C006C00778B5126FA3D003D0021A
:10445600D001D0001267ECE4FBFA797A784412684E
:10446600E1126B3E900635127024E47B64FAF9F88B
:10447600900635E0FCA3E0FDA3E0FEA3E0FF126E8C
:1044860084900651EFF0E47B64FAF9F8900635E083
:10449600FCA3E0FDA3E0FEA3E0FF126E84AC00AD3A
:1044A60001AE02AF03E47B0AFAF9F8126E849006B5
:1044B60050EFF0E47B64FAF9F8900635E0FCA3E0EF
:1044C600FDA3E0FEA3E0FF126E84AC00AD01AE02D8
:1044D600AF03E47B0AFAF9F8126E8490064FEBF00C
:1044E60090062EE0FB245AF582E43403F583E0FFC0
:1044F6007E007C037DE8126D95AC06AD07744D2BEE
:10450600F582E43400F583E075F064A42DFDEC3506
:10451600F0FC90062EE02402F582E43400F583E0F8
:1045260075F00AA42DFFE5F03CFE74F92BF582E444
:104536003400F583E07C002FFDEC3EFCE4126B05B5
:10454600782D12701890062EE0FB245BF582E43479
:1045560003F583E0FF7E007C037DE8126D95AC06D3
:10456600AD07744E2BF582E43400F583E075F064F4
:10457600A42DFDEC35F0FC90062EE02403F582E434
:104586003400F583E075F00AA42DFFE5F03CFE74D7
:10459600FA2BF582E43400F583E07C002FFDEC3E37
:1045A600FCE4126B05E4FBFA797A78441269EA783E
:1045B600311270187871E6FC08E6FDE4126B057896
:1045C6002D126FBF1267EC7831126FBF1268E1903F
:1045D6000142127024E4FFFEFDFC900142E0F8A3C4
:1045E600E0F9A3E0FAA3E0FB126A87500A900142C1
:1045F60012704900000000E4FBFA797A78449001D1
:1046060042E0FCA3E0FDA3E0FEA3E0FF1269EA7826
:10461600B912701890064EE0D3940940030247552C
:1046260090064DE09409400302475590064CE094ED
:1046360009400302475590064BE0940940030247A0
:104646005590064AE094094003024755900649E012
:104656009409400302475578B9126FA3126B3EAB1B
:1046660007AA067C007D64126DFC90064EEFF07C76
:10467600007D64AF03AE02126DFCAA04AB057D0A91
:104686007C00AF03AE02126DFC90064DEFF07D0A82
:104696007C00AF03AE02126DFC90064CEDF078B9CB
:1046A600126FA3126B3EAD07AC06EC126B05C0048D
:1046B600C005C006C00778B9126FA3D003D002D0D8
:1046C60001D0001267ECE4FBFA797A78441268E1CB
:1046D600126B3E900639127024E47B64FAF9F89066
:1046E6000639E0FCA3E0FDA3E0FEA3E0FF126E8422
:1046F60090064BEFF0E47B64FAF9F8900639E0FC9B
:10470600A3E0FDA3E0FEA3E0FF126E84AC00AD01C2
:10471600AE02AF03E47B0AFAF9F8126E8490064AF9
:10472600EFF0E47B64FAF9F8900639E0FCA3E0FDCB
:10473600A3E0FEA3E0FF126E84AC00AD01AE02AFB3
:1047460003E47B0AFAF9F8126E84900649EBF07BD3
:10475600FF7A8F79437D3A7C007FC87E0012946988
:104766009001BDE0FB7A007D3A7C007F907E0112CD
:1047760085737BFF7A8F794C7D747C007F0A7E007F
:104786001294697BFF7A8E79F57D747C007FA07E1A
:10479600001294697BFF7A8E79F97DAE7C007FDC0E
:1047A6007E001294697BFF7A8F79537DAE7C007F01
:1047B600087E021294697BFF7A8F79577D227C01ED
:1047C6007F0A7E001294697BFF7A8E79F57D227CC2
:1047D600017FA07E001294697BFF7A8E79FF7D5C53
:1047E6007C017FDC7E001294697BFF7A8F795E7D87
:1047F6005C7C017F087E02129469900654E0700387
:104806000248F7FB7A007DAE7C007F0A7E001285A7
:1048160073900653E0FB7A007DAE7C007F287E0015
:10482600128573900652E0FB7A007DAE7C007F46CF
:104836007E001285737BFF7A8E79F77DAE7C007FD2
:10484600647E00129469900651E0FB7A007DAE7C8E
:10485600007F827E00128573900650E0FB7A007D11
:10486600AE7C007FA07E0012857390064FE0FB7A37
:10487600007DAE7C007FBE7E001285737873E6FAFB
:1048860008E6FBC3940AEA94005003024A4478738C
:10489600E6FE08E6FFC3940AEE9400400BEF94642C
:1048A600EE94005003024A647873E6FE08E6FFC3FE
:1048B6009464EE9400400BEF94E8EE9403500302E8
:1048C6004A897873E6FE08E6FFC394E8EE9403404F
:1048D6000BEF9410EE94275003024AAE7873E6FA73
:1048E60008E6FBC39410EA94275003024AD6024A0C
:1048F600CB900653E070030249DCFB7A007DAE7C68
:10490600007F287E00128573900652E0FB7A007DB8
:10491600AE7C007F467E001285737BFF7A8E79F728
:104926007DAE7C007F647E00129469900651E0FBA8
:104936007A007DAE7C007F827E00128573900650E1
:10494600E0FB7A007DAE7C007FA07E00128573902E
:10495600064FE0FB7A007DAE7C007FBE7E001285AE
:10496600737873E6FA08E6FBC3940AEA94005003E8
:10497600024A447873E6FE08E6FFC3940AEE940002
:10498600400BEF9464EE94005003024A647873E699
:10499600FE08E6FFC39464EE9400400BEF94E8EE45
:1049A60094035003024A897873E6FE08E6FFC3942F
:1049B600E8EE9403400BEF9410EE94275003024A5E
:1049C600AE7873E6FA08E6FBC39410EA9427500320
:1049D600024AD6024ACB900652E0FB7A007DAE7CB4
:1049E600007F467E001285737BFF7A8E79F77DAE57
:1049F6007C007F647E00129469900651E0FB7A0089
:104A06007DAE7C007F827E00128573900650E0FBAF
:104A16007A007DAE7C007FA07E0012857390064FE3
:104A2600E0FB7A007DAE7C007FBE7E001285737847
:104A360073E6FA08E6FBC3940AEA940050097DAED1
:104A46007C007FEA024AD17873E6FE08E6FFC3944B
:104A56000AEE94004016EF9464EE9400500E18E6A9
:104A6600FA08E6FB7DAE7C007FCC805F7873E6FEBD
:104A760008E6FFC39464EE94004016EF94E8EE94C3
:104A860003500E18E6FA08E6FB7DAE7C007FAE808A
:104A96003A7873E6FE08E6FFC394E8EE9403401600
:104AA600EF9410EE9427500E18E6FA08E6FB7DAE5A
:104AB6007C007F9080157873E6FA08E6FBC39410B5
:104AC600EA9427400B7DAE7C007F727E01128573CF
:104AD60090064EE07003024BCDFB7A007D5C7C01B4
:104AE6007F0A7E0012857390064DE0FB7A007D5C9E
:104AF6007C017F287E0012857390064CE0FB7A00CD
:104B06007D5C7C017F467E001285737BFF7A8E7901
:104B1600F77D5C7C017F647E0012946990064BE011
:104B2600FB7A007D5C7C017F827E00128573900695
:104B36004AE0FB7A007D5C7C017FA07E00128573D3
:104B4600900649E0FB7A007D5C7C017FBE7E001208
:104B560085737871E6FA08E6FBC3940AEA94005076
:104B660003024D1A7871E6FE08E6FFC3940AEE9436
:104B760000400BEF9464EE94005003024D3A7871B6
:104B8600E6FE08E6FFC39464EE9400400BEF94E85B
:104B9600EE94035003024D5F7871E6FE08E6FFC30C
:104BA60094E8EE9403400BEF9410EE942750030222
:104BB6004D847871E6FA08E6FBC39410EA94275010
:104BC60003024DAC024DA190064DE07003024CB2BB
:104BD600FB7A007D5C7C017F287E0012857390063F
:104BE6004CE0FB7A007D5C7C017F467E001285737B
:104BF6007BFF7A8E79F77D5C7C017F647E00129460
:104C06006990064BE0FB7A007D5C7C017F827E002A
:104C160012857390064AE0FB7A007D5C7C017FA0DA
:104C26007E00128573900649E0FB7A007D5C7C016C
:104C36007FBE7E001285737871E6FA08E6FBC394A0
:104C46000AEA94005003024D1A7871E6FE08E6FF60
:104C5600C3940AEE9400400BEF9464EE9400500364
:104C6600024D3A7871E6FE08E6FFC39464EE9400BE
:104C7600400BEF94E8EE94035003024D5F7871E623
:104C8600FE08E6FFC394E8EE9403400BEF9410EEA3
:104C960094275003024D847871E6FA08E6FBC39424
:104CA60010EA94275003024DAC024DA190064CE049
:104CB600FB7A007D5C7C017F467E001285737BFF5C
:104CC6007A8E79F77D5C7C017F647E001294699010
:104CD600064BE0FB7A007D5C7C017F827E001285BC
:104CE6007390064AE0FB7A007D5C7C017FA07E0023
:104CF600128573900649E0FB7A007D5C7C017FBEDD
:104D06007E001285737871E6FA08E6FBC3940AEA18
:104D1600940050097D5C7C017FEA024DA77871E61C
:104D2600FE08E6FFC3940AEE94004016EF9464EE84
:104D36009400500E18E6FA08E6FB7D5C7C017FCCF9
:104D4600805F7871E6FE08E6FFC39464EE94004047
:104D560016EF94E8EE9403500E18E6FA08E6FB7D8B
:104D66005C7C017FAE803A7871E6FE08E6FFC3946C
:104D7600E8EE94034016EF9410EE9427500E18E6D2
:104D8600FA08E6FB7D5C7C017F9080157871E6FA77
:104D960008E6FBC39410EA9427400B7D5C7C017FF8
:064DA600727E011285730C
:014DAC0022E4
:109B9A00E4FDFCC3ED9FEC9E50147BC87A00EB1BDE
:0E9BAA0070011AEB4A70F70DBD00010C80E54A
:019BB800228A
:109C8900E4FF7870E690C000F0301C02D2920FEF2A
:039C9900B40AEF1B
:019C9C0022A5
:10992F0074A82FF582E43401F583E0601E74B52F1F
:10993F00F582E43401F583E0B40102800E74B52F93
:10994F00F582E43401F5837401F02274B52FF582AA
:08995F00E43401F583E4F02279
:10987B00E490062CF090062CE0FFC39408502D12B8
:10988B00992F90062CE0FF24A8F582E43401F58390
:10989B00E0FD90062CE024B5F582E43401F583E07D
:0C98AB00FB1299D690062CE004F080C956
:0198B700228E
:1099D600A907ED6017EB6014E9908F9B937870569A
:1099E600F690C000F0301C1DC2928012E9908F9351
:1099F60093787046F690C000F0301C09D2927F64CE
:069A06007E00129B9A2273
:109CD600000000000000000000000000000000007E
:109CB10000C294D295D29400C2950000C2940000D3
:039CC100D2952217
:0D9D0400C294C295D29400D29500C2942260
:1092700078AC7C007D007BFF7A9C79D67E007F08ED
:10928000126D07E478A9F6C294D29408F678AAE69B
:10929000FFC394085015D29400A295E433FE74AC39
:1092A0002FF8A606C29478AA0680E2C294D295D27C
:1092B000940000C294E478ABF678ABE6FFC3940860
:1092C000501D78A9E625E0F674AC2FF8E678A9B42D
:1092D0000106E64401F68002E6F678AB0680DA780D
:0392E000A9E6FFFD
:0192E3002268
:0591F500900632EFF0CE
:1091FA0078AD7C007D007BFF7A9C79DE7E007F085B
:10920A00126D07900632E078A9F6E408F678AAE625
:10921A00FFC39408502618E6FE5480FD78ACF6BDCC
:10922A00800874AD2FF87601800878AAE624ADF894
:10923A00E4F6EE25E078A9F6080680D1D295C29424
:10924A00E478ABF678ABE6FFC39408501374AD2FFD
:10925A00F8E624FF9295D29400C29478AB0680E493
:05926A00D29400C29443
:01926F0022DC
:04964E00AD07AC06B2
:10965200EC78A6F6AE0508A6060408F67F01129B72
:109662002A129CB178A6E6FF1291F500000000785C
:10967200A7E6FF1291F500000000129CB178A8E65F
:10968200FF1291F50000000012927078A5A6070063
:08969200000000129D04E6FF38
:01969A0022AD
:0998B80090062FEDF0AB07AA06A3
:1098C100EA78A5F608A6077F01129B2A129CB178B7
:1098D100A5E6FF1291F50000000078A6E6FF1291BF
:1098E100F50000000090062FE0FF1291F500000046
:0498F10000029D04D0
:109B2A00E478A9F678A9E6C39F501BE408F608F67C
:109B3A0078AB06E61870010678AAB613F308B68859
:069B4A00EF78A90680DEA1
:019B500022F2
:0B93490090062CEBF0A3EAF0A3E9F083
:10935400750AA0750B00E4F508F50990062CE0FBEE
:10936400A3E0FAA3E0F9850982850883126D46FD1E
:10937400AF0BAE0A1298B87F02129B2A050BE50BBD
:109384007002050AB4000BE50AB4A106750AA275B9
:109394000B000509E50970020508C3944BE5089420
:0393A4000140B8CD
:0193A70022A3
:0B93A80090062FEBF0A3EAF0A3E9F021
:1093B300750AA0750B00E4F508F509AF0BAE0A12A8
:1093C300964E90062FE0FBA3E0FAA3E0F98509820D
:1093D300850883EF126D737F02129B2A050BE50B41
:1093E3007002050AB4000BE50AB4A106750AA2755A
:1093F3000B000509E50970020508C3944BE50894C1
:039403000140B86D
:019406002243
:10000E00B4D3BBFABDD3CAD5CED5CAD6C3FCC1EEC6
:05001E00CAA7B0DC00E0
:109AD200301E02801B90D000E0900631F0E070F062
:109AE200E0700DC21EC2159006B8F0A3F07F0122ED
:0C9AF200C21EC215E49006B8F0A3F0FFFD
:019AFE002245
:10916C0090062CEBF0A3EAF0A3E9F0A3ECF0A3ED4E
:01917C00F002
:10917D00129AD2EF604BE4FDFCD3900630E09D9047
:10918D00062FE09C4061129AD2EF605BA2B592244B
:10919D003024F390062CE0FBA3E0FAA3E0F98D82D6
:1091AD008C83126D4690D800F0C2B7129AD2EF6040
:1091BD0036A2B592242024F3D2B70DBD00010C8048
:1091CD00B8129D1190D000E0FB7A007D527C007F9B
:1091DD00647E001285737BFF7A00790E7DB67C006C
:0791ED007F647E001294690B
:0191F4002258
:104DAD0090062CEBF0A3EAF0A3E9F0A3ECF0A3ED51
:014DBD00F005
:104DBE0090D800E4F0D2B6FFFEC222D3900630E0C7
:104DCE009F90062FE09E4050E49006BCF0A3F0307A
:104DDE0021028029A2B492242024F490D000E0FD78
:104DEE0090062CE0FBA3E0FAA3E0F98F828E83ED10
:104DFE00126D73C2B60FBF00010E302110C221C258
:104E0E0022E49006BCF0A3F0C219C21622A2B492FC
:104E1E00243024E6D2B680A3C222E49006BCF0A3CE
:104E2E00F0C22130B303025B267FC8FE129B9A129A
:104E3E007803E4900631F0A3F0900631E0FEA3E093
:104E4E00FFC39407EE94004003025B24EF7803C384
:104E5E0033CE33CED8F924E4F58274053EF583E0E3
:104E6E00FF7E007C007D0A126D95AC06AD07EC123C
:104E7E006B05C004C005C006C007900631E0FEA356
:104E8E00E07803C333CE33CED8F924E3F58274052C
:104E9E003EF583E0FF7E007C007D64126D95AC06CE
:104EAE00AD07EC126B05D003D002D001D000126713
:104EBE00F0C004C005C006C007900631E0FEA3E0B6
:104ECE007803C333CE33CED8F924E5F58274053E8C
:104EDE00F583E0FCE4126B0AD003D002D001D000BF
:104EEE001267F0900633127024900633E0F8A3E0B8
:104EFE00F9A3E0FAA3E0FBC000C001C002C003901A
:104F0E000631E0FEA3E07803C333CE33CED8F924C6
