:0300000002966CF9
:0C966C00787FE4F6D8FD7581780296B393
:1095D300474D00444C003A002E0075006D004700D3
:1095E300202000474D202020202020202020202044
:1095F3002020202020202020202020202000444C38
:109603002020202020202020202020202020202057
:10961300202020202020202000B1EAB6A8CCBDCDF8
:10962300B700B8C7B8EFB9DC007547792F680043B6
:10963300504D00B5E7C0EBCAD2006D47792F6800E3
:1096430043503553003D8000003D8000003E000044
:10965300003E8000003F000000010204081020408B
:0996630080FEFDFBF7EFDFBF7F85
:10827E00E4FFFE79287825E4F608D9FC7908900207
:10828E0008E4F0A3D9FC9083007484F0908200E09F
:10829E00FEC374FF9E900169F0908200E0FFC374EC
:1082AE00FF9F90016AF09083007444F0908100E08B
:1082BE00FEC374FF9E90016BF0908100E0FFC374CB
:1082CE00FF9F90016CF09083007404F0908000E0AA
:1082DE00FEC374FF9E90016DF0908000E0FFC374AA
:1082EE00FF9F90016EF0908B007484F0908A00E0F6
:1082FE00FEC374FF9E90016FF0908A00E0FFC3747E
:10830E00FF9F900170F0908B007444F0908900E014
:10831E00FEC374FF9E900171F0908900E0FFC3745C
:10832E00FF9F900172F0908B007404F0908800E033
:10833E00FEC374FF9E900173F0908800E0FFC3743B
:10834E00FF9F900174F09093007484F0909200E07F
:10835E00FEC374FF9E900175F0909200E0FFC3740F
:10836E00FF9F900176F09093007444F0909100E09E
:10837E00FEC374FF9E900177F0909100E0FFC374EE
:10838E00FF9F900178F09093007404F0909000E0BD
:10839E00FEC374FF9E900179F0909000E0FFC374CD
:1083AE00FF9F90017AF0909B007484F0909A00E009
:1083BE00FEC374FF9E90017BF0909A00E0FFC374A1
:1083CE00FF9F90017CF0909B007444F0909900E028
:1083DE00FEC374FF9E90017DF0909900E0FFC37480
:1083EE00FF9F90017EF0909B007404F0909800E047
:1083FE00FEC374FF9E90017FF0909800E0FFC3745F
:10840E00FF9F900180F090A3007484F090A200E092
:10841E00FEC374FF9E900181F090A200E0FFC37432
:10842E00FF9F900182F090A3007444F090A100E0B1
:10843E00FEC374FF9E900183F090A100E0FFC37411
:10844E00FF9F900184F090A3007404F090A000E0D0
:10845E00FFC374FF9F900185F090A000E0FFC374EE
:10846E00FF9F900186F09001D4E0900167F090019B
:06847E0016E0900168F019
:0184840022D5
:1092C20090830074B4F090820074FFF0F0908300F9
:1092D2007474F090810074FFF0F09083007434F0A5
:1092E20090800074FFF0F0908B0074B4F0908A00CC
:1092F20074FFF0F0908B007474F090890074FFF0AA
:10930200F0908B007434F090880074FFF0F090932A
:109312000074B4F090920074FFF0F09093007474B3
:10932200F090910074FFF0F09093007434F09090FC
:109332000074FFF0F0909B0074B4F0909A0074FFF8
:10934200F0F0909B007474F090990074FFF0F0902C
:109352009B007434F090980074FFF0F090A30074B6
:10936200B4F090A20074FFF0F090A3007474F09037
:10937200A10074FFF0F090A3007434F090A0007488
:10938200FFF0F07F4390040FE4F0A3DFFC7F209016
:1093920000F6E4F0A3DFFC785076FF90C00074FF83
:0C93A200F0C2A8D20AE490051EF0A3F06F
:0193AE00229C
:1000460012A26AE490049CF090049CE0D3940740CA
:10005600030225CEE0FF25E024DFF582E43401F536
:1000660083E0FEEF25E024DEF582E43401F583E04B
:100076006E6003021C5CEE6404600302038090045D
:100086009CE0FB2408F582E43402F583E060030279
:10009600038090049CE025E024F0F582E43401F529
:1000A60083E4F0A3F0EF75F00CA4249AF582E4340F
:1000B60000F583E0FCA3E0FDA3E0FEA3E0FFEB7503
:1000C600F00CA42496F582E43400F583127968EBEB
:1000D60075F00CA4249EF582E43400F583E0FCA3BD
:1000E600E0FDA3E0FEA3E0FFEB75F00CA4249AF577
:1000F60082E43400F583127968EBC3940750639069
:10010600049CE0FD25E025E0246CF582E43401F54D
:1001160083E0FEED25E025E0246BF582E43401F56D
:1001260083E07C002400FFEC3EFEE4FD90049CE0AE
:10013600FB75F00CA4249EF582E43400F583127955
:1001460068EB25E025E0246CF582E43401F583E0D4
:10015600FEEB25E025E0246BF582E43401F583E02F
:10016600803290049CE0FB64077042900186E0FABE
:10017600FE900185E0F97C002400FFEC3EFEE4FDE4
:10018600EB75F00CA4249EF582E43400F583127915
:1001960068EAFEE97C002400FFEC3EFEEB25E02445
:1001A600F0F582E43401F583EEF0A3EFF090049CC1
:1001B600E0FB2408F582E43402F5837401F0900430
:1001C6000EE075F025A4FFAEF0E4FCFDEB75F00C37
:1001D600A4249AF582E43400F583E0F8A3E0F9A3B9
:1001E600E0FAA3E0FBC3127906400302027490040E
:1001F6000EE075F025A4FFAEF0E4FCFD90049CE053
:1002060075F00CA4249EF582E43400F583E0F8A38F
:10021600E0F9A3E0FAA3E0FBC3127906505090047C
:100226009CE0FFC394075046E0FE25E024DFF582FC
:10023600E43401F583E0FDEE25E024DEF582E434C6
:1002460001F583EDF090049CE0FE25E024DFF582C5
:10025600E43401F5837403F0EE90965C93FE784DDA
:1002660046F6EE0846F6EF909664930856F6900426
:100276000EE075F01CA4FFAEF0E4FCFD90049CE0DB
:1002860075F00CA4249AF582E43400F583E0F8A313
:10029600E0F9A3E0FAA3E0FBC312790640030203E8
:1002A6002690040EE075F01CA4FFAEF0E4FCFD9071
:1002B600049CE075F00CA4249EF582E43400F583DA
:1002C600E0F8A3E0F9A3E0FAA3E0FBC31279065035
:1002D6004F90049CE0FF64077046E0FE25E024DFB3
:1002E600F582E43401F583E0FDEE25E024DEF582B7
:1002F600E43401F583EDF090049CE0FE25E024DF74
:10030600F582E43401F5837403F0EE90965C93FE77
:10031600784D46F6EE0846F6EF909664930856F644
:1003260090049CE025E024F0F582E43401F583E0B6
:10033600FEA3E0FF7C007D0512777790040EE0FDBA
:10034600127789AC06AD07E41274E790049CE0FBD3
:1003560025E025E024D3F582E43404F58312796898
:1003660074102BF582E43402F5837404F074062BC2
:10037600F582E43404F5837401F090049CE0FF25D3
:10038600E024DFF582E43401F583E06403600302D0
:1003960009C174082FF582E43402F583E060030294
:1003A60009C190049CE0FB75F00CA4249AF582E444
:1003B6003400F583E0FCA3E0FDA3E0FEA3E0FFEB41
:1003C60075F00CA42496F582E43400F5831279685E
:1003D60090049CE0FB75F00CA4249EF582E43400A6
:1003E600F583E0FCA3E0FDA3E0FEA3E0FFEB75F0E0
:1003F6000CA4249AF582E43400F5831279689004FB
:100406009CE0FBC39407505CE0FD25E025E0246CEE
:10041600F582E43401F583E0FEED25E025E0246B6A
:10042600F582E43401F583E07C002400FFEC3EFE17
:10043600E4FDEB75F00CA4249EF582E43400F5830C
:10044600127968EB25E025E0246CF582E43401F5A9
:1004560083E0FEEB25E025E0246BF582E43401F52C
:1004660083E0803290049CE0FB6407704290018632
:10047600E0FAFE900185E0F97C002400FFEC3EFEE8
:10048600E4FDEB75F00CA4249EF582E43400F583BC
:10049600127968EAFEE97C002400FFEC3EFEEB25BB
:1004A600E024F0F582E43401F583EEF0A3EFF0905A
:1004B600049CE0FB2408F582E43402F5837401F021
:1004C60090040EE0FF7E007C167D57127777E4FCE1
:1004D600FDEB75F00CA4249AF582E43400F583E074
:1004E600F8A3E0F9A3E0FAA3E0FBD31279065003E0
:1004F60002057B90040EE0FF7E007C167D57127786
:1005060077E4FCFD90049CE075F00CA4249EF58233
:10051600E43400F583E0F8A3E0F9A3E0FAA3E0FBF6
:10052600D3127906404F90049CE0FF94075046E0B2
:10053600FE25E024DFF582E43401F583E0FDEE25B7
:10054600E024DEF582E43401F583EDF090049CE0CE
:10055600FE25E024DFF582E43401F5837404F0EE31
:1005660090965C93FE784D46F6EF90966493085607
:10057600F6EE0846F690040EE0FF7E007C1D7D1721
:10058600127777E4FCFD90049CE075F00CA4249AA5
:10059600F582E43400F583E0F8A3E0F9A3E0FAA3DA
:1005A600E0FBD3127906500302063390040EE0FFF7
:1005B6007E007C1D7D17127777E4FCFD90049CE09D
:1005C60075F00CA4249EF582E43400F583E0F8A3CC
:1005D600E0F9A3E0FAA3E0FBD3127906404F9004BA
:1005E6009CE0FF64077046E0FE25E024DFF582E428
:1005F6003401F583E0FDEE25E024DEF582E43401E6
:10060600F583EDF090049CE0FE25E024DFF582E41E
:100616003401F5837404F0EE90965C93FE784D46B3
:10062600F6EF909664930856F6EE0846F690040E9A
:10063600E075F023A4FFAEF0E4FCFD90049CE075A9
:10064600F00CA4249AF582E43400F583E0F8A3E0E4
:10065600F9A3E0FAA3E0FBC312790640030206E51C
:1006660090040EE075F023A4FFAEF0E4FCFD9004C8
:100676009CE075F00CA4249EF582E43400F583E03A
:10068600F8A3E0F9A3E0FAA3E0FBC3127906504F02
:1006960090049CE0FF64076046E0FE25E024DFF559
:1006A60082E43401F583E0FDEE25E024DEF582E404
:1006B6003401F583EDF090049CE0FE25E024DFF59F
:1006C60082E43401F5837402F0EE90965C93784DE3
:1006D60046F6EF90966493FF0856F6EF0856F690A6
:1006E600049CE025E024F0F582E43401F583E0FC87
:1006F600A3E0FDE41274E790049CE0FB25E025E00E
:1007060024D3F582E43404F583127968EB25E025D9
:10071600E024D3F582E43404F583C083C082E0FC90
:10072600A3E0FDA3E0FEA3E0FFE4FBFA79A0784096
:100736001272C3D082D08312796890049CE025E0BF
:1007460025E024D3F582E43404F583C083C082E037
:10075600FCA3E0FDA3E0FEA3E0FFE4FBFA7940780A
:10076600401273CCD082D08312796890049CE0FF4B
:100776002406F582E43404F5837401F074102FF531
:1007860082E43402F5837403F0EF25E024F0F58269
:10079600E43401F583E4F0A3F074062FF582E43423
:1007A60004F583E06401600302085690049CE0258A
:1007B600E025E024D3F582E43404F583E0FCA3E0ED
:1007C600FDA3E0FEA3E0FFE4FBFA79A078401273F4
:1007D600CC7B007AB879B27845127469507290046D
:1007E6009CE0FF25E024DFF582E43401F583E0FE9A
:1007F600EF25E024DEF582E43401F583E06E7050E7
:1008060090049CE0C394075047EF25E024DEF58270
:10081600E43401F583EEF090049CE0FF25E024DF4C
:10082600F582E43401F5837404F074062FF582E44E
:100836003404F583E4F090049CE0FF90965C93FE0C
:10084600784D46F6EF909664930856F6EE0846F60F
:1008560090049CE0FF2406F582E43404F583E0640A
:1008660001600302090DEF25E025E024D3F582E4BB
:100876003404F583E0FCA3E0FDA3E0FEA3E0FFE47F
:10088600FBFA79A078401273CC7B007AB879E878C5
:1008960045127469507190049CE0FF25E024DFF551
:1008A60082E43401F583E0FEEF25E024DEF582E400
:1008B6003401F583E06E704F90049CE06407704746
:1008C600EF25E024DEF582E43401F583EEF09004B2
:1008D6009CE0FF25E024DFF582E43401F58374040F
:1008E600F074062FF582E43404F583E4F090049C5A
:1008F600E0FF90965C93FE784D46F6EF90966493F3
:100906000856F6EE0846F690049CE0FF2406F582AB
:10091600E43404F583E0640160030209C1EF25E0D5
:1009260025E024D3F582E43404F583E0FCA3E0FD5E
:10093600A3E0FEA3E0FFE4FBFA79A078401273CCB3
:10094600E4FBFA790C7842127469606F406D90048A
:100956009CE0FF25E024DFF582E43401F583E0FE28
:10096600EF25E024DEF582E43401F583E06E704B7A
:1009760090049CE064076043E025E024DEF582E411
:100986003401F583EEF090049CE0FE25E024DFF5CB
:1009960082E43401F5837402F074062EF582E434A1
:1009A60004F583E4F0EF90965C93784D46F6EF906D
:1009B600966493FF0856F6EF0856F690049CE0FFFF
:1009C60025E024DFF582E43401F583E06402600368
:1009D600020E5674082FF582E43402F583E06003B4
:1009E600020E5690049CE0FB75F00CA4249AF58246
:1009F600E43400F583E0FCA3E0FDA3E0FEA3E0FF02
:100A0600EB75F00CA42496F582E43400F583127994
:100A16006890049CE0FB75F00CA4249EF582E434F7
:100A260000F583E0FCA3E0FDA3E0FEA3E0FFEB7589
:100A3600F00CA4249AF582E43400F58312796890C8
:100A4600049CE0FD25E025E0246CF582E43401F504
:100A560083E0FEED25E025E0246BF582E43401F524
:100A660083E07C002400FFEC3EFEE4FD90049CE065
:100A7600FB75F00CA4249EF582E43400F58312790C
:100A860068EB25E025E0246CF582E43401F583E08B
:100A9600FEEB25E025E0246BF582E43401F583E0E6
:100AA6007C002400FFEC3EFEEB25E024F0F582E41A
:100AB6003401F583EEF0A3EFF074082BF582E434ED
:100AC60002F5837401F090040EE0FF7E007C157D34
:100AD60023127777E4FCFDEB75F00CA4249AF582DB
:100AE600E43400F583E0F8A3E0F9A3E0FAA3E0FB21
:100AF600D31279065003020B7E90040EE0FF7E00AF
:100B06007C157D23127777E4FCFD90049CE075F05C
:100B16000CA4249EF582E43400F583E0F8A3E0F902
:100B2600A3E0FAA3E0FBD3127906404C90049CE0C4
:100B3600FF25E024DFF582E43401F583E0FEEF25AE
:100B4600E024DEF582E43401F583EEF090049CE0C7
:100B5600FF25E024DFF582E43401F5837403F0EF2A
:100B660090965C93FF784D46F6EF0846F690049C07
:100B7600E0909664930856F690040EE075F09EA4F5
:100B8600FFAEF0E4FCFD90049CE075F00CA4249A02
:100B9600F582E43400F583E0F8A3E0F9A3E0FAA3D4
:100BA600E0FBC3127906507590040EE075F09EA422
:100BB600FFAEF0E4FCFD90049CE075F00CA4249ECE
:100BC600F582E43400F583E0F8A3E0F9A3E0FAA3A4
:100BD600E0FBC3127906504590049CE0FF25E02413
:100BE600DFF582E43401F583E0FEEF25E024DEF54F
:100BF60082E43401F583EEF090049CE0FF25E024C6
:100C0600DFF582E43401F5837401F0EF9096649386
:100C1600FF784D56F6EF0856F6EF0856F690049C08
:100C2600E025E024F0F582E43401F583E0FCA3E05E
:100C3600FDE41274E790049CE0FB25E025E024D354
:100C4600F582E43404F583127968EB25E025E02487
:100C5600D3F582E43404F583C083C082E0FCA3E0CC
:100C6600FDA3E0FEA3E0FFE4FBFA79A07840127250
:100C7600C3D082D08312796890049CE025E025E0F9
:100C860024D3F582E43404F583C083C082E0FCA358
:100C9600E0FDA3E0FEA3E0FFC004C005C006C00758
:100CA60090040EE0FCE41274ECA804A905AA06ABB5
:100CB60007D007D006D005D0041273CCD082D083DB
:100CC60012796890049CE0FF2406F582E43404F56A
:100CD600837401F074102FF582E43402F5837402F4
:100CE600F0EF25E024F0F582E43401F583E4F0A387
:100CF600F074062FF582E43404F583E064016003A2
:100D0600020DA890049CE025E025E024D3F582E4BA
:100D16003404F583E0FCA3E0FDA3E0FEA3E0FFE4DA
:100D2600FBFA79A078401273CC7B007A1879A978FF
:100D360045127469506C90049CE0FF25E024DFF5B1
:100D460082E43401F583E0FEEF25E024DEF582E45B
:100D56003401F583E06E704A90049CE025E024DEC1
:100D6600F582E43401F583EEF090049CE0FF25E083
:100D760024DFF582E43401F5837403F074062FF55D
:100D860082E43404F583E4F090049CE0FF90965CE2
:100D960093FE784D46F6EE0846F6EF909664930875
:100DA60056F690049CE0FF2406F582E43404F583AD
:100DB600E064016003020E56EF25E025E024D3F53A
:100DC60082E43404F583E0FCA3E0FDA3E0FEA3E0A7
:100DD600FFE4FBFA79A078401273CCE4FBFA791EA3
:100DE60078431274696069406790049CE0FF25E0CF
:100DF60024DFF582E43401F583E0FEEF25E024DE0E
:100E0600F582E43401F583E06E704590049CE0259C
:100E1600E024DEF582E43401F583EEF090049CE0F4
:100E2600FF25E024DFF582E43401F5837401F074D4
:100E3600062FF582E43404F583E4F090049CE090F8
:100E4600966493FF784D56F6EF0856F6EF0856F679
:100E560090049CE0FF25E024DFF582E43401F5836D
:100E6600E0640160030215D374082FF582E43402AE
:100E7600F583E060030215D390049CE0FB75F00C4B
:100E8600A4249AF582E43400F583E0FCA3E0FDA3F4
:100E9600E0FEA3E0FFEB75F00CA42496F582E434A3
:100EA60000F58312796890049CE0FB75F00CA4248D
:100EB6009EF582E43400F583E0FCA3E0FDA3E0FEAA
:100EC600A3E0FFEB75F00CA4249AF582E43400F558
:100ED6008312796890049CE0FD25E025E0246AF5FC
:100EE60082E43401F583E0FEED25E025E02469F592
:100EF60082E43401F583E07C002400FFEC3EFEE44E
:100F0600FD90049CE0FB75F00CA4249EF582E4346D
:100F160000F583127968EB25E025E0246AF582E482
:100F26003401F583E0FEEB25E025E02469F582E453
:100F36003401F583E07C002400FFEC3EFEEB25E067
:100F460024F0F582E43401F583EEF0A3EFF07408A3
:100F56002BF582E43402F5837401F090040EE0FF71
:100F66007E007C177D83127777E4FCFDEB75F00C31
:100F7600A42496F582E43400F583E0F8A3E0F9A30F
:100F8600E0FAA3E0FBD3127906500302104990045D
:100F96000EE0FF7E007C177D83127777E4FCFD90E0
:100FA600049CE075F00CA4249AF582E43400F583E1
:100FB600E0F8A3E0F9A3E0FAA3E0FBD31279065028
:100FC6000302104990040EE0FF7E007C177D831219
:100FD6007777E4FCFD90049CE075F00CA4249EF564
:100FE60082E43400F583E0F8A3E0F9A3E0FAA3E095
:100FF600FBD3127906404C90049CE0FF25E024DFE9
:10100600F582E43401F583E0FEEF25E024DEF58287
:10101600E43401F583EEF090049CE0FF25E024DF44
:10102600F582E43401F5837402F0EF90965C9378D0
:101036004D46F690049CE090966493FF0856F6EFB2
:101046000856F690040EE0FCE41274EC7BC37AF5C5
:1010560079A8783F1272C3C004C005C006C00790C5
:10106600049CE075F00CA42496F582E43400F58324
:10107600E0FCA3E0FDA3E0FEA3E0FFE41274E2A817
:1010860004A905AA06AB07D007D006D005D00412DE
:101096007469400302118690040EE0FCE41274ECBD
:1010A6007BC37AF579A8783F1272C3C004C005C025
:1010B60006C00790049CE075F00CA4249AF582E41F
:1010C6003400F583E0FCA3E0FDA3E0FEA3E0FFE42B
:1010D6001274E2A804A905AA06AB07D007D006D069
:1010E60005D004127469400302118690040EE0FCD8
:1010F600E41274EC7BC37AF579A8783F1272C3C008
:1011060004C005C006C00790049CE075F00CA4243A
:101116009EF582E43400F583E0FCA3E0FDA3E0FE47
:10112600A3E0FFE41274E2A804A905AA06AB07D05F
:1011360007D006D005D004127469504490049CE090
:10114600FF25E024DFF582E43401F583E0FEEF2598
:10115600E024DEF582E43401F583EEF090049CE0B1
:10116600FF25E024DFF582E43401F583E4F0EF9017
:10117600966493FF784D56F6EF0856F6EF0856F646
:1011860090049CE025E024F0F582E43401F583C068
:1011960083C082E0FEA3E0FF7C007D14127777D047
:1011A60082D083EEF0A3EFF090049CE0FF25E024CC
:1011B600F0F582E43401F583E0FCA3E0FDEF75F081
:1011C6000AA424AEF582E43403F583C083C082907A
:1011D600049CE024FEF582E43403F583E0D082D05B
:1011E6008375F0021279BEECF0A3EDF074FE2FF5D4
:1011F60082E43403F583E004F090049CE024FEF5D9
:1012060082E43403F583E0FFC394054003021433FC
:10121600EF24FE60301470030212AB147003021345
:101226003D2403600302141690049CE075F00AA4A2
:1012360024AEF582E43403F583E0FCA3E0FDE4127A
:1012460074E702140290049CE075F00AA424B0F539
:1012560082E43403F583E0FCA3E0FDE41274E77B4B
:101266009A7A997919783F1272C3C004C005C006EC
:10127600C00790049CE075F00AA424AEF582E4341D
:1012860003F583E0FCA3E0FDE41274E77BCD7ACCA2
:1012960079CC783E1272C3D003D002D001D00012AE
:1012A60071D202140290049CE075F00AA424B0F5F1
:1012B60082E43403F583E0FCA3E0FDE41274E790D6
:1012C600965412794C1272C3C004C005C006C007FA
:1012D60090049CE075F00AA424AEF582E43403F58C
:1012E60083E0FCA3E0FDE41274E790965412794C77
:1012F6001272C3D003D002D001D0001271D2C00442
:10130600C005C006C00790049CE075F00AA424B28C
:10131600F582E43403F583E0FCA3E0FDE41274E710
:1013260090965812794C1272C3D003D002D001D0D5
:10133600001271D202140290049CE075F00AA424F3
:10134600B0F582E43403F583E0FCA3E0FDE4127417
:10135600E790965012794C1272C3C004C005C006BD
:10136600C00790049CE075F00AA424AEF582E4342C
:1013760003F583E0FCA3E0FDE41274E790965012B7
:10138600794C1272C3D003D002D001D0001271D2B0
:10139600C004C005C006C00790049CE075F00AA40E
:1013A60024B2F582E43403F583E0FCA3E0FDE41205
:1013B60074E790965412794C1272C3D003D002D0BF
:1013C60001D0001271D2C004C005C006C007900447
:1013D6009CE075F00AA424B4F582E43403F583E0B6
:1013E600FCA3E0FDE41274E790965812794C127251
:1013F600C3D003D002D001D0001271D290049CE079
:1014060025E025E024D3F582E43404F583127968D7
:1014160090049CE0FF2406F582E43404F58374010D
:10142600F074102FF582E43402F583E4F090049C06
:10143600E0FF24FEF582E43403F583E064056003EF
:101446000215D3EF75F00AA424B0F582E43403F54F
:1014560083E0FCA3E0FDE41274E790964C12794C0D
:101466001272C3C004C005C006C00790049CE07594
:10147600F00AA424AEF582E43403F583E0FCA3E08D
:10148600FDE41274E790964812794C1272C3D003A9
:10149600D002D001D0001271D2C004C005C006C06F
:1014A6000790049CE075F00AA424B2F582E43403A4
:1014B600F583E0FCA3E0FDE41274E7909650127900
:1014C6004C1272C3D003D002D001D0001271D2C028
:1014D60004C005C006C00790049CE075F00AA42469
:1014E600B4F582E43403F583E0FCA3E0FDE4127472
:1014F600E790965412794C1272C3D003D002D001F1
:10150600D0001271D2C004C005C006C00790049C6A
:10151600E075F00AA424B6F582E43403F583E0FC12
:10152600A3E0FDE41274E790965812794C1272C348
:10153600D003D002D001D0001271D290049CE025D5
:10154600E025E024D3F582E43404F583127968E4D7
:1015560090049EF090049CE0FF75F00AA424B0F578
:1015660082E43403F583C083C08290049EE0FED0FB
:1015760082D08375F0021279BEE0FCA3E0FDEF7520
:10158600F00AA424AEF582E43403F58375F002EE86
:101596001279BEECF0A3EDF090049EE004F0E0B406
:1015A60004B290049CE0FF24FEF582E43403F58344
:1015B600E014F074062FF582E43404F5837401F028
:1015C60074102FF582E43402F5837401F090049CC4
:1015D600E0FF25E024DFF582E43401F583E06003D3
:1015E6000225C574082FF582E43402F583E0600312
:1015F6000225C590049CE0FB75F00CA4249AF582A4
:10160600E43400F583E0FCA3E0FDA3E0FEA3E0FFE5
:10161600EB75F00CA42496F582E43400F583127978
:101626006890049CE0FB75F00CA4249EF582E434DB
:1016360000F583E0FCA3E0FDA3E0FEA3E0FFEB756D
:10164600F00CA4249AF582E43400F58312796890AC
:10165600049CE0FD25E025E0246AF582E43401F5EA
:1016660083E0FEED25E025E02469F582E43401F50A
:1016760083E07C002400FFEC3EFEE4FD90049CE049
:10168600FB75F00CA4249EF582E43400F5831279F0
:1016960068EB25E025E0246AF582E43401F583E071
:1016A600FEEB25E025E02469F582E43401F583E0CC
:1016B6007C002400FFEC3EFEEB25E024F0F582E4FE
:1016C6003401F583EEF0A3EFF074082BF582E434D1
:1016D60002F5837401F090040EE0FCE41274EC7BD6
:1016E600C37AF579A8783F1272C3C004C005C00654
:1016F600C00790049CE075F00CA42496F582E434AF
:1017060000F583E0FCA3E0FDA3E0FEA3E0FFE41206
:1017160074E2A804A905AA06AB07D007D006D0052F
:10172600D0041274696002500302182090040EE07F
:10173600FCE41274EC7BC37AF579A8783F1272C385
:10174600C004C005C006C00790049CE075F00CA458
:10175600249AF582E43400F583E0FCA3E0FDA3E0DF
:10176600FEA3E0FFE41274E2A804A905AA06AB07EB
:10177600D007D006D005D004127469600250030267
:10178600182090040EE0FCE41274EC7BC37AF57921
:10179600A8783F1272C3C004C005C006C0079004F3
:1017A6009CE075F00CA4249EF582E43400F583E0F9
:1017B600FCA3E0FDA3E0FEA3E0FFE41274E2A804AC
:1017C600A905AA06AB07D007D006D005D004127427
:1017D600696047404590049CE0FF25E024DFF582E0
:1017E600E43401F583E0FEEF25E024DEF582E434FF
:1017F60001F583EEF090049CE0FF25E024DFF582FE
:10180600E43401F5837401F0EF90966493FF784D0C
:1018160056F6EF0856F6EF0856F690049CE025E0DB
:1018260024F0F582E43401F583C083C082E0FEA390
:10183600E0FF7C007D14127777D082D083EEF0A390
:10184600EFF090049CE0FF25E024F0F582E43401FB
:10185600F583E0FCA3E0FDEF75F00AA424AEF58263
:10186600E43403F583C083C08290049CE024FEF533
:1018760082E43403F583E0D082D08375F0021279D6
:10188600BEECF0A3EDF074FE2FF582E43403F5838D
:10189600E004F090049CE024FEF582E43403F58332
:1018A600E0FFC394054003021ABAEF24FE60301429
:1018B60070030219451470030219D724036003024A
:1018C6001AB090049CE075F00AA424AEF582E434C4
:1018D60003F583E0FCA3E0FDE41274E7021A9C9092
:1018E600049CE075F00AA424B0F582E43403F58381
:1018F600E0FCA3E0FDE41274E77B9A7A9979197803
:101906003F1272C3C004C005C006C00790049CE025
:1019160075F00AA424AEF582E43403F583E0FCA353
:10192600E0FDE41274E77BCD7ACC79CC783E127276
:10193600C3D003D002D001D0001271D2021A9C90FB
:10194600049CE075F00AA424B0F582E43403F58320
:10195600E0FCA3E0FDE41274E790965412794C1271
:1019660072C3C004C005C006C00790049CE075F0B1
:101976000AA424AEF582E43403F583E0FCA3E0FD7B
:10198600E41274E790965412794C1272C3D003D0C5
:1019960002D001D0001271D2C004C005C006C00733
:1019A60090049CE075F00AA424B2F582E43403F5B1
:1019B60083E0FCA3E0FDE41274E790965812794C9C
:1019C6001272C3D003D002D001D0001271D2021A13
:1019D6009C90049CE075F00AA424B0F582E43403DC
:1019E600F583E0FCA3E0FDE41274E79096501279CB
:1019F6004C1272C3C004C005C006C00790049CE028
:101A060075F00AA424AEF582E43403F583E0FCA362
:101A1600E0FDE41274E790965012794C1272C3D02E
:101A260003D002D001D0001271D2C004C005C00696
:101A3600C00790049CE075F00AA424B2F582E43451
:101A460003F583E0FCA3E0FDE41274E790965412DC
:101A5600794C1272C3D003D002D001D0001271D2D9
:101A6600C004C005C006C00790049CE075F00AA437
:101A760024B4F582E43403F583E0FCA3E0FDE4122C
:101A860074E790965812794C1272C3D003D002D0E4
:101A960001D0001271D290049CE025E025E024D309
:101AA600F582E43404F58312796890049CE0FF24FF
:101AB60006021C4390049CE0FF24FEF582E43403F6
:101AC600F583E0640560030225C5EF75F00AA424DA
:101AD600B0F582E43403F583E0FCA3E0FDE4127480
:101AE600E790964C12794C1272C3C004C005C0062A
:101AF600C00790049CE075F00AA424AEF582E43495
:101B060003F583E0FCA3E0FDE41274E79096481227
:101B1600794C1272C3D003D002D001D0001271D218
:101B2600C004C005C006C00790049CE075F00AA476
:101B360024B2F582E43403F583E0FCA3E0FDE4126D
:101B460074E790965012794C1272C3D003D002D02B
:101B560001D0001271D2C004C005C006C0079004AF
:101B66009CE075F00AA424B4F582E43403F583E01E
:101B7600FCA3E0FDE41274E790965412794C1272BD
:101B8600C3D003D002D001D0001271D2C004C00568
:101B9600C006C00790049CE075F00AA424B6F5823E
:101BA600E43403F583E0FCA3E0FDE41274E79096C9
:101BB6005812794C1272C3D003D002D001D0001251
:101BC60071D290049CE025E025E024D3F582E4342C
:101BD60004F583127968E490049EF090049CE0FF7B
:101BE60075F00AA424B0F582E43403F583C083C0FB
:101BF6008290049EE0FED082D08375F0021279BEF8
:101C0600E0FCA3E0FDEF75F00AA424AEF582E4340F
:101C160003F58375F002EE1279BEECF0A3EDF090B9
:101C2600049EE004F0E0B404B290049CE0FF24FEBD
:101C3600F582E43403F583E014F074062FF582E4AC
:101C46003404F5837401F074102FF582E43402F540
:101C560083E4F00225C590049CE0FF25E024DFF52F
:101C660082E43401F583E0FEEF25E024DEF582E42C
:101C76003401F583E06E70030225C5EE640460034B
:101C8600021E2D90049CE02408F582E43402F583BC
:101C9600E06003021E2D90049FF090040EE0FF7E8C
:101CA600007C037DE8127777E4FCFD90049CE075E8
:101CB600F00CA42496F582E43400F583C083C08238
:101CC60090049FE0D082D08375F0041279BE127919
:101CD6006890049FE004F0E0B403BF90049CE0FF2A
:101CE60025E024F0F582E43401F583E4F0A3F0EF77
:101CF600C39407506390049CE0FD25E025E0246C26
:101D0600F582E43401F583E0FEED25E025E0246B61
:101D1600F582E43401F583E07C002400FFEC3EFE0E
:101D2600E4FD90049CE0FB75F00CA4249EF582E48F
:101D36003400F583127968EB25E025E0246CF58202
:101D4600E43401F583E0FEEB25E025E0246BF58223
:101D5600E43401F583E0803290049CE0FB64077074
:101D660042900186E0FAFE900185E0F97C002400AD
:101D7600FFEC3EFEE4FDEB75F00CA4249EF582E438
:101D86003400F583127968EAFEE97C002400FFEC52
:101D96003EFEEB25E024F0F582E43401F583EEF017
:101DA600A3EFF090049CE0FF2408F582E43402F5EA
:101DB600837401F0EF25E024F0F582E43401F58325
:101DC600E0FEA3E0FF7C007D0512777790040EE02D
:101DD600FD127789AC06AD07E41274E790049CE027
:101DE600FB25E025E024D3F582E43404F58312795B
:101DF6006874062BF582E43404F5837401F07410DC
:101E06002BF582E43402F5837404F0EB25E024DF3D
:101E1600F582E43401F583E0FFEB25E024DEF5826C
:101E2600E43401F583EFF090049CE0FF25E024DF25
:101E3600F582E43401F583E064036003021F9E74B7
:101E4600082FF582E43402F583E06003021F9E90BA
:101E5600049FF090040EE0FF7E007C077DD0127791
:101E660077E4FCFD90049CE075F00CA42496F582C2
:101E7600E43400F583C083C08290049FE0D082D012
:101E86008375F0041279BE12796890049FE004F01D
:101E9600E0B403BF90049CE0FF25E024F0F582E463
:101EA6003401F583E4F0A3F074062FF582E43404DC
:101EB600F583E4F0EFC39407506390049CE0FD259E
:101EC600E025E0246CF582E43401F583E0FEED259F
:101ED600E025E0246BF582E43401F583E07C002400
:101EE60000FFEC3EFEE4FD90049CE0FB75F00CA4C4
:101EF600249EF582E43400F583127968EB25E0250B
:101F0600E0246CF582E43401F583E0FEEB25E02560
:101F1600E0246BF582E43401F583E0803290049C82
:101F2600E0FB64077042900186E0FAFE900185E0CE
:101F3600F97C002400FFEC3EFEE4FDEB75F00CA4FA
:101F4600249EF582E43400F583127968EAFEE97C82
:101F5600002400FFEC3EFEEB25E024F0F582E4349D
:101F660001F583EEF0A3EFF090049CE0FF2408F562
:101F760082E43402F5837401F0EF25E024DFF58274
:101F8600E43401F583E0FF90049CE025E024DEF5CF
:101F960082E43401F583EFF090049CE0FF25E02411
:101FA600DFF582E43401F583E06402600302214632
:101FB60074082FF582E43402F583E06003022146BB
:101FC60090049FF090040EE0FF7E007C077DD01207
:101FD6007777E4FCFD90049CE075F00CA42496F55C
:101FE60082E43400F583C083C08290049FE0D082EF
:101FF600D08375F0041279BE12796890049FE004CC
:10200600F0E0B403BF90049CE0FF25E024F0F582E5
:10201600E43401F583E4F0A3F074062FF582E4348A
:1020260004F583E4F0EFC39407507C90049CE0FD34
:1020360025E025E0246CF582E43401F583E0FEED2D
:1020460025E025E0246BF582E43401F583E07C008D
:102056002400FFEC3EFEE4FD90049CE0FB75F00CD2
:10206600A4249EF582E43400F583127968EB25E01A
:1020760025E0246CF582E43401F583E0FEEB25E0EF
:1020860025E0246BF582E43401F583E07C0024002E
:10209600FFEC3EFEEB25E024F0F582E43401F58307
:1020A600EEF0A3EFF0806990049CE0FB640770609B
:1020B600900186E0FAFE900185E0F97C002400FF9D
:1020C600EC3EFEE4FDEB75F00CA4249EF582E434B0
:1020D60000F583127968EAFEE97C002400FFEC3EF5
:1020E600FEEB25E024F0F582E43401F583EEF0A35F
:1020F600EFF0EB25E024DFF582E43401F583740389
:10210600F0EB25E024DEF582E43401F5837403F078
:1021160090049CE0FF2408F582E43402F583740100
:10212600F0EF25E024DFF582E43401F583E0FF904B
:10213600049CE025E024DEF582E43401F583EFF02B
:1021460090049CE0FF25E024DFF582E43401F5836A
:10215600E06401600302238B74082FF582E43402E5
:10216600F583E0600302238B90049FF090040EE059
:10217600FF7E007C037DE8127777E4FCFD90049CEB
:10218600E075F00CA42496F582E43400F583C08350
:10219600C08290049FE0D082D08375F0041279BE8D
:1021A60012796890049FE004F0E0B403BF90049CA9
:1021B600E0FF25E024F0F582E43401F583E4F0A3A2
:1021C600F074062FF582E43404F583E4F074FE2FF0
:1021D600F582E43403F583E4F090049EF090049EC7
:1021E600E0FFC3940A502490049CE075F00AA424EE
:1021F600AEF582E43403F58375F002EF1279BEE49E
:10220600F0A3F090049EE004F080D290049CE0FDE0
:1022160025E025E0246AF582E43401F583E0FEED4D
:1022260025E025E02469F582E43401F583E07C00AD
:102236002400FFEC3EFEE4FD90049CE0FB75F00CF0
:10224600A4249EF582E43400F583127968EB25E038
:1022560025E0246AF582E43401F583E0FEEB25E00F
:1022660025E02469F582E43401F583E07C0024004E
:10227600FFEC3EFEEB25E024F0F582E43401F58325
:10228600EEF0A3EFF0EB25E024F0F582E43401F55F
:1022960083C083C082E0FEA3E0FF7D14127777D06F
:1022A60082D083EEF0A3EFF090049CE0FF25E024BB
:1022B600F0F582E43401F583E0FCA3E0FDEF75F070
:1022C6000AA424AEF582E43403F583C083C0829069
:1022D600049CE024FEF582E43403F583E0D082D04A
:1022E6008375F0021279BEECF0A3EDF074FE2FF5C3
:1022F60082E43403F583E004F090049CE0FF75F07B
:102306000AA424AEF582E43403F583C083C0827444
:10231600FE2FF582E43403F583E0D082D08375F096
:10232600021279BEE0FCA3E0FDE41274E790049C7F
:10233600E0FB25E025E024D3F582E43404F583129E
:10234600796874062BF582E43404F5837401F0741D
:10235600102BF582E43402F5837401F074082BF532
:1023660082E43402F5837401F0EB25E024DFF58284
:10237600E43401F583E0FFEB25E024DEF582E43466
:1023860001F583EFF090049CE0FF25E024DFF58261
:10239600E43401F583E060030225C574082FF58255
:1023A600E43402F583E060030225C590049FF090B3
:1023B600040EE0FFE4FCFDFE90049CE075F00CA426
:1023C6002496F582E43400F583C083C08290049F8E
:1023D600E0D082D08375F0041279BE127968900439
:1023E6009FE004F0E0B403C790049CE0FF25E024DE
:1023F600F0F582E43401F583E4F0A3F074062FF5DA
:1024060082E43404F583E4F074FE2FF582E43403A9
:10241600F583E4F090049EF090049EE0FFC3940AD6
:10242600502490049CE075F00AA424AEF582E434AE
:1024360003F58375F002EF1279BEE4F0A3F0900481
:102446009EE004F080D290049CE0FD25E025E02487
:102456006AF582E43401F583E0FEED25E025E0240B
:1024660069F582E43401F583E07C002400FFEC3E4C
:10247600FEE4FD90049CE0FB75F00CA4249EF5821E
:10248600E43400F583127968EB25E025E0246AF54B
:1024960082E43401F583E0FEEB25E025E02469F5CE
:1024A60082E43401F583E07C002400FFEC3EFEEB81
:1024B60025E024F0F582E43401F583EEF0A3EFF095
:1024C600EB25E024F0F582E43401F583C083C08275
:1024D600E0FEA3E0FF7D14127777D082D083EEF082
:1024E600A3EFF090049CE0FF25E024F0F582E434AD
:1024F60001F583E0FCA3E0FDEF75F00AA424AEF538
:1025060082E43403F583C083C08290049CE024FEF9
:10251600F582E43403F583E0D082D08375F00212AD
:1025260079BEECF0A3EDF074FE2FF582E43403F5EA
:1025360083E004F090049CE0FF75F00AA424AEF555
:1025460082E43403F583C083C08274FE2FF582E4EF
:102556003403F583E0D082D08375F0021279BEE0B1
:10256600FCA3E0FDE41274E790049CE0FB25E02563
:10257600E024D3F582E43404F58312796874062BDB
:10258600F582E43404F5837401F074102BF582E4CB
:102596003402F583E4F074082BF582E43402F58303
:1025A6007401F0EB25E024DFF582E43401F583E0E5
:1025B600FFEB25E024DEF582E43401F583EFF090AD
:1025C600049CE004F002004E784DE690A800F078F6
:1025D6004FE690B000F018E690B800F0201803021D
:1025E6004B8CE490049EF090049EE0FFC394084058
:1025F60003024B27EF75F00CA4249EF582E4340009
:10260600F583E0FCA3E0FDA3E0FEA3E0FFE47B038B
:10261600FAF9F81278669001EEEEF0A3EFF0785929
:10262600127974000000009004B012798D00000049
:10263600009004B412798D000000009004AC127969
:102646008D00000000E49004BDF09004BCF09004FE
:10265600BBF09004BAF09004B9F09004B8F090047E
:102666009EE0FF75F00AA490049DF0EFC394074026
:1026760003022BA5A3E02406F582E43404F583E4E3
:10268600F074102FF582E43402F583E0600302272C
:102696006790049DE0FB2419F582E43402F583E09B
:1026A600FF7E007C037DE8127777AC06AD07744C9D
:1026B6002BF582E43400F583E075F064A42DFDEC7F
:1026C60035F0FC90049DE02401F582E43400F583A6
:1026D600E075F00AA42DFFE5F03CFE74182BF58298
:1026E600E43401F583E07C002FFDEC3EFCE412743B
:1026F600E7782512795C90049DE0FB241AF582E4C4
:102706003402F583E0FF7E007C037DE8127777AC28
:1027160006AD07744D2BF582E43400F583E075F0C1
:1027260064A42DFDEC35F0FC90049DE02402F582B6
:10273600E43400F583E075F00AA42DFFE5F03CFED5
:1027460074192BF582E43401F583E07C002FFDEC4F
:102756003EFCE41274E77B007A2479747849022CF3
:102766009B90049EE02410F582E43402F583E06435
:1027760001600302284F90049DE0FB241BF582E4D0
:102786003402F583E0FF7E007C037DE8127777ACA8
:1027960006AD07744E2BF582E43400F583E075F040
:1027A60064A42DFDEC35F0FC90049DE02403F58235
:1027B600E43400F583E075F00AA42DFFE5F03CFE55
:1027C600741A2BF582E43401F583E07C002FFDECCE
:1027D6003EFCE41274E7782D12795C90049DE0FBD0
:1027E600241CF582E43402F583E0FF7E007C037D41
:1027F600E8127777AC06AD07744F2BF582E4340008
:10280600F583E075F064A42DFDEC35F0FC90049D95
:10281600E02404F582E43400F583E075F00AA42D83
:10282600FFE5F03CFE741B2BF582E43401F583E0F2
:102836007C002FFDEC3EFCE41274E77B007A2479E1
:102846007478491273CC022DBB90049EE02410F5D7
:1028560082E43402F583E06402600302296C90048A
:102866009DE0FB241DF582E43402F583E0FF7E0043
:102876007C037DE8127777AC06AD0774502BF582A2
:10288600E43400F583E075F064A42DFDEC35F0FC2E
:1028960090049DE02405F582E43400F583E075F0AC
:1028A6000AA42DFFE5F03CFE741C2BF582E43401EE
:1028B600F583E07C002FFDEC3EFCE41274E77835EE
:1028C60012795C90049DE0FB241EF582E43402F547
:1028D60083E0FF7E007C037DE8127777AC06AD07C8
:1028E60074512BF582E43400F583E075F064A42D71
:1028F600FDEC35F0FC90049DE02406F582E43400FE
:10290600F583E075F00AA42DFFE5F03CFE741D2B5F
:10291600F582E43401F583E07C002FFDEC3EFCE417
:102926001274E7E4FBFA797A78441273CC78391298
:10293600795C90049EE025E025E024D3F582E4341A
:1029460004F583E0FCA3E0FDA3E0FEA3E0FF12751F
:1029560020AD07AC06E41274E778351279331271AC
:10296600CE7839022DF190049EE02410F582E434ED
:1029760002F583E064036003022A8990049DE0FB6C
:10298600241FF582E43402F583E0FF7E007C037D9C
:10299600E8127777AC06AD0774522BF582E4340063
:1029A600F583E075F064A42DFDEC35F0FC90049DF4
:1029B600E02407F582E43400F583E075F00AA42DDF
:1029C600FFE5F03CFE741E2BF582E43401F583E04E
:1029D6007C002FFDEC3EFCE41274E7783D12795C36
:1029E60090049DE0FB2420F582E43402F583E0FFA9
:1029F6007E007C037DE8127777AC06AD0774532B17
:102A0600F582E43400F583E075F064A42DFDEC3521
:102A1600F0FC90049DE02408F582E43400F583E0A0
:102A260075F00AA42DFFE5F03CFE741F2BF582E439
:102A36003401F583E07C002FFDEC3EFCE41274E7E4
:102A4600E4FBFA792078411273CC784112795C90D4
:102A5600049EE025E025E024D3F582E43404F583E2
:102A6600E0FCA3E0FDA3E0FEA3E0FF127520AD07A6
:102A7600AC06E41274E7783D1279331271CE7841D0
:102A8600022DF190049EE02410F582E43402F583D1
:102A9600E064046003022E0B90049DE0FB2421F504
:102AA60082E43402F583E0FF7E007C037DE8127742
:102AB60077AC06AD0774542BF582E43400F583E059
:102AC60075F064A42DFDEC35F0FC90049DE024091E
:102AD600F582E43400F583E075F00AA42DFFE5F0F5
:102AE6003CFE74202BF582E43401F583E07C002F54
:102AF600FDEC3EFCE41274E7784512795C90049D87
:102B0600E0FB2422F582E43402F583E0FF7E007CBC
:102B1600037DE8127777AC06AD0774552BF582E492
:102B26003400F583E075F064A42DFDEC35F0FC90DF
:102B3600049DE0240AF582E43400F583E075F00A8A
:102B4600A42DFFE5F03CFE74212BF582E43401F55B
:102B560083E07C002FFFEC3EFE7D0A127777AC0601
:102B6600AD07E41274E7784912795C90049EE0257B
:102B7600E025E024D3F582E43404F583E0FCA3E009
:102B8600FDA3E0FEA3E0FF127520AD07AC06E4123C
:102B960074E778451279331271CE7849022DF19097
:102BA600049EE0FF64076003022E0B74062FF58275
:102BB600E43404F583E4F074102FF582E43402F56E
:102BC60083E064036003022CD790049DE0FB241984
:102BD600F582E43402F583E0FF7E007C037DE81293
:102BE6007777AC06AD07744C2BF582E43400F58399
:102BF600E075F064A42DFDEC35F0FC90049DE02416
:102C060001F582E43400F583E075F00AA42DFFE5B2
:102C1600F03CFE74182BF582E43401F583E07C0069
:102C26002FFDEC3EFCE41274E7782512795C9004E3
:102C36009DE0FB241AF582E43402F583E0FF7E0072
:102C46007C037DE8127777AC06AD07744D2BF582D1
:102C5600E43400F583E075F064A42DFDEC35F0FC5A
:102C660090049DE02402F582E43400F583E075F0DB
:102C76000AA42DFFE5F03CFE74192BF582E434011D
:102C8600F583E07C002FFDEC3EFCE41274E7E4FBE8
:102C9600FA792078411273CC782912795C90049ED7
:102CA600E025E025E024D3F582E43404F583E0FC56
:102CB600A3E0FDA3E0FEA3E0FF127520AD07AC067E
:102CC600E41274E778251279331271CE7829022D31
:102CD600F190049EE02410F582E43402F583E0646A
:102CE600046003022E0B90049DE0FB241BF582E496
:102CF6003402F583E0FF7E007C037DE8127777AC33
:102D060006AD07744E2BF582E43400F583E075F0CA
:102D160064A42DFDEC35F0FC90049DE02403F582BF
:102D2600E43400F583E075F00AA42DFFE5F03CFEDF
:102D3600741A2BF582E43401F583E07C002FFDEC58
:102D46003EFCE41274E7782D12795C90049DE0FB5A
:102D5600241CF582E43402F583E0FF7E007C037DCB
:102D6600E8127777AC06AD07744F2BF582E4340092
:102D7600F583E075F064A42DFDEC35F0FC90049D20
:102D8600E02404F582E43400F583E075F00AA42D0E
:102D9600FFE5F03CFE741B2BF582E43401F583E07D
:102DA6007C002FFDEC3EFCE41274E7E4FBFA79208C
:102DB60078411272C3783112795C90049EE025E066
:102DC60025E024D3F582E43404F583E0FCA3E0FD9A
:102DD600A3E0FEA3E0FF127520AD07AC06E4127473
:102DE600E7782D1279331271CE7831127933127257
:102DF600C390049EE025E025E024F6F582E4340045
:102E0600F58312796890049EE025E025E024F6F526
:102E160082E43400F583E0FCA3E0FDA3E0FEA3E03A
:102E2600FFE4FBFAF9F8127469600D400B78591249
:102E3600797400000000807690049EE025E025E08D
:102E460024F6F582E43400F583E0FCA3E0FDA3E07C
:102E5600FEA3E0FFE4FBFAF9F8127469600540038B
:102E6600022FA290049EE025E025E024F6F582E4F8
:102E76003400F583E0FCA3E0FDA3E0FEA3E0FFE45D
:102E8600FBFA797A7844127469602C402A90049E81
:102E9600E025E025E024F6F582E43400F583E0FC45
:102EA600A3E0FDA3E0FEA3E0FF785912795C900150
:102EB600667401F0022FA290049EE025E025E0242E
:102EC600F6F582E43400F583E0FCA3E0FDA3E0FE22
:102ED600A3E0FFE4FBFA797A784412746960025041
:102EE6005E90049EE025E025E024F6F582E43400B9
:102EF600F583E0FCA3E0FDA3E0FEA3E0FF7B007A00
:102F060024797478491274696035403390049EE0E0
:102F160025E025E024F6F582E43400F583E0FCA301
:102F2600E0FDA3E0FEA3E0FFE4FBFA797A78441221
:102F360073CC785912795C9001667402F0805D90CA
:102F4600049EE025E025E024F6F582E43400F583CE
:102F5600E0FCA3E0FDA3E0FEA3E0FF7B007A24797A
:102F66007478491274696002503290049EE025E03C
:102F760025E024F6F582E43400F583E0FCA3E0FDC9
:102F8600A3E0FEA3E0FF7B007A24797478491273EC
:102F9600CC785912795C9001667403F090049EE037
:102FA60025E025E024F6F582E43400F583E0FCA371
:102FB600E0FDA3E0FEA3E0FFE4FBFAF9F812746972
:102FC600603D403B90049EE0FF25E025E02413F59C
:102FD60082E43404F5837430F0EF25E025E0241410
:102FE600F582E43404F5837430F0EF25E025E0241F
:102FF60015F582E43404F5837430F0EF023107905E
:10300600049EE025E025E024F6F582E43400F5830D
:10301600E0FCA3E0FDA3E0FEA3E0FFE4FBFAF9F881
:1030260012746960054003023AEA90049EE025E0C6
:1030360025E024F6F582E43400F583E0FCA3E0FD08
:10304600A3E0FEA3E0FFE4FBFA7980783F127469FF
:103056006002500302311A90049EE025E025E02428
:10306600F6F582E43400F583E0FCA3E0FDA3E0FE80
:10307600A3E0FFE4FBFA797A78441272C37855121A
:10308600795C7855127917127520AB07AA067C0071
:103096007D641277DEEF2430FF90049EE025E02564
:1030A600E02413F582E43404F583EFF07C007D64BC
:1030B600AF03AE021277DEAA04AB057D0A7C00AF31
:1030C60003AE021277DEEF2430FF90049EE025E087
:1030D60025E02414F582E43404F583EFF07D0A7CC0
:1030E60000AF03AE021277DEED2430FF90049EE0BF
:1030F600FE25E025E02415F582E43404F583EFF09F
:10310600EE25E025E02416F582E43404F5837430D8
:10311600F0023AEA90049EE025E025E024F6F582E6
:10312600E43400F583E0FCA3E0FDA3E0FEA3E0FFAA
:10313600E4FBFA7980783F12746960054003023235
:103146003190049EE025E025E024F6F582E4340083
:10315600F583E0FCA3E0FDA3E0FEA3E0FFE4FBFAB9
:10316600792078411274696002500302323190046A
:103176009EE025E025E024F6F582E43400F583E0C0
:10318600FCA3E0FDA3E0FEA3E0FFE4FBFA79C87828
:10319600421272C3785512795C78551279171275F6
:1031A60020AB07AA067C007D641277DEEF2430FF91
:1031B60090049EE025E025E02413F582E43404F52E
:1031C60083EFF07C007D64AF03AE021277DEAA04C3
:1031D600AB057D0A7C00AF03AE021277DEEF24302A
:1031E600FF90049EE025E025E02414F582E43404F3
:1031F600F583EFF07D0A7C00AF03AE021277DEEDB9
:103206002430FF90049EE0FE25E025E02415F5829B
:10321600E43404F583EFF0EE25E025E02416F5828C
:10322600E43404F5837431F0023AEA90049EE02512
:10323600E025E024F6F582E43400F583E0FCA3E023
:10324600FDA3E0FEA3E0FFE4FBFA792078411274C7
:10325600696005400302334890049EE025E025E0BE
:1032660024F6F582E43400F583E0FCA3E0FDA3E058
:10327600FEA3E0FFE4FBFA79C878421274696002A3
:10328600500302334890049EE025E025E024F6F53D
:1032960082E43400F583E0FCA3E0FDA3E0FEA3E0B6
:1032A600FFE4FBFA792078411272C3785512795CF3
:1032B6007855127917127520AB07AA067C007D6433
:1032C6001277DEEF2430FF90049EE025E025E0240F
:1032D60013F582E43404F583EFF07C007D64AF03DC
:1032E600AE021277DEAA04AB057D0A7C00AF03AE00
:1032F600021277DEEF2430FF90049EE025E025E001
:103306002414F582E43404F583EFF07D0A7C00AFE3
:1033160003AE021277DEED2430FF90049EE0FE2518
:10332600E025E02415F582E43404F583EFF0EE257C
:10333600E025E02416F582E43404F5837432F002C5
:103346003AEA90049EE025E025E024F6F582E4348E
:1033560000F583E0FCA3E0FDA3E0FEA3E0FFE4FBB1
:10336600FA79C878421274696005400302345590B0
:10337600049EE025E025E024F6F582E43400F5839A
:10338600E0FCA3E0FDA3E0FEA3E0FFE4FBFA797A0C
:1033960078441274696002500302345590049EE02A
:1033A60025E025E024F6F582E43400F583E0FCA36D
:1033B600E0FDA3E0FEA3E0FF785512795C78551294
:1033C6007917127520AB07AA067C007D641277DE9A
:1033D600EF2430FF90049EE025E025E02413F582DB
:1033E600E43404F583EFF07C007D64AF03AE021293
:1033F60077DEAA04AB057D0A7C00AF03AE02127726
:10340600DEEF2430FF90049EE025E025E02414F54D
:1034160082E43404F583EFF07D0A7C00AF03AE024C
:103426001277DEED2430FF90049EE0FE25E025E0D5
:103436002415F582E43404F583EFF0EE25E025E06B
:103446002416F582E43404F5837433F0023AEA90E4
:10345600049EE025E025E024F6F582E43400F583B9
:10346600E0FCA3E0FDA3E0FEA3E0FFE4FBFA797A2B
:1034760078441274696005400302356D90049EE03D
:1034860025E025E024F6F582E43400F583E0FCA38C
:10349600E0FDA3E0FEA3E0FF7B007A40791C7846BE
:1034A6001274696002500302356D90049EE025E0B7
:1034B60025E024F6F582E43400F583E0FCA3E0FD84
:1034C600A3E0FEA3E0FFE4FBFA792078411273CC77
:1034D600785512795C7855127917127520AB07AAC0
:1034E600067C007D641277DEEF2430FF90049EE0B8
:1034F60025E025E02413F582E43404F583EFF07C1F
:10350600007D64AF03AE021277DEAA04AB057D0A26
:103516007C00AF03AE021277DEEF2430FF90049EEC
:10352600E025E025E02414F582E43404F583EFF089
:103536007D0A7C00AF03AE021277DEED2430FF90E9
:10354600049EE0FE25E025E02415F582E43404F52A
:1035560083EFF0EE25E025E02416F582E43404F549
:10356600837434F0023AEA90049EE025E025E024D4
:10357600F6F582E43400F583E0FCA3E0FDA3E0FE6B
:10358600A3E0FF7B007A40791C78461274696005D7
:10359600400302368690049EE025E025E024F6F5F9
:1035A60082E43400F583E0FCA3E0FDA3E0FEA3E0A3
:1035B600FF7B007A5079C378471274696002500322
:1035C60002368690049EE025E025E024F6F582E4A6
:1035D6003400F583E0FCA3E0FDA3E0FEA3E0FFE4F6
:1035E600FBFA79C878421273CC785512795C785513
:1035F600127917127520AB07AA067C007D64127734
:10360600DEEF2430FF90049EE025E025E02413F54C
:1036160082E43404F583EFF07C007D64AF03AE02F0
:103626001277DEAA04AB057D0A7C00AF03AE021258
:1036360077DEEF2430FF90049EE025E025E0241499
:10364600F582E43404F583EFF07D0A7C00AF03AE27
:10365600021277DEED2430FF90049EE0FE25E02581
:10366600E02415F582E43404F583EFF0EE25E02539
:10367600E02416F582E43404F5837435F0023AEA60
:1036860090049EE025E025E024F6F582E43400F57A
:1036960083E0FCA3E0FDA3E0FEA3E0FF7B007A50FD
:1036A60079C378471274696005400302379F900416
:1036B6009EE025E025E024F6F582E43400F583E07B
:1036C600FCA3E0FDA3E0FEA3E0FF7B007A2479746F
:1036D60078491274696002500302379F90049EE095
:1036E60025E025E024F6F582E43400F583E0FCA32A
:1036F600E0FDA3E0FEA3E0FFE4FBFA797A7844124A
:1037060073CC785512795C7855127917127520ABFF
:1037160007AA067C007D641277DEEF2430FF900452
:103726009EE025E025E02413F582E43404F583EFDA
:10373600F07C007D64AF03AE021277DEAA04AB050F
:103746007D0A7C00AF03AE021277DEEF2430FF90D5
:10375600049EE025E025E02414F582E43404F58394
:10376600EFF07D0A7C00AF03AE021277DEED243067
:10377600FF90049EE0FE25E025E02415F582E43462
:1037860004F583EFF0EE25E025E02416F582E43417
:1037960004F5837436F0023AEA90049EE025E025AB
:1037A600E024F6F582E43400F583E0FCA3E0FDA313
:1037B600E0FEA3E0FF7B007A2479747849127469ED
:1037C600600540030238B990049EE025E025E02418
:1037D600F6F582E43400F583E0FCA3E0FDA3E0FE09
:1037E600A3E0FF7B807A967918784B1274696002A1
:1037F60050030238B990049EE025E025E024F6F552
:1038060082E43400F583E0FCA3E0FDA3E0FEA3E040
:10381600FF7B007A40791C78461273CC7855127972
:103826005C7855127917127520AB07AA067C007DC5
:10383600641277DEEF2430FF90049EE025E025E059
:103846002413F582E43404F583EFF07C007D64AF45
:1038560003AE021277DEAA04AB057D0A7C00AF0335
:10386600AE021277DEEF2430FF90049EE025E025BD
:10387600E02414F582E43404F583EFF07D0A7C003D
:10388600AF03AE021277DEED2430FF90049EE0FE19
:1038960025E025E02415F582E43404F583EFF0EE07
:1038A60025E025E02416F582E43404F5837437F028
:1038B600023AEA90049EE025E025E024F6F582E44B
:1038C6003400F583E0FCA3E0FDA3E0FEA3E0FF7B6C
:1038D600807A967918784B1274696005400302392C
:1038E600D390049EE025E025E024F6F582E434003A
:1038F600F583E0FCA3E0FDA3E0FEA3E0FF7B207AD6
:10390600BC79BE784C127469600250030239D390B8
:10391600049EE025E025E024F6F582E43400F583F4
:10392600E0FCA3E0FDA3E0FEA3E0FF7B007A507974
:10393600C378471273CC785512795C78551279178B
:10394600127520AB07AA067C007D641277DEEF2491
:1039560030FF90049EE025E025E02413F582E43450
:1039660004F583EFF07C007D64AF03AE021277DED0
:10397600AA04AB057D0A7C00AF03AE021277DEEF28
:103986002430FF90049EE025E025E02414F582E42F
:103996003404F583EFF07D0A7C00AF03AE021277A4
:1039A600DEED2430FF90049EE0FE25E025E02415A0
:1039B600F582E43404F583EFF0EE25E025E02416E5
:1039C600F582E43404F5837438F0023AEA90049EF2
:1039D600E025E025E024F6F582E43400F583E0FCFA
:1039E600A3E0FDA3E0FEA3E0FF7B207ABC79BE78CE
:1039F6004C12746960054003023AEA90049EE02581
:103A0600E025E024F6F582E43400F583E0FCA3E04B
:103A1600FDA3E0FEA3E0FF7B287A6B796E784E1259
:103A2600746960025003023AEA90049EE025E0259C
:103A3600E024F6F582E43400F583E0FCA3E0FDA380
:103A4600E0FEA3E0FF7B007A24797478491273CCF8
:103A5600785512795C7855127917127520AB07AA3A
:103A6600067C007D641277DEEF2430FF90049EE032
:103A760025E025E02413F582E43404F583EFF07C99
:103A8600007D64AF03AE021277DEAA04AB057D0AA1
:103A96007C00AF03AE021277DEEF2430FF90049E67
:103AA600E025E025E02414F582E43404F583EFF004
:103AB6007D0A7C00AF03AE021277DEED2430FF9064
:103AC600049EE0FE25E025E02415F582E43404F5A5
:103AD60083EFF0EE25E025E02416F582E43404F5C4
:103AE600837439F09004BDE0D394094003023E3854
:103AF6009004BCE094094003023E389004BBE09475
:103B0600094003023E389004BAE094094003023E9D
:103B1600389004B9E094094003023E389004B8E0B6
:103B260094094003023E387859127917127520AB72
:103B360007AA067C007D641277DE9004BDEFF07C58
:103B4600007D64AF03AE021277DEAA04AB057D0AE0
:103B56007C00AF03AE021277DE9004BCEFF07D0A64
:103B66007C00AF03AE021277DE9004BBEDF078590D
:103B7600127917127520AD07AC06EC1274E7C00473
:103B8600C005C006C0077859127917D003D002D0F5
:103B960001D0001271CEE4FBFA797A78441272C32E
:103BA6001275209004A0127968E47B64FAF9F89003
:103BB60004A0E0FCA3E0FDA3E0FEA3E0FF1278660C
:103BC6009004BAEFF0E47B64FAF9F89004A0E0FC04
:103BD600A3E0FDA3E0FEA3E0FF127866AC00AD0112
:103BE600AE02AF03E47B0AFAF9F81278669004B9DC
:103BF600EFF0E47B64FAF9F89004A0E0FCA3E0FDA2
:103C0600A3E0FEA3E0FF127866AC00AD01AE02AF02
:103C160003E47B0AFAF9F81278669004B8EBF090A0
:103C26000166E064016003023CCF9004BCE075F0DD
:103C36000AA4FDACF0A3E075F064A42DFFE5F03C0A
:103C4600FE9004BBE07C002FFDEC3EFC1274E7C046
:103C560004C005C006C0079004BAE0FCE41274EC88
:103C66007BCD7ACC79CC783D1272C3D003D002D00A
:103C760001D0001271D2C004C005C006C00790046E
:103C8600B9E0FCE41274EC7B0A7AD77923783C120B
:103C960072C3D003D002D001D0001271D2C004C0CA
:103CA60005C006C0079004B8E0FCE41274EC7B6F14
:103CB6007A127983783A1272C3D003D002D001D037
:103CC600001271D2785D12795C900166E064026040
:103CD60003023D839004BCE075F00AA4FDACF0A39A
:103CE600E075F064A42DFFE5F03CFE9004BBE07C9B
:103CF600002FFDEC3EFC1274E7C004C005C006C0F0
:103D0600079004BAE0FCE41274EC7BCD7ACC79CC53
:103D1600783D1272C3D003D002D001D0001271D206
:103D2600C004C005C006C0079004B9E0FCE41274E4
:103D3600EC7B0A7AD77923783C1272C3D003D0027F
:103D4600D001D0001271D2C004C005C006C00790D1
:103D560004B8E0FCE41274EC7B6F7A127983783A4B
:103D66001272C3D003D002D001D0001271D2E4FB8C
:103D7600FA797A78441272C3785D12795C9001669A
:103D8600E064036003023E389004BCE075F00AA4C8
:103D9600FDACF0A3E075F064A42DFFE5F03CFE90C9
:103DA60004BBE07C002FFDEC3EFC1274E7C004C0AF
:103DB60005C006C0079004BAE0FCE41274EC7BCDA3
:103DC6007ACC79CC783D1272C3D003D002D001D020
:103DD600001271D2C004C005C006C0079004B9E045
:103DE600FCE41274EC7B0A7AD77923783C1272C30E
:103DF600D003D002D001D0001271D2C004C005C0D9
:103E060006C0079004B8E0FCE41274EC7B6F7A12EB
:103E16007983783A1272C3D003D002D001D000124F
:103E260071D27B007A24797478491272C3785D1254
:103E3600795C90049EE0240EF582E43405F583E077
:103E4600FCE41274EC7BCD7ACC79CC783D1272C34B
:103E5600C004C005C006C00790049EE024FDF5829C
:103E6600E43404F583E0FCE41274ECD003D002D011
:103E760001D0001271D2C004C005C006C00790046C
:103E86009EE02405F582E43405F583E0FCE4127433
:103E9600EC7B0A7AD77923783C1272C3D003D0021E
:103EA600D001D0001271D29004B412796890049EA9
:103EB600E02416F582E43405F583E0FCE41274ECA4
:103EC6009004C81279687F007E007D207C411288AC
:103ED600689004AC1279689004ACE0FCA3E0FDA302
:103EE600E0FEA3E0FF9004B4E0F8A3E0F9A3E0FA53
:103EF600A3E0FB1272C39004B01279689004B0E09C
:103F0600FCA3E0FDA3E0FEA3E0FF785D1279331287
:103F16007469403630CD0512A0F75002D21C9004C9
:103F26009EE0FF24C8F582E43401F5837401F07441
:103F3600D52FF582E43401F5837401F090049EE0F8
:103F460090966493785056F680409004B0E0FCA3B7
:103F5600E0FDA3E0FEA3E0FF785D127933127469F9
:103F6600502890049EE0FF24C8F582E43401F583CE
:103F7600E4F074D52FF582E43401F583E4F090047F
:103F86009EE090965C93785046F690049EE0FF245F
:103F9600C8F582E43401F583E060030244E074105E
:103FA6002FF582E43402F583E06003B40117900430
:103FB6009EE075F03AA4240DFDE435F0FC7BFF7A13
:103FC6009579D3801590049EE075F03AA4240DFDF2
:103FD600E435F0FC7BFF7A9579D67F0A7E0012994C
:103FE600F590049EE0FB75F03AA4240DFDE435F04F
:103FF600FCEB2401FBE433FA7F3C7E00128B199024
:10400600049EE075F03AA4240DFDE435F0FC7BFF38
:104016007A9579D97F5A7E001299F590049EE0FB35
:1040260075F03AA4240DFDE435F0FCEB25E024DF21
:10403600F582E43401F583E0FB7A007FD67E011237
:104046008B1990049EE0FB75F03AA4240DFDE4352F
:10405600F0FCEB25E024DEF582E43401F583E0FB99
:104066007A007FB87E01128B1990049EE0FB75F0F2
:104076003AA4240DFDE435F0FC74FE2BF582E434FD
:1040860003F583E0FB7A007F867E01128B1990048C
:10409600BDE0FB70030241DD90049EE075F03AA49A
:1040A600240DFDE435F0FC7A007F827E00128B1928
:1040B60090049EE075F03AA4240DFDE435F0FC90E2
:1040C60004BCE0FB7A007FA07E00128B1990049E50
:1040D600E075F03AA4240DFDE435F0FC9004BBE055
:1040E600FB7A007FBE7E00128B1990049EE075F06D
:1040F6003AA4240DFDE435F0FC7BFF7A9579DB7F4D
:10410600DC7E001299F590049EE075F03AA4240D29
:10411600FDE435F0FC9004BAE0FB7A007FF07E0007
:10412600128B1990049EE075F03AA4240DFDE43537
:10413600F0FC9004B9E0FB7A007F0E7E01128B1929
:1041460090049EE075F03AA4240DFDE435F0FC9051
:1041560004B8E0FB7A007F2C7E01128B199001EEE9
:10416600E0FAA3E0FBC3940AEA940050030243A9D1
:104176009001EEE0FEA3E0FFC3940AEE9400400B2C
:10418600EF9464EE940050030243D59001EEE0FEF6
:10419600A3E0FFC39464EE9400400BEF94E8EE9422
:1041A6000350030244089001EEE0FEA3E0FFC3942F
:1041B600E8EE9403400BEF9410EE9427500302446C
:1041C6003B9001EEE0FAA3E0FBC39410EA9427507B
:1041D6000302447E0244689004BCE0FB7003024381
:1041E6000990049EE075F03AA4240DFDE435F0FC38
:1041F6007A007FA07E00128B1990049EE075F03A3B
:10420600A4240DFDE435F0FC9004BBE0FB7A007FAE
:10421600BE7E00128B1990049EE075F03AA4240D20
:10422600FDE435F0FC7BFF7A9579DB7FDC7E0012BE
:1042360099F590049EE075F03AA4240DFDE435F05E
:10424600FC9004BAE0FB7A007FF07E00128B199096
:10425600049EE075F03AA4240DFDE435F0FC9004CC
:10426600B9E0FB7A007F0E7E01128B1990049EE066
:1042760075F03AA4240DFDE435F0FC9004B8E0FB9B
:104286007A007F2C7E01128B199001EEE0FAA3E0F2
:10429600FBC3940AEA940050030243A99001EEE09E
:1042A600FEA3E0FFC3940AEE9400400BEF9464EE85
:1042B600940050030243D59001EEE0FEA3E0FFC355
:1042C6009464EE9400400BEF94E8EE9403500302DE
:1042D60044089001EEE0FEA3E0FFC394E8EE9403E9
:1042E600400BEF9410EE9427500302443B9001EEEE
:1042F600E0FAA3E0FBC39410EA9427500302447E3D
:1043060002446890049EE075F03AA4240DFDE4355D
:10431600F0FC9004BBE0FB7A007FBE7E00128B1996
:1043260090049EE075F03AA4240DFDE435F0FC7B84
:10433600FF7A9579DB7FDC7E001299F590049EE08A
:1043460075F03AA4240DFDE435F0FC9004BAE0FBC8
:104356007A007FF07E00128B1990049EE075F03A89
:10436600A4240DFDE435F0FC9004B9E0FB7A007F4F
:104376000E7E01128B1990049EE075F03AA4240D6E
:10438600FDE435F0FC9004B8E0FB7A007F2C7E015A
:10439600128B199001EEE0FAA3E0FBC3940AEA94AB
:1043A60000501490049EE075F03AA4240DFDE43507
:1043B600F0FC7F400244549001EEE0FEA3E0FFC310
:1043C600940AEE94004023EF9464EE9400501B9000
:1043D600049EE075F03AA4240DFDE435F0FC90014E
:1043E600EEE0FAA3E0FB7F2C80649001EEE0FEA3F2
:1043F600E0FFC39464EE94004023EF94E8EE940348
:10440600501B90049EE075F03AA4240DFDE435F0AF
:10441600FC9001EEE0FAA3E0FB7F1880319001EEFC
:10442600E0FEA3E0FFC394E8EE94034025EF94106A
:10443600EE9427501D90049EE075F03AA4240DFDDD
:10444600E435F0FC9001EEE0FAA3E0FB7F047E0287
:1044560080239001EEE0FAA3E0FBC39410EA9427D0
:10446600401690049EE075F03AA4240DFDE435F064
:10447600FC7FF07E01128B19900166E0B401179063
:10448600049EE075F03AA4240DFDE435F0FC7BFFB4
:104496007A9579DD803A900166E0B4021790049E21
:1044A600E075F03AA4240DFDE435F0FC7BFF7A9527
:1044B60079DF801C900166E0B4031C90049EE075D1
:1044C600F03AA4240DFDE435F0FC7BFF7A9579E102
:1044D6007F547E011299F512A1E290049EE0FF241A
:1044E600C8F582E43401F583E064016003024A6B97
:1044F60074102FF582E43402F583E06004640170E1
:104506003390049EE075F03AA4240DFDE435F0FCEA
:104516007BFF7A9579E37F077E00129A9F90049E2F
:10452600E075F03AA4240DFDE435F0FC7BFF7A95A6
:1045360079E6803190049EE075F03AA4240DFDE4FE
:1045460035F0FC7BFF7A9579E37F077E00129A9F10
:1045560090049EE075F03AA4240DFDE435F0FC7B52
:10456600FF7A9679017F0A7E00129A9F90049EE058
:10457600FB75F03AA4240DFDE435F0FCEB2401FBB9
:10458600E433FA7F3C7E001289CE90049EE075F0FB
:104596003AA4240DFDE435F0FC7BFF7A9579D97FAA
:1045A6005A7E00129A9F90049EE0FB75F03AA4246E
:1045B6000DFDE435F0FCEB25E024DFF582E4340163
:1045C600F583E0FB7A007FD67E011289CE90049EA9
:1045D600E0FB75F03AA4240DFDE435F0FCEB25E094
:1045E60024DEF582E43401F583E0FB7A007FB87EB1
:1045F600011289CE90049EE0FB75F03AA4240DFDCD
:10460600E435F0FC74FE2BF582E43403F583E0FB1D
:104616007A007F867E011289CE9004BDE0FB70038E
:1046260002476890049EE075F03AA4240DFDE43537
:10463600F0FC7A007F827E001289CE90049EE0759F
:10464600F03AA4240DFDE435F0FC9004BCE0FB7ABE
:10465600007FA07E001289CE90049EE075F03AA4F9
:10466600240DFDE435F0FC9004BBE0FB7A007FBE30
:104676007E001289CE90049EE075F03AA4240DFDCA
:10468600E435F0FC7BFF7A9579DB7FDC7E00129ABD
:104696009F90049EE075F03AA4240DFDE435F0FCED
:1046A6009004BAE0FB7A007FF07E001289CE900477
:1046B6009EE075F03AA4240DFDE435F0FC9004B9B3
:1046C600E0FB7A007F0E7E011289CE90049EE07593
:1046D600F03AA4240DFDE435F0FC9004B8E0FB7A32
:1046E600007F2C7E011289CE9001EEE0FAA3E0FB5A
:1046F600C3940AEA940050030249349001EEE0FEA6
:10470600A3E0FFC3940AEE9400400BEF9464EE948A
:104716000050030249609001EEE0FEA3E0FFC3945F
:1047260064EE9400400BEF94E8EE940350030249C4
:10473600939001EEE0FEA3E0FFC394E8EE940340FD
:104746000BEF9410EE942750030249C69001EEE059
:10475600FAA3E0FBC39410EA94275003024A090225
:1047660049F39004BCE0FB700302489490049EE079
:1047760075F03AA4240DFDE435F0FC7A007FA07EA6
:10478600001289CE90049EE075F03AA4240DFDE453
:1047960035F0FC9004BBE0FB7A007FBE7E001289F8
:1047A600CE90049EE075F03AA4240DFDE435F0FCAD
:1047B6007BFF7A9579DB7FDC7E00129A9F90049EC0
:1047C600E075F03AA4240DFDE435F0FC9004BAE05F
:1047D600FB7A007FF07E001289CE90049EE075F091
:1047E6003AA4240DFDE435F0FC9004B9E0FB7A0010
:1047F6007F0E7E011289CE90049EE075F03AA424C5
:104806000DFDE435F0FC9004B8E0FB7A007F2C7EC9
:10481600011289CE9001EEE0FAA3E0FBC3940AEA06
:10482600940050030249349001EEE0FEA3E0FFC37A
:10483600940AEE9400400BEF9464EE940050030249
:1048460049609001EEE0FEA3E0FFC39464EE94009D
:10485600400BEF94E8EE940350030249939001EE67
:10486600E0FEA3E0FFC394E8EE9403400BEF941040
:10487600EE942750030249C69001EEE0FAA3E0FB4E
:10488600C39410EA94275003024A090249F390049C
:104896009EE075F03AA4240DFDE435F0FC9004BBCF
:1048A600E0FB7A007FBE7E001289CE90049EE07502
:1048B600F03AA4240DFDE435F0FC7BFF7A9579DB14
:1048C6007FDC7E00129A9F90049EE075F03AA42445
:1048D6000DFDE435F0FC9004BAE0FB7A007FF07E33
:1048E600001289CE90049EE075F03AA4240DFDE4F2
:1048F60035F0FC9004B9E0FB7A007F0E7E01128948
:10490600CE90049EE075F03AA4240DFDE435F0FC4B
:104916009004B8E0FB7A007F2C7E011289CE9001CC
:10492600EEE0FAA3E0FBC3940AEA94005014900464
:104936009EE075F03AA4240DFDE435F0FC7F4002BC
:1049460049DF9001EEE0FEA3E0FFC3940AEE940077
:104956004023EF9464EE9400501B90049EE075F0A3
:104966003AA4240DFDE435F0FC9001EEE0FAA3E054
:10497600FB7F2C80649001EEE0FEA3E0FFC394640D
:10498600EE94004023EF94E8EE9403501B90049EAF
:10499600E075F03AA4240DFDE435F0FC9001EEE05C
:1049A600FAA3E0FB7F1880319001EEE0FEA3E0FF62
:1049B600C394E8EE94034025EF9410EE9427501D1F
:1049C60090049EE075F03AA4240DFDE435F0FC90C9
:1049D60001EEE0FAA3E0FB7F047E0280239001EE65
:1049E600E0FAA3E0FBC39410EA9427401690049ED5
:1049F600E075F03AA4240DFDE435F0FC7FF07E016D
:104A06001289CE900166E0B4011790049EE075F01D
:104A16003AA4240DFDE435F0FC7BFF7A9579DD8020
:104A26003A900166E0B4021790049EE075F03AA44D
:104A3600240DFDE435F0FC7BFF7A9579DF801C9030
:104A46000166E0B4031C90049EE075F03AA4240DC0
:104A5600FDE435F0FC7BFF7A9579E17F547E011207
:104A66009A9F12A1E29004BDE0FF90049EE0FE75BD
:104A7600F008A42487F582E43401F583EFF090046E
:104A8600BCE0FFEE75F008A42488F582E43401F555
:104A960083EFF09004BBE0FFEE75F008A42489F5DF
:104AA60082E43401F583EFF09004BAE0FFEE75F08E
:104AB60008A4248AF582E43401F583EFF09004B962
:104AC600E0FFEE75F008A4248BF582E43401F5834B
:104AD600EFF09004B8E0FFEE75F008A4248CF582A0
:104AE600E43401F583EFF0900166E0FFEE75F0081F
:104AF600A4248DF582E43401F583EFF074C82EF515
:104B060082E43401F583E0FFEE75F008A4248EF507
:104B160082E43401F583EFF090049EE004F0022570
:104B2600EDE490049EF090049EE0FFC39408503894
:104B360074C82FF582E43401F583E090044F600FCA
:104B4600E0FF90049EE090965C93FEEF4E800DE0B1
:104B5600FF90049EE090966493FEEF5E90044FF003
:104B660090049EE004F080BED223900452E004F04C
:104B7600E0B4FF037408F0900452E0D394044003B9
:104B8600D21222C21222E47853F608F67851F608B9
:104B9600F678611279740000000078651279740065
:104BA600000000786912797400000000E49004C3E4
:104BB600F09004C2F09004C1F09004C0F09004BFDD
:104BC600F09004BEF09004BDF09004BCF09004BBDD
:104BD600F09004BAF09004B9F09004B8F09001DDBA
:104BE600E0FD75F00AA424F990049EF0ED25E02579
:104BF600E02466F582E43401F583E0FE9001DDE011
:104C060025E025E02465F582E43401F583E07C00A7
:104C160024007854F6EC3E18F6E6FE08E6FF7D0C16
:104C2600127777AC06AD07E41274E7786112795C07
:104C36009001DDE0FD25E025E02468F582E43401FD
:104C4600F583E0FEED25E025E02467F582E43401F6
:104C5600F583E07C0024007852F6EC3E18F69004CA
:104C66009EE0FB2418F582E43402F583E0FF7E0023
:104C76007C037DE8127777AC06AD07744B2BF58283
:104C8600E43400F583E075F064A42DFDEC35F0FC0A
:104C960090049EE02400F582E43400F583E075F08C
:104CA6000AA42DFFE5F03CFE74172BF582E43401CF
:104CB600F583E07C002FFDEC3EFCE41274E77825DA
:104CC60012795C90049EE0FB2419F582E43402F527
:104CD60083E0FF7E007C037DE8127777AC06AD07A4
:104CE600744C2BF582E43400F583E075F064A42D52
:104CF600FDEC35F0FC90049EE02401F582E43400DE
:104D0600F583E075F00AA42DFFE5F03CFE74182B40
:104D1600F582E43401F583E07C002FFDEC3EFCE4F3
:104D26001274E77B007A24797478491273CC782957
:104D360012795C7825127933C0007861127917D020
:104D4600001271CE78291279331272C39001D012F3
:104D56007968E4FFFEFDFC9001D0E0F8A3E0F9A33A
:104D6600E0FAA3E0FB127469500A9001D012798D23
:104D7600000000009001D0E0FCA3E0FDA3E0FEA34C
:104D8600E0FF786512795C9004C3E0D39409400390
:104D9600024EC89004C2E094094003024EC8900433
:104DA600C1E094094003024EC89004C0E094094053
:104DB60003024EC89004BFE094094003024EC89017
:104DC60004BEE094094003024EC8786512791712B2
:104DD6007520AB07AA067C007D641277DE9004C3BB
:104DE600EFF07C007D64AF03AE021277DEAA04AB5F
:104DF600057D0A7C00AF03AE021277DE9004C2EF97
:104E0600F07D0A7C00AF03AE021277DE9004C1ED9E
:104E1600F07865127917127520AD07AC06EC12749E
:104E2600E7C004C005C006C0077865127917D0032D
:104E3600D002D001D0001271CEE4FBFA797A784420
:104E46001272C31275209004A4127968E47B64FA86
:104E5600F9F89004A4E0FCA3E0FDA3E0FEA3E0FFC4
:104E66001278669004C0EFF0E47B64FAF9F89004D7
:104E7600A4E0FCA3E0FDA3E0FEA3E0FF127866AC8D
:104E860000AD01AE02AF03E47B0AFAF9F8127866C8
:104E96009004BFEFF0E47B64FAF9F89004A4E0FC18
:104EA600A3E0FDA3E0FEA3E0FF127866AC00AD012F
:104EB600AE02AF03E47B0AFAF9F81278669004BEF4
:104EC600EBF090049EE0FB241AF582E43402F583AD
:104ED600E0FF7E007C037DE8127777AC06AD0774B1
:104EE6004D2BF582E43400F583E075F064A42DFDC6
:104EF600EC35F0FC90049EE02402F582E43400F5E3
:104F060083E075F00AA42DFFE5F03CFE74192BF53D
:104F160082E43401F583E07C002FFDEC3EFCE412D4
:104F260074E7782D12795C90049EE0FB241BF582D1
:104F3600E43402F583E0FF7E007C037DE812777798
:104F4600AC06AD07744E2BF582E43400F583E075AC
:104F5600F064A42DFDEC35F0FC90049EE02403F5EE
:104F660082E43400F583E075F00AA42DFFE5F03CF9
:104F7600FE741A2BF582E43401F583E07C002FFDE4
:104F8600EC3EFCE41274E7E4FBFA797A7844127397
:104F9600CC783112795C7851E6FC08E6FDE41274AF
:104FA600E7782D1279331271CE7831127933127275
:104FB600C3900162127968E4FFFEFDFC900162E095
:104FC600F8A3E0F9A3E0FAA3E0FB127469500A9093
:104FD600016212798D00000000E4FBFA797A7844C8
:104FE600900162E0FCA3E0FDA3E0FEA3E0FF1273E4
:104FF600CC786912795C9004BDE0D3940940030231
:1050060051379004BCE0940940030251379004BB29
:10501600E0940940030251379004BAE09409400332
:105026000251379004B9E0940940030251379004C5
:10503600B8E094094003025137786912791712755E
:1050460020AB07AA067C007D641277DE9004BDEFD4
:10505600F07C007D64AF03AE021277DEAA04AB05D6
:105066007D0A7C00AF03AE021277DE9004BCEFF03F
:105076007D0A7C00AF03AE021277DE9004BBEDF032
:105086007869127917127520AD07AC06EC1274E731
:10509600C004C005C006C0077869127917D003D0CE
:1050A60002D001D0001271CEE4FBFA797A7844126C
:1050B60072C31275209004A8127968E47B64FAF929
:1050C600F89004A8E0FCA3E0FDA3E0FEA3E0FF1235
:1050D60078669004BAEFF0E47B64FAF9F89004A8D5
:1050E600E0FCA3E0FDA3E0FEA3E0FF127866AC00BF
:1050F600AD01AE02AF03E47B0AFAF9F812786690C6
:1051060004B9EFF0E47B64FAF9F89004A8E0FCA394
:10511600E0FDA3E0FEA3E0FF127866AC00AD01AEB1
:1051260002AF03E47B0AFAF9F81278669004B8EB4A
:10513600F07BFF7A96791C7D3A7C007FC87E001250
:1051460099F59001DDE0FB7A007D3A7C007F907E48
:1051560001128B197BFF7A9679257D747C007F0A74
:105166007E001299F57BFF7A9579D97D747C007F54
:10517600A07E001299F57BFF7A96792C7DAE7C0095
:105186007FDC7E001299F57BFF7A9679327DAE7CC4
:10519600007F087E021299F57BFF7A9679367D228A
:1051A6007C017F0A7E001299F57BFF7A9579D97D7D
:1051B600227C017FA07E001299F57BFF7A96793DCD
:1051C6007D5C7C017FDC7E001299F57BFF7A967907
:1051D600437D5C7C017F087E021299F59004C3E052
:1051E60070030252D9FB7A007DAE7C007F0A7E00F6
:1051F600128B199004C2E0FB7A007DAE7C007F28FA
:105206007E00128B199004C1E0FB7A007DAE7C0013
:105216007F467E00128B197BFF7A9579DB7DAE7C0B
:10522600007F647E001299F59004C0E0FB7A007D51
:10523600AE7C007F827E00128B199004BFE0FB7A61
:10524600007DAE7C007FA07E00128B199004BEE02C
:10525600FB7A007DAE7C007FBE7E00128B197853F0
:10526600E6FA08E6FBC3940AEA94005003025426C1
:105276007853E6FE08E6FFC3940AEE9400400BEF6F
:105286009464EE940050030254467853E6FE08E612
:10529600FFC39464EE9400400BEF94E8EE94035041
:1052A6000302546B7853E6FE08E6FFC394E8EE94D7
:1052B60003400BEF9410EE9427500302549078535A
:1052C600E6FA08E6FBC39410EA942750030254B8A2
:1052D6000254AD9004C2E070030253BEFB7A007D17
:1052E600AE7C007F287E00128B199004C1E0FB7A09
:1052F600007DAE7C007F467E00128B197BFF7A957F
:1053060079DB7DAE7C007F647E001299F59004C047
:10531600E0FB7A007DAE7C007F827E00128B1990C6
:1053260004BFE0FB7A007DAE7C007FA07E00128B7E
:10533600199004BEE0FB7A007DAE7C007FBE7E0045
:10534600128B197853E6FA08E6FBC3940AEA94002E
:1053560050030254267853E6FE08E6FFC3940AEE8D
:105366009400400BEF9464EE940050030254467888
:1053760053E6FE08E6FFC39464EE9400400BEF94F8
:10538600E8EE9403500302546B7853E6FE08E6FFFA
:10539600C394E8EE9403400BEF9410EE9427500369
:1053A6000254907853E6FA08E6FBC39410EA942771
:1053B60050030254B80254AD9004C1E0FB7A007D5C
:1053C600AE7C007F467E00128B197BFF7A9579DBD7
:1053D6007DAE7C007F647E001299F59004C0E0FBF0
:1053E6007A007DAE7C007F827E00128B199004BF0E
:1053F600E0FB7A007DAE7C007FA07E00128B1990C8
:1054060004BEE0FB7A007DAE7C007FBE7E00128B80
:10541600197853E6FA08E6FBC3940AEA94005009A1
:105426007DAE7C007FEA0254B37853E6FE08E6FFC1
:10543600C3940AEE94004016EF9464EE9400500E66
:1054460018E6FA08E6FB7DAE7C007FCC805F7853D9
:10545600E6FE08E6FFC39464EE94004016EF94E877
:10546600EE9403500E18E6FA08E6FB7DAE7C007F4C
:10547600AE803A7853E6FE08E6FFC394E8EE94035E
:105486004016EF9410EE9427500E18E6FA08E6FB45
:105496007DAE7C007F9080157853E6FA08E6FBC364
:1054A6009410EA9427400B7DAE7C007F727E011239
:1054B6008B199004BDE070030255AFFB7A007D5C4A
:1054C6007C017F0A7E00128B199004BCE0FB7A00F7
:1054D6007D5C7C017F287E00128B199004BBE0FB6B
:1054E6007A007D5C7C017F467E00128B197BFF7AF9
:1054F6009579DB7D5C7C017F647E001299F59004D2
:10550600BAE0FB7A007D5C7C017F827E00128B19FB
:105516009004B9E0FB7A007D5C7C017FA07E0012DE
:105526008B199004B8E0FB7A007D5C7C017FBE7E1F
:1055360000128B197851E6FA08E6FBC3940AEA943E
:105546000050030256FC7851E6FE08E6FFC3940AB3
:10555600EE9400400BEF9464EE9400500302571C47
:105566007851E6FE08E6FFC39464EE9400400BEF24
:1055760094E8EE940350030257417851E6FE08E69C
:10558600FFC394E8EE9403400BEF9410EE9427507B
:10559600030257667851E6FA08E6FBC39410EA94CC
:1055A60027500302578E0257839004BCE070030213
:1055B6005694FB7A007D5C7C017F287E00128B1955
:1055C6009004BBE0FB7A007D5C7C017F467E001286
:1055D6008B197BFF7A9579DB7D5C7C017F647E008D
:1055E6001299F59004BAE0FB7A007D5C7C017F821B
:1055F6007E00128B199004B9E0FB7A007D5C7C0179
:105606007FA07E00128B199004B8E0FB7A007D5CC7
:105616007C017FBE7E00128B197851E6FA08E6FB04
:10562600C3940AEA940050030256FC7851E6FE0839
:10563600E6FFC3940AEE9400400BEF9464EE9400E8
:10564600500302571C7851E6FE08E6FFC39464EE49
:105656009400400BEF94E8EE940350030257417810
:1056660051E6FE08E6FFC394E8EE9403400BEF9480
:1056760010EE942750030257667851E6FA08E6FBC7
:10568600C39410EA9427500302578E02578390045E
:10569600BBE0FB7A007D5C7C017F467E00128B19A5
:1056A6007BFF7A9579DB7D5C7C017F647E001299B5
:1056B600F59004BAE0FB7A007D5C7C017F827E0077
:1056C600128B199004B9E0FB7A007D5C7C017FA007
:1056D6007E00128B199004B8E0FB7A007D5C7C0199
:1056E6007FBE7E00128B197851E6FA08E6FBC3945A
:1056F6000AEA940050097D5C7C017FEA02578978AA
:1057060051E6FE08E6FFC3940AEE94004016EF94B5
:1057160064EE9400500E18E6FA08E6FB7D5C7C0108
:105726007FCC805F7851E6FE08E6FFC39464EE9472
:10573600004016EF94E8EE9403500E18E6FA08E6D9
:10574600FB7D5C7C017FAE803A7851E6FE08E6FF81
:10575600C394E8EE94034016EF9410EE9427500E8F
:1057660018E6FA08E6FB7D5C7C017F90801578518F
