:0300000002965114
:0C965100787FE4F6D8FD758178029698C9
:1095B800474D00444C003A002E0075006D004700EE
:1095C800202000474D20202020202020202020205F
:1095D8002020202020202020202020202000444C53
:1095E8002020202020202020202020202020202073
:1095F800202020202020202000B1EAB6A8CCBDCD14
:10960800B700B8C7B8EFB9DC007547792F680043D1
:10961800504D00B5E7C0EBCAD2006D47792F6800FE
:1096280043503553003D8000003D8000003E00005F
:10963800003E8000003F00000001020408102040A6
:0996480080FEFDFBF7EFDFBF7FA0
:109AD500603001EE00000000000000000000000002
:109AE5000000000000000000000000000000000071
:109AF5000000000000000000000000000000000061
:049B0500000000005C
:10826300E4FFFE79287825E4F608D9FC7908900321
:1082730098E4F0A3D9FC9083007484F0908200E02A
:10828300FEC374FF9E900169F0908200E0FFC37407
:10829300FF9F90016AF09083007444F0908100E0A6
:1082A300FEC374FF9E90016BF0908100E0FFC374E6
:1082B300FF9F90016CF09083007404F0908000E0C5
:1082C300FEC374FF9E90016DF0908000E0FFC374C5
:1082D300FF9F90016EF0908B007484F0908A00E011
:1082E300FEC374FF9E90016FF0908A00E0FFC37499
:1082F300FF9F900170F0908B007444F0908900E030
:10830300FEC374FF9E900171F0908900E0FFC37477
:10831300FF9F900172F0908B007404F0908800E04E
:10832300FEC374FF9E900173F0908800E0FFC37456
:10833300FF9F900174F09093007484F0909200E09A
:10834300FEC374FF9E900175F0909200E0FFC3742A
:10835300FF9F900176F09093007444F0909100E0B9
:10836300FEC374FF9E900177F0909100E0FFC37409
:10837300FF9F900178F09093007404F0909000E0D8
:10838300FEC374FF9E900179F0909000E0FFC374E8
:10839300FF9F90017AF0909B007484F0909A00E024
:1083A300FEC374FF9E90017BF0909A00E0FFC374BC
:1083B300FF9F90017CF0909B007444F0909900E043
:1083C300FEC374FF9E90017DF0909900E0FFC3749B
:1083D300FF9F90017EF0909B007404F0909800E062
:1083E300FEC374FF9E90017FF0909800E0FFC3747A
:1083F300FF9F900180F090A3007484F090A200E0AE
:10840300FEC374FF9E900181F090A200E0FFC3744D
:10841300FF9F900182F090A3007444F090A100E0CC
:10842300FEC374FF9E900183F090A100E0FFC3742C
:10843300FF9F900184F090A3007404F090A000E0EB
:10844300FFC374FF9F900185F090A000E0FFC37409
:10845300FF9F900186F09001D4E0900167F09001B6
:0684630016E0900168F034
:0184690022F0
:1092A70090830074B4F090820074FFF0F090830014
:1092B7007474F090810074FFF0F09083007434F0C0
:1092C70090800074FFF0F0908B0074B4F0908A00E7
:1092D70074FFF0F0908B007474F090890074FFF0C5
:1092E700F0908B007434F090880074FFF0F0909346
:1092F7000074B4F090920074FFF0F09093007474CF
:10930700F090910074FFF0F09093007434F0909017
:109317000074FFF0F0909B0074B4F0909A0074FF13
:10932700F0F0909B007474F090990074FFF0F09047
:109337009B007434F090980074FFF0F090A30074D1
:10934700B4F090A20074FFF0F090A3007474F09052
:10935700A10074FFF0F090A3007434F090A00074A3
:10936700FFF0F07F439005EFE4F0A3DFFC7F209050
:1093770000F6E4F0A3DFFC785076FF90C00074FF9E
:0C938700F0C2A8D20AE49006FFF0A3F0A8
:0193930022B7
:1000460012A283E490067CF090067CE0D3940740ED
:10005600030225C8E0FF25E024DFF582E43401F53C
:1000660083E0FEEF25E024DEF582E43401F583E04B
:100076006E6003021B5DEE64046003020387900654
:100086007CE02498F582E43403F583E06003020300
:100096008790067CE0FB25E025E02420F582E43409
:1000A60002F58312795100000000EB75F00CA424D0
:1000B6009AF582E43400F583E0FCA3E0FDA3E0FEBC
:1000C600A3E0FF90067CE0FB75F00CA42496F58275
:1000D600E43400F58312792CEB75F00CA4249EF51C
:1000E60082E43400F583E0FCA3E0FDA3E0FEA3E098
:1000F600FFEB75F00CA4249AF582E43400F5831224
:10010600792CEBC39407505F90067CE0FD25E02533
:10011600E0246CF582E43401F583E0FEED25E0256C
:10012600E0246BF582E43401F583E07C002400FFD3
:10013600EC3EFEE4FDEB75F00CA4249EF582E4345F
:1001460000F58312792CEB25E025E0246CF582E49A
:100156003401F583E0FEEB25E025E0246BF582E42F
:100166003401F583E0803290067CE0FB6407704939
:10017600900186E0FAFE900185E0F97C002400FFFC
:10018600EC3EFEE4FDEB75F00CA4249EF582E4340F
:1001960000F58312792CEAFEE97C002400FDEC3E92
:1001A600FCE41274AB90067CE025E025E02420F503
:1001B60082E43402F58312792C90067CE0FB2498C5
:1001C600F582E43403F5837401F09005EEE075F0F2
:1001D60025A4FFAEF0E4FCFDEB75F00CA4249AF523
:1001E60082E43400F583E0F8A3E0F9A3E0FAA3E0A3
:1001F600FBC31278CA40030202809005EEE075F058
:1002060025A4FFAEF0E4FCFD90067CE075F00CA49E
:10021600249EF582E43400F583E0F8A3E0F9A3E038
:10022600FAA3E0FBC31278CA505090067CE0FFC3E5
:1002360094075046E0FE25E024DFF582E43401F51C
:1002460083E0FDEE25E024DEF582E43401F583ED5E
:10025600F090067CE0FE25E024DFF582E43401F52B
:10026600837403F0EE90964193FE784D46F6EE08C1
:1002760046F6EF909649930856F69005EEE075F02F
:100286001CA4FFAEF0E4FCFD90067CE075F00CA427
:10029600249AF582E43400F583E0F8A3E0F9A3E0BC
:1002A600FAA3E0FBC31278CA40030203329005EEBC
:1002B600E075F01CA4FFAEF0E4FCFD90067CE07552
:1002C600F00CA4249EF582E43400F583E0F8A3E064
:1002D600F9A3E0FAA3E0FBC31278CA504F90067C5C
:1002E600E0FF64077046E0FE25E024DFF582E43493
:1002F60001F583E0FDEE25E024DEF582E43401F528
:1003060083EDF090067CE0FE25E024DFF582E43400
:1003160001F5837403F0EE90964193FE784D46F610
:10032600EE0846F6EF909649930856F690067CE05E
:1003360025E025E02420F582E43402F583E0FCA3E1
:10034600E0FDA3E0FEA3E0FFE4FBFA79A07841120A
:10035600728790067CE0FB25E025E024B4F582E474
:100366003406F58312792C74A02BF582E43403F558
:10037600837404F074E62BF582E43405F583740186
:10038600F090067CE0FF25E024DFF582E43401F5F9
:1003960083E06403600302097C74982FF582E434D9
:1003A60003F583E0600302097C90067CE0FB75F0B0
:1003B6000CA4249AF582E43400F583E0FCA3E0FD66
:1003C600A3E0FEA3E0FFEB75F00CA42496F582E40F
:1003D6003400F58312792C90067CE0FB75F00CA4B2
:1003E600249EF582E43400F583E0FCA3E0FDA3E05F
:1003F600FEA3E0FFEB75F00CA4249AF582E434002A
:10040600F58312792C90067CE0FBC39407505CE0E0
:10041600FD25E025E0246CF582E43401F583E0FE59
:10042600ED25E025E0246BF582E43401F583E07CDC
:10043600002400FFEC3EFEE4FDEB75F00CA4249EC8
:10044600F582E43400F58312792CEB25E025E024CF
:100456006CF582E43401F583E0FEEB25E025E0242B
:100466006BF582E43401F583E0803290067CE0FB94
:1004760064077049900186E0FAFE900185E0F97CF8
:10048600002400FFEC3EFEE4FDEB75F00CA4249E78
:10049600F582E43400F58312792CEAFEE97C002427
:1004A60000FDEC3EFCE41274AB90067CE025E025F2
:1004B600E02420F582E43402F58312792C90067C40
:1004C600E0FB2498F582E43403F5837401F090058B
:1004D600EEE0FF7E007C167D5712773BE4FCFDEBD9
:1004E60075F00CA4249AF582E43400F583E0F8A3B1
:1004F600E0F9A3E0FAA3E0FBD31278CA50030205A1
:10050600899005EEE0FF7E007C167D5712773BE46E
:10051600FCFD90067CE075F00CA4249EF582E43484
:1005260000F583E0F8A3E0F9A3E0FAA3E0FBD31219
:1005360078CA404F90067CE0FF94075046E0FE25BF
:10054600E024DFF582E43401F583E0FDEE25E024C6
:10055600DEF582E43401F583EDF090067CE0FE25BD
:10056600E024DFF582E43401F5837404F0EE90961E
:100576004193FE784D46F6EF909649930856F6EE6F
:100586000846F69005EEE0FF7E007C1D7D1712778B
:100596003BE4FCFD90067CE075F00CA4249AF58201
:1005A600E43400F583E0F8A3E0F9A3E0FAA3E0FB66
:1005B600D31278CA50030206419005EEE0FF7E0092
:1005C6007C1D7D1712773BE4FCFD90067CE075F000
:1005D6000CA4249EF582E43400F583E0F8A3E0F948
:1005E600A3E0FAA3E0FBD31278CA404F90067CE062
:1005F600FF64077046E0FE25E024DFF582E434015F
:10060600F583E0FDEE25E024DEF582E43401F58392
:10061600EDF090067CE0FE25E024DFF582E434016F
:10062600F5837404F0EE90964193FE784D46F6EF0E
:10063600909649930856F6EE0846F69005EEE07554
:10064600F023A4FFAEF0E4FCFD90067CE075F00C10
:10065600A4249AF582E43400F583E0F8A3E0F9A334
:10066600E0FAA3E0FBC31278CA40030206F3900542
:10067600EEE075F023A4FFAEF0E4FCFD90067CE00E
:1006860075F00CA4249EF582E43400F583E0F8A30B
:10069600E0F9A3E0FAA3E0FBC31278CA504F900634
:1006A6007CE0FF64076046E0FE25E024DFF582E497
:1006B6003401F583E0FDEE25E024DEF582E4340125
:1006C600F583EDF090067CE0FE25E024DFF582E47C
:1006D6003401F5837402F0EE90964193784D46F618
:1006E600EF90964993FF0856F6EF0856F690067C6B
:1006F600E025E025E02420F582E43402F583E0FCE1
:10070600A3E0FDA3E0FEA3E0FFE4FBFA79A07841B5
:1007160012728790067CE0FB25E025E024B4F58282
:10072600E43406F58312792C74E62BF582E434055D
:10073600F5837401F074A02BF582E43403F5837419
:1007460003F0EB25E025E02420F582E43402F5836E
:100756001279510000000074E62BF582E43405F5A9
:1007660083E064016003020811EB25E025E024B470
:10077600F582E43406F583E0FCA3E0FDA3E0FEA3E6
:10078600E0FFE4FBFA79A078401273907B007AB818
:1007960079B2784512742D507290067CE0FF25E000
:1007A60024DFF582E43401F583E0FEEF25E024DE64
:1007B600F582E43401F583E06E705090067CE0C368
:1007C60094075047EF25E024DEF582E43401F583F3
:1007D600EEF090067CE0FF25E024DFF582E43401AC
:1007E600F5837404F074E62FF582E43405F583E4AA
:1007F600F090067CE0FF90964193FE784D46F6EF2A
:10080600909649930856F6EE0846F690067CE0FF69
:1008160024E6F582E43405F583E06401600302080A
:10082600C8EF25E025E024B4F582E43406F583E03C
:10083600FCA3E0FDA3E0FEA3E0FFE4FBFA79A078C9
:10084600401273907B007AB879E8784512742D507F
:100856007190067CE0FF25E024DFF582E43401F5A3
:1008660083E0FEEF25E024DEF582E43401F583E043
:100876006E704F90067CE064077047EF25E024DE3B
:10088600F582E43401F583EEF090067CE0FF25E086
:1008960024DFF582E43401F5837404F074E62FF561
:1008A60082E43405F583E4F090067CE0FF909641FF
:1008B60093FE784D46F6EF909649930856F6EE0865
:1008C60046F690067CE0FF24E6F582E43405F583DF
:1008D600E06401600302097CEF25E025E024B4F51D
:1008E60082E43406F583E0FCA3E0FDA3E0FEA3E08A
:1008F600FFE4FBFA79A07840127390E4FBFA790CD6
:10090600784212742D606F406D90067CE0FF25E002
:1009160024DFF582E43401F583E0FEEF25E024DEF2
:10092600F582E43401F583E06E704B90067CE0645A
:10093600076043E025E024DEF582E43401F583EE2A
:10094600F090067CE0FE25E024DFF582E43401F534
:10095600837402F074E62EF582E43405F583E4F040
:10096600EF90964193784D46F6EF90964993FF089F
:1009760056F6EF0856F690067CE0FF25E024DFF5F4
:1009860082E43401F583E064026003020DAC7498DE
:100996002FF582E43403F583E06003020DAC900684
:1009A6007CE0FB75F00CA4249AF582E43400F58310
:1009B600E0FCA3E0FDA3E0FEA3E0FFEB75F00CA4D2
:1009C6002496F582E43400F58312792C90067CE0B7
:1009D600FB75F00CA4249EF582E43400F583E0FC5C
:1009E600A3E0FDA3E0FEA3E0FFEB75F00CA4249AC0
:1009F600F582E43400F58312792C90067CE0FD251F
:100A0600E025E0246CF582E43401F583E0FEED2573
:100A1600E025E0246BF582E43401F583E07C0024D4
:100A260000FFEC3EFEE4FD90067CE0FB75F00CA4B6
:100A3600249EF582E43400F58312792CEB25E0251B
:100A4600E0246CF582E43401F583E0FEEB25E02535
:100A5600E0246BF582E43401F583E07C002400FD9C
:100A6600EC3EFCE41274AB90067CE0FB25E025E04E
:100A76002420F582E43402F58312792C74982BF540
:100A860082E43403F5837401F09005EEE0FF7E0006
:100A96007C157D2312773BE4FCFDEB75F00CA4245A
:100AA6009AF582E43400F583E0F8A3E0F9A3E0FACE
:100AB600A3E0FBD31278CA5003020B419005EEE087
:100AC600FF7E007C157D2312773BE4FCFD90067CBF
:100AD600E075F00CA4249EF582E43400F583E0F87A
:100AE600A3E0F9A3E0FAA3E0FBD31278CA404C9046
:100AF600067CE0FF25E024DFF582E43401F583E09F
:100B0600FEEF25E024DEF582E43401F583EEF09075
:100B1600067CE0FF25E024DFF582E43401F58374EA
:100B260003F0EF90964193FF784D46F6EF0846F6B0
:100B360090067CE0909649930856F69005EEE0758F
:100B4600F09EA4FFAEF0E4FCFD90067CE075F00C90
:100B5600A4249AF582E43400F583E0F8A3E0F9A32F
:100B6600E0FAA3E0FBC31278CA50759005EEE07573
:100B7600F09EA4FFAEF0E4FCFD90067CE075F00C60
:100B8600A4249EF582E43400F583E0F8A3E0F9A3FB
:100B9600E0FAA3E0FBC31278CA504590067CE0FF5A
:100BA60025E024DFF582E43401F583E0FEEF25E05D
:100BB60024DEF582E43401F583EEF090067CE0FF56
:100BC60025E024DFF582E43401F5837401F0EF902B
:100BD600964993FF784D56F6EF0856F6EF0856F607
:100BE60090067CE025E025E02420F582E43402F539
:100BF60083E0FCA3E0FDA3E0FEA3E0FFE4FBFA79BB
:100C0600A0784112728790067CE0FB25E025E0245F
:100C1600B4F582E43406F58312792C74E62BF5825A
:100C2600E43405F5837401F074A02BF582E43403F3
:100C3600F5837402F0EB25E025E02420F582E43408
:100C460002F5831279510000000074E62BF582E468
:100C56003405F583E064016003020CFEEB25E02514
:100C6600E024B4F582E43406F583E0FCA3E0FDA3BA
:100C7600E0FEA3E0FFE4FBFA79A078401273907BD4
:100C8600007A1879A9784512742D506C90067CE08C
:100C9600FF25E024DFF582E43401F583E0FEEF254D
:100CA600E024DEF582E43401F583E06E704A9006B6
:100CB6007CE025E024DEF582E43401F583EEF09055
:100CC600067CE0FF25E024DFF582E43401F5837439
:100CD60003F074E62FF582E43405F583E4F090061C
:100CE6007CE0FF90964193FE784D46F6EE0846F678
:100CF600EF909649930856F690067CE0FF24E6F5B9
:100D060082E43405F583E064016003020DACEF254F
:100D1600E025E024B4F582E43406F583E0FCA3E0A4
:100D2600FDA3E0FEA3E0FFE4FBFA79A0784012738E
:100D360090E4FBFA791E784312742D60694067903F
:100D4600067CE0FF25E024DFF582E43401F583E04C
:100D5600FEEF25E024DEF582E43401F583E06E70D3
:100D66004590067CE025E024DEF582E43401F58337
:100D7600EEF090067CE0FF25E024DFF582E4340106
:100D8600F5837401F074E62FF582E43405F583E407
:100D9600F090067CE090964993FF784D56F6EF0862
:100DA60056F6EF0856F690067CE0FF25E024DFF5C0
:100DB60082E43401F583E0640160030214F8749858
:100DC6002FF582E43403F583E060030214F89006FD
:100DD6007CE0FB75F00CA4249AF582E43400F583DC
:100DE600E0FCA3E0FDA3E0FEA3E0FFEB75F00CA49E
:100DF6002496F582E43400F58312792C90067CE083
:100E0600FB75F00CA4249EF582E43400F583E0FC27
:100E1600A3E0FDA3E0FEA3E0FFEB75F00CA4249A8B
:100E2600F582E43400F58312792C90067CE0FD25EA
:100E3600E025E0246AF582E43401F583E0FEED2541
:100E4600E025E02469F582E43401F583E07C0024A2
:100E560000FFEC3EFEE4FD90067CE0FB75F00CA482
:100E6600249EF582E43400F58312792CEB25E025E7
:100E7600E0246AF582E43401F583E0FEEB25E02503
:100E8600E02469F582E43401F583E07C002400FD6A
:100E9600EC3EFCE41274AB90067CE0FB25E025E01A
:100EA6002420F582E43402F58312792C74982BF50C
:100EB60082E43403F5837401F09005EEE0FF7E00D2
:100EC6007C177D8312773BE4FCFDEB75F00CA424C4
:100ED60096F582E43400F583E0F8A3E0F9A3E0FA9E
:100EE600A3E0FBD31278CA5003020FA79005EEE0E9
:100EF600FF7E007C177D8312773BE4FCFD90067C29
:100F0600E075F00CA4249AF582E43400F583E0F849
:100F1600A3E0F9A3E0FAA3E0FBD31278CA500302D8
:100F26000FA79005EEE0FF7E007C177D8312773BCE
:100F3600E4FCFD90067CE075F00CA4249EF582E4AA
:100F46003400F583E0F8A3E0F9A3E0FAA3E0FBD3CD
:100F56001278CA404C90067CE0FF25E024DFF5823B
:100F6600E43401F583E0FEEF25E024DEF582E43487
:100F760001F583EEF090067CE0FF25E024DFF582A4
:100F8600E43401F5837402F0EF90964193784D4670
:100F9600F690067CE090964993FF0856F6EF0856C1
:100FA600F69005EEE075F002A4FFAEF0E4FCFD90CD
:100FB600067CE075F00CA42496F582E43400F583F3
:100FC600E0F8A3E0F9A3E0FAA3E0FBC31278CA4075
:100FD6000302107E9005EEE075F002A4FFAEF0E489
:100FE600FCFD90067CE075F00CA4249AF582E434AE
:100FF60000F583E0F8A3E0F9A3E0FAA3E0FBC3124F
:1010060078CA50749005EEE075F002A4FFAEF0E4E5
:10101600FCFD90067CE075F00CA4249EF582E43479
:1010260000F583E0F8A3E0F9A3E0FAA3E0FBC3121E
:1010360078CA504490067CE0FF25E024DFF582E480
:101046003401F583E0FEEF25E024DEF582E4340189
:10105600F583EEF090067CE0FF25E024DFF582E4E0
:101066003401F583E4F0EF90964993FF784D56F6F8
:10107600EF0856F6EF0856F690067CE025E025E0E8
:101086002420F582E43402F583C083C082E0FCA309
:10109600E0FDA3E0FEA3E0FFE4FBFA79A0784112AD
:1010A6007287D082D08312792C90067CE0FB25E0F3
:1010B60025E02420F582E43402F583E0FCA3E0FD7C
:1010C600A3E0FEA3E0FFEB75F014A4243EF582E452
:1010D6003405F583C083C08290067CE024DEF58269
:1010E600E43405F583E0D082D08375F0041279826A
:1010F60012792C74DE2BF582E43405F583E004F0D6
:1011060090067CE024DEF582E43405F583E0FFC337
:101116009405400302133BEF24FE6034147003026F
:1011260011BE14700302125A2403600302133B908B
:10113600067CE0FB75F014A4243EF582E43405F544
:1011460083E0FCA3E0FDA3E0FEA3E0FFEB02132B8C
:1011560090067CE075F014A42442F582E43405F58B
:1011660083E0FCA3E0FDA3E0FEA3E0FF7B9A7A996F
:101176007919783F127287C004C005C006C007906F
:10118600067CE075F014A4243EF582E43405F5836C
:10119600E0FCA3E0FDA3E0FEA3E0FF7BCD7ACC79E3
:1011A600CC783E127287D003D002D001D0001271E3
:1011B6009690067CE002132B90067CE075F014A452
:1011C6002442F582E43405F583E0FCA3E0FDA3E0C8
:1011D600FEA3E0FF909639127910127287C004C000
:1011E60005C006C00790067CE075F014A4243EF501
:1011F60082E43405F583E0FCA3E0FDA3E0FEA3E072
:10120600FF909639127910127287D003D002D0015E
:10121600D000127196C004C005C006C00790067CB7
:10122600E075F014A42446F582E43405F583E0FC69
:10123600A3E0FDA3E0FEA3E0FF90963D1279101215
:101246007287D003D002D001D00012719690067C2E
:10125600E002132B90067CE075F014A42442F5827C
:10126600E43405F583E0FCA3E0FDA3E0FEA3E0FF84
:10127600909635127910127287C004C005C006C058
:101286000790067CE075F014A4243EF582E434054C
:10129600F583E0FCA3E0FDA3E0FEA3E0FF90963516
:1012A600127910127287D003D002D001D0001271C9
:1012B60096C004C005C006C00790067CE075F01411
:1012C600A42446F582E43405F583E0FCA3E0FDA3FF
:1012D600E0FEA3E0FF909639127910127287D003D0
:1012E600D002D001D000127196C004C005C006C05D
:1012F6000790067CE075F014A4244AF582E43405D0
:10130600F583E0FCA3E0FDA3E0FEA3E0FF90963D9D
:10131600127910127287D003D002D001D000127158
:101326009690067CE025E025E024B4F582E43406B8
:10133600F58312792C90067CE0FF24DEF582E434F6
:1013460005F583E0640560030214DAEF75F014A472
:101356002442F582E43405F583E0FCA3E0FDA3E036
:10136600FEA3E0FF909631127910127287C004C076
:1013760005C006C00790067CE075F014A4243EF56F
:1013860082E43405F583E0FCA3E0FDA3E0FEA3E0E0
:10139600FF90962D127910127287D003D002D001D9
:1013A600D000127196C004C005C006C00790067C26
:1013B600E075F014A42446F582E43405F583E0FCD8
:1013C600A3E0FDA3E0FEA3E0FF909635127910128C
:1013D6007287D003D002D001D000127196C004C02B
:1013E60005C006C00790067CE075F014A4244AF5F3
:1013F60082E43405F583E0FCA3E0FDA3E0FEA3E070
:10140600FF909639127910127287D003D002D0015C
:10141600D000127196C004C005C006C00790067CB5
:10142600E075F014A4244EF582E43405F583E0FC5F
:10143600A3E0FDA3E0FEA3E0FF90963D1279101213
:101446007287D003D002D001D00012719690067C2C
:10145600E025E025E024B4F582E43406F58312792C
:101466002CE490067EF090067CE075F014A42442ED
:10147600F582E43405F583C083C08290067EE0D011
:1014860082D08375F004127982E0FCA3E0FDA3E02C
:10149600FEA3E0FF90067CE075F014A4243EF582DE
:1014A600E43405F583C083C08290067EE0D082D006
:1014B6008375F00412798212792C90067EE004F08E
:1014C600E0B404A290067CE024DEF582E43405F55F
:1014D60083E014F090067CE0FF24E6F582E4340510
:1014E600F5837401F074A02FF582E43403F5837458
:1014F60001F090067CE0FF25E024DFF582E434016C
:10150600F583E060030225BF74982FF582E4340367
:10151600F583E060030225BF90067CE0FB75F00CC6
:10152600A4249AF582E43400F583E0FCA3E0FDA34D
:10153600E0FEA3E0FFEB75F00CA42496F582E434FC
:1015460000F58312792C90067CE0FB75F00CA42440
:101556009EF582E43400F583E0FCA3E0FDA3E0FE03
:10156600A3E0FFEB75F00CA4249AF582E43400F5B1
:101576008312792C90067CE0FD25E025E0246AF5AF
:1015860082E43401F583E0FEED25E025E02469F5EB
:1015960082E43401F583E07C002400FFEC3EFEE4A7
:1015A600FD90067CE0FB75F00CA4249EF582E434E5
:1015B60000F58312792CEB25E025E0246AF582E418
:1015C6003401F583E0FEEB25E025E02469F582E4AD
:1015D6003401F583E07C002400FDEC3EFCE412744B
:1015E600AB90067CE0FB25E025E02420F582E43480
:1015F60002F58312792C74982BF582E43403F58373
:101606007401F09005EEE075F003A4FFAEF0E4FC83
:10161600FDEB75F00CA42496F582E43400F583E026
:10162600F8A3E0F9A3E0FAA3E0FBD31278CA5003CB
:101636000216DE9005EEE075F003A4FFAEF0E4FCC2
:10164600FD90067CE075F00CA4249AF582E4340043
:10165600F583E0F8A3E0F9A3E0FAA3E0FBD3127860
:10166600CA40759005EEE075F003A4FFAEF0E4FC09
:10167600FD90067CE075F00CA4249EF582E434000F
:10168600F583E0F8A3E0F9A3E0FAA3E0FBD3127830
:10169600CA404590067CE0FF25E024DFF582E4346D
:1016A60001F583E0FEEF25E024DEF582E43401F562
:1016B60083EEF090067CE0FF25E024DFF582E4343B
:1016C60001F5837401F0EF90964993FF784D56F635
:1016D600EF0856F6EF0856F690067CE025E025E082
:1016E6002420F582E43402F583C083C082E0FCA3A3
:1016F600E0FDA3E0FEA3E0FFE4FBFA79A078411247
:101706007287D082D08312792C90067CE0FB25E08C
:1017160025E02420F582E43402F583E0FCA3E0FD15
:10172600A3E0FEA3E0FFEB75F014A4243EF582E4EB
:101736003405F583C083C08290067CE024DEF58202
:10174600E43405F583E0D082D08375F00412798203
:1017560012792C74DE2BF582E43405F583E004F06F
:1017660090067CE024DEF582E43405F583E0FFC3D1
:101776009405400302199EEF24FE603414700302A0
:10178600181E1470030218BA24036003021B3D904E
:10179600067CE0FB75F014A4243EF582E43405F5DE
:1017A60083E0FCA3E0FDA3E0FEA3E0FFEB02198BC0
:1017B60090067CE075F014A42442F582E43405F525
:1017C60083E0FCA3E0FDA3E0FEA3E0FF7B9A7A9909
:1017D6007919783F127287C004C005C006C0079009
:1017E600067CE075F014A4243EF582E43405F58306
:1017F600E0FCA3E0FDA3E0FEA3E0FF7BCD7ACC797D
:10180600CC783E127287D003D002D001D00012717C
:101816009690067CE002198B90067CE075F014A485
:101826002442F582E43405F583E0FCA3E0FDA3E061
:10183600FEA3E0FF909639127910127287C004C099
:1018460005C006C00790067CE075F014A4243EF59A
:1018560082E43405F583E0FCA3E0FDA3E0FEA3E00B
:10186600FF909639127910127287D003D002D001F8
:10187600D000127196C004C005C006C00790067C51
:10188600E075F014A42446F582E43405F583E0FC03
:10189600A3E0FDA3E0FEA3E0FF90963D12791012AF
:1018A6007287D003D002D001D00012719690067CC8
:1018B600E002198B90067CE075F014A42442F582B0
:1018C600E43405F583E0FCA3E0FDA3E0FEA3E0FF1E
:1018D600909635127910127287C004C005C006C0F2
:1018E6000790067CE075F014A4243EF582E43405E6
:1018F600F583E0FCA3E0FDA3E0FEA3E0FF909635B0
:10190600127910127287D003D002D001D000127162
:1019160096C004C005C006C00790067CE075F014AA
:10192600A42446F582E43405F583E0FCA3E0FDA398
:10193600E0FEA3E0FF909639127910127287D00369
:10194600D002D001D000127196C004C005C006C0F6
:101956000790067CE075F014A4244AF582E4340569
:10196600F583E0FCA3E0FDA3E0FEA3E0FF90963D37
:10197600127910127287D003D002D001D0001271F2
:101986009690067CE025E025E024B4F582E4340652
:10199600F58312792C021B3D90067CE0FF24DEF5D0
:1019A60082E43405F583E064056003021B3DEF75B0
:1019B600F014A42442F582E43405F583E0FCA3E0A8
:1019C600FDA3E0FEA3E0FF90963112791012728714
:1019D600C004C005C006C00790067CE075F014A4DC
:1019E600243EF582E43405F583E0FCA3E0FDA3E0A4
:1019F600FEA3E0FF90962D127910127287D003D0C5
:101A060002D001D000127196C004C005C006C007FE
:101A160090067CE075F014A42446F582E43405F5BE
:101A260083E0FCA3E0FDA3E0FEA3E0FF9096351261
:101A36007910127287D003D002D001D000127196AD
:101A4600C004C005C006C00790067CE075F014A46B
:101A5600244AF582E43405F583E0FCA3E0FDA3E027
:101A6600FEA3E0FF909639127910127287D003D048
:101A760002D001D000127196C004C005C006C0078E
:101A860090067CE075F014A4244EF582E43405F546
:101A960083E0FCA3E0FDA3E0FEA3E0FF90963D12E9
:101AA6007910127287D003D002D001D0001271963D
:101AB60090067CE025E025E024B4F582E43406F5C2
:101AC6008312792CE490067EF090067CE075F01483
:101AD600A42442F582E43405F583C083C0829006CF
:101AE6007EE0D082D08375F004127982E0FCA3E018
:101AF600FDA3E0FEA3E0FF90067CE075F014A424AD
:101B06003EF582E43405F583C083C08290067EE00C
:101B1600D082D08375F00412798212792C90067ED9
:101B2600E004F0E0B404A290067CE024DEF582E452
:101B36003405F583E014F090067CE0FF24E6F58298
:101B4600E43405F5837401F074A02FF582E43403C0
:101B5600F583E4F00225BF90067CE0FF25E024DF54
:101B6600F582E43401F583E0FEEF25E024DEF5821C
:101B7600E43401F583E06E70030225BFEE64046071
:101B860003021D3590067CE02498F582E43403F5C3
:101B960083E06003021D3590067FF09005EEE0FFBE
:101BA6007E007C037DE812773BE4FCFD90067CE03A
:101BB60075F00CA42496F582E43400F583C083C046
:101BC6008290067FE0D082D08375F004127982126B
:101BD600792C90067FE004F0E0B403BF90067CE029
:101BE600FB25E025E02420F582E43402F583127912
:101BF6005100000000EBC39407506390067CE0FDA3
:101C060025E025E0246CF582E43401F583E0FEED61
:101C160025E025E0246BF582E43401F583E07C00C1
:101C26002400FFEC3EFEE4FD90067CE0FB75F00C24
:101C3600A4249EF582E43400F58312792CEB25E08A
:101C460025E0246CF582E43401F583E0FEEB25E023
:101C560025E0246BF582E43401F583E080329006BA
:101C66007CE0FB64077049900186E0FAFE900185EE
:101C7600E0F97C002400FFEC3EFEE4FDEB75F00C81
:101C8600A4249EF582E43400F58312792CEAFEE959
:101C96007C002400FDEC3EFCE41274AB90067CE074
:101CA60025E025E02420F582E43402F58312792C20
:101CB60090067CE0FF2498F582E43403F5837401F2
:101CC600F0EF25E025E02420F582E43402F583E0F8
:101CD600FCA3E0FDA3E0FEA3E0FFE4FBFA79A07815
:101CE6004112728790067CE0FB25E025E024B4F5DE
:101CF60082E43406F58312792C74E62BF582E434FB
:101D060005F5837401F074A02BF582E43403F583A2
:101D16007404F0EB25E024DFF582E43401F583E07A
:101D2600FFEB25E024DEF582E43401F583EFF09045
:101D3600067CE0FF25E024DFF582E43401F583E04C
:101D460064036003021EF174982FF582E43403F5F0
:101D560083E06003021EF190067FF09005EEE0FF3F
:101D66007E007C077DD012773BE4FCFD90067CE08C
:101D760075F00CA42496F582E43400F583C083C084
:101D86008290067FE0D082D08375F00412798212A9
:101D9600792C90067FE004F0E0B403BF90067CE067
:101DA600FB25E025E02420F582E43402F583127950
:101DB600510000000074E62BF582E43405F583E457
:101DC600F090067CE0FBC39407505CE0FD25E0251F
:101DD600E0246CF582E43401F583E0FEED25E02590
:101DE600E0246BF582E43401F583E07C002400FFF7
:101DF600EC3EFEE4FDEB75F00CA4249EF582E43483
:101E060000F58312792CEB25E025E0246CF582E4BD
:101E16003401F583E0FEEB25E025E0246BF582E452
:101E26003401F583E0803290067CE0FB640770495C
:101E3600900186E0FAFE900185E0F97C002400FF1F
:101E4600EC3EFEE4FDEB75F00CA4249EF582E43432
:101E560000F58312792CEAFEE97C002400FDEC3EB5
:101E6600FCE41274AB90067CE025E025E02420F526
:101E760082E43402F58312792C90067CE0FF2498E4
:101E8600F582E43403F5837401F0EF25E025E024C0
:101E960020F582E43402F583E0FCA3E0FDA3E0FE36
:101EA600A3E0FFE4FBFA79A0784112728790067CE2
:101EB600E0FB25E025E024B4F582E43406F5831240
:101EC600792C74A02BF582E43403F5837403F0EBCC
:101ED60025E024DFF582E43401F583E0FFEB25E01D
:101EE60024DEF582E43401F583EFF090067CE0FF12
:101EF60025E024DFF582E43401F583E06402600323
:101F06000220EE74982FF582E43403F583E0600333
:101F16000220EE90067FF09005EEE0FF7E007C0743
:101F26007DD012773BE4FCFD90067CE075F00CA4B6
:101F36002496F582E43400F583C083C08290067F40
:101F4600E0D082D08375F00412798212792C900643
:101F56007FE004F0E0B403BF90067CE0FB25E025BB
:101F6600E02420F582E43402F58312795100000062
:101F76000074E62BF582E43405F583E4F090067CE4
:101F8600E0FBC39407507CE0FD25E025E0246CF5DA
:101F960082E43401F583E0FEED25E025E0246BF5CF
:101FA60082E43401F583E07C002400FFEC3EFEE48D
:101FB600FDEB75F00CA4249EF582E43400F5831243
:101FC600792CEB25E025E0246CF582E43401F583D9
:101FD600E0FEEB25E025E0246BF582E43401F58391
:101FE600E07C002400FDEC3EFCE41274AB90067C21
:101FF600E025E025E02420F582E43402F583127919
:102006002C807390067CE06407706B900186E0FB81
:10201600FE900185E0F97C002400FFEC3EFEE4FD25
:1020260090067CE075F00CA4249EF582E43400F55D
:102036008312792CEBFEE97C002400FDEC3EFCE4E7
:102046001274AB90067CE0FB25E025E02420F582A7
:10205600E43402F58312792CEB25E024DFF582E4E3
:102066003401F5837403F0EB25E024DEF582E434D5
:1020760001F5837403F090067CE0FF2498F582E472
:102086003403F5837401F0EF25E025E02420F58282
:10209600E43402F583E0FCA3E0FDA3E0FEA3E0FF49
:1020A600E4FBFA79A0784112728790067CE0FB2562
:1020B600E025E024B4F582E43406F58312792C7425
:1020C600A02BF582E43403F5837402F0EB25E024BB
:1020D600DFF582E43401F583E0FFEB25E024DEF54D
:1020E60082E43401F583EFF090067CE0FF25E024DE
:1020F600DFF582E43401F583E06401600302235CCA
:1021060074982FF582E43403F583E0600302235CC0
:1021160090067FF09005EEE0FF7E007C037DE812DE
:10212600773BE4FCFD90067CE075F00CA42496F564
:1021360082E43400F583C083C08290067FE0D082BB
:10214600D08375F00412798212792C90067FE00410
:10215600F0E0B403BF90067CE0FB25E025E02420F8
:10216600F582E43402F5831279510000000074E62A
:102176002BF582E43405F583E4F090067CE024DE5A
:10218600F582E43405F583E4F090067EF090067E51
:10219600E0FFC3940A502790067CE075F014A4244F
:1021A6003EF582E43405F58375F004EF1279821268
:1021B60079510000000090067EE004F080CF900682
:1021C6007CE0FD25E025E0246AF582E43401F58310
:1021D600E0FEED25E025E02469F582E43401F5838F
:1021E600E07C002400FFEC3EFEE4FD90067CE0FB74
:1021F60075F00CA4249EF582E43400F58312792C44
:10220600EB25E025E0246AF582E43401F583E0FE5F
:10221600EB25E025E02469F582E43401F583E07CD2
:10222600002400FDEC3EFCE41274AB90067CE0FB5F
:1022360025E025E02420F582E43402F58312792C8A
:10224600EB25E025E02420F582E43402F583C08303
:10225600C082E0FCA3E0FDA3E0FEA3E0FFE4FBFAFE
:1022660079A07841127287D082D08312792C900699
:102276007CE0FB25E025E02420F582E43402F583AA
:10228600E0FCA3E0FDA3E0FEA3E0FFEB75F014A4E1
:10229600243EF582E43405F583C083C08290067C33
:1022A600E024DEF582E43405F583E0D082D0837540
:1022B600F00412798212792CEB75F014A4243EF501
:1022C60082E43405F583C083C08290067CE0FB245B
:1022D600DEF582E43405F583E0D082D08375F00420
:1022E600127982E0FCA3E0FDA3E0FEA3E0FFEB256C
:1022F600E025E024B4F582E43406F58312792C90C7
:10230600067CE0FF24DEF582E43405F583E004F084
:1023160074E62FF582E43405F5837401F074A02F7A
:10232600F582E43403F5837401F074982FF582E4A2
:102336003403F5837401F0EF25E024DFF582E434FD
:1023460001F583E0FF90067CE025E024DEF582E4DB
:102356003401F583EFF090067CE0FF25E024DFF5FD
:1023660082E43401F583E060030225BF74982FF5FB
:1023760082E43403F583E060030225BF90067FF014
:102386009005EEE0FFE4FCFDFE90067CE075F00CA7
:10239600A42496F582E43400F583C083C0829006B7
:1023A6007FE0D082D08375F00412798212792C9066
:1023B600067FE004F0E0B403C790067CE0FB25E06E
:1023C60025E02420F582E43402F5831279510000D9
:1023D600000074E62BF582E43405F583E4F09006FC
:1023E6007CE024DEF582E43405F583E4F090067E95
:1023F600F090067EE0FFC3940A502790067CE075B5
:10240600F014A4243EF582E43405F58375F004EF58
:102416001279821279510000000090067EE004F0E5
:1024260080CF90067CE0FD25E025E0246AF582E475
:102436003401F583E0FEED25E025E02469F582E42C
:102446003401F583E07C002400FFEC3EFEE4FD90C1
:10245600067CE0FB75F00CA4249EF582E43400F5BE
:102466008312792CEB25E025E0246AF582E4340119
:10247600F583E0FEEB25E025E02469F582E43401EE
:10248600F583E07C002400FDEC3EFCE41274AB9086
:10249600067CE0FB25E025E02420F582E43402F505
:1024A6008312792CEB25E025E02420F582E4340222
:1024B600F583C083C082E0FCA3E0FDA3E0FEA3E0B9
:1024C600FFE4FBFA79A07841127287D082D083129A
:1024D600792C90067CE0FB25E025E02420F582E4BB
:1024E6003402F583E0FCA3E0FDA3E0FEA3E0FFEBEE
:1024F60075F014A4243EF582E43405F583C083C048
:102506008290067CE024DEF582E43405F583E0D093
:1025160082D08375F00412798212792CEB75F0144F
:10252600A4243EF582E43405F583C083C082900678
:102536007CE0FB24DEF582E43405F583E0D082D02E
:102546008375F004127982E0FCA3E0FDA3E0FEA30C
:10255600E0FFEB25E025E024B4F582E43406F583BC
:1025660012792C90067CE0FF24DEF582E43405F532
:1025760083E004F074E62FF582E43405F5837401F4
:10258600F074A02FF582E43403F583E4F074982FF9
:10259600F582E43403F5837401F0EF25E024DFF5DA
:1025A60082E43401F583E0FF90067CE025E024DE3A
:1025B600F582E43401F583EFF090067CE004F00246
:1025C600004E784DE690A800F0784FE690B000F007
:1025D60018E690B800F0201803024B50E490067EEF
:1025E600F090067EE0FFC394084003024AEBEF75C5
:1025F600F00CA4249EF582E43400F583E0FCA3E00D
:10260600FDA3E0FEA3E0FFE47B03FAF9F812782AC3
:1026160090021EEEF0A3EFF0785912793800000010
:1026260000900691127951000000009006951279EB
:10263600510000000090068D12795100000000E460
:1026460090069EF090069DF090069CF090069BF0FA
:1026560090069AF0900699F090067EE0FF75F00AD3
:10266600A490067DF0EFC394074003022B7FA3E0FE
:1026760024E6F582E43405F583E4F074A02FF582B0
:10268600E43403F583E0600302276190067DE0FBF6
:1026960024A9F582E43403F583E0FF7E007C037D04
:1026A600E812773BAC06AD07744C2BF582E4340098
:1026B600F583E075F064A42DFDEC35F0FC90067D05
:1026C600E02401F582E43400F583E075F00AA42DD8
:1026D600FFE5F03CFE74182BF582E43401F583E047
:1026E6007C002FFDEC3EFCE41274AB7825127920B9
:1026F60090067DE0FB24AAF582E43403F583E0FF2F
:102706007E007C037DE812773BAC06AD07744D2B4B
:10271600F582E43400F583E075F064A42DFDEC3514
:10272600F0FC90067DE02402F582E43400F583E0B7
:1027360075F00AA42DFFE5F03CFE74192BF582E432
:102746003401F583E07C002FFDEC3EFCE41274AB13
:102756007B007A2479747849022C7590067EE024F1
:10276600A0F582E43403F583E0640160030228499E
:1027760090067DE0FB24ABF582E43403F583E0FFAD
:102786007E007C037DE812773BAC06AD07744E2BCA
:10279600F582E43400F583E075F064A42DFDEC3594
:1027A600F0FC90067DE02403F582E43400F583E036
:1027B60075F00AA42DFFE5F03CFE741A2BF582E4B1
:1027C6003401F583E07C002FFDEC3EFCE41274AB93
:1027D600782D12792090067DE0FB24ACF582E43456
:1027E60003F583E0FF7E007C037DE812773BAC06B1
:1027F600AD07744F2BF582E43400F583E075F06481
:10280600A42DFDEC35F0FC90067DE02404F582E471
:102816003400F583E075F00AA42DFFE5F03CFE7464
:102826001B2BF582E43401F583E07C002FFDEC3EA2
:10283600FCE41274AB7B007A2479747849127390A5
:10284600022D8A90067EE024A0F582E43403F58307
:10285600E06402600302295B90067DE0FB24ADF58F
:1028660082E43403F583E0FF7E007C037DE8127783
:102876003BAC06AD0774502BF582E43400F583E0DB
:1028860075F064A42DFDEC35F0FC90067DE0240582
:10289600F582E43400F583E075F00AA42DFFE5F037
:1028A6003CFE741C2BF582E43401F583E07C002F9A
:1028B600FDEC3EFCE41274AB783512792090067D6F
:1028C600E0FB24AEF582E43403F583E0FF7E007C72
:1028D600037DE812773BAC06AD0774512BF582E415
:1028E6003400F583E075F064A42DFDEC35F0FC9022
:1028F600067DE02406F582E43400F583E075F00AEF
:10290600A42DFFE5F03CFE741D2BF582E43401F5A1
:1029160083E07C002FFDEC3EFCE41274ABE4FBFA92
:10292600797A7844127390783912792090067EE08D
:1029360025E025E024B4F582E43406F583E0FCA323
:10294600E0FDA3E0FEA3E0FF78351278F71271925E
:102956007839022DB590067EE024A0F582E4340392
:10296600F583E064036003022A6D90067DE0FB2494
:10297600AFF582E43403F583E0FF7E007C037DE857
:1029860012773BAC06AD0774522BF582E43400F5A2
:1029960083E075F064A42DFDEC35F0FC90067DE037
:1029A6002407F582E43400F583E075F00AA42DFFD0
:1029B600E5F03CFE741E2BF582E43401F583E07CE1
:1029C600002FFDEC3EFCE41274AB783D12792090AA
:1029D600067DE0FB24B0F582E43403F583E0FF7E58
:1029E600007C037DE812773BAC06AD0774532BF5EC
:1029F60082E43400F583E075F064A42DFDEC35F037
:102A0600FC90067DE02408F582E43400F583E07549
:102A1600F00AA42DFFE5F03CFE741F2BF582E4348A
:102A260001F583E07C002FFDEC3EFCE41274ABE480
:102A3600FBFA79207841127390784112792090063A
:102A46007EE025E025E024B4F582E43406F583E053
:102A5600FCA3E0FDA3E0FEA3E0FF783D1278F712A9
:102A660071927841022DB590067EE024A0F582E4AD
:102A76003403F583E064046003022DCF90067DE005
:102A8600FB24B1F582E43403F583E0FF7E007C038A
:102A96007DE812773BAC06AD0774542BF582E4341F
:102AA60000F583E075F064A42DFDEC35F0FC90068E
:102AB6007DE02409F582E43400F583E075F00AA48C
:102AC6002DFFE5F03CFE74202BF582E43401F583FE
:102AD600E07C002FFDEC3EFCE41274AB78451279E5
:102AE6002090067DE0FB24B2F582E43403F583E012
:102AF600FF7E007C037DE812773BAC06AD0774557C
:102B06002BF582E43400F583E075F064A42DFDEC2A
:102B160035F0FC90067DE0240AF582E43400F58366
:102B2600E075F00AA42DFFE5F03CFE74212BF5823A
:102B3600E43401F583E07C002FFDEC3EFCE41274E6
:102B4600ABE4FBFA79207841127287784912792032
:102B560090067EE025E025E024B4F582E43406F50F
:102B660083E0FCA3E0FDA3E0FEA3E0FF7845127836
:102B7600F71271927849022DB590067EE0FF640740
:102B86006003022DCF74E62FF582E43405F583E465
:102B9600F074A02FF582E43403F583E06403600348
:102BA600022CA690067DE0FB24A9F582E43403F509
:102BB60083E0FF7E007C037DE812773BAC06AD0721
:102BC600744C2BF582E43400F583E075F064A42D93
:102BD600FDEC35F0FC90067DE02401F582E434003E
:102BE600F583E075F00AA42DFFE5F03CFE74182B82
:102BF600F582E43401F583E07C002FFDEC3EFCE435
:102C06001274AB782512792090067DE0FB24AAF594
:102C160082E43403F583E0FF7E007C037DE81277CF
:102C26003BAC06AD07744D2BF582E43400F583E02A
:102C360075F064A42DFDEC35F0FC90067DE02402D1
:102C4600F582E43400F583E075F00AA42DFFE5F083
:102C56003CFE74192BF582E43401F583E07C002FE9
:102C6600FDEC3EFCE41274ABE4FBFA7920784112E9
:102C76007390782912792090067EE025E025E024DD
:102C8600B4F582E43406F583E0FCA3E0FDA3E0FEA0
:102C9600A3E0FF78251278F71271927829022DB5F4
:102CA60090067EE024A0F582E43403F583E0640414
:102CB6006003022DCF90067DE0FB24ABF582E43461
:102CC60003F583E0FF7E007C037DE812773BAC06CC
:102CD600AD07744E2BF582E43400F583E075F0649D
:102CE600A42DFDEC35F0FC90067DE02403F582E48E
:102CF6003400F583E075F00AA42DFFE5F03CFE7480
:102D06001A2BF582E43401F583E07C002FFDEC3EBE
:102D1600FCE41274AB782D12792090067DE0FB243A
:102D2600ACF582E43403F583E0FF7E007C037DE8A6
:102D360012773BAC06AD07744F2BF582E43400F5F1
:102D460083E075F064A42DFDEC35F0FC90067DE083
:102D56002404F582E43400F583E075F00AA42DFF1F
:102D6600E5F03CFE741B2BF582E43401F583E07C30
:102D7600002FFDEC3EFCE41274ABE4FBFA792078FC
:102D860041127287783112792090067EE025E0257F
:102D9600E024B4F582E43406F583E0FCA3E0FDA369
:102DA600E0FEA3E0FF782D1278F7127192783112C7
:102DB60078F712728790067EE025E025E024F6F586
:102DC60082E43400F58312792C90067EE025E02516
:102DD600E024F6F582E43400F583E0FCA3E0FDA3ED
:102DE600E0FEA3E0FFE4FBFAF9F812742D600D4053
:102DF6000B785912793800000000807690067EE044
:102E060025E025E024F6F582E43400F583E0FCA312
:102E1600E0FDA3E0FEA3E0FFE4FBFAF9F812742D4F
:102E260060054003022F6690067EE025E025E0243B
:102E3600F6F582E43400F583E0FCA3E0FDA3E0FEB2
:102E4600A3E0FFE4FBFA797A784412742D602C40F3
:102E56002A90067EE025E025E024F6F582E434009B
:102E6600F583E0FCA3E0FDA3E0FEA3E0FF785912A2
:102E760079209001667401F0022F6690067EE025A7
:102E8600E025E024F6F582E43400F583E0FCA3E0D7
:102E9600FDA3E0FEA3E0FFE4FBFA797A784412741E
:102EA6002D6002505E90067EE025E025E024F6F5D2
:102EB60082E43400F583E0FCA3E0FDA3E0FEA3E09A
:102EC600FF7B007A247974784912742D603540337B
:102ED60090067EE025E025E024F6F582E43400F550
:102EE60083E0FCA3E0FDA3E0FEA3E0FFE4FBFA79A8
:102EF6007A78441273907859127920900166740298
:102F0600F0805D90067EE025E025E024F6F582E47B
:102F16003400F583E0FCA3E0FDA3E0FEA3E0FF7B25
:102F2600007A247974784912742D60025032900622
:102F36007EE025E025E024F6F582E43400F583E022
:102F4600FCA3E0FDA3E0FEA3E0FF7B007A247974F6
:102F5600784912739078591279209001667403F0BB
:102F660090067EE025E025E024F6F582E43400F5BF
:102F760083E0FCA3E0FDA3E0FEA3E0FFE4FBFAF997
:102F8600F812742D603D403B90067EE0FF25E0255B
:102F9600E024F3F582E43405F5837430F0EF25E0A0
:102FA60025E024F4F582E43405F5837430F0EF254A
:102FB600E025E024F5F582E43405F5837430F0EF7E
:102FC6000230CB90067EE025E025E024F6F582E48B
:102FD6003400F583E0FCA3E0FDA3E0FEA3E0FFE4FC
:102FE600FBFAF9F812742D60054003023AAE90061A
:102FF6007EE025E025E024F6F582E43400F583E062
:10300600FCA3E0FDA3E0FEA3E0FFE4FBFA798078F1
:103016003F12742D600250030230DE90067EE025DA
:10302600E025E024F6F582E43400F583E0FCA3E035
:10303600FDA3E0FEA3E0FFE4FBFA797A784412727E
:1030460087785512792078551278DB1274E4AB072D
:10305600AA067C007D641277A2EF2430FF90067EDC
:10306600E025E025E024F3F582E43405F583EFF06E
:103076007C007D64AF03AE021277A2AA04AB057D85
:103086000A7C00AF03AE021277A2EF2430FF90064F
:103096007EE025E025E024F4F582E43405F583EFAF
:1030A600F07D0A7C00AF03AE021277A2ED2430FF5A
:1030B60090067EE0FE25E025E024F5F582E4340561
:1030C600F583EFF0EE25E025E024F6F582E43405FD
:1030D600F5837430F0023AAE90067EE025E025E0F6
:1030E60024F6F582E43400F583E0FCA3E0FDA3E0DA
:1030F600FEA3E0FFE4FBFA7980783F12742D6005A9
:1031060040030231F590067EE025E025E024F6F541
:1031160082E43400F583E0FCA3E0FDA3E0FEA3E037
:10312600FFE4FBFA7920784112742D600250030205
:1031360031F590067EE025E025E024F6F582E434BC
:1031460000F583E0FCA3E0FDA3E0FEA3E0FFE4FBC3
:10315600FA79C87842127287785512792078551212
:1031660078DB1274E4AB07AA067C007D641277A2B2
:10317600EF2430FF90067EE025E025E024F3F5827B
:10318600E43405F583EFF07C007D64AF03AE0212F4
:1031960077A2AA04AB057D0A7C00AF03AE021277C4
:1031A600A2EF2430FF90067EE025E025E024F4F52A
:1031B60082E43405F583EFF07D0A7C00AF03AE02AE
:1031C6001277A2ED2430FF90067EE0FE25E025E092
:1031D60024F5F582E43405F583EFF0EE25E025E0ED
:1031E60024F6F582E43405F5837431F0023AAE90A4
:1031F600067EE025E025E024F6F582E43400F5833A
:10320600E0FCA3E0FDA3E0FEA3E0FFE4FBFA7920E7
:10321600784112742D6005400302330C90067EE05F
:1032260025E025E024F6F582E43400F583E0FCA3EE
:10323600E0FDA3E0FEA3E0FFE4FBFA79C8784212C2
:10324600742D6002500302330C90067EE025E025C3
:10325600E024F6F582E43400F583E0FCA3E0FDA368
:10326600E0FEA3E0FFE4FBFA79207841127287784A
:103276005512792078551278DB1274E4AB07AA064A
:103286007C007D641277A2EF2430FF90067EE02555
:10329600E025E024F3F582E43405F583EFF07C00C5
:1032A6007D64AF03AE021277A2AA04AB057D0A7C49
:1032B60000AF03AE021277A2EF2430FF90067EE045
:1032C60025E025E024F4F582E43405F583EFF07D6E
:1032D6000A7C00AF03AE021277A2ED2430FF9006FF
:1032E6007EE0FE25E025E024F5F582E43405F5834D
:1032F600EFF0EE25E025E024F6F582E43405F583CB
:103306007432F0023AAE90067EE025E025E024F61F
:10331600F582E43400F583E0FCA3E0FDA3E0FEA320
:10332600E0FFE4FBFA79C8784212742D6005400389
:1033360002341990067EE025E025E024F6F582E4C5
:103346003400F583E0FCA3E0FDA3E0FEA3E0FFE488
:10335600FBFA797A784412742D600250030234190C
:1033660090067EE025E025E024F6F582E43400F5BB
:1033760083E0FCA3E0FDA3E0FEA3E0FF785512790D
:103386002078551278DB1274E4AB07AA067C007D20
:10339600641277A2EF2430FF90067EE025E025E058
:1033A60024F3F582E43405F583EFF07C007D64AF09
:1033B60003AE021277A2AA04AB057D0A7C00AF0316
:1033C600AE021277A2EF2430FF90067EE025E025BC
:1033D600E024F4F582E43405F583EFF07D0A7C0001
:1033E600AF03AE021277A2ED2430FF90067EE0FE18
:1033F60025E025E024F5F582E43405F583EFF0EECB
:1034060025E025E024F6F582E43405F5837433F0EF
:10341600023AAE90067EE025E025E024F6F582E449
:103426003400F583E0FCA3E0FDA3E0FEA3E0FFE4A7
:10343600FBFA797A784412742D600540030235311F
:1034460090067EE025E025E024F6F582E43400F5DA
:1034560083E0FCA3E0FDA3E0FEA3E0FF7B007A404F
:10346600791C784612742D6002500302353190069D
:103476007EE025E025E024F6F582E43400F583E0DD
:10348600FCA3E0FDA3E0FEA3E0FFE4FBFA792078CD
:1034960041127390785512792078551278DB1274A0
:1034A600E4AB07AA067C007D641277A2EF2430FF06
:1034B60090067EE025E025E024F3F582E43405F568
:1034C60083EFF07C007D64AF03AE021277A2AA04FC
:1034D600AB057D0A7C00AF03AE021277A2EF243063
:1034E600FF90067EE025E025E024F4F582E434052D
:1034F600F583EFF07D0A7C00AF03AE021277A2EDF2
:103506002430FF90067EE0FE25E025E024F5F582D6
:10351600E43405F583EFF0EE25E025E024F6F582A8
:10352600E43405F5837434F0023AAE90067EE02565
:10353600E025E024F6F582E43400F583E0FCA3E020
:10354600FDA3E0FEA3E0FF7B007A40791C784612DB
:10355600742D6005400302364A90067EE025E0257C
:10356600E024F6F582E43400F583E0FCA3E0FDA355
:10357600E0FEA3E0FF7B007A5079C3784712742DF2
:103586006002500302364A90067EE025E025E024DC
:10359600F6F582E43400F583E0FCA3E0FDA3E0FE4B
:1035A600A3E0FFE4FBFA79C87842127390785512CB
:1035B600792078551278DB1274E4AB07AA067C00F2
:1035C6007D641277A2EF2430FF90067EE025E02589
:1035D600E024F3F582E43405F583EFF07C007D64A6
:1035E600AF03AE021277A2AA04AB057D0A7C00AF38
:1035F60003AE021277A2EF2430FF90067EE025E0AC
:1036060025E024F4F582E43405F583EFF07D0A7CA9
:1036160000AF03AE021277A2ED2430FF90067EE0E3
:10362600FE25E025E024F5F582E43405F583EFF088
:10363600EE25E025E024F6F582E43405F5837435BD
:10364600F0023AAE90067EE025E025E024F6F5820B
:10365600E43400F583E0FCA3E0FDA3E0FEA3E0FF75
:103666007B007A5079C3784712742D6005400302B7
:10367600376390067EE025E025E024F6F582E43403
:1036860000F583E0FCA3E0FDA3E0FEA3E0FF7B00E2
:103696007A247974784912742D60025003023763D4
:1036A60090067EE025E025E024F6F582E43400F578
:1036B60083E0FCA3E0FDA3E0FEA3E0FFE4FBFA79D0
:1036C6007A7844127390785512792078551278DBFF
:1036D6001274E4AB07AA067C007D641277A2EF247D
:1036E60030FF90067EE025E025E024F3F582E43401
:1036F60005F583EFF07C007D64AF03AE021277A27E
:10370600AA04AB057D0A7C00AF03AE021277A2EFD6
:103716002430FF90067EE025E025E024F4F582E4DF
:103726003405F583EFF07D0A7C00AF03AE02127715
:10373600A2ED2430FF90067EE0FE25E025E024F58C
:10374600F582E43405F583EFF0EE25E025E024F676
:10375600F582E43405F5837436F0023AAE90067EBF
:10376600E025E025E024F6F582E43400F583E0FC6C
:10377600A3E0FDA3E0FEA3E0FF7B007A2479747842
:103786004912742D6005400302387D90067EE025BF
:10379600E025E024F6F582E43400F583E0FCA3E0BE
:1037A600FDA3E0FEA3E0FF7B807A967918784B12A2
:1037B600742D6002500302387D90067EE025E025D8
:1037C600E024F6F582E43400F583E0FCA3E0FDA3F3
:1037D600E0FEA3E0FF7B007A40791C7846127390E6
:1037E600785512792078551278DB1274E4AB07AA63
:1037F600067C007D641277A2EF2430FF90067EE0FF
:1038060025E025E024F3F582E43405F583EFF07C2A
:10381600007D64AF03AE021277A2AA04AB057D0A4F
:103826007C00AF03AE021277A2EF2430FF90067E33
:10383600E025E025E024F4F582E43405F583EFF095
:103846007D0A7C00AF03AE021277A2ED2430FF9012
:10385600067EE0FE25E025E024F5F582E43405F554
:1038660083EFF0EE25E025E024F6F582E43405F555
:10387600837437F0023AAE90067EE025E025E02418
:10388600F6F582E43400F583E0FCA3E0FDA3E0FE58
:10389600A3E0FF7B807A967918784B12742D600529
:1038A600400302399790067EE025E025E024F6F5F0
:1038B60082E43400F583E0FCA3E0FDA3E0FEA3E090
:1038C600FF7B207ABC79BE784C12742D60025003BF
:1038D60002399790067EE025E025E024F6F582E49D
:1038E6003400F583E0FCA3E0FDA3E0FEA3E0FF7B4C
:1038F600007A5079C37847127390785512792078F8
:10390600551278DB1274E4AB07AA067C007D6412BC
:1039160077A2EF2430FF90067EE025E025E024F331
:10392600F582E43405F583EFF07C007D64AF03AEE9
:10393600021277A2AA04AB057D0A7C00AF03AE0291
:103946001277A2EF2430FF90067EE025E025E024E2
:10395600F4F582E43405F583EFF07D0A7C00AF03CD
:10396600AE021277A2ED2430FF90067EE0FE25E03F
:1039760025E024F5F582E43405F583EFF0EE25E045
:1039860025E024F6F582E43405F5837438F0023A2E
:10399600AE90067EE025E025E024F6F582E43400CC
:1039A600F583E0FCA3E0FDA3E0FEA3E0FF7B207A25
:1039B600BC79BE784C12742D60054003023AAE9075
:1039C600067EE025E025E024F6F582E43400F58362
:1039D600E0FCA3E0FDA3E0FEA3E0FF7B287A6B7981
:1039E6006E784E12742D60025003023AAE90067E37
:1039F600E025E025E024F6F582E43400F583E0FCDA
:103A0600A3E0FDA3E0FEA3E0FF7B007A24797478AF
:103A160049127390785512792078551278DB127412
:103A2600E4AB07AA067C007D641277A2EF2430FF80
:103A360090067EE025E025E024F3F582E43405F5E2
:103A460083EFF07C007D64AF03AE021277A2AA0476
:103A5600AB057D0A7C00AF03AE021277A2EF2430DD
:103A6600FF90067EE025E025E024F4F582E43405A7
:103A7600F583EFF07D0A7C00AF03AE021277A2ED6C
:103A86002430FF90067EE0FE25E025E024F5F58251
:103A9600E43405F583EFF0EE25E025E024F6F58223
:103AA600E43405F5837439F090069EE0D39409401A
:103AB60003023DFC90069DE094094003023DFC9004
:103AC600069CE094094003023DFC90069BE09409A5
:103AD6004003023DFC90069AE094094003023DFC37
:103AE600900699E094094003023DFC78591278DB70
:103AF6001274E4AB07AA067C007D641277A29006D6
:103B06009EEFF07C007D64AF03AE021277A2AA049A
:103B1600AB057D0A7C00AF03AE021277A290069D2C
:103B2600EFF07D0A7C00AF03AE021277A290069CEE
:103B3600EDF078591278DB1274E4AD07AC06EC129E
:103B460074ABC004C005C006C00778591278DBD034
:103B560003D002D001D000127192E4FBFA797A7890
:103B6600441272871274E490068112792CE47B6405
:103B7600FAF9F8900681E0FCA3E0FDA3E0FEA3E0DD
:103B8600FF12782A90069BEFF0E47B64FAF9F8902E
:103B96000681E0FCA3E0FDA3E0FEA3E0FF12782A85
:103BA600AC00AD01AE02AF03E47B0AFAF9F8127875
:103BB6002A90069AEFF0E47B64FAF9F8900681E021
:103BC600FCA3E0FDA3E0FEA3E0FF12782AAC00AD63
:103BD60001AE02AF03E47B0AFAF9F812782A9006DE
:103BE60099EBF0900166E064016003023C93900655
:103BF6009DE075F00AA4FDACF0A3E075F064A42D79
:103C0600FFE5F03CFE90069CE07C002FFDEC3EFCC0
:103C16001274ABC004C005C006C00790069BE0FC4A
:103C2600E41274B07BCD7ACC79CC783D127287D011
:103C360003D002D001D000127196C004C005C006A0
:103C4600C00790069AE0FCE41274B07B0A7AD77932
:103C560023783C127287D003D002D001D0001271B3
:103C660096C004C005C006C007900699E0FCE412A1
:103C760074B07B6F7A127983783A127287D003D048
:103C860002D001D000127196785D127920900166FB
:103C9600E064026003023D4790069DE075F00AA4C9
:103CA600FDACF0A3E075F064A42DFFE5F03CFE90BA
:103CB600069CE07C002FFDEC3EFC1274ABC004C0F9
:103CC60005C006C00790069BE0FCE41274B07BCDED
:103CD6007ACC79CC783D127287D003D002D001D04D
:103CE60000127196C004C005C006C00790069AE08F
:103CF600FCE41274B07B0A7AD77923783C12728777
:103D0600D003D002D001D000127196C004C005C005
:103D160006C007900699E0FCE41274B07B6F7A1235
:103D26007983783A127287D003D002D001D000127C
:103D36007196E4FBFA797A7844127287785D127983
:103D460020900166E064036003023DFC90069DE05E
:103D560075F00AA4FDACF0A3E075F064A42DFFE5B0
:103D6600F03CFE90069CE07C002FFDEC3EFC1274BD
:103D7600ABC004C005C006C00790069BE0FCE41279
:103D860074B07BCD7ACC79CC783D127287D003D0D3
:103D960002D001D000127196C004C005C006C0074B
:103DA60090069AE0FCE41274B07B0A7AD7792378FD
:103DB6003C127287D003D002D001D000127196C097
:103DC60004C005C006C007900699E0FCE41274B072
:103DD6007B6F7A127983783A127287D003D002D039
:103DE60001D0001271967B007A2479747849127298
:103DF60087785D12792090067EE024EFF582E43420
:103E060006F583E0FCE41274B07BCD7ACC79CC78ED
:103E16003D127287C004C005C006C00790067EE04A
:103E260024DEF582E43406F583E0FCE41274B0D0B7
:103E360003D002D001D000127196C004C005C0069E
:103E4600C00790067EE024E6F582E43406F583E0BA
:103E5600FCE41274B07B0A7AD77923783C12728715
:103E6600D003D002D001D000127196900695127937
:103E76002C90067EE024F7F582E43406F583E0FC18
:103E8600E41274B09006A912792C7F007E007D2082
:103E96007C4112884D90068D12792C90068DE0FC9F
:103EA600A3E0FDA3E0FEA3E0FF900695E0F8A3E003
:103EB600F9A3E0FAA3E0FB12728790069112792C1F
:103EC600900691E0FCA3E0FDA3E0FEA3E0FF785D91
:103ED6001278F712742D403630CD0512A12B500200
:103EE600D21C90067EE0FF24C8F582E43401F583F7
:103EF6007401F074D52FF582E43401F5837401F072
:103F060090067EE090964993785056F6804090064B
:103F160091E0FCA3E0FDA3E0FEA3E0FF785D12784C
:103F2600F712742D502890067EE0FF24C8F582E42F
:103F36003401F583E4F074D52FF582E43401F5837A
:103F4600E4F090067EE090964193785046F690060F
:103F56007EE0FF24C8F582E43401F583E0600302C5
:103F660044A474A02FF582E43403F583E06003B41F
:103F7600011790067EE075F03AA4240DFDE435F0B5
:103F8600FC7BFF7A9579B8801590067EE075F03A4D
:103F9600A4240DFDE435F0FC7BFF7A9579BB7F0AFE
:103FA6007E001299DA90067EE0FB75F03AA4240DA5
:103FB600FDE435F0FCEB2401FBE433FA7F3C7E00A4
:103FC600128AFE90067EE075F03AA4240DFDE435D3
:103FD600F0FC7BFF7A9579BE7F5A7E001299DA90C3
:103FE600067EE0FB75F03AA4240DFDE435F0FCEB0B
:103FF60025E024DFF582E43401F583E0FB7A007FD7
:10400600D67E01128AFE90067EE0FB75F03AA42465
:104016000DFDE435F0FCEB25E024DEF582E4340109
:10402600F583E0FB7A007FB87E01128AFE90067E59
:10403600E0FB75F03AA4240DFDE435F0FC74DE2BAC
:10404600F582E43405F583E0FB7A007F867E011273
:104056008AFE90069EE0FB70030241A190067EE078
:1040660075F03AA4240DFDE435F0FC7A007F827EDB
:1040760000128AFE90067EE075F03AA4240DFDE457
:1040860035F0FC90069DE0FB7A007FA07E00128A48
:10409600FE90067EE075F03AA4240DFDE435F0FCB2
:1040A60090069CE0FB7A007FBE7E00128AFE900698
:1040B6007EE075F03AA4240DFDE435F0FC7BFF7A32
:1040C6009579C07FDC7E001299DA90067EE075F065
:1040D6003AA4240DFDE435F0FC90069BE0FB7A0043
:1040E6007FF07E00128AFE90067EE075F03AA424E8
:1040F6000DFDE435F0FC90069AE0FB7A007F0E7E1B
:1041060001128AFE90067EE075F03AA4240DFDE4C5
:1041160035F0FC900699E0FB7A007F2C7E01128A2E
:10412600FE90021EE0FAA3E0FBC3940AEA94005054
:104136000302436D90021EE0FEA3E0FFC3940AEE65
:104146009400400BEF9464EE940050030243999060
:10415600021EE0FEA3E0FFC39464EE9400400BEF62
:1041660094E8EE940350030243CC90021EE0FEA3B3
:10417600E0FFC394E8EE9403400BEF9410EE94270F
:1041860050030243FF90021EE0FAA3E0FBC3941023
:10419600EA9427500302444202442C90069DE0FB19
:1041A60070030242CD90067EE075F03AA4240DFD20
:1041B600E435F0FC7A007FA07E00128AFE90067E2F
:1041C600E075F03AA4240DFDE435F0FC90069CE081
:1041D600FB7A007FBE7E00128AFE90067EE075F0B6
:1041E6003AA4240DFDE435F0FC7BFF7A9579C07F77
:1041F600DC7E001299DA90067EE075F03AA4240D72
:10420600FDE435F0FC90069BE0FB7A007FF07E0033
:10421600128AFE90067EE075F03AA4240DFDE43580
:10422600F0FC90069AE0FB7A007F0E7E01128AFE71
:1042360090067EE075F03AA4240DFDE435F0FC907E
:104246000699E0FB7A007F2C7E01128AFE90021E00
:10425600E0FAA3E0FBC3940AEA9400500302436D1C
:1042660090021EE0FEA3E0FFC3940AEE9400400B0A
:10427600EF9464EE9400500302439990021EE0FE10
:10428600A3E0FFC39464EE9400400BEF94E8EE9431
:104296000350030243CC90021EE0FEA3E0FFC3944A
:1042A600E8EE9403400BEF9410EE9427500302437C
:1042B600FF90021EE0FAA3E0FBC39410EA94275095
:1042C6000302444202442C90067EE075F03AA42490
:1042D6000DFDE435F0FC90069CE0FB7A007FBE7E87
:1042E60000128AFE90067EE075F03AA4240DFDE4E5
:1042F60035F0FC7BFF7A9579C07FDC7E001299DA77
:1043060090067EE075F03AA4240DFDE435F0FC90AD
:10431600069BE0FB7A007FF07E00128AFE90067E06
:10432600E075F03AA4240DFDE435F0FC90069AE021
:10433600FB7A007F0E7E01128AFE90067EE075F003
:104346003AA4240DFDE435F0FC900699E0FB7A00D2
:104356007F2C7E01128AFE90021EE0FAA3E0FBC3C8
:10436600940AEA9400501490067EE075F03AA4246C
:104376000DFDE435F0FC7F4002441890021EE0FE7D
:10438600A3E0FFC3940AEE94004023EF9464EE94F6
:1043960000501B90067EE075F03AA4240DFDE4352E
:1043A600F0FC90021EE0FAA3E0FB7F2C80649002F2
:1043B6001EE0FEA3E0FFC39464EE94004023EF9456
:1043C600E8EE9403501B90067EE075F03AA4240DA7
:1043D600FDE435F0FC90021EE0FAA3E0FB7F1880B6
:1043E6003190021EE0FEA3E0FFC394E8EE94034082
:1043F60025EF9410EE9427501D90067EE075F03A56
:10440600A4240DFDE435F0FC90021EE0FAA3E0FBC7
:104416007F047E02802390021EE0FAA3E0FBC39491
:1044260010EA9427401690067EE075F03AA4240D13
:10443600FDE435F0FC7FF07E01128AFE900166E015
:10444600B4011790067EE075F03AA4240DFDE4351C
:10445600F0FC7BFF7A9579C2803A900166E0B4025F
:104466001790067EE075F03AA4240DFDE435F0FCC5
:104476007BFF7A9579C4801C900166E0B4031C909A
:10448600067EE075F03AA4240DFDE435F0FC7BFFD2
:104496007A9579C67F547E011299DA12A1FB9006AD
:1044A6007EE0FF24C8F582E43401F583E064016010
:1044B60003024A2F74A02FF582E43403F583E060EB
:1044C600046401703390067EE075F03AA4240DFD75
:1044D600E435F0FC7BFF7A9579C87F077E00129A57
:1044E6008490067EE075F03AA4240DFDE435F0FCD8
:1044F6007BFF7A9579CB803190067EE075F03AA401
:10450600240DFDE435F0FC7BFF7A9579C87F077EA4
:1045160000129A8490067EE075F03AA4240DFDE41C
:1045260035F0FC7BFF7A9579E67F0A7E00129A8445
:1045360090067EE0FB75F03AA4240DFDE435F0FC10
:10454600EB2401FBE433FA7F3C7E001289B390062C
:104556007EE075F03AA4240DFDE435F0FC7BFF7A8D
:104566009579BE7F5A7E00129A8490067EE0FB758E
:10457600F03AA4240DFDE435F0FCEB25E024DFF54C
:1045860082E43401F583E0FB7A007FD67E0112894E
:10459600B390067EE0FB75F03AA4240DFDE435F0F9
:1045A600FCEB25E024DEF582E43401F583E0FB7ABA
:1045B600007FB87E011289B390067EE0FB75F03A63
:1045C600A4240DFDE435F0FC74DE2BF582E43405FD
:1045D600F583E0FB7A007F867E011289B390069E02
:1045E600E0FB700302472C90067EE075F03AA424A7
:1045F6000DFDE435F0FC7A007F827E001289B390CF
:10460600067EE075F03AA4240DFDE435F0FC900634
:104616009DE0FB7A007FA07E001289B390067EE0C3
:1046260075F03AA4240DFDE435F0FC90069CE0FB01
:104636007A007FBE7E001289B390067EE075F03A5E
:10464600A4240DFDE435F0FC7BFF7A9579C07FDC70
:104656007E00129A8490067EE075F03AA4240DFD41
:10466600E435F0FC90069BE0FB7A007FF07E0012BA
:1046760089B390067EE075F03AA4240DFDE435F08A
:10468600FC90069AE0FB7A007F0E7E011289B390B9
:10469600067EE075F03AA4240DFDE435F0FC9006A4
:1046A60099E0FB7A007F2C7E011289B390021EE00E
:1046B600FAA3E0FBC3940AEA940050030248F89078
:1046C600021EE0FEA3E0FFC3940AEE9400400BEF47
:1046D6009464EE9400500302492490021EE0FEA367
:1046E600E0FFC39464EE9400400BEF94E8EE94036D
:1046F600500302495790021EE0FEA3E0FFC394E870
:10470600EE9403400BEF9410EE9427500302498A6F
:1047160090021EE0FAA3E0FBC39410EA942750032C
:104726000249CD0249B790069DE0FB700302485846
:1047360090067EE075F03AA4240DFDE435F0FC7A8F
:10474600007FA07E001289B390067EE075F03AA441
:10475600240DFDE435F0FC90069CE0FB7A007FBE5C
:104766007E001289B390067EE075F03AA4240DFD12
:10477600E435F0FC7BFF7A9579C07FDC7E00129AE7
:104786008490067EE075F03AA4240DFDE435F0FC35
:1047960090069BE0FB7A007FF07E001289B39006BC
:1047A6007EE075F03AA4240DFDE435F0FC90069AFF
:1047B600E0FB7A007F0E7E011289B390067EE075DB
:1047C600F03AA4240DFDE435F0FC900699E0FB7A5E
:1047D600007F2C7E011289B390021EE0FAA3E0FB53
:1047E600C3940AEA940050030248F890021EE0FEC1
:1047F600A3E0FFC3940AEE9400400BEF9464EE949A
:1048060000500302492490021EE0FEA3E0FFC39479
:1048160064EE9400400BEF94E8EE940350030249D3
:104826005790021EE0FEA3E0FFC394E8EE94034017
:104836000BEF9410EE9427500302498A90021EE073
:10484600FAA3E0FBC39410EA942750030249CD0271
:1048560049B790067EE075F03AA4240DFDE435F0E4
:10486600FC90069CE0FB7A007FBE7E001289B39026
:10487600067EE075F03AA4240DFDE435F0FC7BFFDE
:104886007A9579C07FDC7E00129A8490067EE07568
:10489600F03AA4240DFDE435F0FC90069BE0FB7A8B
:1048A600007FF07E001289B390067EE075F03AA490
:1048B600240DFDE435F0FC90069AE0FB7A007F0EAD
:1048C6007E011289B390067EE075F03AA4240DFDB0
:1048D600E435F0FC900699E0FB7A007F2C7E01120D
:1048E60089B390021EE0FAA3E0FBC3940AEA94009F
:1048F600501490067EE075F03AA4240DFDE435F0E0
:10490600FC7F400249A390021EE0FEA3E0FFC39491
:104916000AEE94004023EF9464EE9400501B900638
:104926007EE075F03AA4240DFDE435F0FC90021EFD
:10493600E0FAA3E0FB7F2C806490021EE0FEA3E079
:10494600FFC39464EE94004023EF94E8EE94035082
:104956001B90067EE075F03AA4240DFDE435F0FCCC
:1049660090021EE0FAA3E0FB7F18803190021EE061
:10497600FEA3E0FFC394E8EE94034025EF9410EE07
:104986009427501D90067EE075F03AA4240DFDE4B0
:1049960035F0FC90021EE0FAA3E0FB7F047E028065
:1049A6002390021EE0FAA3E0FBC39410EA9427408A
:1049B6001690067EE075F03AA4240DFDE435F0FC71
:1049C6007FF07E011289B3900166E0B4011790066C
:1049D6007EE075F03AA4240DFDE435F0FC7BFF7A09
:1049E6009579C2803A900166E0B4021790067EE09F
:1049F60075F03AA4240DFDE435F0FC7BFF7A957939
:104A0600C4801C900166E0B4031C90067EE075F03D
:104A16003AA4240DFDE435F0FC7BFF7A9579C67F38
:104A2600547E01129A8412A1FB90069EE0FF900626
:104A36007EE0FE75F008A42487F582E43401F58350
:104A4600EFF090069DE0FFEE75F008A42488F5824D
:104A5600E43401F583EFF090069CE0FFEE75F00874
:104A6600A42489F582E43401F583EFF090069BE0F7
:104A7600FFEE75F008A4248AF582E43401F583EF8D
:104A8600F090069AE0FFEE75F008A4248BF582E418
:104A96003401F583EFF0900699E0FFEE75F008A477
:104AA600248CF582E43401F583EFF0900166E0FF93
:104AB600EE75F008A4248DF582E43401F583EFF059
:104AC60074C82EF582E43401F583E0FFEE75F00834
:104AD600A4248EF582E43401F583EFF090067EE09F
:104AE60004F00225E7E490067EF090067EE0FFC320
:104AF6009408503874C82FF582E43401F583E090A9
:104B0600062F600FE0FF90067EE090964193FEEF41
:104B16004E800DE0FF90067EE090964993FEEF5E94
:104B260090062FF090067EE004F080BED223900619
:104B360032E004F0E0B4FF037408F0900632E0D3EC
:104B460094044003D21222C21222E47853F608F6E5
:104B56007851F608F6786112793800000000786519
:104B660012793800000000786912793800000000D8
:104B7600E49006A4F09006A3F09006A2F09006A199
:104B8600F09006A0F090069FF090069EF090069D8D
:104B9600F090069CF090069BF090069AF09006998D
:104BA600F09001DDE0FD75F00AA424F990067EF090
:104BB600ED25E025E02466F582E43401F583E0FE88
:104BC6009001DDE025E025E02465F582E43401F579
:104BD60083E07C0024007854F6EC3E18F6E6FE08E6
:104BE600E6FF7D0C12773BAC06AD07E41274AB789A
:104BF600611279209001DDE0FD25E025E02468F5CD
:104C060082E43401F583E0FEED25E025E02467F536
:104C160082E43401F583E07C0024007852F6EC3E11
:104C260018F690067EE0FB24A8F582E43403F583AB
:104C3600E0FF7E007C037DE812773BAC06AD07748F
:104C46004B2BF582E43400F583E075F064A42DFD6A
:104C5600EC35F0FC90067EE02400F582E43400F5A5
:104C660083E075F00AA42DFFE5F03CFE74172BF5E2
:104C760082E43401F583E07C002FFDEC3EFCE41277
:104C860074AB782512792090067EE0FB24A9F58284
:104C9600E43403F583E0FF7E007C037DE812773B76
:104CA600AC06AD07744C2BF582E43400F583E07551
:104CB600F064A42DFDEC35F0FC90067EE02401F5B1
:104CC60082E43400F583E075F00AA42DFFE5F03C9C
:104CD600FE74182BF582E43401F583E07C002FFD89
:104CE600EC3EFCE41274AB7B007A247974784912AA
:104CF6007390782912792078251278F7C0007861A8
:104D06001278DBD00012719278291278F712728726
:104D16009001D012792CE4FFFEFDFC9001D0E0F862
:104D2600A3E0F9A3E0FAA3E0FB12742D500A900168
:104D3600D0127951000000009001D0E0FCA3E0FD04
:104D4600A3E0FEA3E0FF78651279209006A4E0D3E5
:104D560094094003024E8C9006A3E0940940030296
:104D66004E8C9006A2E094094003024E8C9006A158
:104D7600E094094003024E8C9006A0E0940940039B
:104D8600024E8C90069FE094094003024E8C786593
:104D96001278DB1274E4AB07AA067C007D641277F6
:104DA600A29006A4EFF07C007D64AF03AE021277FA
:104DB600A2AA04AB057D0A7C00AF03AE021277A25D
:104DC6009006A3EFF07D0A7C00AF03AE021277A235
:104DD6009006A2EDF078651278DB1274E4AD07ACAC
:104DE60006EC1274ABC004C005C006C00778651295
:104DF60078DBD003D002D001D000127192E4FBFA26
:104E0600797A78441272871274E490068512792CA6
:104E1600E47B64FAF9F8900685E0FCA3E0FDA3E0E4
:104E2600FEA3E0FF12782A9006A1EFF0E47B64FA75
:104E3600F9F8900685E0FCA3E0FDA3E0FEA3E0FF01
:104E460012782AAC00AD01AE02AF03E47B0AFAF990
:104E5600F812782A9006A0EFF0E47B64FAF9F8904D
:104E66000685E0FCA3E0FDA3E0FEA3E0FF12782A9E
:104E7600AC00AD01AE02AF03E47B0AFAF9F8127892
:104E86002A90069FEBF090067EE0FB24AAF582E4CA
:104E96003403F583E0FF7E007C037DE812773BACAC
:104EA60006AD07744D2BF582E43400F583E075F00A
:104EB60064A42DFDEC35F0FC90067EE02402F5821C
:104EC600E43400F583E075F00AA42DFFE5F03CFE1E
:104ED60074192BF582E43401F583E07C002FFDEC98
:104EE6003EFCE41274AB782D12792090067EE0FB2E
:104EF60024ABF582E43403F583E0FF7E007C037D7A
:104F0600E812773BAC06AD07744E2BF582E434000D
:104F1600F583E075F064A42DFDEC35F0FC90067E7B
:104F2600E02403F582E43400F583E075F00AA42D4D
:104F3600FFE5F03CFE741A2BF582E43401F583E0BC
:104F46007C002FFDEC3EFCE41274ABE4FBFA797AAC
:104F5600784412739078311279207851E6FC08E68D
:104F6600FDE41274AB782D1278F712719278311233
:104F760078F712728790016212792CE4FFFEFDFC2D
:104F8600900162E0F8A3E0F9A3E0FAA3E0FB127453
:104F96002D500A90016212795100000000E4FBFADC
:104FA600797A7844900162E0FCA3E0FDA3E0FEA3D9
:104FB600E0FF127390786912792090069EE0D394F0
:104FC6000940030250FB90069DE0940940030250FD
:104FD600FB90069CE0940940030250FB90069BE080
:104FE600940940030250FB90069AE094094003029C
:104FF60050FB900699E0940940030250FB78691231
:1050060078DB1274E4AB07AA067C007D641277A2F3
:1050160090069EEFF07C007D64AF03AE021277A28D
:10502600AA04AB057D0A7C00AF03AE021277A290FC
:10503600069DEFF07D0A7C00AF03AE021277A290C8
:10504600069CEDF078691278DB1274E4AD07AC06C5
:10505600EC1274ABC004C005C006C00778691278AC
:10506600DBD003D002D001D000127192E4FBFA79B2
:105076007A78441272871274E490068912792CE4C5
:105086007B64FAF9F8900689E0FCA3E0FDA3E0FE54
:10509600A3E0FF12782A90069BEFF0E47B64FAF90E
:1050A600F8900689E0FCA3E0FDA3E0FEA3E0FF1272
:1050B600782AAC00AD01AE02AF03E47B0AFAF9F838
:1050C60012782A90069AEFF0E47B64FAF9F89006D3
:1050D60089E0FCA3E0FDA3E0FEA3E0FF12782AAC82
:1050E60000AD01AE02AF03E47B0AFAF9F812782AA2
:1050F600900699EBF07BFF7A9679017D3A7C007FEA
:10510600C87E001299DA9001DDE0FB7A007D3A7CD8
:10511600007F907E01128AFE7BFF7A96790A7D7463
:105126007C007F0A7E001299DA7BFF7A9579BE7D34
:10513600747C007FA07E001299DA7BFF7A96791143
:105146007DAE7C007FDC7E001299DA7BFF7A967951
:10515600177DAE7C007F087E021299DA7BFF7A9675
:10516600791B7D227C017F0A7E001299DA7BFF7A09
:105176009579BE7D227C017FA07E001299DA7BFFA5
:105186007A9679227D5C7C017FDC7E001299DA7B3F
:10519600FF7A9679287D5C7C017F087E021299DA77
:1051A6009006A4E0700302529DFB7A007DAE7C005F
:1051B6007F0A7E00128AFE9006A3E0FB7A007DAE8F
:1051C6007C007F287E00128AFE9006A2E0FB7A0011
:1051D6007DAE7C007F467E00128AFE7BFF7A957943
:1051E600C07DAE7C007F647E001299DA9006A1E055
:1051F600FB7A007DAE7C007F827E00128AFE9006DE
:10520600A0E0FB7A007DAE7C007FA07E00128AFEC5
:1052160090069FE0FB7A007DAE7C007FBE7E00128A
:105226008AFE7853E6FA08E6FBC3940AEA9400502D
:10523600030253EA7853E6FE08E6FFC3940AEE94A7
:1052460000400BEF9464EE9400500302540A785326
:10525600E6FE08E6FFC39464EE9400400BEF94E884
:10526600EE9403500302542F7853E6FE08E6FFC37C
:1052760094E8EE9403400BEF9410EE94275003024B
:1052860054547853E6FA08E6FBC39410EA94275080
:105296000302547C0254719006A3E0700302538209
:1052A600FB7A007DAE7C007F287E00128AFE900687
:1052B600A2E0FB7A007DAE7C007F467E00128AFE6D
:1052C6007BFF7A9579C07DAE7C007F647E00129963
:1052D600DA9006A1E0FB7A007DAE7C007F827E003C
:1052E600128AFE9006A0E0FB7A007DAE7C007FA0CD
:1052F6007E00128AFE90069FE0FB7A007DAE7C005F
:105306007FBE7E00128AFE7853E6FA08E6FBC39457
:105316000AEA940050030253EA7853E6FE08E6FFD1
:10532600C3940AEE9400400BEF9464EE940050038D
:1053360002540A7853E6FE08E6FFC39464EE94002E
:10534600400BEF94E8EE9403500302542F7853E693
:10535600FE08E6FFC394E8EE9403400BEF9410EECC
:10536600942750030254547853E6FA08E6FBC39494
:1053760010EA9427500302547C0254719006A2E06E
:10538600FB7A007DAE7C007F467E00128AFE7BFFA4
:105396007A9579C07DAE7C007F647E001299DA90A2
:1053A60006A1E0FB7A007DAE7C007F827E00128A39
:1053B600FE9006A0E0FB7A007DAE7C007FA07E001A
:1053C600128AFE90069FE0FB7A007DAE7C007FBECF
:1053D6007E00128AFE7853E6FA08E6FBC3940AEAD0
:1053E600940050097DAE7C007FEA0254777853E63C
:1053F600FE08E6FFC3940AEE94004016EF9464EEAE
:105406009400500E18E6FA08E6FB7DAE7C007FCCD1
:10541600805F7853E6FE08E6FFC39464EE9400408E
:1054260016EF94E8EE9403500E18E6FA08E6FB7DB4
:10543600AE7C007FAE803A7853E6FE08E6FFC39462
:10544600E8EE94034016EF9410EE9427500E18E6FB
:10545600FA08E6FB7DAE7C007F9080157853E6FA6D
:1054660008E6FBC39410EA9427400B7DAE7C007FD0
:10547600727E01128AFE90069EE07003025573FB4F
:105486007A007D5C7C017F0A7E00128AFE90069D72
:10549600E0FB7A007D5C7C017F287E00128AFE900C
:1054A600069CE0FB7A007D5C7C017F467E00128ACA
:1054B600FE7BFF7A9579C07D5C7C017F647E00125D
:1054C60099DA90069BE0FB7A007D5C7C017F827E08
:1054D60000128AFE90069AE0FB7A007D5C7C017FD2
:1054E600A07E00128AFE900699E0FB7A007D5C7C25
:1054F600017FBE7E00128AFE7851E6FA08E6FBC3FB
:10550600940AEA940050030256C07851E6FE08E673
:10551600FFC3940AEE9400400BEF9464EE9400509F
:10552600030256E07851E6FE08E6FFC39464EE9463
:1055360000400BEF94E8EE940350030257057851B0
:10554600E6FE08E6FFC394E8EE9403400BEF9410E2
:10555600EE9427500302572A7851E6FA08E6FBC371
:105566009410EA9427500302575202574790069D1B
:10557600E07003025658FB7A007D5C7C017F287E32
:1055860000128AFE90069CE0FB7A007D5C7C017F1F
:10559600467E00128AFE7BFF7A9579C07D5C7C018F
:1055A6007F647E001299DA90069BE0FB7A007D5CB0
:1055B6007C017F827E00128AFE90069AE0FB7A00CA
:1055C6007D5C7C017FA07E00128AFE900699E0FB3E
:1055D6007A007D5C7C017FBE7E00128AFE7851E6F1
:1055E600FA08E6FBC3940AEA940050030256C07810
:1055F60051E6FE08E6FFC3940AEE9400400BEF94D2
:1056060064EE940050030256E07851E6FE08E6FF89
:10561600C39464EE9400400BEF94E8EE94035003B9
:105626000257057851E6FE08E6FFC394E8EE9403B8
:10563600400BEF9410EE9427500302572A7851E658
:10564600FA08E6FBC39410EA942750030257520265
:10565600574790069CE0FB7A007D5C7C017F467E86
:1056660000128AFE7BFF7A9579C07D5C7C017F649F
:105676007E001299DA90069BE0FB7A007D5C7C0145
:105686007F827E00128AFE90069AE0FB7A007D5C9D
:105696007C017FA07E00128AFE900699E0FB7A00CC
:1056A6007D5C7C017FBE7E00128AFE7851E6FA0898
:1056B600E6FBC3940AEA940050097D5C7C017FEA0C
:1056C60002574D7851E6FE08E6FFC3940AEE9400B1
:1056D6004016EF9464EE9400500E18E6FA08E6FBC6
:1056E6007D5C7C017FCC805F7851E6FE08E6FFC3D7
:1056F6009464EE94004016EF94E8EE9403500E186E
:10570600E6FA08E6FB7D5C7C017FAE803A7851E6DE
:10571600FE08E6FFC394E8EE94034016EF9410EEFD
:105726009427500E18E6FA08E6FB7D5C7C017F9014
:1057360080157851E6FA08E6FBC39410EA942740F0
