:0300000002972044
:0C972000787FE4F6D8FD75817802976729
:10968700474D00444C003A002E0075006D0047001E
:10969700202000474D20202020202020202020208F
:1096A7002020202020202020202020202000444C83
:1096B70020202020202020202020202020202020A3
:1096C700202020202020202000B1EAB6A8CCBDCD44
:1096D700B700B8C7B8EFB9DC007547792F68004302
:1096E700504D00B5E7C0EBCAD2006D47792F68002F
:1096F70043503553003D8000003D8000003E000090
:10970700003E8000003F00000001020408102040D6
:0997170080FEFDFBF7EFDFBF7FD0
:10833200E4FFFE79287825E4F608D9FC7908900252
:1083420018E4F0A3D9FC9083007484F0908200E0DA
:10835200FEC374FF9E900169F0908200E0FFC37437
:10836200FF9F90016AF09083007444F0908100E0D6
:10837200FEC374FF9E90016BF0908100E0FFC37416
:10838200FF9F90016CF09083007404F0908000E0F5
:10839200FEC374FF9E90016DF0908000E0FFC374F5
:1083A200FF9F90016EF0908B007484F0908A00E041
:1083B200FEC374FF9E90016FF0908A00E0FFC374C9
:1083C200FF9F900170F0908B007444F0908900E060
:1083D200FEC374FF9E900171F0908900E0FFC374A8
:1083E200FF9F900172F0908B007404F0908800E07F
:1083F200FEC374FF9E900173F0908800E0FFC37487
:10840200FF9F900174F09093007484F0909200E0CA
:10841200FEC374FF9E900175F0909200E0FFC3745A
:10842200FF9F900176F09093007444F0909100E0E9
:10843200FEC374FF9E900177F0909100E0FFC37439
:10844200FF9F900178F09093007404F0909000E008
:10845200FEC374FF9E900179F0909000E0FFC37418
:10846200FF9F90017AF0909B007484F0909A00E054
:10847200FEC374FF9E90017BF0909A00E0FFC374EC
:10848200FF9F90017CF0909B007444F0909900E073
:10849200FEC374FF9E90017DF0909900E0FFC374CB
:1084A200FF9F90017EF0909B007404F0909800E092
:1084B200FEC374FF9E90017FF0909800E0FFC374AA
:1084C200FF9F900180F090A3007484F090A200E0DE
:1084D200FEC374FF9E900181F090A200E0FFC3747E
:1084E200FF9F900182F090A3007444F090A100E0FD
:1084F200FEC374FF9E900183F090A100E0FFC3745D
:10850200FF9F900184F090A3007404F090A000E01B
:10851200FFC374FF9F900185F090A000E0FFC37439
:10852200FF9F900186F09001D4E0900167F09001E6
:0685320016E0900168F064
:018538002220
:1093760090830074B4F090820074FFF0F090830044
:109386007474F090810074FFF0F09083007434F0F0
:1093960090800074FFF0F0908B0074B4F0908A0017
:1093A60074FFF0F0908B007474F090890074FFF0F5
:1093B600F0908B007434F090880074FFF0F0909376
:1093C6000074B4F090920074FFF0F09093007474FF
:1093D600F090910074FFF0F09093007434F0909048
:1093E6000074FFF0F0909B0074B4F0909A0074FF44
:1093F600F0F0909B007474F090990074FFF0F09078
:109406009B007434F090980074FFF0F090A3007401
:10941600B4F090A20074FFF0F090A3007474F09082
:10942600A10074FFF0F090A3007434F090A00074D3
:10943600FFF0F07F4390046FE4F0A3DFFC7F209001
:1094460000F6E4F0A3DFFC785076FF90C00074FFCE
:0C945600F0C2A8D20AE490057EF0A3F05A
:0194620022E7
:1000460012A31EE49004FCF09004FCE0D394074055
:1000560003022697E0FF25E024DFF582E43401F56C
:1000660083E0FEEF25E024DEF582E43401F583E04B
:100076006E6003021C32EE64046003020387900480
:10008600FCE02418F582E43402F583E06003020301
:10009600879004FCE0FB25E025E024F0F582E434BB
:1000A60001F583127A2000000000EB75F00CA42401
:1000B6009AF582E43400F583E0FCA3E0FDA3E0FEBC
:1000C600A3E0FF9004FCE0FB75F00CA42496F582F7
:1000D600E43400F5831279FBEB75F00CA4249EF54D
:1000E60082E43400F583E0FCA3E0FDA3E0FEA3E098
:1000F600FFEB75F00CA4249AF582E43400F5831224
:1001060079FBEBC39407505F9004FCE0FD25E025E6
:10011600E0246CF582E43401F583E0FEED25E0256C
:10012600E0246BF582E43401F583E07C002400FFD3
:10013600EC3EFEE4FDEB75F00CA4249EF582E4345F
:1001460000F5831279FBEB25E025E0246CF582E4CB
:100156003401F583E0FEEB25E025E0246BF582E42F
:100166003401F583E080329004FCE0FB64077049BB
:10017600900186E0FAFE900185E0F97C002400FFFC
:10018600EC3EFEE4FDEB75F00CA4249EF582E4340F
:1001960000F5831279FBEAFEE97C002400FDEC3EC3
:1001A600FCE412757A9004FCE025E025E024F0F5E5
:1001B60082E43401F5831279FB9004FCE0FB2418F9
:1001C600F582E43402F5837401F090046EE075F074
:1001D60025A4FFAEF0E4FCFDEB75F00CA4249AF523
:1001E60082E43400F583E0F8A3E0F9A3E0FAA3E0A3
:1001F600FBC3127999400302028090046EE075F009
:1002060025A4FFAEF0E4FCFD9004FCE075F00CA420
:10021600249EF582E43400F583E0F8A3E0F9A3E038
:10022600FAA3E0FBC312799950509004FCE0FFC397
:1002360094075046E0FE25E024DFF582E43401F51C
:1002460083E0FDEE25E024DEF582E43401F583ED5E
:10025600F09004FCE0FE25E024DFF582E43401F5AD
:10026600837403F0EE90971093FE784D46F6EE08F1
:1002760046F6EF909718930856F690046EE075F0E0
:100286001CA4FFAEF0E4FCFD9004FCE075F00CA4A9
:10029600249AF582E43400F583E0F8A3E0F9A3E0BC
:1002A600FAA3E0FBC3127999400302033290046E6D
:1002B600E075F01CA4FFAEF0E4FCFD9004FCE075D4
:1002C600F00CA4249EF582E43400F583E0F8A3E064
:1002D600F9A3E0FAA3E0FBC3127999504F9004FC0E
:1002E600E0FF64077046E0FE25E024DFF582E43493
:1002F60001F583E0FDEE25E024DEF582E43401F528
:1003060083EDF09004FCE0FE25E024DFF582E43482
:1003160001F5837403F0EE90971093FE784D46F640
:10032600EE0846F6EF909718930856F69004FCE010
:1003360025E025E024F0F582E43401F583E0FCA312
:10034600E0FDA3E0FEA3E0FFE4FBFA79A07841120A
:1003560073569004FCE0FB25E025E02433F582E4A7
:100366003405F5831279FB74202BF582E43402F50B
:10037600837404F074662BF582E43404F583740107
:10038600F09004FCE0FF25E024DFF582E43401F57B
:1003960083E06403600302097C74182FF582E43459
:1003A60002F583E0600302097C9004FCE0FB75F033
:1003B6000CA4249AF582E43400F583E0FCA3E0FD66
:1003C600A3E0FEA3E0FFEB75F00CA42496F582E40F
:1003D6003400F5831279FB9004FCE0FB75F00CA465
:1003E600249EF582E43400F583E0FCA3E0FDA3E05F
:1003F600FEA3E0FFEB75F00CA4249AF582E434002A
:10040600F5831279FB9004FCE0FBC39407505CE093
:10041600FD25E025E0246CF582E43401F583E0FE59
:10042600ED25E025E0246BF582E43401F583E07CDC
:10043600002400FFEC3EFEE4FDEB75F00CA4249EC8
:10044600F582E43400F5831279FBEB25E025E02400
:100456006CF582E43401F583E0FEEB25E025E0242B
:100466006BF582E43401F583E080329004FCE0FB16
:1004760064077049900186E0FAFE900185E0F97CF8
:10048600002400FFEC3EFEE4FDEB75F00CA4249E78
:10049600F582E43400F5831279FBEAFEE97C002458
:1004A60000FDEC3EFCE412757A9004FCE025E025A4
:1004B600E024F0F582E43401F5831279FB9004FC24
:1004C600E0FB2418F582E43402F5837401F090040D
:1004D6006EE0FF7E007C167D5712780AE4FCFDEB89
:1004E60075F00CA4249AF582E43400F583E0F8A3B1
:1004F600E0F9A3E0FAA3E0FBD312799950030205D1
:100506008990046EE0FF7E007C167D5712780AE41F
:10051600FCFD9004FCE075F00CA4249EF582E43406
:1005260000F583E0F8A3E0F9A3E0FAA3E0FBD31219
:100536007999404F9004FCE0FF94075046E0FE2571
:10054600E024DFF582E43401F583E0FDEE25E024C6
:10055600DEF582E43401F583EDF09004FCE0FE253F
:10056600E024DFF582E43401F5837404F0EE90971D
:100576001093FE784D46F6EF909718930856F6EED0
:100586000846F690046EE0FF7E007C1D7D1712780B
:100596000AE4FCFD9004FCE075F00CA4249AF582B4
:1005A600E43400F583E0F8A3E0F9A3E0FAA3E0FB66
:1005B600D3127999500302064190046EE0FF7E0043
:1005C6007C1D7D1712780AE4FCFD9004FCE075F0B2
:1005D6000CA4249EF582E43400F583E0F8A3E0F948
:1005E600A3E0FAA3E0FBD3127999404F9004FCE014
:1005F600FF64077046E0FE25E024DFF582E434015F
:10060600F583E0FDEE25E024DEF582E43401F58392
:10061600EDF09004FCE0FE25E024DFF582E43401F1
:10062600F5837404F0EE90971093FE784D46F6EF3E
:10063600909718930856F6EE0846F690046EE07505
:10064600F023A4FFAEF0E4FCFD9004FCE075F00C92
:10065600A4249AF582E43400F583E0F8A3E0F9A334
:10066600E0FAA3E0FBC312799940030206F3900473
:100676006EE075F023A4FFAEF0E4FCFD9004FCE010
:1006860075F00CA4249EF582E43400F583E0F8A30B
:10069600E0F9A3E0FAA3E0FBC3127999504F900466
:1006A600FCE0FF64076046E0FE25E024DFF582E417
:1006B6003401F583E0FDEE25E024DEF582E4340125
:1006C600F583EDF09004FCE0FE25E024DFF582E4FE
:1006D6003401F5837402F0EE90971093784D46F648
:1006E600EF90971893FF0856F6EF0856F69004FC1D
:1006F600E025E025E024F0F582E43401F583E0FC12
:10070600A3E0FDA3E0FEA3E0FFE4FBFA79A07841B5
:100716001273569004FCE0FB25E025E02433F582B5
:10072600E43405F5831279FB74662BF582E4340410
:10073600F5837401F074202BF582E43402F583749A
:1007460003F0EB25E025E024F0F582E43401F5839F
:10075600127A200000000074662BF582E43404F55A
:1007660083E064016003020811EB25E025E02433F1
:10077600F582E43405F583E0FCA3E0FDA3E0FEA3E7
:10078600E0FFE4FBFA79A0784012745F7B007AB848
:1007960079B278451274FC50729004FCE0FF25E0B3
:1007A60024DFF582E43401F583E0FEEF25E024DE64
:1007B600F582E43401F583E06E70509004FCE0C3EA
:1007C60094075047EF25E024DEF582E43401F583F3
:1007D600EEF09004FCE0FF25E024DFF582E434012E
:1007E600F5837404F074662FF582E43404F583E42B
:1007F600F09004FCE0FF90971093FE784D46F6EFDC
:10080600909718930856F6EE0846F69004FCE0FF1B
:100816002466F582E43404F583E06401600302088B
:10082600C8EF25E025E02433F582E43405F583E0BE
:10083600FCA3E0FDA3E0FEA3E0FFE4FBFA79A078C9
:100846004012745F7B007AB879E878451274FC50E0
:10085600719004FCE0FF25E024DFF582E43401F525
:1008660083E0FEEF25E024DEF582E43401F583E043
:100876006E704F9004FCE064077047EF25E024DEBD
:10088600F582E43401F583EEF09004FCE0FF25E008
:1008960024DFF582E43401F5837404F074662FF5E1
:1008A60082E43404F583E4F09004FCE0FF909710B2
:1008B60093FE784D46F6EF909718930856F6EE0895
:1008C60046F69004FCE0FF2466F582E43404F583E2
:1008D600E06401600302097CEF25E025E02433F59E
:1008E60082E43405F583E0FCA3E0FDA3E0FEA3E08B
:1008F600FFE4FBFA79A0784012745FE4FBFA790C06
:1009060078421274FC606F406D9004FCE0FF25E0B5
:1009160024DFF582E43401F583E0FEEF25E024DEF2
:10092600F582E43401F583E06E704B9004FCE064DC
:10093600076043E025E024DEF582E43401F583EE2A
:10094600F09004FCE0FE25E024DFF582E43401F5B6
:10095600837402F074662EF582E43404F583E4F0C1
:10096600EF90971093784D46F6EF90971893FF08FF
:1009760056F6EF0856F69004FCE0FF25E024DFF576
:1009860082E43401F583E064026003020DAC74185E
:100996002FF582E43402F583E06003020DAC900487
:1009A600FCE0FB75F00CA4249AF582E43400F58390
:1009B600E0FCA3E0FDA3E0FEA3E0FFEB75F00CA4D2
:1009C6002496F582E43400F5831279FB9004FCE06A
:1009D600FB75F00CA4249EF582E43400F583E0FC5C
:1009E600A3E0FDA3E0FEA3E0FFEB75F00CA4249AC0
:1009F600F582E43400F5831279FB9004FCE0FD25D2
:100A0600E025E0246CF582E43401F583E0FEED2573
:100A1600E025E0246BF582E43401F583E07C0024D4
:100A260000FFEC3EFEE4FD9004FCE0FB75F00CA438
:100A3600249EF582E43400F5831279FBEB25E0254C
:100A4600E0246CF582E43401F583E0FEEB25E02535
:100A5600E0246BF582E43401F583E07C002400FD9C
:100A6600EC3EFCE412757A9004FCE0FB25E025E000
:100A760024F0F582E43401F5831279FB74182BF522
:100A860082E43402F5837401F090046EE0FF7E0088
:100A96007C157D2312780AE4FCFDEB75F00CA4248A
:100AA6009AF582E43400F583E0F8A3E0F9A3E0FACE
:100AB600A3E0FBD31279995003020B4190046EE038
:100AC600FF7E007C157D2312780AE4FCFD9004FC71
:100AD600E075F00CA4249EF582E43400F583E0F87A
:100AE600A3E0F9A3E0FAA3E0FBD3127999404C9076
:100AF60004FCE0FF25E024DFF582E43401F583E021
:100B0600FEEF25E024DEF582E43401F583EEF09075
:100B160004FCE0FF25E024DFF582E43401F583746C
:100B260003F0EF90971093FF784D46F6EF0846F6E0
:100B36009004FCE0909718930856F690046EE075C2
:100B4600F09EA4FFAEF0E4FCFD9004FCE075F00C12
:100B5600A4249AF582E43400F583E0F8A3E0F9A32F
:100B6600E0FAA3E0FBC3127999507590046EE07524
:100B7600F09EA4FFAEF0E4FCFD9004FCE075F00CE2
:100B8600A4249EF582E43400F583E0F8A3E0F9A3FB
:100B9600E0FAA3E0FBC312799950459004FCE0FF0C
:100BA60025E024DFF582E43401F583E0FEEF25E05D
:100BB60024DEF582E43401F583EEF09004FCE0FFD8
:100BC60025E024DFF582E43401F5837401F0EF902B
:100BD600971893FF784D56F6EF0856F6EF0856F637
:100BE6009004FCE025E025E024F0F582E43401F5EC
:100BF60083E0FCA3E0FDA3E0FEA3E0FFE4FBFA79BB
:100C0600A078411273569004FCE0FB25E025E02411
:100C160033F582E43405F5831279FB74662BF5828D
:100C2600E43404F5837401F074202BF582E4340275
:100C3600F5837402F0EB25E025E024F0F582E43438
:100C460001F583127A200000000074662BF582E419
:100C56003404F583E064016003020CFEEB25E02515
:100C6600E02433F582E43405F583E0FCA3E0FDA33C
:100C7600E0FEA3E0FFE4FBFA79A0784012745F7B04
:100C8600007A1879A978451274FC506C9004FCE03F
:100C9600FF25E024DFF582E43401F583E0FEEF254D
:100CA600E024DEF582E43401F583E06E704A9004B8
:100CB600FCE025E024DEF582E43401F583EEF090D5
:100CC60004FCE0FF25E024DFF582E43401F58374BB
:100CD60003F074662FF582E43404F583E4F090049F
:100CE600FCE0FF90971093FE784D46F6EE0846F628
:100CF600EF909718930856F69004FCE0FF2466F5EB
:100D060082E43404F583E064016003020DACEF2550
:100D1600E025E02433F582E43405F583E0FCA3E026
:100D2600FDA3E0FEA3E0FFE4FBFA79A0784012748D
:100D36005FE4FBFA791E78431274FC6069406790A1
:100D460004FCE0FF25E024DFF582E43401F583E0CE
:100D5600FEEF25E024DEF582E43401F583E06E70D3
:100D6600459004FCE025E024DEF582E43401F583B9
:100D7600EEF09004FCE0FF25E024DFF582E4340188
:100D8600F5837401F074662FF582E43404F583E488
:100D9600F09004FCE090971893FF784D56F6EF0814
:100DA60056F6EF0856F69004FCE0FF25E024DFF542
:100DB60082E43401F583E06401600302155E741871
:100DC6002FF582E43402F583E0600302155E900499
:100DD600FCE0FB75F00CA4249AF582E43400F5835C
:100DE600E0FCA3E0FDA3E0FEA3E0FFEB75F00CA49E
:100DF6002496F582E43400F5831279FB9004FCE036
:100E0600FB75F00CA4249EF582E43400F583E0FC27
:100E1600A3E0FDA3E0FEA3E0FFEB75F00CA4249A8B
:100E2600F582E43400F5831279FB9004FCE0FD259D
:100E3600E025E0246AF582E43401F583E0FEED2541
:100E4600E025E02469F582E43401F583E07C0024A2
:100E560000FFEC3EFEE4FD9004FCE0FB75F00CA404
:100E6600249EF582E43400F5831279FBEB25E02518
:100E7600E0246AF582E43401F583E0FEEB25E02503
:100E8600E02469F582E43401F583E07C002400FD6A
:100E9600EC3EFCE412757A9004FCE0FB25E025E0CC
:100EA60024F0F582E43401F5831279FB74182BF5EE
:100EB60082E43402F5837401F090046EE0FF7E0054
:100EC6007C177D8312780AE4FCFDEB75F00CA424F4
:100ED60096F582E43400F583E0F8A3E0F9A3E0FA9E
:100EE600A3E0FBD31279995003020FA790046EE09A
:100EF600FF7E007C177D8312780AE4FCFD9004FCDB
:100F0600E075F00CA4249AF582E43400F583E0F849
:100F1600A3E0F9A3E0FAA3E0FBD312799950030208
:100F26000FA790046EE0FF7E007C177D8312780A7F
:100F3600E4FCFD9004FCE075F00CA4249EF582E42C
:100F46003400F583E0F8A3E0F9A3E0FAA3E0FBD3CD
:100F5600127999404C9004FCE0FF25E024DFF582ED
:100F6600E43401F583E0FEEF25E024DEF582E43487
:100F760001F583EEF09004FCE0FF25E024DFF58226
:100F8600E43401F5837402F0EF90971093784D46A0
:100F9600F69004FCE090971893FF0856F6EF085673
:100FA600F690046EE0FCE412757F7BC37AF579A8AF
:100FB600783F127356C004C005C006C0079004FCF3
:100FC600E075F00CA42496F582E43400F583E0FC89
:100FD600A3E0FDA3E0FEA3E0FFE4127575A804A953
:100FE60005AA06AB07D007D006D005D0041274FCBC
:100FF60040030210E490046EE0FCE412757F7BC3AC
:101006007AF579A8783F127356C004C005C006C0A9
:10101600079004FCE075F00CA4249AF582E43400F1
:10102600F583E0FCA3E0FDA3E0FEA3E0FFE4127578
:1010360075A804A905AA06AB07D007D006D005D027
:10104600041274FC40030210E490046EE0FCE41207
:10105600757F7BC37AF579A8783F127356C004C0B2
:1010660005C006C0079004FCE075F00CA4249EF5AC
:1010760082E43400F583E0FCA3E0FDA3E0FEA3E0F8
:10108600FFE4127575A804A905AA06AB07D007D018
:1010960006D005D0041274FC50449004FCE0FF25F1
:1010A600E024DFF582E43401F583E0FEEF25E02459
:1010B600DEF582E43401F583EEF09004FCE0FF25D2
:1010C600E024DFF582E43401F583E4F0EF9097182D
:1010D60093FF784D56F6EF0856F6EF0856F690044D
:1010E600FCE025E025E024F0F582E43401F583C038
:1010F60083C082E0FCA3E0FDA3E0FEA3E0FFE4FBE7
:10110600FA79A07841127356D082D0831279FB9077
:1011160004FCE0FB25E025E024F0F582E43401F54B
:1011260083E0FCA3E0FDA3E0FEA3E0FFEB75F01473
:10113600A424BEF582E43403F583C083C082900400
:10114600FCE0245EF582E43404F583E0D082D083AB
:1011560075F004127A511279FB745E2BF582E43431
:1011660004F583E004F09004FCE0245EF582E434A8
:1011760004F583E0FFC3940540030213A1EF24FEA8
:1011860060341470030212241470030212C0240384
:1011960060030213A19004FCE0FB75F014A424BEC6
:1011A600F582E43403F583E0FCA3E0FDA3E0FEA3AF
:1011B600E0FFEB0213919004FCE075F014A424C246
:1011C600F582E43403F583E0FCA3E0FDA3E0FEA38F
:1011D600E0FF7B9A7A997919783F127356C004C05A
:1011E60005C006C0079004FCE075F014A424BEF503
:1011F60082E43403F583E0FCA3E0FDA3E0FEA3E074
:10120600FF7BCD7ACC79CC783E127356D003D002D0
:10121600D001D0001272659004FCE0021391900494
:10122600FCE075F014A424C2F582E43403F583E0EF
:10123600FCA3E0FDA3E0FEA3E0FF9097081279DF90
:10124600127356C004C005C006C0079004FCE075C2
:10125600F014A424BEF582E43403F583E0FCA3E095
:10126600FDA3E0FEA3E0FF9097081279DF12735604
:10127600D003D002D001D000127265C004C005C0F0
:1012860006C0079004FCE075F014A424C6F582E4B9
:101296003403F583E0FCA3E0FDA3E0FEA3E0FF90AA
:1012A600970C1279DF127356D003D002D001D0000A
:1012B6001272659004FCE00213919004FCE075F054
:1012C60014A424C2F582E43403F583E0FCA3E0FD14
:1012D600A3E0FEA3E0FF9097041279DF127356C0D5
:1012E60004C005C006C0079004FCE075F014A424F1
:1012F600BEF582E43403F583E0FCA3E0FDA3E0FE43
:10130600A3E0FF9097041279DF127356D003D00240
:10131600D001D000127265C004C005C006C0079097
:1013260004FCE075F014A424C6F582E43403F583C6
:10133600E0FCA3E0FDA3E0FEA3E0FF90970812798E
:10134600DF127356D003D002D001D000127265C0EE
:1013560004C005C006C0079004FCE075F014A42480
:10136600CAF582E43403F583E0FCA3E0FDA3E0FEC6
:10137600A3E0FF90970C1279DF127356D003D002C8
:10138600D001D0001272659004FCE025E025E0242F
:1013960033F582E43405F5831279FB9004FCE0FF13
:1013A600245EF582E43404F583E0640560030215E7
:1013B60040EF75F014A424C2F582E43403F583E00B
:1013C600FCA3E0FDA3E0FEA3E0FF9097001279DF07
:1013D600127356C004C005C006C0079004FCE07531
:1013E600F014A424BEF582E43403F583E0FCA3E004
:1013F600FDA3E0FEA3E0FF9096FC1279DF12735680
:10140600D003D002D001D000127265C004C005C05E
:1014160006C0079004FCE075F014A424C6F582E427
:101426003403F583E0FCA3E0FDA3E0FEA3E0FF9018
:1014360097041279DF127356D003D002D001D00080
:10144600127265C004C005C006C0079004FCE075B2
:10145600F014A424CAF582E43403F583E0FCA3E087
:10146600FDA3E0FEA3E0FF9097081279DF12735602
:10147600D003D002D001D000127265C004C005C0EE
:1014860006C0079004FCE075F014A424CEF582E4AF
:101496003403F583E0FCA3E0FDA3E0FEA3E0FF90A8
:1014A600970C1279DF127356D003D002D001D00008
:1014B6001272659004FCE025E025E02433F582E411
:1014C6003405F5831279FBE49004FEF09004FCE009
:1014D60075F014A424C2F582E43403F583C083C0F6
:1014E600829004FEE0D082D08375F004127A51E037
:1014F600FCA3E0FDA3E0FEA3E0FF9004FCE075F092
:1015060014A424BEF582E43403F583C083C082901C
:1015160004FEE0D082D08375F004127A511279FB72
:101526009004FEE004F0E0B404A29004FCE0245E23
:10153600F582E43404F583E014F09004FCE0FF2423
:1015460066F582E43404F5837401F074202FF58285
:10155600E43402F5837401F09004FCE0FF25E024F6
:10156600DFF582E43401F583E0600302268E741809
:101576002FF582E43402F583E0600302268E9004A0
:10158600FCE0FB75F00CA4249AF582E43400F583A4
:10159600E0FCA3E0FDA3E0FEA3E0FFEB75F00CA4E6
:1015A6002496F582E43400F5831279FB9004FCE07E
:1015B600FB75F00CA4249EF582E43400F583E0FC70
:1015C600A3E0FDA3E0FEA3E0FFEB75F00CA4249AD4
:1015D600F582E43400F5831279FB9004FCE0FD25E6
:1015E600E025E0246AF582E43401F583E0FEED258A
:1015F600E025E02469F582E43401F583E07C0024EB
:1016060000FFEC3EFEE4FD9004FCE0FB75F00CA44C
:10161600249EF582E43400F5831279FBEB25E02560
:10162600E0246AF582E43401F583E0FEEB25E0254B
:10163600E02469F582E43401F583E07C002400FDB2
:10164600EC3EFCE412757A9004FCE0FB25E025E014
:1016560024F0F582E43401F5831279FB74182BF536
:1016660082E43402F5837401F090046EE0FCE41227
:10167600757F7BC37AF579A8783F127356C004C08C
:1016860005C006C0079004FCE075F00CA42496F58E
:1016960082E43400F583E0FCA3E0FDA3E0FEA3E0D2
:1016A600FFE4127575A804A905AA06AB07D007D0F2
:1016B60006D005D0041274FC600250030217B390E2
:1016C600046EE0FCE412757F7BC37AF579A8783F57
:1016D600127356C004C005C006C0079004FCE0752E
:1016E600F00CA4249AF582E43400F583E0FCA3E030
:1016F600FDA3E0FEA3E0FFE4127575A804A905AA00
:1017060006AB07D007D006D005D0041274FC6002E1
:1017160050030217B390046EE0FCE412757F7BC39E
:101726007AF579A8783F127356C004C005C006C082
:10173600079004FCE075F00CA4249EF582E43400C6
:10174600F583E0FCA3E0FDA3E0FEA3E0FFE4127551
:1017560075A804A905AA06AB07D007D006D005D000
:10176600041274FC604740459004FCE0FF25E02429
:10177600DFF582E43401F583E0FEEF25E024DEF5B3
:1017860082E43401F583EEF09004FCE0FF25E024CA
:10179600DFF582E43401F5837401F0EF9097189336
:1017A600FF784D56F6EF0856F6EF0856F69004FC0D
:1017B600E025E025E024F0F582E43401F583C083DA
:1017C600C082E0FCA3E0FDA3E0FEA3E0FFE4FBFA99
:1017D60079A07841127356D082D0831279FB900497
:1017E600FCE0FB25E025E024F0F582E43401F583F6
:1017F600E0FCA3E0FDA3E0FEA3E0FFEB75F014A47C
:1018060024BEF582E43403F583C083C0829004FCD1
:10181600E0245EF582E43404F583E0D082D083755B
:10182600F004127A511279FB745E2BF582E43404CB
:10183600F583E004F09004FCE0245EF582E43404D1
:10184600F583E0FFC394054003021A73EF24FE609C
:10185600341470030218F314700302198F24036002
:1018660003021C129004FCE0FB75F014A424BEF5E0
:1018760082E43403F583E0FCA3E0FDA3E0FEA3E0ED
:10188600FFEB021A609004FCE075F014A424C2F584
:1018960082E43403F583E0FCA3E0FDA3E0FEA3E0CD
:1018A600FF7B9A7A997919783F127356C004C0055E
:1018B600C006C0079004FCE075F014A424BEF582AF
:1018C600E43403F583E0FCA3E0FDA3E0FEA3E0FF20
:1018D6007BCD7ACC79CC783E127356D003D002D029
:1018E60001D0001272659004FCE0021A609004FCBC
:1018F600E075F014A424C2F582E43403F583E0FC19
:10190600A3E0FDA3E0FEA3E0FF9097081279DF12A3
:101916007356C004C005C006C0079004FCE075F00D
:1019260014A424BEF582E43403F583E0FCA3E0FDB1
:10193600A3E0FEA3E0FF9097081279DF127356D05A
:1019460003D002D001D000127265C004C005C006E3
:10195600C0079004FCE075F014A424C6F582E434B4
:1019660003F583E0FCA3E0FDA3E0FEA3E0FF909770
:101976000C1279DF127356D003D002D001D00012B8
:1019860072659004FCE0021A609004FCE075F014A5
:10199600A424C2F582E43403F583E0FCA3E0FDA3AE
:1019A600E0FEA3E0FF9097041279DF127356C0049D
:1019B600C005C006C0079004FCE075F014A424BE60
:1019C600F582E43403F583E0FCA3E0FDA3E0FEA387
:1019D600E0FF9097041279DF127356D003D002D03D
:1019E60001D000127265C004C005C006C00790048D
:1019F600FCE075F014A424C6F582E43403F583E014
:101A0600FCA3E0FDA3E0FEA3E0FF9097081279DFB8
:101A1600127356D003D002D001D000127265C004F2
:101A2600C005C006C0079004FCE075F014A424CAE3
:101A3600F582E43403F583E0FCA3E0FDA3E0FEA316
:101A4600E0FF90970C1279DF127356D003D002D0C4
:101A560001D0001272659004FCE025E025E02433F5
:101A6600F582E43405F5831279FB021C129004FC1E
:101A7600E0FF245EF582E43404F583E06405600348
:101A8600021C12EF75F014A424C2F582E43403F5A7
:101A960083E0FCA3E0FDA3E0FEA3E0FF9097001225
:101AA60079DF127356C004C005C006C0079004FC57
:101AB600E075F014A424BEF582E43403F583E0FC5B
:101AC600A3E0FDA3E0FEA3E0FF9096FC1279DF12EF
:101AD6007356D003D002D001D000127265C004C084
:101AE60005C006C0079004FCE075F014A424C6F5F2
:101AF60082E43403F583E0FCA3E0FDA3E0FEA3E06B
:101B0600FF9097041279DF127356D003D002D001EA
:101B1600D000127265C004C005C006C0079004FC60
:101B2600E075F014A424CAF582E43403F583E0FCDE
:101B3600A3E0FDA3E0FEA3E0FF9097081279DF1271
:101B46007356D003D002D001D000127265C004C013
:101B560005C006C0079004FCE075F014A424CEF579
:101B660082E43403F583E0FCA3E0FDA3E0FEA3E0FA
:101B7600FF90970C1279DF127356D003D002D00172
:101B8600D0001272659004FCE025E025E02433F5D0
:101B960082E43405F5831279FBE49004FEF09004A8
:101BA600FCE075F014A424C2F582E43403F583C086
:101BB60083C0829004FEE0D082D08375F004127A4E
:101BC60051E0FCA3E0FDA3E0FEA3E0FF9004FCE0EF
:101BD60075F014A424BEF582E43403F583C083C0F3
:101BE600829004FEE0D082D08375F004127A5112FE
:101BF60079FB9004FEE004F0E0B404A29004FCE05B
:101C0600245EF582E43404F583E014F09004FCE0ED
:101C1600FF2466F582E43404F5837401F074202F02
:101C2600F582E43402F583E4F002268E9004FCE0AB
:101C3600FF25E024DFF582E43401F583E0FEEF259D
:101C4600E024DEF582E43401F583E06E70030226BB
:101C56008EEE64046003021E0A9004FCE02418F56C
:101C660082E43402F583E06003021E0A9004FFF06A
:101C760090046EE0FF7E007C037DE812780AE4FCA7
:101C8600FD9004FCE075F00CA42496F582E4340083
:101C9600F583C083C0829004FFE0D082D08375F0C4
:101CA60004127A511279FB9004FFE004F0E0B403C9
:101CB600BF9004FCE0FB25E025E024F0F582E43447
:101CC60001F583127A2000000000EBC394075063ED
:101CD6009004FCE0FD25E025E0246CF582E4340167
:101CE600F583E0FEED25E025E0246BF582E4340182
:101CF600F583E07C002400FFEC3EFEE4FD9004FC4E
:101D0600E0FB75F00CA4249EF582E43400F5831202
:101D160079FBEB25E025E0246CF582E43401F583BC
:101D2600E0FEEB25E025E0246BF582E43401F58343
:101D3600E080329004FCE0FB64077049900186E085
:101D4600FAFE900185E0F97C002400FFEC3EFEE4FB
:101D5600FDEB75F00CA4249EF582E43400F58312A5
:101D660079FBEAFEE97C002400FDEC3EFCE41275FA
:101D76007A9004FCE025E025E024F0F582E43401C5
:101D8600F5831279FB9004FCE0FF2418F582E43415
:101D960002F5837401F0EF25E025E024F0F582E4F6
:101DA6003401F583E0FCA3E0FDA3E0FEA3E0FFE43D
:101DB600FBFA79A078411273569004FCE0FB25E00B
:101DC60025E02433F582E43405F5831279FB746645
:101DD6002BF582E43404F5837401F074202BF5822C
:101DE600E43402F5837404F0EB25E024DFF582E4A5
:101DF6003401F583E0FFEB25E024DEF582E43401CF
:101E0600F583EFF09004FCE0FF25E024DFF582E4A3
:101E16003401F583E064036003021FC674182FF5CE
:101E260082E43402F583E06003021FC69004FFF0EB
:101E360090046EE0FF7E007C077DD012780AE4FCF9
:101E4600FD9004FCE075F00CA42496F582E43400C1
:101E5600F583C083C0829004FFE0D082D08375F002
:101E660004127A511279FB9004FFE004F0E0B40307
:101E7600BF9004FCE0FB25E025E024F0F582E43485
:101E860001F583127A200000000074662BF582E4C7
:101E96003404F583E4F09004FCE0FBC39407505C43
:101EA600E0FD25E025E0246CF582E43401F583E0CD
:101EB600FEED25E025E0246BF582E43401F583E0B0
:101EC6007C002400FFEC3EFEE4FDEB75F00CA42440
:101ED6009EF582E43400F5831279FBEB25E025E0DC
:101EE600246CF582E43401F583E0FEEB25E025E081
:101EF600246BF582E43401F583E080329004FCE043
:101F0600FB64077049900186E0FAFE900185E0F9CE
:101F16007C002400FFEC3EFEE4FDEB75F00CA424EF
:101F26009EF582E43400F5831279FBEAFEE97C0033
:101F36002400FDEC3EFCE412757A9004FCE025E0FA
:101F460025E024F0F582E43401F5831279FB900450
:101F5600FCE0FF2418F582E43402F5837401F0EF07
:101F660025E025E024F0F582E43401F583E0FCA3C6
:101F7600E0FDA3E0FEA3E0FFE4FBFA79A0784112BE
:101F860073569004FCE0FB25E025E02433F582E45B
:101F96003405F5831279FB74202BF582E43402F5BF
:101FA600837403F0EB25E024DFF582E43401F58346
:101FB600E0FFEB25E024DEF582E43401F583EFF063
:101FC6009004FCE0FF25E024DFF582E43401F5838C
:101FD600E0640260030221C374182FF582E4340220
:101FE600F583E060030221C39004FFF090046EE0E5
:101FF600FF7E007C077DD012780AE4FCFD9004FC8D
:10200600E075F00CA42496F582E43400F583C083D1
:10201600C0829004FFE0D082D08375F004127A511A
:102026001279FB9004FFE004F0E0B403BF9004FCD7
:10203600E0FB25E025E024F0F582E43401F5831287
:102046007A200000000074662BF582E43404F583E0
:10205600E4F09004FCE0FBC39407507CE0FD25E02F
:1020660025E0246CF582E43401F583E0FEED25E0FD
:1020760025E0246BF582E43401F583E07C0024003E
:10208600FFEC3EFEE4FDEB75F00CA4249EF582E425
:102096003400F5831279FBEB25E025E0246CF5820C
:1020A600E43401F583E0FEEB25E025E0246BF582C0
:1020B600E43401F583E07C002400FDEC3EFCE412F0
:1020C600757A9004FCE025E025E024F0F582E434FE
:1020D60001F5831279FB80739004FCE06407706B52
:1020E600900186E0FBFE900185E0F97C002400FF6C
:1020F600EC3EFEE4FD9004FCE075F00CA4249EF595
:1021060082E43400F5831279FBEBFEE97C002400BF
:10211600FDEC3EFCE412757A9004FCE0FB25E0251C
:10212600E024F0F582E43401F5831279FBEB25E037
:1021360024DFF582E43401F5837403F0EB25E02413
:10214600DEF582E43401F5837403F09004FCE0FFCD
:102156002418F582E43402F5837401F0EF25E025B6
:10216600E024F0F582E43401F583E0FCA3E0FDA36E
:10217600E0FEA3E0FFE4FBFA79A0784112735690E3
:1021860004FCE0FB25E025E02433F582E43405F584
:10219600831279FB74202BF582E43402F5837402F2
:1021A600F0EB25E024DFF582E43401F583E0FFEB74
:1021B60025E024DEF582E43401F583EFF09004FC9B
:1021C600E0FF25E024DFF582E43401F583E06401D5
:1021D600600302242E74182FF582E43402F583E09E
:1021E600600302242E9004FFF090046EE0FF7E0050
:1021F6007C037DE812780AE4FCFD9004FCE075F0AF
:102206000CA42496F582E43400F583C083C0829042
:1022160004FFE0D082D08375F004127A511279FB64
:102226009004FFE004F0E0B403BF9004FCE0FB255B
:10223600E025E024F0F582E43401F583127A2000EB
:1022460000000074662BF582E43404F583E4F09014
:1022560004FCE0245EF582E43404F583E4F09004A3
:10226600FEF09004FEE0FFC3940A50279004FCE0C1
:1022760075F014A424BEF582E43403F58375F004E6
:10228600EF127A51127A20000000009004FEE0045A
:10229600F080CF9004FCE0FD25E025E0246AF5827D
:1022A600E43401F583E0FEED25E025E02469F582BE
:1022B600E43401F583E07C002400FFEC3EFEE4FDFF
:1022C6009004FCE0FB75F00CA4249EF582E4340037
:1022D600F5831279FBEB25E025E0246AF582E434E8
:1022E60001F583E0FEEB25E025E02469F582E43480
:1022F60001F583E07C002400FDEC3EFCE412757AD7
:102306009004FCE0FB25E025E024F0F582E43401AE
:10231600F5831279FBEB25E025E024F0F582E43421
:1023260001F583C083C082E0FCA3E0FDA3E0FEA329
:10233600E0FFE4FBFA79A07841127356D082D0838D
:102346001279FB9004FCE0FB25E025E024F0F58201
:10235600E43401F583E0FCA3E0FDA3E0FEA3E0FF87
:10236600EB75F014A424BEF582E43403F583C08330
:10237600C0829004FCE0245EF582E43404F583E038
:10238600D082D08375F004127A511279FB745E2BD9
:10239600F582E43404F583E004F09004FCE0FF7574
:1023A600F014A424BEF582E43403F583C083C0820E
:1023B600745E2FF582E43404F583E0D082D0837511
:1023C600F004127A51E0FCA3E0FDA3E0FEA3E0FFD7
:1023D6009004FCE0FB25E025E02433F582E4340597
:1023E600F5831279FB74662BF582E43404F5837465
:1023F60001F074202BF582E43402F5837401F07445
:10240600182BF582E43402F5837401F0EB25E02401
:10241600DFF582E43401F583E0FFEB25E024DEF509
:1024260082E43401F583EFF09004FCE0FF25E0241C
:10243600DFF582E43401F583E0600302268E74182A
:102446002FF582E43402F583E0600302268E9004C1
:10245600FFF090046EE0FFE4FCFDFE9004FCE075E6
:10246600F00CA42496F582E43400F583C083C08280
:102476009004FFE0D082D08375F004127A5112796D
:10248600FB9004FFE004F0E0B403C79004FCE0FB1B
:1024960025E025E024F0F582E43401F583127A2064
:1024A6000000000074662BF582E43404F583E4F042
:1024B6009004FCE0245EF582E43404F583E4F090B5
:1024C60004FEF09004FEE0FFC3940A50279004FC3B
:1024D600E075F014A424BEF582E43403F58375F0A8
:1024E60004EF127A51127A20000000009004FEE0F8
:1024F60004F080CF9004FCE0FD25E025E0246AF599
:1025060082E43401F583E0FEED25E025E02469F55B
:1025160082E43401F583E07C002400FFEC3EFEE417
:10252600FD9004FCE0FB75F00CA4249EF582E434D7
:1025360000F5831279FBEB25E025E0246AF582E4B9
:102546003401F583E0FEEB25E025E02469F582E41D
:102556003401F583E07C002400FDEC3EFCE41275BA
:102566007A9004FCE0FB25E025E024F0F582E434D3
:1025760001F5831279FBEB25E025E024F0F582E4F2
:102586003401F583C083C082E0FCA3E0FDA3E0FE36
:10259600A3E0FFE4FBFA79A07841127356D082D00B
:1025A600831279FB9004FCE0FB25E025E024F0F59E
:1025B60082E43401F583E0FCA3E0FDA3E0FEA3E0A2
:1025C600FFEB75F014A424BEF582E43403F583C052
:1025D60083C0829004FCE0245EF582E43404F58333
:1025E600E0D082D08375F004127A511279FB745EC2
:1025F6002BF582E43404F583E004F09004FCE0FF5C
:1026060075F014A424BEF582E43403F583C083C0B8
:1026160082745E2FF582E43404F583E0D082D083A1
:1026260075F004127A51E0FCA3E0FDA3E0FEA3E0FE
:10263600FF9004FCE0FB25E025E02433F582E4343A
:1026460005F5831279FB74662BF582E43404F58371
:102656007401F074202BF582E43402F583E4F074FF
:10266600182BF582E43402F5837401F0EB25E0249F
:10267600DFF582E43401F583E0FFEB25E024DEF5A7
:1026860082E43401F583EFF09004FCE004F00200EC
:102696004E784DE690A800F0784FE690B000F0181E
:1026A600E690B800F0201803024C1FE49004FEF0F8
:1026B6009004FEE0FFC394084003024BBAEF75F0A6
:1026C6000CA4249EF582E43400F583E0FCA3E0FD2F
:1026D600A3E0FEA3E0FFE47B03FAF9F81278F99091
:1026E60001EEEEF0A3EFF07859127A070000000031
:1026F600900510127A2000000000900514127A202E
:102706000000000090050C127A2000000000E49002
:10271600051DF090051CF090051BF090051AF09031
:102726000519F0900518F09004FEE0FF75F00AA474
:102736009004FDF0EFC394074003022C4EA3E0245F
:1027460066F582E43404F583E4F074202FF582E420
:102756003402F583E060030228309004FDE0FB2498
:1027660029F582E43402F583E0FF7E007C037DE8F0
:1027760012780AAC06AD07744C2BF582E43400F5EA
:1027860083E075F064A42DFDEC35F0FC9004FDE0CB
:102796002401F582E43400F583E075F00AA42DFFE8
:1027A600E5F03CFE74182BF582E43401F583E07CF9
:1027B600002FFDEC3EFCE412757A78251279EF9035
:1027C60004FDE0FB242AF582E43402F583E0FF7E73
:1027D600007C037DE812780AAC06AD07744D2BF534
:1027E60082E43400F583E075F064A42DFDEC35F049
:1027F600FC9004FDE02402F582E43400F583E075E4
:10280600F00AA42DFFE5F03CFE74192BF582E434A2
:1028160001F583E07C002FFDEC3EFCE412757A7B2B
:10282600007A2479747849022D449004FEE024202D
:10283600F582E43402F583E064016003022918900E
:1028460004FDE0FB242BF582E43402F583E0FF7EF1
:10285600007C037DE812780AAC06AD07744E2BF5B2
:1028660082E43400F583E075F064A42DFDEC35F0C8
:10287600FC9004FDE02403F582E43400F583E07562
:10288600F00AA42DFFE5F03CFE741A2BF582E43421
:1028960001F583E07C002FFDEC3EFCE412757A78AE
:1028A6002D1279EF9004FDE0FB242CF582E434022E
:1028B600F583E0FF7E007C037DE812780AAC06AD66
:1028C60007744F2BF582E43400F583E075F064A4B9
:1028D6002DFDEC35F0FC9004FDE02404F582E43493
:1028E60000F583E075F00AA42DFFE5F03CFE741BAD
:1028F6002BF582E43401F583E07C002FFDEC3EFCF1
:10290600E412757A7B007A247974784912745F022E
:102916002E599004FEE02420F582E43402F583E08B
:1029260064026003022A2A9004FDE0FB242DF5824E
:10293600E43402F583E0FF7E007C037DE812780A2A
:10294600AC06AD0774502BF582E43400F583E075D0
:10295600F064A42DFDEC35F0FC9004FDE02405F5B3
:1029660082E43400F583E075F00AA42DFFE5F03C1F
:10297600FE741C2BF582E43401F583E07C002FFD08
:10298600EC3EFCE412757A78351279EF9004FDE09E
:10299600FB242EF582E43402F583E0FF7E007C03FF
:1029A6007DE812780AAC06AD0774512BF582E43443
:1029B60000F583E075F064A42DFDEC35F0FC900481
:1029C600FDE02406F582E43400F583E075F00AA400
:1029D6002DFFE5F03CFE741D2BF582E43401F583F2
:1029E600E07C002FFDEC3EFCE412757AE4FBFA79FC
:1029F6007A784412745F78391279EF9004FEE025F4
:102A0600E025E02433F582E43405F583E0FCA3E019
:102A1600FDA3E0FEA3E0FF78351279C61272617855
:102A260039022E849004FEE02420F582E43402F577
:102A360083E064036003022B3C9004FDE0FB242F3B
:102A4600F582E43402F583E0FF7E007C037DE81224
:102A5600780AAC06AD0774522BF582E43400F58390
:102A6600E075F064A42DFDEC35F0FC9004FDE02447
:102A760007F582E43400F583E075F00AA42DFFE53E
:102A8600F03CFE741E2BF582E43401F583E07C00F5
:102A96002FFDEC3EFCE412757A783D1279EF900436
:102AA600FDE0FB2430F582E43402F583E0FF7E008E
:102AB6007C037DE812780AAC06AD0774532BF582C9
:102AC600E43400F583E075F064A42DFDEC35F0FCEC
:102AD6009004FDE02408F582E43400F583E075F007
:102AE6000AA42DFFE5F03CFE741F2BF582E43401A9
:102AF600F583E07C002FFDEC3EFCE412757AE4FBE6
:102B0600FA7920784112745F78411279EF9004FEC9
:102B1600E025E025E02433F582E43405F583E0FC86
:102B2600A3E0FDA3E0FEA3E0FF783D1279C6127292
:102B3600617841022E849004FEE02420F582E4347C
:102B460002F583E064046003022E9E9004FDE0FB20
:102B56002431F582E43402F583E0FF7E007C037DB8
:102B6600E812780AAC06AD0774542BF582E43400FB
:102B7600F583E075F064A42DFDEC35F0FC9004FDC2
:102B8600E02409F582E43400F583E075F00AA42D0B
:102B9600FFE5F03CFE74202BF582E43401F583E07A
:102BA6007C002FFDEC3EFCE412757A78451279EF35
:102BB6009004FDE0FB2432F582E43402F583E0FF65
:102BC6007E007C037DE812780AAC06AD0774552BAF
:102BD600F582E43400F583E075F064A42DFDEC3550
:102BE600F0FC9004FDE0240AF582E43400F583E06D
:102BF60075F00AA42DFFE5F03CFE74212BF582E466
:102C06003401F583E07C002FFDEC3EFCE412757A7E
:102C1600E4FBFA7920784112735678491279EF90DD
:102C260004FEE025E025E02433F582E43405F5834F
:102C3600E0FCA3E0FDA3E0FEA3E0FF78451279C621
:102C46001272617849022E849004FEE0FF640760E8
:102C560003022E9E74662FF582E43404F583E4F0B5
:102C660074202FF582E43402F583E06403600302E6
:102C76002D759004FDE0FB2429F582E43402F583EA
:102C8600E0FF7E007C037DE812780AAC06AD07748F
:102C96004C2BF582E43400F583E075F064A42DFD39
:102CA600EC35F0FC9004FDE02401F582E43400F5F7
:102CB60083E075F00AA42DFFE5F03CFE74182BF5B1
:102CC60082E43401F583E07C002FFDEC3EFCE41247
:102CD600757A78251279EF9004FDE0FB242AF582B7
:102CE600E43402F583E0FF7E007C037DE812780A77
:102CF600AC06AD07744D2BF582E43400F583E07520
:102D0600F064A42DFDEC35F0FC9004FDE02402F502
:102D160082E43400F583E075F00AA42DFFE5F03C6B
:102D2600FE74192BF582E43401F583E07C002FFD57
:102D3600EC3EFCE412757AE4FBFA792078411274D1
:102D46005F78291279EF9004FEE025E025E0243330
:102D5600F582E43405F583E0FCA3E0FDA3E0FEA3E1
:102D6600E0FF78251279C61272617829022E8490C6
:102D760004FEE02420F582E43402F583E064046076
:102D860003022E9E9004FDE0FB242BF582E4340220
:102D9600F583E0FF7E007C037DE812780AAC06AD81
:102DA60007744E2BF582E43400F583E075F064A4D5
:102DB6002DFDEC35F0FC9004FDE02403F582E434AF
:102DC60000F583E075F00AA42DFFE5F03CFE741AC9
:102DD6002BF582E43401F583E07C002FFDEC3EFC0C
:102DE600E412757A782D1279EF9004FDE0FB242C1D
:102DF600F582E43402F583E0FF7E007C037DE81271
:102E0600780AAC06AD07744F2BF582E43400F583DF
:102E1600E075F064A42DFDEC35F0FC9004FDE02493
:102E260004F582E43400F583E075F00AA42DFFE58D
:102E3600F03CFE741B2BF582E43401F583E07C0044
:102E46002FFDEC3EFCE412757AE4FBFA792078411A
:102E560012735678311279EF9004FEE025E025E0F2
:102E66002433F582E43405F583E0FCA3E0FDA3E01A
:102E7600FEA3E0FF782D1279C612726178311279BD
:102E8600C61273569004FEE025E025E024F6F5828E
:102E9600E43400F5831279FB9004FEE025E025E09A
:102EA60024F6F582E43400F583E0FCA3E0FDA3E01C
:102EB600FEA3E0FFE4FBFAF9F81274FC600D400B88
:102EC6007859127A070000000080769004FEE0250B
:102ED600E025E024F6F582E43400F583E0FCA3E087
:102EE600FDA3E0FEA3E0FFE4FBFAF9F81274FC6030
:102EF6000540030230359004FEE025E025E024F687
:102F0600F582E43400F583E0FCA3E0FDA3E0FEA334
:102F1600E0FFE4FBFA797A78441274FC602C402ACC
:102F26009004FEE025E025E024F6F582E43400F581
:102F360083E0FCA3E0FDA3E0FEA3E0FF785912794D
:102F4600EF9001667401F00230359004FEE025E052
:102F560025E024F6F582E43400F583E0FCA3E0FDE9
:102F6600A3E0FEA3E0FFE4FBFA797A78441274FC4E
:102F76006002505E9004FEE025E025E024F6F5822E
:102F8600E43400F583E0FCA3E0FDA3E0FEA3E0FF4C
:102F96007B007A24797478491274FC60354033904A
:102FA60004FEE025E025E024F6F582E43400F5830E
:102FB600E0FCA3E0FDA3E0FEA3E0FFE4FBFA797AE0
:102FC600784412745F78591279EF9001667402F0B2
:102FD600805D9004FEE025E025E024F6F582E434E9
:102FE60000F583E0FCA3E0FDA3E0FEA3E0FF7B0089
:102FF6007A24797478491274FC600250329004FE87
:10300600E025E025E024F6F582E43400F583E0FCD3
:10301600A3E0FDA3E0FEA3E0FF7B007A24797478A9
:103026004912745F78591279EF9001667403F09033
:1030360004FEE025E025E024F6F582E43400F5837D
:10304600E0FCA3E0FDA3E0FEA3E0FFE4FBFAF9F851
:103056001274FC603D403B9004FEE0FF25E025E055
:103066002473F582E43404F5837430F0EF25E0250B
:10307600E02474F582E43404F5837430F0EF25E03F
:1030860025E02475F582E43404F5837430F0EF020C
:10309600319A9004FEE025E025E024F6F582E4343A
:1030A60000F583E0FCA3E0FDA3E0FEA3E0FFE4FB64
:1030B600FAF9F81274FC60054003023B7D9004FEA9
:1030C600E025E025E024F6F582E43400F583E0FC13
:1030D600A3E0FDA3E0FEA3E0FFE4FBFA7980783FDE
:1030E6001274FC600250030231AD9004FEE025E04C
:1030F60025E024F6F582E43400F583E0FCA3E0FD48
:10310600A3E0FEA3E0FFE4FBFA797A784412735653
:1031160078551279EF78551279AA1275B3AB07AACA
:10312600067C007D64127871EF2430FF9004FEE087
:1031360025E025E02473F582E43404F583EFF07C82
:10314600007D64AF03AE02127871AA04AB057D0A56
:103156007C00AF03AE02127871EF2430FF9004FEBC
:10316600E025E025E02474F582E43404F583EFF0ED
:103176007D0A7C00AF03AE02127871ED2430FF9019
:1031860004FEE0FE25E025E02475F582E43404F52E
:1031960083EFF0EE25E025E02476F582E43404F5AD
:1031A600837430F0023B7D9004FEE025E025E024A8
:1031B600F6F582E43400F583E0FCA3E0FDA3E0FE2F
:1031C600A3E0FFE4FBFA7980783F1274FC600540C7
:1031D600030232C49004FEE025E025E024F6F582E1
:1031E600E43400F583E0FCA3E0FDA3E0FEA3E0FFEA
:1031F600E4FBFA792078411274FC60025003023233
:10320600C49004FEE025E025E024F6F582E43400CF
:10321600F583E0FCA3E0FDA3E0FEA3E0FFE4FBFAF8
:1032260079C8784212735678551279EF7855127923
:10323600AA1275B3AB07AA067C007D64127871EFFB
:103246002430FF9004FEE025E025E02473F582E4B7
:103256003404F583EFF07C007D64AF03AE02127890
:1032660071AA04AB057D0A7C00AF03AE0212787129
:10327600EF2430FF9004FEE025E025E02474F5827B
:10328600E43404F583EFF07D0A7C00AF03AE02124E
:103296007871ED2430FF9004FEE0FE25E025E02461
:1032A60075F582E43404F583EFF0EE25E025E0249D
:1032B60076F582E43404F5837431F0023B7D9004A4
:1032C600FEE025E025E024F6F582E43400F583E00F
:1032D600FCA3E0FDA3E0FEA3E0FFE4FBFA7920787F
:1032E600411274FC600540030233DB9004FEE025C6
:1032F600E025E024F6F582E43400F583E0FCA3E063
:10330600FDA3E0FEA3E0FFE4FBFA79C8784212745D
:10331600FC600250030233DB9004FEE025E025E06A
:1033260024F6F582E43400F583E0FCA3E0FDA3E097
:10333600FEA3E0FFE4FBFA79207841127356785534
:103346001279EF78551279AA1275B3AB07AA067CE3
:10335600007D64127871EF2430FF9004FEE025E0D2
:1033660025E02473F582E43404F583EFF07C007DD8
:1033760064AF03AE02127871AA04AB057D0A7C0025
:10338600AF03AE02127871EF2430FF9004FEE02501
:10339600E025E02474F582E43404F583EFF07D0A39
:1033A6007C00AF03AE02127871ED2430FF9004FE6C
:1033B600E0FE25E025E02475F582E43404F583EF8C
:1033C600F0EE25E025E02476F582E43404F58374F6
:1033D60032F0023B7D9004FEE025E025E024F6F580
:1033E60082E43400F583E0FCA3E0FDA3E0FEA3E065
:1033F600FFE4FBFA79C878421274FC6005400302C8
:1034060034E89004FEE025E025E024F6F582E43475
:1034160000F583E0FCA3E0FDA3E0FEA3E0FFE4FBF0
:10342600FA797A78441274FC600250030234E89008
:1034360004FEE025E025E024F6F582E43400F58379
:10344600E0FCA3E0FDA3E0FEA3E0FF78551279EFD0
:1034560078551279AA1275B3AB07AA067C007D646B
:10346600127871EF2430FF9004FEE025E025E02479
:1034760073F582E43404F583EFF07C007D64AF03DA
:10348600AE02127871AA04AB057D0A7C00AF03AECA
:1034960002127871EF2430FF9004FEE025E025E06B
:1034A6002474F582E43404F583EFF07D0A7C00AFE2
:1034B60003AE02127871ED2430FF9004FEE0FE2583
:1034C600E025E02475F582E43404F583EFF0EE257B
:1034D600E025E02476F582E43404F5837433F002C3
:1034E6003B7D9004FEE025E025E024F6F582E434F9
:1034F60000F583E0FCA3E0FDA3E0FEA3E0FFE4FB10
:10350600FA797A78441274FC60054003023600901A
:1035160004FEE025E025E024F6F582E43400F58398
:10352600E0FCA3E0FDA3E0FEA3E0FF7B007A407988
:103536001C78461274FC600250030236009004FEAA
:10354600E025E025E024F6F582E43400F583E0FC8E
:10355600A3E0FDA3E0FEA3E0FFE4FBFA79207841B7
:1035660012745F78551279EF78551279AA1275B3ED
:10357600AB07AA067C007D64127871EF2430FF90B9
:1035860004FEE025E025E02473F582E43404F583A7
:10359600EFF07C007D64AF03AE02127871AA04AB33
:1035A600057D0A7C00AF03AE02127871EF2430FF6E
:1035B6009004FEE025E025E02474F582E43404F569
:1035C60083EFF07D0A7C00AF03AE02127871ED2422
:1035D60030FF9004FEE0FE25E025E02475F582E448
:1035E6003404F583EFF0EE25E025E02476F582E459
:1035F6003404F5837434F0023B7D9004FEE025E04C
:1036060025E024F6F582E43400F583E0FCA3E0FD32
:10361600A3E0FEA3E0FF7B007A40791C7846127493
:10362600FC600540030237199004FEE025E025E022
:1036360024F6F582E43400F583E0FCA3E0FDA3E084
:10364600FEA3E0FF7B007A5079C378471274FC60D2
:103656000250030237199004FEE025E025E024F627
:10366600F582E43400F583E0FCA3E0FDA3E0FEA3CD
:10367600E0FFE4FBFA79C8784212745F7855127954
:10368600EF78551279AA1275B3AB07AA067C007DAE
:1036960064127871EF2430FF9004FEE025E025E007
:1036A6002473F582E43404F583EFF07C007D64AF87
:1036B60003AE02127871AA04AB057D0A7C00AF0343
:1036C600AE02127871EF2430FF9004FEE025E0256B
:1036D600E02474F582E43404F583EFF07D0A7C007F
:1036E600AF03AE02127871ED2430FF9004FEE0FEC7
:1036F60025E025E02475F582E43404F583EFF0EE49
:1037060025E025E02476F582E43404F5837435F06B
:10371600023B7D9004FEE025E025E024F6F582E4F8
:103726003400F583E0FCA3E0FDA3E0FEA3E0FF7B0D
:10373600007A5079C378471274FC6005400302385A
:10374600329004FEE025E025E024F6F582E434001C
:10375600F583E0FCA3E0FDA3E0FEA3E0FF7B007A97
:1037660024797478491274FC60025003023832904E
:1037760004FEE025E025E024F6F582E43400F58336
:10378600E0FCA3E0FDA3E0FEA3E0FFE4FBFA797A08
:10379600784412745F78551279EF78551279AA1227
:1037A60075B3AB07AA067C007D64127871EF2430EE
:1037B600FF9004FEE025E025E02473F582E434045E
:1037C600F583EFF07C007D64AF03AE02127871AA38
:1037D60004AB057D0A7C00AF03AE02127871EF24BC
:1037E60030FF9004FEE025E025E02474F582E43401
:1037F60004F583EFF07D0A7C00AF03AE0212787108
:10380600ED2430FF9004FEE0FE25E025E02475F56A
:1038160082E43404F583EFF0EE25E025E02476F526
:1038260082E43404F5837436F0023B7D9004FEE0B6
:1038360025E025E024F6F582E43400F583E0FCA3D8
:10384600E0FDA3E0FEA3E0FF7B007A2479747849CB
:103856001274FC6005400302394C9004FEE025E03A
:1038660025E024F6F582E43400F583E0FCA3E0FDD0
:10387600A3E0FEA3E0FF7B807A967918784B12745A
:10388600FC6002500302394C9004FEE025E025E07E
:1038960024F6F582E43400F583E0FCA3E0FDA3E022
:1038A600FEA3E0FF7B007A40791C784612745F78AD
:1038B600551279EF78551279AA1275B3AB07AA0695
:1038C6007C007D64127871EF2430FF9004FEE025C1
:1038D600E025E02473F582E43404F583EFF07C0000
:1038E6007D64AF03AE02127871AA04AB057D0A7C33
:1038F60000AF03AE02127871EF2430FF9004FEE0B1
:1039060025E025E02474F582E43404F583EFF07DA8
:103916000A7C00AF03AE02127871ED2430FF9004EA
:10392600FEE0FE25E025E02475F582E43404F58307
:10393600EFF0EE25E025E02476F582E43404F58305
:103946007437F0023B7D9004FEE025E025E024F686
:10395600F582E43400F583E0FCA3E0FDA3E0FEA3DA
:10396600E0FF7B807A967918784B1274FC600540EC
:1039760003023A669004FEE025E025E024F6F5828F
:10398600E43400F583E0FCA3E0FDA3E0FEA3E0FF42
:103996007B207ABC79BE784C1274FC60025003021C
:1039A6003A669004FEE025E025E024F6F582E4344C
:1039B60000F583E0FCA3E0FDA3E0FEA3E0FF7B00AF
:1039C6007A5079C3784712745F78551279EF785533
:1039D6001279AA1275B3AB07AA067C007D64127829
:1039E60071EF2430FF9004FEE025E025E02473F516
:1039F60082E43404F583EFF07C007D64AF03AE020D
:103A0600127871AA04AB057D0A7C00AF03AE0212E0
:103A16007871EF2430FF9004FEE025E025E0247461
:103A2600F582E43404F583EFF07D0A7C00AF03AE43
:103A360002127871ED2430FF9004FEE0FE25E025A9
:103A4600E02475F582E43404F583EFF0EE25E025F5
:103A5600E02476F582E43404F5837438F0023B7D85
:103A66009004FEE025E025E024F6F582E43400F536
:103A760083E0FCA3E0FDA3E0FEA3E0FF7B207ABC8D
:103A860079BE784C1274FC60054003023B7D9004BD
:103A9600FEE025E025E024F6F582E43400F583E037
:103AA600FCA3E0FDA3E0FEA3E0FF7B287A6B796E22
:103AB600784E1274FC60025003023B7D9004FEE0D7
:103AC60025E025E024F6F582E43400F583E0FCA346
:103AD600E0FDA3E0FEA3E0FF7B007A247974784939
:103AE60012745F78551279EF78551279AA1275B368
:103AF600AB07AA067C007D64127871EF2430FF9034
:103B060004FEE025E025E02473F582E43404F58321
:103B1600EFF07C007D64AF03AE02127871AA04ABAD
:103B2600057D0A7C00AF03AE02127871EF2430FFE8
:103B36009004FEE025E025E02474F582E43404F5E3
:103B460083EFF07D0A7C00AF03AE02127871ED249C
:103B560030FF9004FEE0FE25E025E02475F582E4C2
:103B66003404F583EFF0EE25E025E02476F582E4D3
:103B76003404F5837439F090051DE0D394094003AD
:103B8600023ECB90051CE094094003023ECB900513
:103B96001BE094094003023ECB90051AE0940940CD
:103BA60003023ECB900519E094094003023ECB90F8
:103BB6000518E094094003023ECB78591279AA12FF
:103BC60075B3AB07AA067C007D6412787190051D5B
:103BD600EFF07C007D64AF03AE02127871AA04ABED
:103BE600057D0A7C00AF03AE0212787190051CEFCA
:103BF600F07D0A7C00AF03AE0212787190051BEDD2
:103C0600F078591279AA1275B3AD07AC06EC1275A5
:103C16007AC004C005C006C00778591279AAD00335
:103C2600D002D001D000127261E4FBFA797A7844AE
:103C36001273561275B39005001279FBE47B64FA91
:103C4600F9F8900500E0FCA3E0FDA3E0FEA3E0FF89
:103C56001278F990051AEFF0E47B64FAF9F890050A
:103C660000E0FCA3E0FDA3E0FEA3E0FF1278F9ACC0
:103C760000AD01AE02AF03E47B0AFAF9F81278F957
:103C8600900519EFF0E47B64FAF9F8900500E0FC82
:103C9600A3E0FDA3E0FEA3E0FF1278F9AC00AD01BE
:103CA600AE02AF03E47B0AFAF9F81278F990051828
:103CB600EBF0900166E064016003023D6290051C32
:103CC600E075F00AA4FDACF0A3E075F064A42DFF46
:103CD600E5F03CFE90051BE07C002FFDEC3EFC125F
:103CE600757AC004C005C006C00790051AE0FCE45A
:103CF60012757F7BCD7ACC79CC783D127356D00382
:103D0600D002D001D000127265C004C005C006C042
:103D160007900519E0FCE412757F7B0A7AD77923B0
:103D2600783C127356D003D002D001D000127265CF
:103D3600C004C005C006C007900518E0FCE4127573
:103D46007F7B6F7A127983783A127356D003D0024A
:103D5600D001D000127265785D1279EF900166E0AD
:103D660064026003023E1690051CE075F00AA4FD8D
:103D7600ACF0A3E075F064A42DFFE5F03CFE9005E1
:103D86001BE07C002FFDEC3EFC12757AC004C005DA
:103D9600C006C00790051AE0FCE412757F7BCD7A59
:103DA600CC79CC783D127356D003D002D001D00026
:103DB600127265C004C005C006C007900519E0FC74
:103DC600E412757F7B0A7AD77923783C127356D032
:103DD60003D002D001D000127265C004C005C0062F
:103DE600C007900518E0FCE412757F7B6F7A1279A4
:103DF60083783A127356D003D002D001D0001272E3
:103E060065E4FBFA797A7844127356785D1279EF95
:103E1600900166E064036003023ECB90051CE075EA
:103E2600F00AA4FDACF0A3E075F064A42DFFE5F064
:103E36003CFE90051BE07C002FFDEC3EFC12757AE3
:103E4600C004C005C006C00790051AE0FCE4127560
:103E56007F7BCD7ACC79CC783D127356D003D002D5
:103E6600D001D000127265C004C005C006C007901C
:103E76000519E0FCE412757F7B0A7AD77923783C32
:103E8600127356D003D002D001D000127265C0045E
:103E9600C005C006C007900518E0FCE412757F7BDC
:103EA6006F7A127983783A127356D003D002D00112
:103EB600D0001272657B007A2479747849127356A1
:103EC600785D1279EF9004FEE0246EF582E4340505
:103ED600F583E0FCE412757F7BCD7ACC79CC783D16
:103EE600127356C004C005C006C0079004FEE02445
:103EF6005DF582E43405F583E0FCE412757FD003BA
:103F0600D002D001D000127265C004C005C006C040
:103F1600079004FEE02465F582E43405F583E0FCB1
:103F2600E412757F7B0A7AD77923783C127356D0D0
:103F360003D002D001D0001272659005141279FBED
:103F46009004FEE02476F582E43405F583E0FCE493
:103F560012757F9005281279FB7F007E007D207CFC
:103F66004112891C90050C1279FB90050CE0FCA30C
:103F7600E0FDA3E0FEA3E0FF900514E0F8A3E0F95E
:103F8600A3E0FAA3E0FB1273569005101279FB909A
:103F96000510E0FCA3E0FDA3E0FEA3E0FF785D12C0
:103FA60079C61274FC403630CD0512A1AB5002D250
:103FB6001C9004FEE0FF24C8F582E43401F5837406
:103FC60001F074D52FF582E43401F5837401F09085
:103FD60004FEE090971893785056F68040900510AE
:103FE600E0FCA3E0FDA3E0FEA3E0FF785D1279C646
:103FF6001274FC50289004FEE0FF24C8F582E434D5
:1040060001F583E4F074D52FF582E43401F583E4F9
:10401600F09004FEE090971093785046F69004FED8
:10402600E0FF24C8F582E43401F583E0600302452D
:104036007374202FF582E43402F583E06003B40143
:10404600179004FEE075F03AA4240DFDE435F0FC6B
:104056007BFF7A96798780159004FEE075F03AA486
:10406600240DFDE435F0FC7BFF7A96798A7F0A7E83
:1040760000129AA99004FEE0FB75F03AA4240DFD07
:10408600E435F0FCEB2401FBE433FA7F3C7E0012BE
:104096008BCD9004FEE075F03AA4240DFDE435F0D6
:1040A600FC7BFF7A96798D7F5A7E00129AA990043E
:1040B600FEE0FB75F03AA4240DFDE435F0FCEB259B
:1040C600E024DFF582E43401F583E0FB7A007FD655
:1040D6007E01128BCD9004FEE0FB75F03AA4240D10
:1040E600FDE435F0FCEB25E024DEF582E43401F551
:1040F60083E0FB7A007FB87E01128BCD9004FEE050
:10410600FB75F03AA4240DFDE435F0FC745E2BF546
:1041160082E43404F583E0FB7A007F867E01128B0D
:10412600CD90051DE0FB70030242709004FEE07521
:10413600F03AA4240DFDE435F0FC7A007F827E007F
:10414600128BCD9004FEE075F03AA4240DFDE43503
:10415600F0FC90051CE0FB7A007FA07E00128BCD60
:104166009004FEE075F03AA4240DFDE435F0FC90D1
:10417600051BE0FB7A007FBE7E00128BCD9004FE0D
:10418600E075F03AA4240DFDE435F0FC7BFF7A9649
:10419600798F7FDC7E00129AA99004FEE075F03AD2
:1041A600A4240DFDE435F0FC90051AE0FB7A007FAF
:1041B600F07E00128BCD9004FEE075F03AA4240D3B
:1041C600FDE435F0FC900519E0FB7A007F0E7E01D8
:1041D600128BCD9004FEE075F03AA4240DFDE43573
:1041E600F0FC900518E0FB7A007F2C7E01128BCD47
:1041F6009001EEE0FAA3E0FBC3940AEA94005003B0
:1042060002443C9001EEE0FEA3E0FFC3940AEE9464
:1042160000400BEF9464EE94005003024468900152
:10422600EEE0FEA3E0FFC39464EE9400400BEF942F
:10423600E8EE9403500302449B9001EEE0FEA3E0F7
:10424600FFC394E8EE9403400BEF9410EE942750CE
:10425600030244CE9001EEE0FAA3E0FBC39410EA19
:10426600942750030245110244FB90051CE0FB70A5
:104276000302439C9004FEE075F03AA4240DFDE48D
:1042860035F0FC7A007FA07E00128BCD9004FEE014
:1042960075F03AA4240DFDE435F0FC90051BE0FB17
:1042A6007A007FBE7E00128BCD9004FEE075F03A58
:1042B600A4240DFDE435F0FC7BFF7A96798F7FDC34
:1042C6007E00129AA99004FEE075F03AA4240DFD32
:1042D600E435F0FC90051AE0FB7A007FF07E0012D0
:1042E6008BCD9004FEE075F03AA4240DFDE435F084
:1042F600FC900519E0FB7A007F0E7E01128BCD90B3
:1043060004FEE075F03AA4240DFDE435F0FC9005BA
:1043160018E0FB7A007F2C7E01128BCD9001EEE037
:10432600FAA3E0FBC3940AEA9400500302443C90CB
:1043360001EEE0FEA3E0FFC3940AEE9400400BEF0B
:104346009464EE940050030244689001EEE0FEA3EC
:10435600E0FFC39464EE9400400BEF94E8EE940300
:10436600500302449B9001EEE0FEA3E0FFC394E8F5
:10437600EE9403400BEF9410EE942750030244CEC4
:104386009001EEE0FAA3E0FBC39410EA94275003F1
:104396000245110244FB9004FEE075F03AA4240D98
:1043A600FDE435F0FC90051BE0FB7A007FBE7E0045
:1043B600128BCD9004FEE075F03AA4240DFDE43591
:1043C600F0FC7BFF7A96798F7FDC7E00129AA990AB
:1043D60004FEE075F03AA4240DFDE435F0FC9005EA
:1043E6001AE0FB7A007FF07E00128BCD9004FEE08F
:1043F60075F03AA4240DFDE435F0FC900519E0FBB8
:104406007A007F0E7E01128BCD9004FEE075F03AA5
:10441600A4240DFDE435F0FC900518E0FB7A007F3E
:104426002C7E01128BCD9001EEE0FAA3E0FBC39443
:104436000AEA940050149004FEE075F03AA4240DA4
:10444600FDE435F0FC7F400244E79001EEE0FEA378
:10445600E0FFC3940AEE94004023EF9464EE9400C8
:10446600501B9004FEE075F03AA4240DFDE435F0EF
:10447600FC9001EEE0FAA3E0FB7F2C80649001EE55
:10448600E0FEA3E0FFC39464EE94004023EF94E8BB
:10449600EE9403501B9004FEE075F03AA4240DFD43
:1044A600E435F0FC9001EEE0FAA3E0FB7F188031E2
:1044B6009001EEE0FEA3E0FFC394E8EE94034025EE
:1044C600EF9410EE9427501D9004FEE075F03AA488
:1044D600240DFDE435F0FC9001EEE0FAA3E0FB7F4D
:1044E600047E0280239001EEE0FAA3E0FBC3941061
:1044F600EA942740169004FEE075F03AA4240DFDD8
:10450600E435F0FC7FF07E01128BCD900166E0B4BD
:1045160001179004FEE075F03AA4240DFDE435F091
:10452600FC7BFF7A967991803A900166E0B4021797
:104536009004FEE075F03AA4240DFDE435F0FC7B12
:10454600FF7A967993801C900166E0B4031C900470
:10455600FEE075F03AA4240DFDE435F0FC7BFF7A0D
:104566009679957F547E01129AA912A2969004FE1E
:10457600E0FF24C8F582E43401F583E064016003BA
:10458600024AFE74202FF582E43402F583E06004CB
:10459600640170339004FEE075F03AA4240DFDE446
:1045A60035F0FC7BFF7A9679977F077E00129B5346
:1045B6009004FEE075F03AA4240DFDE435F0FC7B92
:1045C600FF7A96799A80319004FEE075F03AA42439
:1045D6000DFDE435F0FC7BFF7A9679977F077E0028
:1045E600129B539004FEE075F03AA4240DFDE435C9
:1045F600F0FC7BFF7A9679B57F0A7E00129B53907A
:1046060004FEE0FB75F03AA4240DFDE435F0FCEB66
:104616002401FBE433FA7F3C7E00128A829004FE7A
:10462600E075F03AA4240DFDE435F0FC7BFF7A96A4
:10463600798D7F5A7E00129B539004FEE0FB75F045
:104646003AA4240DFDE435F0FCEB25E024DFF582E9
:10465600E43401F583E0FB7A007FD67E01128A827C
:104666009004FEE0FB75F03AA4240DFDE435F0FC61
:10467600EB25E024DEF582E43401F583E0FB7A00E5
:104686007FB87E01128A829004FEE0FB75F03AA4A0
:10469600240DFDE435F0FC745E2BF582E43404F55C
:1046A60083E0FB7A007F867E01128A8290051DE0F8
:1046B600FB70030247FB9004FEE075F03AA4240D5C
:1046C600FDE435F0FC7A007F827E00128A82900437
:1046D600FEE075F03AA4240DFDE435F0FC90051CCF
:1046E600E0FB7A007FA07E00128A829004FEE075CD
:1046F600F03AA4240DFDE435F0FC90051BE0FB7AAE
:10470600007FBE7E00128A829004FEE075F03AA415
:10471600240DFDE435F0FC7BFF7A96798F7FDC7EF5
:1047260000129B539004FEE075F03AA4240DFDE4BC
:1047360035F0FC90051AE0FB7A007FF07E00128AC5
:10474600829004FEE075F03AA4240DFDE435F0FCF9
:10475600900519E0FB7A007F0E7E01128A82900492
:10476600FEE075F03AA4240DFDE435F0FC90051842
:10477600E0FB7A007F2C7E01128A829001EEE0FA3D
:10478600A3E0FBC3940AEA940050030249C79001D0
:10479600EEE0FEA3E0FFC3940AEE9400400BEF9414
:1047A60064EE940050030249F39001EEE0FEA3E0AC
:1047B600FFC39464EE9400400BEF94E8EE9403502C
:1047C60003024A269001EEE0FEA3E0FFC394E8EE62
:1047D6009403400BEF9410EE94275003024A59902D
:1047E60001EEE0FAA3E0FBC39410EA94275003021B
:1047F6004A9C024A8690051CE0FB700302492790FA
:1048060004FEE075F03AA4240DFDE435F0FC7A00D0
:104816007FA07E00128A829004FEE075F03AA424FE
:104826000DFDE435F0FC90051BE0FB7A007FBE7EB3
:1048360000128A829004FEE075F03AA4240DFDE48D
:1048460035F0FC7BFF7A96798F7FDC7E00129B53D6
:104856009004FEE075F03AA4240DFDE435F0FC90DA
:10486600051AE0FB7A007FF07E00128A829004FE31
:10487600E075F03AA4240DFDE435F0FC900519E04E
:10488600FB7A007F0E7E01128A829004FEE075F0AC
:104896003AA4240DFDE435F0FC900518E0FB7A00FF
:1048A6007F2C7E01128A829001EEE0FAA3E0FBC320
:1048B600940AEA940050030249C79001EEE0FEA371
:1048C600E0FFC3940AEE9400400BEF9464EE94006C
:1048D60050030249F39001EEE0FEA3E0FFC39464A7
:1048E600EE9400400BEF94E8EE94035003024A2640
:1048F6009001EEE0FEA3E0FFC394E8EE9403400BC4
:10490600EF9410EE94275003024A599001EEE0FA14
:10491600A3E0FBC39410EA94275003024A9C024A80
:10492600869004FEE075F03AA4240DFDE435F0FC13
:1049360090051BE0FB7A007FBE7E00128A829004FF
:10494600FEE075F03AA4240DFDE435F0FC7BFF7A19
:1049560096798F7FDC7E00129B539004FEE075F003
:104966003AA4240DFDE435F0FC90051AE0FB7A002C
:104976007FF07E00128A829004FEE075F03AA4244D
:104986000DFDE435F0FC900519E0FB7A007F0E7E04
:1049960001128A829004FEE075F03AA4240DFDE42B
:1049A60035F0FC900518E0FB7A007F2C7E01128A18
:1049B600829001EEE0FAA3E0FBC3940AEA94005069
:1049C600149004FEE075F03AA4240DFDE435F0FCE5
:1049D6007F40024A729001EEE0FEA3E0FFC3940A14
:1049E600EE94004023EF9464EE9400501B9004FE76
:1049F600E075F03AA4240DFDE435F0FC9001EEE0FC
:104A0600FAA3E0FB7F2C80649001EEE0FEA3E0FFBA
:104A1600C39464EE94004023EF94E8EE9403501B95
:104A26009004FEE075F03AA4240DFDE435F0FC9008
:104A360001EEE0FAA3E0FB7F1880319001EEE0FE84
:104A4600A3E0FFC394E8EE94034025EF9410EE94A0
:104A560027501D9004FEE075F03AA4240DFDE435C0
:104A6600F0FC9001EEE0FAA3E0FB7F047E028023D7
:104A76009001EEE0FAA3E0FBC39410EA94274016F7
:104A86009004FEE075F03AA4240DFDE435F0FC7FB9
:104A9600F07E01128A82900166E0B401179004FE4E
:104AA600E075F03AA4240DFDE435F0FC7BFF7A9620
:104AB6007991803A900166E0B402179004FEE075A1
:104AC600F03AA4240DFDE435F0FC7BFF7A96799349
:104AD600801C900166E0B4031C9004FEE075F03A79
:104AE600A4240DFDE435F0FC7BFF7A9679957F547E
:104AF6007E01129B5312A29690051DE0FF9004FEC4
:104B0600E0FE75F008A42487F582E43401F583EF0E
:104B1600F090051CE0FFEE75F008A42488F582E409
:104B26003401F583EFF090051BE0FFEE75F008A465
:104B36002489F582E43401F583EFF090051AE0FF4D
:104B4600EE75F008A4248AF582E43401F583EFF0CB
:104B5600900519E0FFEE75F008A4248BF582E43485
:104B660001F583EFF0900518E0FFEE75F008A42438
:104B76008CF582E43401F583EFF0900166E0FFEEF8
:104B860075F008A4248DF582E43401F583EFF07402
:104B9600C82EF582E43401F583E0FFEE75F008A433
:104BA600248EF582E43401F583EFF09004FEE004F0
:104BB600F00226B6E49004FEF09004FEE0FFC394F3
:104BC60008503874C82FF582E43401F583E0900468
:104BD600AF600FE0FF9004FEE090971093FEEF4E5B
:104BE600800DE0FF9004FEE090971893FEEF5E9034
:104BF60004AFF09004FEE004F080BED2239004B22D
:104C0600E004F0E0B4FF037408F09004B2E0D3943B
:104C1600044003D21222C21222E47853F608F67830
:104C260051F608F67861127A0700000000786512DE
:104C36007A07000000007869127A0700000000E495
:104C4600900523F0900522F0900521F0900520F0C4
:104C560090051FF090051EF090051DF090051CF0C4
:104C660090051BF090051AF0900519F0900518F0C4
:104C76009001DDE0FD75F00AA424F99004FEF0ED44
:104C860025E025E02466F582E43401F583E0FE9014
:104C960001DDE025E025E02465F582E43401F583B5
:104CA600E07C0024007854F6EC3E18F6E6FE08E6B2
:104CB600FF7D0C12780AAC06AD07E412757A7861AE
:104CC6001279EF9001DDE0FD25E025E02468F5820C
:104CD600E43401F583E0FEED25E025E02467F58266
:104CE600E43401F583E07C0024007852F6EC3E18AB
:104CF600F69004FEE0FB2428F582E43402F583E016
:104D0600FF7E007C037DE812780AAC06AD07744B83
:104D16002BF582E43400F583E075F064A42DFDECF8
:104D260035F0FC9004FEE02400F582E43400F583BF
:104D3600E075F00AA42DFFE5F03CFE74172BF58212
:104D4600E43401F583E07C002FFDEC3EFCE41275B3
:104D56007A78251279EF9004FEE0FB2429F582E4A7
:104D66003402F583E0FF7E007C037DE812780AAC0E
:104D760006AD07744C2BF582E43400F583E075F03C
:104D860064A42DFDEC35F0FC9004FEE02401F582D0
:104D9600E43400F583E075F00AA42DFFE5F03CFE4F
:104DA60074182BF582E43401F583E07C002FFDECCA
:104DB6003EFCE412757A7B007A2479747849127481
:104DC6005F78291279EF78251279C6C000786112CA
:104DD60079AAD00012726178291279C61273569098
:104DE60001D01279FBE4FFFEFDFC9001D0E0F8A3B0
:104DF600E0F9A3E0FAA3E0FB1274FC500A9001D09C
:104E0600127A20000000009001D0E0FCA3E0FDA390
:104E1600E0FEA3E0FF78651279EF900523E0D394D6
:104E2600094003024F5B900522E094094003024FBC
:104E36005B900521E094094003024F5B900520E05A
:104E460094094003024F5B90051FE094094003025A
:104E56004F5B90051EE094094003024F5B78651294
:104E660079AA1275B3AB07AA067C007D6412787125
:104E7600900523EFF07C007D64AF03AE02127871DB
:104E8600AA04AB057D0A7C00AF03AE0212787190CE
:104E96000522EFF07D0A7C00AF03AE021278719016
:104EA6000521EDF078651279AA1275B3AD07AC0647
:104EB600EC12757AC004C005C006C0077865127981
:104EC600AAD003D002D001D000127261E4FBFA79B5
:104ED6007A78441273561275B39005041279FBE47E
:104EE6007B64FAF9F8900504E0FCA3E0FDA3E0FE7C
:104EF600A3E0FF1278F9900520EFF0E47B64FAF95D
:104F0600F8900504E0FCA3E0FDA3E0FEA3E0FF1299
:104F160078F9AC00AD01AE02AF03E47B0AFAF9F80A
:104F26001278F990051FEFF0E47B64FAF9F8900522
:104F360004E0FCA3E0FDA3E0FEA3E0FF1278F9ACD9
:104F460000AD01AE02AF03E47B0AFAF9F81278F974
:104F560090051EEBF09004FEE0FB242AF582E43473
:104F660002F583E0FF7E007C037DE812780AAC063A
:104F7600AD07744D2BF582E43400F583E075F064DB
:104F8600A42DFDEC35F0FC9004FEE02402F582E44D
:104F96003400F583E075F00AA42DFFE5F03CFE74BD
:104FA600192BF582E43401F583E07C002FFDEC3EFD
:104FB600FCE412757A782D1279EF9004FEE0FB245A
:104FC6002BF582E43402F583E0FF7E007C037DE866
:104FD60012780AAC06AD07744E2BF582E43400F560
:104FE60083E075F064A42DFDEC35F0FC9004FEE042
:104FF6002403F582E43400F583E075F00AA42DFF5E
:10500600E5F03CFE741A2BF582E43401F583E07C6E
:10501600002FFDEC3EFCE412757AE4FBFA797A780F
:105026004412745F78311279EF7851E6FC08E6FD98
:10503600E412757A782D1279C61272617831127976
:10504600C61273569001621279FBE4FFFEFDFC90D6
:105056000162E0F8A3E0F9A3E0FAA3E0FB1274FC16
:10506600500A900162127A2000000000E4FBFA79EF
:105076007A7844900162E0FCA3E0FDA3E0FEA3E0A1
:10508600FF12745F78691279EF90051DE0D39409D9
:1050960040030251CA90051CE0940940030251CA1C
:1050A60090051BE0940940030251CA90051AE0944A
:1050B6000940030251CA900519E0940940030251C0
:1050C600CA900518E0940940030251CA786912791A
:1050D600AA1275B3AB07AA067C007D64127871909C
:1050E600051DEFF07C007D64AF03AE02127871AA55
:1050F60004AB057D0A7C00AF03AE02127871900501
:105106001CEFF07D0A7C00AF03AE021278719005A9
:105116001BEDF078691279AA1275B3AD07AC06ECEF
:1051260012757AC004C005C006C00778691279AA4C
:10513600D003D002D001D000127261E4FBFA797A72
:1051460078441273561275B39005081279FBE47B06
:1051560064FAF9F8900508E0FCA3E0FDA3E0FEA3DD
:10516600E0FF1278F990051AEFF0E47B64FAF9F89B
:10517600900508E0FCA3E0FDA3E0FEA3E0FF1278A3
:10518600F9AC00AD01AE02AF03E47B0AFAF9F812FE
:1051960078F9900519EFF0E47B64FAF9F8900508C0
:1051A600E0FCA3E0FDA3E0FEA3E0FF1278F9AC006B
:1051B600AD01AE02AF03E47B0AFAF9F81278F99072
:1051C6000518EBF07BFF7A9679D07D3A7C007FC894
:1051D6007E00129AA99001DDE0FB7A007D3A7C0000
:1051E6007F907E01128BCD7BFF7A9679D97D747C78
:1051F600007F0A7E00129AA97BFF7A96798D7D74CC
:105206007C007FA07E00129AA97BFF7A9679E07DCA
:10521600AE7C007FDC7E00129AA97BFF7A9679E647
:105226007DAE7C007F087E02129AA97BFF7A967972
:10523600EA7D227C017F0A7E00129AA97BFF7A967C
:10524600798D7D227C017FA07E00129AA97BFF7A50
:105256009679F17D5C7C017FDC7E00129AA97BFF4A
:105266007A9679F77D5C7C017F087E02129AA99076
:105276000523E0700302536CFB7A007DAE7C007F51
:105286000A7E00128BCD900522E0FB7A007DAE7C73
:10529600007F287E00128BCD900521E0FB7A007DF1
:1052A600AE7C007F467E00128BCD7BFF7A96798F8F
:1052B6007DAE7C007F647E00129AA9900520E0FBFB
:1052C6007A007DAE7C007F827E00128BCD90051F1A
:1052D600E0FB7A007DAE7C007FA07E00128BCD9035
:1052E600051EE0FB7A007DAE7C007FBE7E00128B41
:1052F600CD7853E6FA08E6FBC3940AEA9400500315
:105306000254B97853E6FE08E6FFC3940AEE940009
:10531600400BEF9464EE940050030254D97853E6A0
:10532600FE08E6FFC39464EE9400400BEF94E8EEAB
:10533600940350030254FE7853E6FE08E6FFC39436
:10534600E8EE9403400BEF9410EE942750030255B9
:10535600237853E6FA08E6FBC39410EA9427500331
:1053660002554B025540900522E07003025451FB52
:105376007A007DAE7C007F287E00128BCD900521C1
:10538600E0FB7A007DAE7C007F467E00128BCD7BF3
:10539600FF7A96798F7DAE7C007F647E00129AA993
:1053A600900520E0FB7A007DAE7C007F827E0012B5
:1053B6008BCD90051FE0FB7A007DAE7C007FA07E42
:1053C60000128BCD90051EE0FB7A007DAE7C007F3F
:1053D600BE7E00128BCD7853E6FA08E6FBC3940A2C
:1053E600EA940050030254B97853E6FE08E6FFC378
:1053F600940AEE9400400BEF9464EE94005003027E
:1054060054D97853E6FE08E6FFC39464EE94004050
:105416000BEF94E8EE940350030254FE7853E6FE35
:1054260008E6FFC394E8EE9403400BEF9410EE9465
:105436002750030255237853E6FA08E6FBC3941077
:10544600EA9427500302554B025540900521E0FB94
:105456007A007DAE7C007F467E00128BCD7BFF7A84
:1054660096798F7DAE7C007F647E00129AA99005A6
:1054760020E0FB7A007DAE7C007F827E00128BCD21
:1054860090051FE0FB7A007DAE7C007FA07E0012B7
:105496008BCD90051EE0FB7A007DAE7C007FBE7E44
:1054A60000128BCD7853E6FA08E6FBC3940AEA9419
:1054B6000050097DAE7C007FEA0255467853E6FE31
:1054C60008E6FFC3940AEE94004016EF9464EE9447
:1054D60000500E18E6FA08E6FB7DAE7C007FCC8015
:1054E6005F7853E6FE08E6FFC39464EE9400401628
:1054F600EF94E8EE9403500E18E6FA08E6FB7DAE4C
:105506007C007FAE803A7853E6FE08E6FFC394E857
:10551600EE94034016EF9410EE9427500E18E6FA18
:1055260008E6FB7DAE7C007F9080157853E6FA088E
:10553600E6FBC39410EA9427400B7DAE7C007F7295
:105546007E01128BCD90051DE07003025642FB7A58
:10555600007D5C7C017F0A7E00128BCD90051CE0ED
:10556600FB7A007D5C7C017F287E00128BCD900546
:105576001BE0FB7A007D5C7C017F467E00128BCDB2
:105586007BFF7A96798F7D5C7C017F647E00129A20
:10559600A990051AE0FB7A007D5C7C017F827E0083
:1055A600128BCD900519E0FB7A007D5C7C017FA013
:1055B6007E00128BCD900518E0FB7A007D5C7C01A5
:1055C6007FBE7E00128BCD7851E6FA08E6FBC394C7
:1055D6000AEA9400500302578F7851E6FE08E6FF68
:1055E600C3940AEE9400400BEF9464EE94005003CB
:1055F6000257AF7851E6FE08E6FFC39464EE9400C6
:10560600400BEF94E8EE940350030257D47851E62A
:10561600FE08E6FFC394E8EE9403400BEF9410EE09
:10562600942750030257F97851E6FA08E6FBC3942B
:1056360010EA9427500302582102581690051CE0E0
:105646007003025727FB7A007D5C7C017F287E0071
:10565600128BCD90051BE0FB7A007D5C7C017F46BA
:105666007E00128BCD7BFF7A96798F7D5C7C017FE5
:10567600647E00129AA990051AE0FB7A007D5C7C94
:10568600017F827E00128BCD900519E0FB7A007DAA
:105696005C7C017FA07E00128BCD900518E0FB7A22
:1056A600007D5C7C017FBE7E00128BCD7851E6FAD0
:1056B60008E6FBC3940AEA9400500302578F785118
:1056C600E6FE08E6FFC3940AEE9400400BEF9464EE
:1056D600EE940050030257AF7851E6FE08E6FFC38A
:1056E6009464EE9400400BEF94E8EE9403500302AA
:1056F60057D47851E6FE08E6FFC394E8EE940340DB
:105706000BEF9410EE942750030257F97851E6FAFE
:1057160008E6FBC39410EA94275003025821025866
:105726001690051BE0FB7A007D5C7C017F467E00BF
:10573600128BCD7BFF7A96798F7D5C7C017F647EB0
:1057460000129AA990051AE0FB7A007D5C7C017F25
:10575600827E00128BCD900519E0FB7A007D5C7C81
:10576600017FA07E00128BCD900518E0FB7A007DAC
