:0300000002963E27
:0C963E00787FE4F6D8FD758178029685EF
:1095A500474D00444C003A002E0075006D00470001
:1095B500202000474D202020202020202020202072
:1095C5002020202020202020202020202000444C66
:1095D5002020202020202020202020202020202086
:1095E500202020202020202000B1EAB6A8CCBDCD27
:1095F500B700B8C7B8EFB9DC007547792F680043E5
:10960500504D00B5E7C0EBCAD2006D47792F680011
:1096150043503553003D8000003D8000003E000072
:10962500003E8000003F00000001020408102040B9
:0996350080FEFDFBF7EFDFBF7FB3
:10825300E4FFFE79287825E4F608D9FC7908900232
:1082630008E4F0A3D9FC9083007484F0908200E0CA
:10827300FEC374FF9E900169F0908200E0FFC37417
:10828300FF9F90016AF09083007444F0908100E0B6
:10829300FEC374FF9E90016BF0908100E0FFC374F6
:1082A300FF9F90016CF09083007404F0908000E0D5
:1082B300FEC374FF9E90016DF0908000E0FFC374D5
:1082C300FF9F90016EF0908B007484F0908A00E021
:1082D300FEC374FF9E90016FF0908A00E0FFC374A9
:1082E300FF9F900170F0908B007444F0908900E040
:1082F300FEC374FF9E900171F0908900E0FFC37488
:10830300FF9F900172F0908B007404F0908800E05E
:10831300FEC374FF9E900173F0908800E0FFC37466
:10832300FF9F900174F09093007484F0909200E0AA
:10833300FEC374FF9E900175F0909200E0FFC3743A
:10834300FF9F900176F09093007444F0909100E0C9
:10835300FEC374FF9E900177F0909100E0FFC37419
:10836300FF9F900178F09093007404F0909000E0E8
:10837300FEC374FF9E900179F0909000E0FFC374F8
:10838300FF9F90017AF0909B007484F0909A00E034
:10839300FEC374FF9E90017BF0909A00E0FFC374CC
:1083A300FF9F90017CF0909B007444F0909900E053
:1083B300FEC374FF9E90017DF0909900E0FFC374AB
:1083C300FF9F90017EF0909B007404F0909800E072
:1083D300FEC374FF9E90017FF0909800E0FFC3748A
:1083E300FF9F900180F090A3007484F090A200E0BE
:1083F300FEC374FF9E900181F090A200E0FFC3745E
:10840300FF9F900182F090A3007444F090A100E0DC
:10841300FEC374FF9E900183F090A100E0FFC3743C
:10842300FF9F900184F090A3007404F090A000E0FB
:10843300FFC374FF9F900185F090A000E0FFC37419
:10844300FF9F900186F09001D4E0900167F09001C6
:0684530016E0900168F044
:018459002200
:1092940090830074B4F090820074FFF0F090830027
:1092A4007474F090810074FFF0F09083007434F0D3
:1092B40090800074FFF0F0908B0074B4F0908A00FA
:1092C40074FFF0F0908B007474F090890074FFF0D8
:1092D400F0908B007434F090880074FFF0F0909359
:1092E4000074B4F090920074FFF0F09093007474E2
:1092F400F090910074FFF0F09093007434F090902B
:109304000074FFF0F0909B0074B4F0909A0074FF26
:10931400F0F0909B007474F090990074FFF0F0905A
:109324009B007434F090980074FFF0F090A30074E4
:10933400B4F090A20074FFF0F090A3007474F09065
:10934400A10074FFF0F090A3007434F090A00074B6
:10935400FFF0F07F4390040FE4F0A3DFFC7F209044
:1093640000F6E4F0A3DFFC785076FF90C00074FFB1
:0C937400F0C2A8D20AE490051EF0A3F09D
:0193800022CA
:1000460012A23CE490049CF090049CE0D3940740F8
:1000560003022669E0FF25E024DFF582E43401F59A
:1000660083E0FEEF25E024DEF582E43401F583E04B
:100076006E6003021CA0EE64046003020392900407
:100086009CE0FB2408F582E43402F583E060030279
:10009600039290049CE025E024F0F582E43401F517
:1000A60083E4F0A3F0EF75F00CA4249AF582E4340F
:1000B60000F583E0FCA3E0FDA3E0FEA3E0FFEB7503
:1000C600F00CA42496F582E43400F58312793DEB16
:1000D60075F00CA4249EF582E43400F583E0FCA3BD
:1000E600E0FDA3E0FEA3E0FFEB75F00CA4249AF577
:1000F60082E43400F58312793DEBC394075069908E
:10010600049CE0FD25E025E0246CF582E43401F54D
:1001160083E0FEED25E025E0246BF582E43401F56D
:1001260083E07C002400FFEC3ECF24FFCF34FFFEAB
:10013600E4FD90049CE0FB75F00CA4249EF582E49B
:100146003400F58312793DEB25E025E0246CF58239
:10015600E43401F583E0FEEB25E025E0246BF5822F
:10016600E43401F583E0803890049CE0FB6407707A
:100176004E900186E0FAFE900185E0F97C002400AD
:10018600FFEC3ECF24FFCF34FFFEE4FDEB75F00C11
:10019600A4249EF582E43400F58312793DEAFEE953
:1001A6007C002400FFEC3ECF24FFCF34FFFEEB257E
:1001B600E024F0F582E43401F583EEF0A3EFF0904D
:1001C600049CE0FB2408F582E43402F5837401F014
:1001D60090040EE075F025A4FFAEF0E4FCFDEB758F
:1001E600F00CA4249AF582E43400F583E0F8A3E049
:1001F600F9A3E0FAA3E0FBC31278DB400302028610
:1002060090040EE075F025A4FFAEF0E4FCFD90042A
:100216009CE075F00CA4249EF582E43400F583E09E
:10022600F8A3E0F9A3E0FAA3E0FBC31278DB505091
:1002360090049CE0FFC394075046E0FE25E024DFCF
:10024600F582E43401F583E0FDEE25E024DEF58257
:10025600E43401F583EDF090049CE0FE25E024DF14
:10026600F582E43401F5837403F0EE90963693FE3E
:10027600784D56F6EF90962E930846F6EE0856F60B
:1002860090040EE075F01CA4FFAEF0E4FCFD9004B3
:100296009CE075F00CA4249AF582E43400F583E022
:1002A600F8A3E0F9A3E0FAA3E0FBC31278DB40036E
:1002B60002033890040EE075F01CA4FFAEF0E4FCD7
:1002C600FD90049CE075F00CA4249EF582E43400B5
:1002D600F583E0F8A3E0F9A3E0FAA3E0FBC3127804
:1002E600DB504F90049CE0FF64077046E0FE25E07B
:1002F60024DFF582E43401F583E0FDEE25E024DE1B
:10030600F582E43401F583EDF090049CE0FE25E0EF
:1003160024DFF582E43401F5837403F0EE9096361B
:1003260093FE784D56F6EF90962E930846F6EE0815
:1003360056F690049CE025E024F0F582E43401F5BD
:1003460083E0FEA3E0FF7C007D0512774C90040E4F
:10035600E0FD12775EAC06AD07E41274BC90049C17
:10036600E0FB25E025E024D3F582E43404F583128E
:10037600793D74102BF582E43402F5837404F0742D
:10038600062BF582E43404F5837401F090049CE0B6
:10039600FF25E024DFF582E43401F583E0640360A1
:1003A600030209D174082FF582E43402F583E06074
:1003B600030209D190049CE0FB75F00CA4249AF585
:1003C60082E43400F583E0FCA3E0FDA3E0FEA3E0B5
:1003D600FFEB75F00CA42496F582E43400F5831245
:1003E600793D90049CE0FB75F00CA4249EF582E414
:1003F6003400F583E0FCA3E0FDA3E0FEA3E0FFEB01
:1004060075F00CA4249AF582E43400F58312793D44
:1004160090049CE0FBC394075062E0FD25E025E0D4
:10042600246CF582E43401F583E0FEED25E025E059
:10043600246BF582E43401F583E07C002400FFECB4
:100446003ECF24FFCF34FFFEE4FDEB75F00CA42471
:100456009EF582E43400F58312793DEB25E025E034
:10046600246CF582E43401F583E0FEEB25E025E01B
:10047600246BF582E43401F583E0803890049CE037
:10048600FB6407704E900186E0FAFE900185E0F964
:100496007C002400FFEC3ECF24FFCF34FFFEE4FDBA
:1004A600EB75F00CA4249EF582E43400F5831279F2
:1004B6003DEAFEE97C002400FFEC3ECF24FFCF346A
:1004C600FFFEEB25E024F0F582E43401F583EEF03F
:1004D600A3EFF090049CE0FB2408F582E43402F5D7
:1004E600837401F090040EE0FF7E007C167D5712A7
:1004F600774CE4FCFDEB75F00CA4249AF582E43409
:1005060000F583E0F8A3E0F9A3E0FAA3E0FBD31239
:1005160078DB500302059F90040EE0FF7E007C16F8
:100526007D5712774CE4FCFD90049CE075F00CA41A
:10053600249EF582E43400F583E0F8A3E0F9A3E015
:10054600FAA3E0FBD31278DB404F90049CE0FF94C3
:10055600075046E0FE25E024DFF582E43401F5830A
:10056600E0FDEE25E024DEF582E43401F583EDF0CE
:1005760090049CE0FE25E024DFF582E43401F58357
:100586007404F0EE90963693FE784D56F6EE0856C5
:10059600F6EF90962E930846F690040EE0FF7E0046
:1005A6007C1D7D1712774CE4FCFD90049CE075F0F1
:1005B6000CA4249AF582E43400F583E0F8A3E0F96C
:1005C600A3E0FAA3E0FBD31278DB500302065790B0
:1005D600040EE0FF7E007C1D7D1712774CE4FCFDC7
:1005E60090049CE075F00CA4249EF582E43400F59A
:1005F60083E0F8A3E0F9A3E0FAA3E0FBD31278DBEB
:10060600404F90049CE0FF64077046E0FE25E0241E
:10061600DFF582E43401F583E0FDEE25E024DEF526
:1006260082E43401F583EDF090049CE0FE25E0249D
:10063600DFF582E43401F5837404F0EE9096369388
:10064600FE784D56F6EE0856F6EF90962E9308462F
:10065600F690040EE075F023A4FFAEF0E4FCFD90E6
:10066600049CE075F00CA4249AF582E43400F5832A
:10067600E0F8A3E0F9A3E0FAA3E0FBC31278DB50AD
:100686007A90040EE075F023A4FFAEF0E4FCFD9032
:10069600049CE075F00CA4249EF582E43400F583F6
:1006A600E0F8A3E0F9A3E0FAA3E0FBC31278DB507D
:1006B6004A90049CE064076042E0FF25E024DFF5F1
:1006C60082E43401F583E0FEEF25E024DEF582E4E2
:1006D6003401F583EEF090049CE0FF25E024DFF57D
:1006E60082E43401F5837402F0EF90963693FF7836
:1006F6004D56F6EF0856F6EF0856F690049CE025A0
:10070600E024F0F582E43401F583E0FCA3E0FDE4A7
:100716001274BC90049CE0FB25E025E024D3F5820E
:10072600E43404F58312793DEB25E025E024D3F586
:1007360082E43404F583C083C082E0FCA3E0FDA319
:10074600E0FEA3E0FFE4FBFA79A07840127298D0AD
:1007560082D08312793D90049CE025E025E024D3E5
:10076600F582E43404F583C083C082E0FCA3E0FD97
:10077600A3E0FEA3E0FFE4FBFA794078401273A100
:10078600D082D08312793D90049CE0FF2406F58246
:10079600E43404F5837401F074102FF582E4340216
:1007A600F5837403F0EF25E024F0F582E43401F5D7
:1007B60083E4F0A3F074062FF582E43404F583E0B5
:1007C6006401600302086E90049CE025E025E024A5
:1007D600D3F582E43404F583E0FCA3E0FDA3E0FE58
:1007E600A3E0FFE4FBFA79A078401273A17B007ABC
:1007F600B879B2784512743E506E90049CE0FF259D
:10080600E024DFF582E43401F583E0FEEF25E02401
:10081600DEF582E43401F583E06E704C90049CE0D2
:10082600C394075043E025E024DEF582E43401F565
:1008360083EEF090049CE0FE25E024DFF582E434AC
:1008460001F5837404F074062EF582E43404F5830E
:10085600E4F0EF90963693FE784D56F6EE0856F68F
:10086600EF90962E930846F690049CE0FF2406F53A
:1008760082E43404F583E064016003020921EF2574
:10088600E025E024D3F582E43404F583E0FCA3E01C
:10089600FDA3E0FEA3E0FFE4FBFA79A07840127323
:1008A600A17B007AB879E8784512743E506D9004C1
:1008B6009CE0FF25E024DFF582E43401F583E0FEC9
:1008C600EF25E024DEF582E43401F583E06E704B1B
:1008D60090049CE064077043E025E024DEF582E4A2
:1008E6003401F583EEF090049CE0FE25E024DFF56C
:1008F60082E43401F5837404F074062EF582E43440
:1009060004F583E4F0EF90963693FE784D56F6EEB6
:100916000856F6EF90962E930846F690049CE0FF54
:100926002406F582E43404F583E0640160030209D9
:10093600D1EF25E025E024D3F582E43404F583E005
:10094600FCA3E0FDA3E0FEA3E0FFE4FBFA79A078B8
:10095600401273A1E4FBFA790C784212743E606B84
:10096600406990049CE0FF25E024DFF582E4340131
:10097600F583E0FEEF25E024DEF582E43401F5831D
:10098600E06E704790049CE06407603FE025E02439
:10099600DEF582E43401F583EEF090049CE0FE255A
:1009A600E024DFF582E43401F5837402F074062E48
:1009B600F582E43404F583E4F0EF90963693FF78FD
:1009C6004D56F6EF0856F6EF0856F690049CE0FFF3
:1009D60025E024DFF582E43401F583E06402600358
:1009E600020E7E74082FF582E43402F583E060037C
:1009F600020E7E90049CE0FB75F00CA4249AF5820E
:100A0600E43400F583E0FCA3E0FDA3E0FEA3E0FFF1
:100A1600EB75F00CA42496F582E43400F583127984
:100A26003D90049CE0FB75F00CA4249EF582E43412
:100A360000F583E0FCA3E0FDA3E0FEA3E0FFEB7579
:100A4600F00CA4249AF582E43400F58312793D90E3
:100A5600049CE0FD25E025E0246CF582E43401F5F4
:100A660083E0FEED25E025E0246BF582E43401F514
:100A760083E07C002400FFEC3ECF24FFCF34FFFE52
:100A8600E4FD90049CE0FB75F00CA4249EF582E442
:100A96003400F58312793DEB25E025E0246CF582E0
:100AA600E43401F583E0FEEB25E025E0246BF582D6
:100AB600E43401F583E07C002400FFEC3ECF24FF04
:100AC600CF34FFFEEB25E024F0F582E43401F58314
:100AD600EEF0A3EFF074082BF582E43402F583748C
:100AE60001F090040EE0FF7E007C157D2312774C0A
:100AF600E4FCFDEB75F00CA4249AF582E43400F5D1
:100B060083E0F8A3E0F9A3E0FAA3E0FBD31278DBD5
:100B16005003020B9A90040EE0FF7E007C157D23A5
:100B260012774CE4FCFD90049CE075F00CA4249E26
:100B3600F582E43400F583E0F8A3E0F9A3E0FAA334
:100B4600E0FBD31278DB404C90049CE0FF25E024C8
:100B5600DFF582E43401F583E0FEEF25E024DEF5DF
:100B660082E43401F583EEF090049CE0FF25E02456
:100B7600DFF582E43401F5837403F0EF9096369343
:100B8600FF784D56F690049CE090962E930846F614
:100B9600EF0856F690040EE075F09EA4FFAEF0E462
:100BA600FCFD90049CE075F00CA4249AF582E434D4
:100BB60000F583E0F8A3E0F9A3E0FAA3E0FBC31293
:100BC60078DB507C90040EE075F09EA4FFAEF0E456
:100BD600FCFD90049CE075F00CA4249EF582E434A0
:100BE60000F583E0F8A3E0F9A3E0FAA3E0FBC31263
:100BF60078DB504C90049CE0FF25E024DFF582E48E
:100C06003401F583E0FEEF25E024DEF582E43401CD
:100C1600F583EEF090049CE0FF25E024DFF582E406
:100C26003401F5837401F0EF90962E93784D46F6D5
:100C360090049CE090963693FF0856F6EF0856F619
:100C460090049CE025E024F0F582E43401F583E08D
:100C5600FCA3E0FDE41274BC90049CE0FB25E025B7
:100C6600E024D3F582E43404F58312793DEB25E0E4
:100C760025E024D3F582E43404F583C083C082E002
:100C8600FCA3E0FDA3E0FEA3E0FFE4FBFA79A07875
:100C960040127298D082D08312793D90049CE02550
:100CA600E025E024D3F582E43404F583C083C082D2
:100CB600E0FCA3E0FDA3E0FEA3E0FFC004C005C086
:100CC60006C00790040EE0FCE41274C1A804A9054E
:100CD600AA06AB07D007D006D005D0041273A1D060
:100CE60082D08312793D90049CE0FF2406F582E4CD
:100CF6003404F5837401F074102FF582E43402F5A0
:100D0600837402F0EF25E024F0F582E43401F583E4
:100D1600E4F0A3F074062FF582E43404F583E0646E
:100D2600016003020DCB90049CE025E025E024D36E
:100D3600F582E43404F583E0FCA3E0FDA3E0FEA322
:100D4600E0FFE4FBFA79A078401273A17B007A18E1
:100D560079A9784512743E506C90049CE0FF25E01A
:100D660024DFF582E43401F583E0FEEF25E024DE9E
:100D7600F582E43401F583E06E704A90049CE02528
:100D8600E024DEF582E43401F583EEF090049CE085
:100D9600FF25E024DFF582E43401F5837403F07463
:100DA600062FF582E43404F583E4F090049CE0FF1A
:100DB60090963693FE784D56F6EF90962E9308460B
:100DC600F6EE0856F690049CE0FF2406F582E4341D
:100DD60004F583E064016003020E7EEF25E025E062
:100DE60024D3F582E43404F583E0FCA3E0FDA3E01C
:100DF600FEA3E0FFE4FBFA79A078401273A1E4FBBE
:100E0600FA791E784312743E606E406C90049CE042
:100E1600FF25E024DFF582E43401F583E0FEEF25CB
:100E2600E024DEF582E43401F583E06E704A900436
:100E36009CE025E024DEF582E43401F583EEF090B3
:100E4600049CE0FF25E024DFF582E43401F5837499
:100E560001F074062FF582E43404F583E4F090047F
:100E66009CE0FF90962E93784D46F6EF909636933B
:100E7600FF0856F6EF0856F690049CE0FF25E0249E
:100E8600DFF582E43401F583E064016003021604B1
:100E960074082FF582E43402F583E0600302160439
:100EA60090049CE0FB75F00CA4249AF582E43400CF
:100EB600F583E0FCA3E0FDA3E0FEA3E0FFEB75F005
:100EC6000CA42496F582E43400F58312793D90044F
:100ED6009CE0FB75F00CA4249EF582E43400F583B7
:100EE600E0FCA3E0FDA3E0FEA3E0FFEB75F00CA49D
:100EF600249AF582E43400F58312793D90049CE04F
:100F0600FD25E025E0246AF582E43401F583E0FE60
:100F1600ED25E025E02469F582E43401F583E07CE3
:100F2600002400FFEC3ECF24FFCF34FFFEE4FD900B
:100F3600049CE0FB75F00CA4249EF582E43400F5D5
:100F46008312793DEB25E025E0246AF582E434013D
:100F5600F583E0FEEB25E025E02469F582E4340123
:100F6600F583E07C002400FFEC3ECF24FFCF34FF66
:100F7600FEEB25E024F0F582E43401F583EEF0A3E0
:100F8600EFF074082BF582E43402F5837401F090D7
:100F9600040EE0FF7E007C177D8312774CE4FCFD97
:100FA600EB75F00CA42496F582E43400F583E0F8A2
:100FB600A3E0F9A3E0FAA3E0FBD31278DB50030227
:100FC600107390040EE0FF7E007C177D8312774C31
:100FD600E4FCFD90049CE075F00CA4249AF582E4F0
:100FE6003400F583E0F8A3E0F9A3E0FAA3E0FBD32D
:100FF6001278DB407890040EE0FF7E007C177D833C
:1010060012774CE4FCFD90049CE075F00CA4249E41
:10101600F582E43400F583E0F8A3E0F9A3E0FAA34F
:10102600E0FBD31278DB404590049CE0FF25E024EA
:10103600DFF582E43401F583E0FEEF25E024DEF5FA
:1010460082E43401F583EEF090049CE0FF25E02471
:10105600DFF582E43401F5837402F0EF909636935F
:10106600FF784D56F6EF0856F6EF0856F690040E42
:10107600E0FCE41274C17BC37AF579A8783F12725A
:1010860098C004C005C006C00790049CE075F00C2B
:10109600A42496F582E43400F583E0FCA3E0FDA3E6
:1010A600E0FEA3E0FFE41274B7A804A905AA06AB04
:1010B60007D007D006D005D00412743E40030211B3
:1010C600B790040EE0FCE41274C17BC37AF579A8EC
:1010D600783F127298C004C005C006C00790049CF1
:1010E600E075F00CA4249AF582E43400F583E0FC64
:1010F600A3E0FDA3E0FEA3E0FFE41274B7A804A9F1
:1011060005AA06AB07D007D006D005D00412743E58
:1011160040030211B790040EE0FCE41274C17BC3D5
:101126007AF579A8783F127298C004C005C006C047
:101136000790049CE075F00CA4249EF582E434002C
:10114600F583E0FCA3E0FDA3E0FEA3E0FFE4127458
:10115600B7A804A905AA06AB07D007D006D005D0C4
:101166000412743E504B90049CE0FF25E024DFF50A
:1011760082E43401F583E0FEEF25E024DEF582E427
:101186003401F583EEF090049CE0FF25E024DFF5C2
:1011960082E43401F583E4F0EF90962E93784D4681
:1011A600F690049CE090963693FF0856F6EF0856A4
:1011B600F690049CE025E024F0F582E43401F58302
:1011C600C083C082E0FEA3E0FF7C007D1412774C52
:1011D600D082D083EEF0A3EFF090049CE0FF25E0F0
:1011E60024F0F582E43401F583E0FCA3E0FDEF751D
:1011F600F00AA424AEF582E43403F583C083C082EA
:1012060090049CE024FEF582E43403F583E0D0826A
:10121600D08375F002127993ECF0A3EDF074FE2FF3
:10122600F582E43403F583E004F090049CE024FEA8
:10123600F582E43403F583E0FFC39405400302140A
:1012460064EF24FE60301470030212DC1470030293
:10125600136E2403600302144790049CE075F00AA1
:10126600A424AEF582E43403F583E0FCA3E0FDE4B8
:101276001274BC02143390049CE075F00AA424B0E6
:10128600F582E43403F583E0FCA3E0FDE41274BCCC
:101296007B9A7A997919783F127298C004C005C072
:1012A60006C00790049CE075F00AA424AEF582E41B
:1012B6003403F583E0FCA3E0FDE41274BC7BCD7A35
:1012C600CC79CC783E127298D003D002D001D000EF
:1012D6001271A702143390049CE075F00AA424B09E
:1012E600F582E43403F583E0FCA3E0FDE41274BC6C
:1012F600909626127921127298C004C005C006C0C5
:101306000790049CE075F00AA424AEF582E4340349
:10131600F583E0FCA3E0FDE41274BC9096261279F6
:1013260021127298D003D002D001D0001271A7C04A
:1013360004C005C006C00790049CE075F00AA4240A
:10134600B2F582E43403F583E0FCA3E0FDE4127415
:10135600BC90962A127921127298D003D002D0013D
:10136600D0001271A702143390049CE075F00AA411
:1013760024B0F582E43403F583E0FCA3E0FDE41237
:1013860074BC909622127921127298C004C005C0CE
:1013960006C00790049CE075F00AA424AEF582E42A
:1013A6003403F583E0FCA3E0FDE41274BC909622BE
:1013B600127921127298D003D002D001D000127196
:1013C600A7C004C005C006C00790049CE075F00ADB
:1013D600A424B2F582E43403F583E0FCA3E0FDE443
:1013E6001274BC909626127921127298D003D002FC
:1013F600D001D0001271A7C004C005C006C0079076
:10140600049CE075F00AA424B4F582E43403F58361
:10141600E0FCA3E0FDE41274BC90962A1279211236
:101426007298D003D002D001D0001271A790049C0C
:10143600E025E025E024D3F582E43404F58312792F
:101446003D90049CE0FF2406F582E43404F58374A1
:1014560001F074102FF582E43402F583E4F0900471
:101466009CE0FF24FEF582E43403F583E064056026
:1014760003021604EF75F00AA424B0F582E43403DF
:10148600F583E0FCA3E0FDE41274BC90961E12798D
:1014960021127298C004C005C006C00790049CE0E3
:1014A60075F00AA424AEF582E43403F583E0FCA3C8
:1014B600E0FDE41274BC90961A127921127298D04B
:1014C60003D002D001D0001271A7C004C005C00627
:1014D600C00790049CE075F00AA424B2F582E434B7
:1014E60003F583E0FCA3E0FDE41274BC909622129F
:1014F6007921127298D003D002D001D0001271A7C0
:10150600C004C005C006C00790049CE075F00AA49C
:1015160024B4F582E43403F583E0FCA3E0FDE41291
:1015260074BC909626127921127298D003D002D0FC
:1015360001D0001271A7C004C005C006C007900400
:101546009CE075F00AA424B6F582E43403F583E042
:10155600FCA3E0FDE41274BC90962A127921127263
:1015660098D003D002D001D0001271A790049CE05D
:1015760025E025E024D3F582E43404F58312793D91
:10158600E490049EF090049CE0FF75F00AA424B059
:10159600F582E43403F583C083C08290049EE0FEA6
:1015A600D082D08375F002127993E0FCA3E0FDEFC0
:1015B60075F00AA424AEF582E43403F58375F002CF
:1015C600EE127993ECF0A3EDF090049EE004F0E0C7
:1015D600B404B290049CE0FF24FEF582E43403F5E3
:1015E60083E014F074062FF582E43404F583740165
:1015F600F074102FF582E43402F5837401F0900440
:101606009CE0FF25E024DFF582E43401F583E06009
:101616000302266074082FF582E43402F583E06045
:101626000302266090049CE0FB75F00CA4249AF556
:1016360082E43400F583E0FCA3E0FDA3E0FEA3E032
:10164600FFEB75F00CA42496F582E43400F58312C2
:10165600793D90049CE0FB75F00CA4249EF582E491
:101666003400F583E0FCA3E0FDA3E0FEA3E0FFEB7E
:1016760075F00CA4249AF582E43400F58312793DC2
:1016860090049CE0FD25E025E0246AF582E434011F
:10169600F583E0FEED25E025E02469F582E43401DA
:1016A600F583E07C002400FFEC3ECF24FFCF34FF1F
:1016B600FEE4FD90049CE0FB75F00CA4249EF582EC
:1016C600E43400F58312793DEB25E025E0246AF544
:1016D60082E43401F583E0FEEB25E025E02469F59C
:1016E60082E43401F583E07C002400FFEC3ECF2445
:1016F600FFCF34FFFEEB25E024F0F582E43401F55C
:1017060083EEF0A3EFF074082BF582E43402F58340
:101716007401F090040EE0FCE41274C17BC37AF508
:1017260079A8783F127298C004C005C006C0079019
:10173600049CE075F00CA42496F582E43400F5834D
:10174600E0FCA3E0FDA3E0FEA3E0FFE41274B7A86B
:1017560004A905AA06AB07D007D006D005D0041207
:10176600743E6002500302186490040EE0FCE4121A
:1017760074C17BC37AF579A8783F127298C004C009
:1017860005C006C00790049CE075F00CA4249AF5E9
:1017960082E43400F583E0FCA3E0FDA3E0FEA3E0D1
:1017A600FFE41274B7A804A905AA06AB07D007D0B0
:1017B60006D005D00412743E6002500302186490ED
:1017C600040EE0FCE41274C17BC37AF579A8783F75
:1017D600127298C004C005C006C00790049CE0754C
:1017E600F00CA4249EF582E43400F583E0FCA3E02B
:1017F600FDA3E0FEA3E0FFE41274B7A804A905AABE
:1018060006AB07D007D006D005D00412743E604E52
:10181600404C90049CE0FF25E024DFF582E434018F
:10182600F583E0FEEF25E024DEF582E43401F5835E
:10183600EEF090049CE0FF25E024DFF582E434011D
:10184600F5837401F0EF90962E93784D46F690044A
:101856009CE090963693FF0856F6EF0856F69004ED
:101866009CE025E024F0F582E43401F583C083C0D2
:1018760082E0FEA3E0FF7C007D1412774CD082D07C
:1018860083EEF0A3EFF090049CE0FF25E024F0F552
:1018960082E43401F583E0FCA3E0FDEF75F00AA4D1
:1018A60024AEF582E43403F583C083C08290049CA1
:1018B600E024FEF582E43403F583E0D082D083751C
:1018C600F002127993ECF0A3EDF074FE2FF582E4AA
:1018D6003403F583E004F090049CE024FEF582E4F2
:1018E6003403F583E0FFC394054003021AFEEF2498
:1018F600FE6030147003021989147003021A1B2447
:10190600036003021AF490049CE075F00AA424AE66
:10191600F582E43403F583E0FCA3E0FDE41274BC35
:10192600021AE090049CE075F00AA424B0F582E463
:101936003403F583E0FCA3E0FDE41274BC7B9A7AE1
:10194600997919783F127298C004C005C006C0077D
:1019560090049CE075F00AA424AEF582E43403F505
:1019660083E0FCA3E0FDE41274BC7BCD7ACC79CC99
:10197600783E127298D003D002D001D0001271A71F
:10198600021AE090049CE075F00AA424B0F582E403
:101996003403F583E0FCA3E0FDE41274BC909626C4
:1019A600127921127298C004C005C006C0079004BF
:1019B6009CE075F00AA424AEF582E43403F583E0D6
:1019C600FCA3E0FDE41274BC9096261279211272F3
:1019D60098D003D002D001D0001271A7C004C00570
:1019E600C006C00790049CE075F00AA424B2F582F4
:1019F600E43403F583E0FCA3E0FDE41274BC9096A6
:101A06002A127921127298D003D002D001D0001286
:101A160071A7021AE090049CE075F00AA424B0F5C0
:101A260082E43403F583E0FCA3E0FDE41274BC9089
:101A36009622127921127298C004C005C006C0070A
:101A460090049CE075F00AA424AEF582E43403F514
:101A560083E0FCA3E0FDE41274BC90962212792187
:101A6600127298D003D002D001D0001271A7C00420
:101A7600C005C006C00790049CE075F00AA424B215
:101A8600F582E43403F583E0FCA3E0FDE41274BCC4
:101A9600909626127921127298D003D002D001D0E6
:101AA600001271A7C004C005C006C00790049CE0E0
:101AB60075F00AA424B4F582E43403F583E0FCA3AC
:101AC600E0FDE41274BC90962A127921127298D025
:101AD60003D002D001D0001271A790049CE025E04B
:101AE60025E024D3F582E43404F58312793D90048D
:101AF6009CE0FF2406021C8790049CE0FF24FEF570
:101B060082E43403F583E064056003022660EF7522
:101B1600F00AA424B0F582E43403F583E0FCA3E0E4
:101B2600FDE41274BC90961E127921127298C004BC
:101B3600C005C006C00790049CE075F00AA424AE58
:101B4600F582E43403F583E0FCA3E0FDE41274BC03
:101B560090961A127921127298D003D002D001D031
:101B6600001271A7C004C005C006C00790049CE01F
:101B760075F00AA424B2F582E43403F583E0FCA3ED
:101B8600E0FDE41274BC909622127921127298D06C
:101B960003D002D001D0001271A7C004C005C00650
:101BA600C00790049CE075F00AA424B4F582E434DE
:101BB60003F583E0FCA3E0FDE41274BC90962612C4
:101BC6007921127298D003D002D001D0001271A7E9
:101BD600C004C005C006C00790049CE075F00AA4C6
:101BE60024B6F582E43403F583E0FCA3E0FDE412B9
:101BF60074BC90962A127921127298D003D002D022
:101C060001D0001271A790049CE025E025E024D3C2
:101C1600F582E43404F58312793DE490049EF09055
:101C2600049CE0FF75F00AA424B0F582E43403F5C1
:101C360083C083C08290049EE0FED082D08375F07C
:101C460002127993E0FCA3E0FDEF75F00AA424AE3E
:101C5600F582E43403F58375F002EE127993ECF025
:101C6600A3EDF090049EE004F0E0B404B290049C6E
:101C7600E0FF24FEF582E43403F583E014F07406F5
:101C86002FF582E43404F5837401F074102FF58285
:101C9600E43402F583E4F002266090049CE0FF251C
:101CA600E024DFF582E43401F583E0FEEF25E0244D
:101CB600DEF582E43401F583E06E7003022660EE01
:101CC60064046003021E8390049CE02408F582E409
:101CD6003402F583E06003021E8390049FF09004B3
:101CE6000EE0FF7E007C037DE812774CE4FCFD905D
:101CF600049CE075F00CA42496F582E43400F58388
:101D0600C083C08290049FE0D082D08375F0041215
:101D1600799312793D90049FE004F0E0B403BF90FC
:101D2600049CE0FF25E024F0F582E43401F583E429
:101D3600F0A3F0EFC39407506990049CE0FD25E002
:101D460025E0246CF582E43401F583E0FEED25E020
:101D560025E0246BF582E43401F583E07C00240061
:101D6600FFEC3ECF24FFCF34FFFEE4FD90049CE061
:101D7600FB75F00CA4249EF582E43400F5831279F9
:101D86003DEB25E025E0246CF582E43401F583E0A3
:101D9600FEEB25E025E0246BF582E43401F583E0D3
:101DA600803890049CE0FB6407704E900186E0FA50
:101DB600FE900185E0F97C002400FFEC3ECF24FF75
:101DC600CF34FFFEE4FDEB75F00CA4249EF582E40F
:101DD6003400F58312793DEAFEE97C002400FFEC2D
:101DE6003ECF24FFCF34FFFEEB25E024F0F582E45E
:101DF6003401F583EEF0A3EFF090049CE0FF240895
:101E0600F582E43402F5837401F0EF25E024F0F561
:101E160082E43401F583E0FEA3E0FF7C007D051239
:101E2600774C90040EE0FD12775EAC06AD07E41227
:101E360074BC90049CE0FB25E025E024D3F582E405
:101E46003404F58312793D74062BF582E43404F5E7
:101E5600837401F074102BF582E43402F583740464
:101E6600F0EB25E024DFF582E43401F583E0FFEBB7
:101E760025E024DEF582E43401F583EFF090049C3E
:101E8600E0FF25E024DFF582E43401F583E0640316
:101E9600600302200674082FF582E43402F583E01D
:101EA600600302200690049FF090040EE0FF7E007F
:101EB6007C077DD012774CE4FCFD90049CE075F025
:101EC6000CA42496F582E43400F583C083C0829086
:101ED600049FE0D082D08375F00412799312793D85
:101EE60090049FE004F0E0B403BF90049CE0FF255B
:101EF600E024F0F582E43401F583E4F0A3F07406FF
:101F06002FF582E43404F583E4F0EFC394075069B7
:101F160090049CE0FD25E025E0246CF582E4340184
:101F2600F583E0FEED25E025E0246BF582E434013F
:101F3600F583E07C002400FFEC3ECF24FFCF34FF86
:101F4600FEE4FD90049CE0FB75F00CA4249EF58253
:101F5600E43400F58312793DEB25E025E0246CF5A9
:101F660082E43401F583E0FEEB25E025E0246BF501
:101F760082E43401F583E0803890049CE0FB64073A
:101F8600704E900186E0FAFE900185E0F97C00240F
:101F960000FFEC3ECF24FFCF34FFFEE4FDEB75F0EF
:101FA6000CA4249EF582E43400F58312793DEAFE02
:101FB600E97C002400FFEC3ECF24FFCF34FFFEEB8C
:101FC60025E024F0F582E43401F583EEF0A3EFF08A
:101FD60090049CE0FF2408F582E43402F583740142
:101FE600F0EF25E024DFF582E43401F583E0FF908D
:101FF600049CE025E024DEF582E43401F583EFF06D
:1020060090049CE0FF25E024DFF582E43401F583AB
:10201600E0640260030221C974082FF582E43402E9
:10202600F583E060030221C990049FF090040EE05E
:10203600FF7E007C077DD012774CE4FCFD90049C6B
:10204600E075F00CA42496F582E43400F583C08391
:10205600C08290049FE0D082D08375F004127993F9
:1020660012793D90049FE004F0E0B403BF90049C15
:10207600E0FF25E024F0F582E43401F583E4F0A3E3
:10208600F074062FF582E43404F583E4F0EFC3948C
:1020960007400302212490049CE0FD25E025E0246E
:1020A6006CF582E43401F583E0FEED25E025E024BD
:1020B6006BF582E43401F583E07C002400FFEC3EFE
:1020C600CF24FFCF34FFFEE4FD90049CE0FB75F0C7
:1020D6000CA4249EF582E43400F58312793DEB25A9
:1020E600E025E0246CF582E43401F583E0FEEB257F
:1020F600E025E0246BF582E43401F583E07C0024DE
:1021060000FFEC3ECF24FFCF34FFFEEB25E024F0AA
:10211600F582E43401F583EEF0A3EFF080759004C8
:102126009CE0FB6407706C900186E0FAFE900185E6
:10213600E0F97C002400FFEC3ECF24FFCF34FFFE05
:10214600E4FDEB75F00CA4249EF582E43400F583DF
:1021560012793DEAFEE97C002400FFEC3ECF24FF25
:10216600CF34FFFEEB25E024F0F582E43401F5835D
:10217600EEF0A3EFF0EB25E024DFF582E43401F581
:10218600837403F0EB25E024DEF582E43401F58365
:102196007403F090049CE0FF2408F582E43402F511
:1021A600837401F0EF25E024DFF582E43401F58342
:1021B600E0FF90049CE025E024DEF582E43401F59E
:1021C60083EFF090049CE0FF25E024DFF582E43401
:1021D60001F583E06401600302241A74082FF58276
:1021E600E43402F583E0600302241A90049FF09021
:1021F600040EE0FF7E007C037DE812774CE4FCFDD4
:1022060090049CE075F00CA42496F582E43400F565
:1022160083C083C08290049FE0D082D08375F0048F
:1022260012799312793D90049FE004F0E0B403BF65
:1022360090049CE0FF25E024F0F582E43401F58368
:10224600E4F0A3F074062FF582E43404F583E4F099
:1022560074FE2FF582E43403F583E4F090049EF0D7
:1022660090049EE0FFC3940A502490049CE075F00D
:102276000AA424AEF582E43403F58375F002EF1266
:102286007993E4F0A3F090049EE004F080D29004E9
:102296009CE0FD25E025E0246AF582E43401F5831F
:1022A600E0FEED25E025E02469F582E43401F583BE
:1022B600E07C002400FFEC3ECF24FFCF34FFFEE499
:1022C600FD90049CE0FB75F00CA4249EF582E4349A
:1022D60000F58312793DEB25E025E0246AF582E4DA
:1022E6003401F583E0FEEB25E025E02469F582E480
:1022F6003401F583E07C002400FFEC3ECF24FFCFC1
:1023060034FFFEEB25E024F0F582E43401F583EE9C
:10231600F0A3EFF0EB25E024F0F582E43401F58339
:10232600C083C082E0FEA3E0FF7D1412774CD0820A
:10233600D083EEF0A3EFF090049CE0FF25E024F0BC
:10234600F582E43401F583E0FCA3E0FDEF75F00AC5
:10235600A424AEF582E43403F583C083C0829004DE
:102366009CE024FEF582E43403F583E0D082D0833A
:1023760075F002127993ECF0A3EDF074FE2FF5825E
:10238600E43403F583E004F090049CE0FF75F00A62
:10239600A424AEF582E43403F583C083C08274FEC0
:1023A6002FF582E43403F583E0D082D08375F00202
:1023B600127993E0FCA3E0FDE41274BC90049CE067
:1023C600FB25E025E024D3F582E43404F583127975
:1023D6003D74062BF582E43404F5837401F0741021
:1023E6002BF582E43402F5837401F074082BF58230
:1023F600E43402F5837401F0EB25E024DFF582E492
:102406003401F583E0FFEB25E024DEF582E43401B8
:10241600F583EFF090049CE0FF25E024DFF582E4ED
:102426003401F583E0600302266074082FF582E428
:102436003402F583E0600302266090049FF0900466
:102446000EE0FFE4FCFDFE90049CE075F00CA42475
:1024560096F582E43400F583C083C08290049FE041
:10246600D082D08375F00412799312793D90049F3F
:10247600E004F0E0B403C790049CE0FF25E024F0FC
:10248600F582E43401F583E4F0A3F074062FF582B7
:10249600E43404F583E4F074FE2FF582E43403F5A6
:1024A60083E4F090049EF090049EE0FFC3940A50EB
:1024B6002490049CE075F00AA424AEF582E434036B
:1024C600F58375F002EF127993E4F0A3F090049E81
:1024D600E004F080D290049CE0FD25E025E0246A2B
:1024E600F582E43401F583E0FEED25E025E024697C
:1024F600F582E43401F583E07C002400FFEC3ECF56
:1025060024FFCF34FFFEE4FD90049CE0FB75F00C45
:10251600A4249EF582E43400F58312793DEB25E090
:1025260025E0246AF582E43401F583E0FEEB25E03C
:1025360025E02469F582E43401F583E07C0024007B
:10254600FFEC3ECF24FFCF34FFFEEB25E024F0F571
:1025560082E43401F583EEF0A3EFF0EB25E024F0FE
:10256600F582E43401F583C083C082E0FEA3E0FF78
:102576007D1412774CD082D083EEF0A3EFF0900456
:102586009CE0FF25E024F0F582E43401F583E0FCCD
:10259600A3E0FDEF75F00AA424AEF582E43403F55A
:1025A60083C083C08290049CE024FEF582E4340359
:1025B600F583E0D082D08375F002127993ECF0A314
:1025C600EDF074FE2FF582E43403F583E004F09019
:1025D600049CE0FF75F00AA424AEF582E43403F50A
:1025E60083C083C08274FE2FF582E43403F583E052
:1025F600D082D08375F002127993E0FCA3E0FDE46B
:102606001274BC90049CE0FB25E025E024D3F582FF
:10261600E43404F58312793D74062BF582E4340420
:10262600F5837401F074102BF582E43402F583E42B
:10263600F074082BF582E43402F5837401F0EB257F
:10264600E024DFF582E43401F583E0FFEB25E024A6
:10265600DEF582E43401F583EFF090049CE004F0AB
:1026660002004E784DE690A800F0784FE690B00054
:10267600F018E690B800F0201803024C53E49004DA
:102686009EF090049EE0FFC394084003024BEEEFD9
:1026960075F00CA4249EF582E43400F583E0FCA3D7
:1026A600E0FDA3E0FEA3E0FFE47B03FAF9F812786D
:1026B6003B9001EEEEF0A3EFF07859127949000055
:1026C60000009004B0127962000000009004B41279
:1026D6007962000000009004AC12796200000000EC
:1026E600E49004BDF09004BCF09004BBF09004BAF2
:1026F600F09004B9F09004B8F090049EE0FF75F0F5
:102706000AA490049DF0EFC394074003022C40A353
:10271600E02406F582E43404F583E4F074102FF522
:1027260082E43402F583E0600302280290049DE00F
:10273600FB2419F582E43402F583E0FF7E007C0376
:102746007DE812774CAC06AD07744C2BF582E43469
:1027560000F583E075F064A42DFDEC35F0FC9004E3
:102766009DE02401F582E43400F583E075F00AA4C7
:102776002DFFE5F03CFE74182BF582E43401F58359
:10278600E07C002FFDEC3EFCE41274BC7825127947
:102796003190049DE0FB241AF582E43402F583E0CF
:1027A600FF7E007C037DE812774CAC06AD07744DC6
:1027B6002BF582E43400F583E075F064A42DFDEC7E
:1027C60035F0FC90049DE02402F582E43400F583A4
:1027D600E075F00AA42DFFE5F03CFE74192BF58296
:1027E600E43401F583E07C002FFDEC3EFCE412743A
:1027F600BC7B007A2479747849022D3690049EE0D9
:102806002410F582E43402F583E0640160030228B3
:10281600EA90049DE0FB241BF582E43402F583E094
:10282600FF7E007C037DE812774CAC06AD07744E44
:102836002BF582E43400F583E075F064A42DFDECFD
:1028460035F0FC90049DE02403F582E43400F58322
:10285600E075F00AA42DFFE5F03CFE741A2BF58214
:10286600E43401F583E07C002FFDEC3EFCE41274B9
:10287600BC782D12793190049DE0FB241CF582E48E
:102886003402F583E0FF7E007C037DE812774CACD2
:1028960006AD07744F2BF582E43400F583E075F03E
:1028A60064A42DFDEC35F0FC90049DE02404F58233
:1028B600E43400F583E075F00AA42DFFE5F03CFE54
:1028C600741B2BF582E43401F583E07C002FFDECCC
:1028D6003EFCE41274BC7B007A2479747849127346
:1028E600A1022E5690049EE02410F582E43402F5EF
:1028F60083E064026003022A0790049DE0FB241D26
:10290600F582E43402F583E0FF7E007C037DE81265
:10291600774CAC06AD0774502BF582E43400F58392
:10292600E075F064A42DFDEC35F0FC90049DE024E8
:1029360005F582E43400F583E075F00AA42DFFE581
:10294600F03CFE741C2BF582E43401F583E07C0038
:102956002FFDEC3EFCE41274BC78351279319004FC
:102966009DE0FB241EF582E43402F583E0FF7E0041
:102976007C037DE812774CAC06AD0774512BF582CB
:10298600E43400F583E075F064A42DFDEC35F0FC2D
:1029960090049DE02406F582E43400F583E075F0AA
:1029A6000AA42DFFE5F03CFE741D2BF582E43401EC
:1029B600F583E07C002FFDEC3EFCE41274BCE4FBE6
:1029C600FA797A78441273A1783912793190049E93
:1029D600E025E025E024D3F582E43404F583E0FC29
:1029E600A3E0FDA3E0FEA3E0FF1274F5AD07AC067D
:1029F600E41274BC78351279081271A37839022E64
:102A06008C90049EE02410F582E43402F583E064A1
:102A1600036003022B2490049DE0FB241FF582E44F
:102A26003402F583E0FF7E007C037DE812774CAC30
:102A360006AD0774522BF582E43400F583E075F099
:102A460064A42DFDEC35F0FC90049DE02407F5828E
:102A5600E43400F583E075F00AA42DFFE5F03CFEB2
:102A6600741E2BF582E43401F583E07C002FFDEC27
:102A76003EFCE41274BC783D12793190049DE0FB73
:102A86002420F582E43402F583E0FF7E007C037D9A
:102A9600E812774CAC06AD0774532BF582E434008C
:102AA600F583E075F064A42DFDEC35F0FC90049DF3
:102AB600E02408F582E43400F583E075F00AA42DDD
:102AC600FFE5F03CFE741F2BF582E43401F583E04C
:102AD6007C002FFDEC3EFCE41274BCE4FBFA79208A
:102AE60078411273A1784112793190049EE025E075
:102AF60025E024D3F582E43404F583E0FCA3E0FD6D
:102B0600A3E0FEA3E0FF1274F5AD07AC06E4127471
:102B1600BC783D1279081271A37841022E8C90047C
:102B26009EE02410F582E43402F583E06404600339
:102B3600022EA690049DE0FB2421F582E43402F5E2
:102B460083E0FF7E007C037DE812774CAC06AD0780
:102B560074542BF582E43400F583E075F064A42DFB
:102B6600FDEC35F0FC90049DE02409F582E4340088
:102B7600F583E075F00AA42DFFE5F03CFE74202BEA
:102B8600F582E43401F583E07C002FFDEC3EFCE4A5
:102B96001274BC784512793190049DE0FB2422F52D
:102BA60082E43402F583E0FF7E007C037DE8127741
:102BB6004CAC06AD0774552BF582E43400F583E082
:102BC60075F064A42DFDEC35F0FC90049DE0240A1C
:102BD600F582E43400F583E075F00AA42DFFE5F0F4
:102BE6003CFE74212BF582E43401F583E07C002F52
:102BF600FFEC3EFE7D0A12774CAC06AD07E412747C
:102C0600BC784912793190049EE025E025E024D372
:102C1600F582E43404F583E0FCA3E0FDA3E0FEA323
:102C2600E0FF1274F5AD07AC06E41274BC784512E9
:102C360079081271A37849022E8C90049EE0FF64F5
:102C4600076003022EA674062FF582E43404F5838A
:102C5600E4F074102FF582E43402F583E064036037
:102C660003022D7290049DE0FB2419F582E43402E0
:102C7600F583E0FF7E007C037DE812774CAC06AD61
:102C860007744C2BF582E43400F583E075F064A4F8
:102C96002DFDEC35F0FC90049DE02401F582E43432
:102CA60000F583E075F00AA42DFFE5F03CFE7418EC
:102CB6002BF582E43401F583E07C002FFDEC3EFC2D
:102CC600E41274BC782512793190049DE0FB241A35
:102CD600F582E43402F583E0FF7E007C037DE81292
:102CE600774CAC06AD07744D2BF582E43400F583C2
:102CF600E075F064A42DFDEC35F0FC90049DE02415
:102D060002F582E43400F583E075F00AA42DFFE5B0
:102D1600F03CFE74192BF582E43401F583E07C0067
:102D26002FFDEC3EFCE41274BCE4FBFA79207841FA
:102D36001273A1782912793190049EE025E025E0EE
:102D460024D3F582E43404F583E0FCA3E0FDA3E09C
:102D5600FEA3E0FF1274F5AD07AC06E41274BC786E
:102D6600251279081271A37829022E8C90049EE010
:102D76002410F582E43402F583E064046003022E35
:102D8600A690049DE0FB241BF582E43402F583E063
:102D9600FF7E007C037DE812774CAC06AD07744ECF
:102DA6002BF582E43400F583E075F064A42DFDEC88
:102DB60035F0FC90049DE02403F582E43400F583AD
:102DC600E075F00AA42DFFE5F03CFE741A2BF5829F
:102DD600E43401F583E07C002FFDEC3EFCE4127444
:102DE600BC782D12793190049DE0FB241CF582E419
:102DF6003402F583E0FF7E007C037DE812774CAC5D
:102E060006AD07744F2BF582E43400F583E075F0C8
:102E160064A42DFDEC35F0FC90049DE02404F582BD
:102E2600E43400F583E075F00AA42DFFE5F03CFEDE
:102E3600741B2BF582E43401F583E07C002FFDEC56
:102E46003EFCE41274BCE4FBFA79207841127298D5
:102E5600783112793190049EE025E025E024D3F5FF
:102E660082E43404F583E0FCA3E0FDA3E0FEA3E0E6
:102E7600FF1274F5AD07AC06E41274BC782D127916
:102E8600081271A3783112790812729890049EE0A4
:102E960025E025E024F6F582E43400F58312793D39
:102EA60090049EE025E025E024F6F582E43400F562
:102EB60083E0FCA3E0FDA3E0FEA3E0FFE4FBFAF958
:102EC600F812743E700590016604F090049EE025A9
:102ED600E025E024F6F582E43400F583E0FCA3E087
:102EE600FDA3E0FEA3E0FFE4FBFAF9F812743E60EE
:102EF6000E400C78591279490000000002306990A2
:102F0600049EE025E025E024F6F582E43400F5830E
:102F1600E0FCA3E0FDA3E0FEA3E0FFE4FBFAF9F882
:102F260012743E6005400302306990049EE025E07D
:102F360025E024F6F582E43400F583E0FCA3E0FD09
:102F4600A3E0FEA3E0FFE4FBFA797A784412743E2C
:102F5600602C402A90049EE025E025E024F6F582C8
:102F6600E43400F583E0FCA3E0FDA3E0FEA3E0FF6C
:102F760078591279319001667401F0023069900433
:102F86009EE025E025E024F6F582E43400F583E0B2
:102F9600FCA3E0FDA3E0FEA3E0FFE4FBFA797A7868
:102FA6004412743E6002505E90049EE025E025E0E7
:102FB60024F6F582E43400F583E0FCA3E0FDA3E00B
:102FC600FEA3E0FF7B007A247974784912743E6090
:102FD60035403390049EE025E025E024F6F582E4B2
:102FE6003400F583E0FCA3E0FDA3E0FEA3E0FFE4EC
:102FF600FBFA797A78441273A178591279319001E3
:10300600667402F0805D90049EE025E025E024F6DB
:10301600F582E43400F583E0FCA3E0FDA3E0FEA323
:10302600E0FF7B007A247974784912743E6002507E
:103036003290049EE025E025E024F6F582E4340093
:10304600F583E0FCA3E0FDA3E0FEA3E0FF7B007AAE
:1030560024797478491273A17859127931900166EE
:103066007403F090049EE025E025E024F6F582E462
:103076003400F583E0FCA3E0FDA3E0FEA3E0FFE45B
:10308600FBFAF9F812743E603D403B90049EE0FF67
:1030960025E025E02413F582E43404F5837430F04A
:1030A600EF25E025E02414F582E43404F58374303A
:1030B600F0EF25E025E02415F582E43404F5837469
:1030C60030F0EF0231CE90049EE025E025E024F6B4
:1030D600F582E43400F583E0FCA3E0FDA3E0FEA363
:1030E600E0FFE4FBFAF9F812743E60054003023B88
:1030F600B190049EE025E025E024F6F582E4340054
:10310600F583E0FCA3E0FDA3E0FEA3E0FFE4FBFA09
:103116007980783F12743E600250030231E19004D8
:103126009EE025E025E024F6F582E43400F583E010
:10313600FCA3E0FDA3E0FEA3E0FFE4FBFA797A78C6
:1031460044127298785512793178551278EC1274C7
:10315600F5AB07AA067C007D641277B3EF2430FF37
:1031660090049EE025E025E02413F582E43404F57E
:1031760083EFF07C007D64AF03AE021277B3AA043E
:10318600AB057D0A7C00AF03AE021277B3EF2430A5
:10319600FF90049EE025E025E02414F582E4340443
:1031A600F583EFF07D0A7C00AF03AE021277B3ED34
:1031B6002430FF90049EE0FE25E025E02415F582EC
:1031C600E43404F583EFF0EE25E025E02416F582DD
:1031D600E43404F5837430F0023BB190049EE0259C
:1031E600E025E024F6F582E43400F583E0FCA3E074
:1031F600FDA3E0FEA3E0FFE4FBFA7980783F1274BA
:103206003E600540030232F890049EE025E025E08A
:1032160024F6F582E43400F583E0FCA3E0FDA3E0A8
:10322600FEA3E0FFE4FBFA7920784112743E6002C7
:1032360050030232F890049EE025E025E024F6F5DE
:1032460082E43400F583E0FCA3E0FDA3E0FEA3E006
:10325600FFE4FBFA79C878421272987855127931F0
:1032660078551278EC1274F5AB07AA067C007D64DB
:103276001277B3EF2430FF90049EE025E025E0248A
:1032860013F582E43404F583EFF07C007D64AF032C
:10329600AE021277B3AA04AB057D0A7C00AF03AE7B
:1032A600021277B3EF2430FF90049EE025E025E07C
:1032B6002414F582E43404F583EFF07D0A7C00AF34
:1032C60003AE021277B3ED2430FF90049EE0FE2594
:1032D600E025E02415F582E43404F583EFF0EE25CD
:1032E600E025E02416F582E43404F5837431F00217
:1032F6003BB190049EE025E025E024F6F582E43417
:1033060000F583E0FCA3E0FDA3E0FEA3E0FFE4FB01
:10331600FA7920784112743E6005400302340F901A
:10332600049EE025E025E024F6F582E43400F583EA
:10333600E0FCA3E0FDA3E0FEA3E0FFE4FBFA79C80E
:10334600784212743E6002500302340F90049EE0ED
:1033560025E025E024F6F582E43400F583E0FCA3BD
:10336600E0FDA3E0FEA3E0FFE4FBFA79207841123A
:103376007298785512793178551278EC1274F5AB4B
:1033860007AA067C007D641277B3EF2430FF900411
:103396009EE025E025E02413F582E43404F583EF6E
:1033A600F07C007D64AF03AE021277B3AA04AB05CE
:1033B6007D0A7C00AF03AE021277B3EF2430FF9094
:1033C600049EE025E025E02414F582E43404F58328
:1033D600EFF07D0A7C00AF03AE021277B3ED243026
:1033E600FF90049EE0FE25E025E02415F582E434F6
:1033F60004F583EFF0EE25E025E02416F582E434AB
:1034060004F5837432F0023BB190049EE025E0257A
:10341600E024F6F582E43400F583E0FCA3E0FDA3A6
:10342600E0FEA3E0FFE4FBFA79C8784212743E603E
:1034360005400302351C90049EE025E025E024F6B5
:10344600F582E43400F583E0FCA3E0FDA3E0FEA3EF
:10345600E0FFE4FBFA797A784412743E6002500386
:1034660002351C90049EE025E025E024F6F582E472
:103476003400F583E0FCA3E0FDA3E0FEA3E0FF78C3
:103486005512793178551278EC1274F5AB07AA0605
:103496007C007D641277B3EF2430FF90049EE02514
:1034A600E025E02413F582E43404F583EFF07C0094
:1034B6007D64AF03AE021277B3AA04AB057D0A7C26
:1034C60000AF03AE021277B3EF2430FF90049EE004
:1034D60025E025E02414F582E43404F583EFF07D3D
:1034E6000A7C00AF03AE021277B3ED2430FF9004DE
:1034F6009EE0FE25E025E02415F582E43404F583FC
:10350600EFF0EE25E025E02416F582E43404F58399
:103516007433F0023BB190049EE025E025E024F6EA
:10352600F582E43400F583E0FCA3E0FDA3E0FEA30E
:10353600E0FFE4FBFA797A784412743E60054003B2
:1035460002363490049EE025E025E024F6F582E478
:103556003400F583E0FCA3E0FDA3E0FEA3E0FF7BDF
:10356600007A40791C784612743E60025003023697
:103576003490049EE025E025E024F6F582E434004C
:10358600F583E0FCA3E0FDA3E0FEA3E0FFE4FBFA85
:10359600792078411273A1785512793178551278CD
:1035A600EC1274F5AB07AA067C007D641277B3EFC4
:1035B6002430FF90049EE025E025E02413F582E404
:1035C6003404F583EFF07C007D64AF03AE0212771E
:1035D600B3AA04AB057D0A7C00AF03AE021277B333
:1035E600EF2430FF90049EE025E025E02414F582C8
:1035F600E43404F583EFF07D0A7C00AF03AE0212DB
:1036060077B3ED2430FF90049EE0FE25E025E0240C
:1036160015F582E43404F583EFF0EE25E025E02489
:1036260016F582E43404F5837434F0023BB1900459
:103636009EE025E025E024F6F582E43400F583E0FB
:10364600FCA3E0FDA3E0FEA3E0FF7B007A40791C2B
:10365600784612743E6005400302374D90049EE0A2
:1036660025E025E024F6F582E43400F583E0FCA3AA
:10367600E0FDA3E0FEA3E0FF7B007A5079C3784724
:1036860012743E6002500302374D90049EE025E01E
:1036960025E024F6F582E43400F583E0FCA3E0FDA2
:1036A600A3E0FEA3E0FFE4FBFA79C878421273A117
:1036B600785512793178551278EC1274F5AB07AA61
:1036C600067C007D641277B3EF2430FF90049EE001
:1036D60025E025E02413F582E43404F583EFF07C3D
:1036E600007D64AF03AE021277B3AA04AB057D0A70
:1036F6007C00AF03AE021277B3EF2430FF90049E36
:10370600E025E025E02414F582E43404F583EFF0A7
:103716007D0A7C00AF03AE021277B3ED2430FF9032
:10372600049EE0FE25E025E02415F582E43404F548
:1037360083EFF0EE25E025E02416F582E43404F567
:10374600837435F0023BB190049EE025E025E02429
:10375600F6F582E43400F583E0FCA3E0FDA3E0FE89
:10376600A3E0FF7B007A5079C3784712743E600568
:10377600400302386690049EE025E025E024F6F535
:1037860082E43400F583E0FCA3E0FDA3E0FEA3E0C1
:10379600FF7B007A247974784912743E60025003E4
:1037A60002386690049EE025E025E024F6F582E4E2
:1037B6003400F583E0FCA3E0FDA3E0FEA3E0FFE414
:1037C600FBFA797A78441273A178551279317855D3
:1037D6001278EC1274F5AB07AA067C007D641277AA
:1037E600B3EF2430FF90049EE025E025E02413F596
:1037F60082E43404F583EFF07C007D64AF03AE020F
:103806001277B3AA04AB057D0A7C00AF03AE0212A1
:1038160077B3EF2430FF90049EE025E025E02414E2
:10382600F582E43404F583EFF07D0A7C00AF03AE45
:10383600021277B3ED2430FF90049EE0FE25E025CA
:10384600E02415F582E43404F583EFF0EE25E02557
:10385600E02416F582E43404F5837436F0023BB1B5
:1038660090049EE025E025E024F6F582E43400F598
:1038760083E0FCA3E0FDA3E0FEA3E0FF7B007A2447
:103886007974784912743E600540030239809004C9
:103896009EE025E025E024F6F582E43400F583E099
:1038A600FCA3E0FDA3E0FEA3E0FF7B807A967918F7
:1038B600784B12743E6002500302398090049EE0F9
:1038C60025E025E024F6F582E43400F583E0FCA348
:1038D600E0FDA3E0FEA3E0FF7B007A40791C78467A
:1038E6001273A1785512793178551278EC1274F565
:1038F600AB07AA067C007D641277B3EF2430FF90F5
:10390600049EE025E025E02413F582E43404F583E3
:10391600EFF07C007D64AF03AE021277B3AA04AB6E
:10392600057D0A7C00AF03AE021277B3EF2430FFA9
:1039360090049EE025E025E02414F582E43404F5A5
:1039460083EFF07D0A7C00AF03AE021277B3ED245D
:1039560030FF90049EE0FE25E025E02415F582E484
:103966003404F583EFF0EE25E025E02416F582E435
:103976003404F5837437F0023BB190049EE025E0F1
:1039860025E024F6F582E43400F583E0FCA3E0FDAF
:10399600A3E0FEA3E0FF7B807A967918784B127439
:1039A6003E60054003023A9A90049EE025E025E039
:1039B60024F6F582E43400F583E0FCA3E0FDA3E001
:1039C600FEA3E0FF7B207ABC79BE784C12743E6081
:1039D600025003023A9A90049EE025E025E024F680
:1039E600F582E43400F583E0FCA3E0FDA3E0FEA34A
:1039F600E0FF7B007A5079C378471273A17855129D
:103A0600793178551278EC1274F5AB07AA067C006A
:103A16007D641277B3EF2430FF90049EE025E02505
:103A2600E02413F582E43404F583EFF07C007D6432
:103A3600AF03AE021277B3AA04AB057D0A7C00AFD2
:103A460003AE021277B3EF2430FF90049EE025E028
:103A560025E02414F582E43404F583EFF07D0A7C36
:103A660000AF03AE021277B3ED2430FF90049EE060
:103A7600FE25E025E02415F582E43404F583EFF015
:103A8600EE25E025E02416F582E43404F583743847
:103A9600F0023BB190049EE025E025E024F6F58295
:103AA600E43400F583E0FCA3E0FDA3E0FEA3E0FF21
:103AB6007B207ABC79BE784C12743E6005400302C6
:103AC6003BB190049EE025E025E024F6F582E4343F
:103AD60000F583E0FCA3E0FDA3E0FEA3E0FF7B2866
:103AE6007A6B796E784E12743E60025003023BB1D7
:103AF60090049EE025E025E024F6F582E43400F506
:103B060083E0FCA3E0FDA3E0FEA3E0FF7B007A24B4
:103B1600797478491273A1785512793178551278EB
:103B2600EC1274F5AB07AA067C007D641277B3EF3E
:103B36002430FF90049EE025E025E02413F582E47E
:103B46003404F583EFF07C007D64AF03AE02127798
:103B5600B3AA04AB057D0A7C00AF03AE021277B3AD
:103B6600EF2430FF90049EE025E025E02414F58242
:103B7600E43404F583EFF07D0A7C00AF03AE021255
:103B860077B3ED2430FF90049EE0FE25E025E02487
:103B960015F582E43404F583EFF0EE25E025E02404
:103BA60016F582E43404F5837439F09004BDE0D34D
:103BB60094094003023EFF9004BCE09409400302CE
:103BC6003EFF9004BBE094094003023EFF9004BA16
:103BD600E094094003023EFF9004B9E094094003D3
:103BE600023EFF9004B8E094094003023EFF785974
:103BF6001278EC1274F5AB07AA067C007D64127786
:103C0600B39004BDEFF07C007D64AF03AE02127783
:103C1600B3AA04AB057D0A7C00AF03AE021277B3EC
:103C26009004BCEFF07D0A7C00AF03AE021277B3BE
:103C36009004BBEDF078591278EC1274F5AD07AC30
:103C460006EC1274BCC004C005C006C00778591241
:103C560078ECD003D002D001D0001271A3E4FBFAB5
:103C6600797A78441272981274F59004A012793D0C
:103C7600E47B64FAF9F89004A0E0FCA3E0FDA3E07D
:103C8600FEA3E0FF12783B9004BAEFF0E47B64FAFF
:103C9600F9F89004A0E0FCA3E0FDA3E0FEA3E0FF9A
:103CA60012783BAC00AD01AE02AF03E47B0AFAF931
:103CB600F812783B9004B9EFF0E47B64FAF9F890D7
:103CC60004A0E0FCA3E0FDA3E0FEA3E0FF12783B26
:103CD600AC00AD01AE02AF03E47B0AFAF9F8127844
:103CE6003B9004B8EBF0900166E064016003023D8E
:103CF600969004BCE075F00AA4FDACF0A3E075F064
:103D060064A42DFFE5F03CFE9004BBE07C002FFD93
:103D1600EC3EFC1274BCC004C005C006C00790048B
:103D2600BAE0FCE41274C17BCD7ACC79CC783D1232
:103D36007298D003D002D001D0001271A7C004C07F
:103D460005C006C0079004B9E0FCE41274C17B0A02
:103D56007AD77923783C127298D003D002D001D05A
:103D6600001271A7C004C005C006C0079004B8E0E1
:103D7600FCE41274C17B6F7A127983783A127298D6
:103D8600D003D002D001D0001271A7785D1279312C
:103D9600900166E064026003023E4A9004BCE0754E
:103DA600F00AA4FDACF0A3E075F064A42DFFE5F0E5
:103DB6003CFE9004BBE07C002FFDEC3EFC1274BC84
:103DC600C004C005C006C0079004BAE0FCE4127443
:103DD600C17BCD7ACC79CC783D127298D003D002D3
:103DE600D001D0001271A7C004C005C006C007905C
:103DF60004B9E0FCE41274C17B0A7AD77923783CD3
:103E0600127298D003D002D001D0001271A7C0045C
:103E1600C005C006C0079004B8E0FCE41274C17B7C
:103E26006F7A127983783A127298D003D002D00151
:103E3600D0001271A7E4FBFA797A78441272987866
:103E46005D127931900166E064036003023EFF90E3
:103E560004BCE075F00AA4FDACF0A3E075F064A420
:103E66002DFFE5F03CFE9004BBE07C002FFDEC3E10
:103E7600FC1274BCC004C005C006C0079004BAE0BA
:103E8600FCE41274C17BCD7ACC79CC783D12729861
:103E9600D003D002D001D0001271A7C004C005C063
:103EA60006C0079004B9E0FCE41274C17B0A7AD715
:103EB6007923783C127298D003D002D001D0001238
:103EC60071A7C004C005C006C0079004B8E0FCE4B2
:103ED6001274C17B6F7A127983783A127298D00382
:103EE600D002D001D0001271A77B007A24797478B1
:103EF60049127298785D12793190049EE0240EF58D
:103F060082E43405F583E0FCE41274C17BCD7ACCFF
:103F160079CC783D127298C004C005C006C00790DF
:103F2600049EE024FDF582E43404F583E0FCE4120B
:103F360074C1D003D002D001D0001271A7C004C052
:103F460005C006C00790049EE02405F582E434050A
:103F5600F583E0FCE41274C17B0A7AD77923783CB6
:103F6600127298D003D002D001D0001271A790042B
:103F7600B412793D90049EE02416F582E43405F5EA
:103F860083E0FCE41274C19004C812793D7F007E80
:103F9600007D207C4112883D9004AC12793D90044E
:103FA600ACE0FCA3E0FDA3E0FEA3E0FF9004B4E0D8
:103FB600F8A3E0F9A3E0FAA3E0FB1272989004B02C
:103FC60012793D9004B0E0FCA3E0FDA3E0FEA3E07F
:103FD600FF785D12790812743E403630CD0512A086
:103FE600C95002D21C90049EE0FF24C8F582E43436
:103FF60001F5837401F074D52FF582E43401F5835D
:104006007401F090049EE090963693785056F680B0
:10401600409004B0E0FCA3E0FDA3E0FEA3E0FF783F
:104026005D12790812743E502890049EE0FF24C861
:10403600F582E43401F583E4F074D52FF582E43497
:1040460001F583E4F090049EE090962E9378504616
:10405600F690049EE0FF24C8F582E43401F583E07F
:1040660060030245A774102FF582E43402F583E05D
:104076006003B4011790049EE075F03AA4240DFD88
:10408600E435F0FC7BFF7A9579A5801590049EE0D7
:1040960075F03AA4240DFDE435F0FC7BFF7A9579A2
:1040A600A87F0A7E001299C790049EE0FB75F03A3D
:1040B600A4240DFDE435F0FCEB2401FBE433FA7F88
:1040C6003C7E00128AEE90049EE075F03AA4240D20
:1040D600FDE435F0FC7BFF7A9579AB7F5A7E0012C2
:1040E60099C790049EE0FB75F03AA4240DFDE435D3
:1040F600F0FCEB25E024DFF582E43401F583E0FBF8
:104106007A007FD67E01128AEE90049EE0FB75F05F
:104116003AA4240DFDE435F0FCEB25E024DEF5821F
:10412600E43401F583E0FB7A007FB87E01128AEE63
:1041360090049EE0FB75F03AA4240DFDE435F0FCF6
:1041460074FE2BF582E43403F583E0FB7A007F8668
:104156007E01128AEE9004BDE0FB70030242A49039
:10416600049EE075F03AA4240DFDE435F0FC7A00D7
:104176007F827E00128AEE90049EE075F03AA424B7
:104186000DFDE435F0FC9004BCE0FB7A007FA07ED8
:1041960000128AEE90049EE075F03AA4240DFDE428
:1041A60035F0FC9004BBE0FB7A007FBE7E00128AED
:1041B600EE90049EE075F03AA4240DFDE435F0FC83
:1041C6007BFF7A9579AD7FDC7E001299C790049EBD
:1041D600E075F03AA4240DFDE435F0FC9004BAE055
:1041E600FB7A007FF07E00128AEE90049EE075F066
:1041F6003AA4240DFDE435F0FC9004B9E0FB7A0006
:104206007F0E7E01128AEE90049EE075F03AA42499
:104216000DFDE435F0FC9004B8E0FB7A007F2C7EBF
:1042260001128AEE9001EEE0FAA3E0FBC3940AEADB
:10423600940050030244709001EEE0FEA3E0FFC339
:10424600940AEE9400400BEF9464EE94005003023F
:10425600449C9001EEE0FEA3E0FFC39464EE94005C
:10426600400BEF94E8EE940350030244CF9001EE26
:10427600E0FEA3E0FFC394E8EE9403400BEF941036
:10428600EE942750030245029001EEE0FAA3E0FB0C
:10429600C39410EA9427500302454502452F900423
:1042A600BCE0FB70030243D090049EE075F03AA494
:1042B600240DFDE435F0FC7A007FA07E00128AEE24
:1042C60090049EE075F03AA4240DFDE435F0FC90D0
:1042D60004BBE0FB7A007FBE7E00128AEE90049E4D
:1042E600E075F03AA4240DFDE435F0FC7BFF7A95E9
:1042F60079AD7FDC7E001299C790049EE075F03A96
:10430600A4240DFDE435F0FC9004BAE0FB7A007FAE
:10431600F07E00128AEE90049EE075F03AA4240D19
:10432600FDE435F0FC9004B9E0FB7A007F0E7E01D7
:10433600128AEE90049EE075F03AA4240DFDE43551
:10434600F0FC9004B8E0FB7A007F2C7E01128AEE26
:104356009001EEE0FAA3E0FBC3940AEA940050034E
:104366000244709001EEE0FEA3E0FFC3940AEE94CF
:1043760000400BEF9464EE9400500302449C9001BD
:10438600EEE0FEA3E0FFC39464EE9400400BEF94CE
:10439600E8EE940350030244CF9001EEE0FEA3E062
:1043A600FFC394E8EE9403400BEF9410EE9427506D
:1043B600030245029001EEE0FAA3E0FBC39410EA83
:1043C6009427500302454502452F90049EE075F060
:1043D6003AA4240DFDE435F0FC9004BBE0FB7A0022
:1043E6007FBE7E00128AEE90049EE075F03AA42409
:1043F6000DFDE435F0FC7BFF7A9579AD7FDC7E0020
:104406001299C790049EE075F03AA4240DFDE43598
:10441600F0FC9004BAE0FB7A007FF07E00128AEE90
:1044260090049EE075F03AA4240DFDE435F0FC906E
:1044360004B9E0FB7A007F0E7E01128AEE90049E9C
:10444600E075F03AA4240DFDE435F0FC9004B8E0E4
:10445600FB7A007F2C7E01128AEE9001EEE0FAA331
:10446600E0FBC3940AEA9400501490049EE075F0B1
:104476003AA4240DFDE435F0FC7F4002451B900173
:10448600EEE0FEA3E0FFC3940AEE94004023EF940F
:1044960064EE9400501B90049EE075F03AA4240D3F
:1044A600FDE435F0FC9001EEE0FAA3E0FB7F2C8002
:1044B600649001EEE0FEA3E0FFC39464EE94004036
:1044C60023EF94E8EE9403501B90049EE075F03AB7
:1044D600A4240DFDE435F0FC9001EEE0FAA3E0FB28
:1044E6007F1880319001EEE0FEA3E0FFC394E8EE72
:1044F60094034025EF9410EE9427501D90049EE0FF
:1045060075F03AA4240DFDE435F0FC9001EEE0FAD6
:10451600A3E0FB7F047E0280239001EEE0FAA3E095
:10452600FBC39410EA9427401690049EE075F03A77
:10453600A4240DFDE435F0FC7FF07E01128AEE9096
:104546000166E0B4011790049EE075F03AA4240DCC
:10455600FDE435F0FC7BFF7A9579AF803A900166F1
:10456600E0B4021790049EE075F03AA4240DFDE431
:1045760035F0FC7BFF7A9579B1801C900166E0B43A
:10458600031C90049EE075F03AA4240DFDE435F07A
:10459600FC7BFF7A9579B37F547E011299C712A1ED
:1045A600B490049EE0FF24C8F582E43401F583E06C
:1045B60064016003024B3274102FF582E43402F575
:1045C60083E060046401703390049EE075F03AA4C1
:1045D600240DFDE435F0FC7BFF7A9579B57F077EE7
:1045E60000129A7190049EE075F03AA4240DFDE441
:1045F60035F0FC7BFF7A9579B8803190049EE075A2
:10460600F03AA4240DFDE435F0FC7BFF7A9579B5EC
:104616007F077E00129A7190049EE075F03AA424FA
:104626000DFDE435F0FC7BFF7A9579D37F0A7E0099
:10463600129A7190049EE0FB75F03AA4240DFDE4F5
:1046460035F0FCEB2401FBE433FA7F3C7E00128953
:10465600A390049EE075F03AA4240DFDE435F0FC29
:104666007BFF7A9579AB7F5A7E00129A7190049EF1
:10467600E0FB75F03AA4240DFDE435F0FCEB25E0F3
:1046860024DFF582E43401F583E0FB7A007FD67EF1
:10469600011289A390049EE0FB75F03AA4240DFD57
:1046A600E435F0FCEB25E024DEF582E43401F58305
:1046B600E0FB7A007FB87E011289A390049EE0FB9E
:1046C60075F03AA4240DFDE435F0FC74FE2BF5825A
:1046D600E43403F583E0FB7A007F867E011289A32A
:1046E6009004BDE0FB700302482F90049EE075F035
:1046F6003AA4240DFDE435F0FC7A007F827E001298
:1047060089A390049EE075F03AA4240DFDE435F0EB
:10471600FC9004BCE0FB7A007FA07E001289A39087
:10472600049EE075F03AA4240DFDE435F0FC9004F7
:10473600BBE0FB7A007FBE7E001289A390049EE058
:1047460075F03AA4240DFDE435F0FC7BFF7A9579EB
:10475600AD7FDC7E00129A7190049EE075F03AA45B
:10476600240DFDE435F0FC9004BAE0FB7A007FF0FE
:104776007E001289A390049EE075F03AA4240DFDF4
:10478600E435F0FC9004B9E0FB7A007F0E7E01125E
:1047960089A390049EE075F03AA4240DFDE435F05B
:1047A600FC9004B8E0FB7A007F2C7E011289A3906E
:1047B60001EEE0FAA3E0FBC3940AEA940050030278
:1047C60049FB9001EEE0FEA3E0FFC3940AEE9400DD
:1047D600400BEF9464EE94005003024A279001EEDA
:1047E600E0FEA3E0FFC39464EE9400400BEF94E870
:1047F600EE94035003024A5A9001EEE0FEA3E0FF56
:10480600C394E8EE9403400BEF9410EE9427500304
:10481600024A8D9001EEE0FAA3E0FBC39410EA94FD
:10482600275003024AD0024ABA9004BCE0FB700348
:1048360002495B90049EE075F03AA4240DFDE43530
:10484600F0FC7A007FA07E001289A390049EE0759A
:10485600F03AA4240DFDE435F0FC9004BBE0FB7AAD
:10486600007FBE7E001289A390049EE075F03AA4F4
:10487600240DFDE435F0FC7BFF7A9579AD7FDC7E77
:1048860000129A7190049EE075F03AA4240DFDE49E
:1048960035F0FC9004BAE0FB7A007FF07E001289C6
:1048A600A390049EE075F03AA4240DFDE435F0FCD7
:1048B6009004B9E0FB7A007F0E7E011289A3900472
:1048C6009EE075F03AA4240DFDE435F0FC9004B8A2
:1048D600E0FB7A007F2C7E011289A39001EEE0FABC
:1048E600A3E0FBC3940AEA940050030249FB90013B
:1048F600EEE0FEA3E0FFC3940AEE9400400BEF94B3
:1049060064EE94005003024A279001EEE0FEA3E015
:10491600FFC39464EE9400400BEF94E8EE940350CA
:1049260003024A5A9001EEE0FEA3E0FFC394E8EECC
:104936009403400BEF9410EE94275003024A8D9097
:1049460001EEE0FAA3E0FBC39410EA9427500302B9
:104956004AD0024ABA90049EE075F03AA4240DFDAE
:10496600E435F0FC9004BBE0FB7A007FBE7E0012CB
:1049760089A390049EE075F03AA4240DFDE435F079
:10498600FC7BFF7A9579AD7FDC7E00129A719004EC
:104996009EE075F03AA4240DFDE435F0FC9004BACF
:1049A600E0FB7A007FF07E001289A390049EE075FA
:1049B600F03AA4240DFDE435F0FC9004B9E0FB7A4E
:1049C600007F0E7E011289A390049EE075F03AA442
:1049D600240DFDE435F0FC9004B8E0FB7A007F2C52
:1049E6007E011289A39001EEE0FAA3E0FBC3940ACC
:1049F600EA9400501490049EE075F03AA4240DFD4C
:104A0600E435F0FC7F40024AA69001EEE0FEA3E00A
:104A1600FFC3940AEE94004023EF9464EE94005092
:104A26001B90049EE075F03AA4240DFDE435F0FCDD
:104A36009001EEE0FAA3E0FB7F2C80649001EEE0AB
:104A4600FEA3E0FFC39464EE94004023EF94E8EEE7
:104A56009403501B90049EE075F03AA4240DFDE4E7
:104A660035F0FC9001EEE0FAA3E0FB7F1880319070
:104A760001EEE0FEA3E0FFC394E8EE94034025EFC9
:104A86009410EE9427501D90049EE075F03AA424ED
:104A96000DFDE435F0FC9001EEE0FAA3E0FB7F04A7
:104AA6007E0280239001EEE0FAA3E0FBC39410EAB5
:104AB6009427401690049EE075F03AA4240DFDE478
:104AC60035F0FC7FF07E011289A3900166E0B40107
:104AD6001790049EE075F03AA4240DFDE435F0FC31
:104AE6007BFF7A9579AF803A900166E0B402179021
:104AF600049EE075F03AA4240DFDE435F0FC7BFF3E
:104B06007A9579B1801C900166E0B4031C90049EEE
:104B1600E075F03AA4240DFDE435F0FC7BFF7A95B0
:104B260079B37F547E01129A7112A1B49004BDE04C
:104B3600FF90049EE0FE75F008A42487F582E43415
:104B460001F583EFF09004BCE0FFEE75F008A424B5
:104B560088F582E43401F583EFF09004BBE0FFEEC4
:104B660075F008A42489F582E43401F583EFF0900A
:104B760004BAE0FFEE75F008A4248AF582E4340155
:104B8600F583EFF09004B9E0FFEE75F008A4248BEE
:104B9600F582E43401F583EFF09004B8E0FFEE759A
:104BA600F008A4248CF582E43401F583EFF090013B
:104BB60066E0FFEE75F008A4248DF582E43401F575
:104BC60083EFF074C82EF582E43401F583E0FFEE3E
:104BD60075F008A4248EF582E43401F583EFF09095
:104BE600049EE004F0022688E490049EF090049E61
:104BF600E0FFC39408503874C82FF582E43401F5F9
:104C060083E090044F600FE0FF90049EE090962EA4
:104C160093FEEF4E800DE0FF90049EE09096369353
:104C2600FEEF5E90044FF090049EE004F080BED24A
:104C360023900452E004F0E0B4FF037408F09004FB
:104C460052E0D394044003D21222C21222E47853D3
:104C5600F608F67851F608F67861127949000000F0
:104C660000786512794900000000786912794900D8
:104C7600000000E49004C3F09004C2F09004C1F078
:104C86009004C0F09004BFF09004BEF09004BDF014
:104C96009004BCF09004BBF09004BAF09004B9F014
:104CA6009004B8F09001DDE0FD75F00AA424F990B7
:104CB600049EF0ED25E025E02466F582E43401F556
:104CC60083E0FE9001DDE025E025E02465F582E441
:104CD6003401F583E07C0024007854F6EC3E18F6A7
:104CE600E6FE08E6FF7D0C12774CAC06AD07E41233
:104CF60074BC78611279319001DDE0FD25E025E094
:104D06002468F582E43401F583E0FEED25E025E034
:104D16002467F582E43401F583E07C0024007852B0
:104D2600F6EC3E18F690049EE0FB2418F582E43477
:104D360002F583E0FF7E007C037DE812774CAC062B
:104D4600AD07744B2BF582E43400F583E075F0640F
:104D5600A42DFDEC35F0FC90049EE02400F582E4E1
:104D66003400F583E075F00AA42DFFE5F03CFE74EF
:104D7600172BF582E43401F583E07C002FFDEC3E31
:104D8600FCE41274BC782512793190049EE0FB2471
:104D960019F582E43402F583E0FF7E007C037DE8AA
:104DA60012774CAC06AD07744C2BF582E43400F553
:104DB60083E075F064A42DFDEC35F0FC90049EE0D4
:104DC6002401F582E43400F583E075F00AA42DFF92
:104DD600E5F03CFE74182BF582E43401F583E07CA3
:104DE600002FFDEC3EFCE41274BC7B007A2479743F
:104DF60078491273A178291279317825127908C079
:104E06000078611278ECD0001271A3782912790823
:104E16001272989001D012793DE4FFFEFDFC9001DC
:104E2600D0E0F8A3E0F9A3E0FAA3E0FB12743E5049
:104E36000A9001D0127962000000009001D0E0FCD7
:104E4600A3E0FDA3E0FEA3E0FF78651279319004AC
:104E5600C3E0D394094003024F8F9004C2E0940943
:104E66004003024F8F9004C1E094094003024F8F24
:104E76009004C0E094094003024F8F9004BFE09471
:104E8600094003024F8F9004BEE094094003024F8D
:104E96008F78651278EC1274F5AB07AA067C007D54
:104EA600641277B39004C3EFF07C007D64AF03AE69
:104EB600021277B3AA04AB057D0A7C00AF03AE02EB
:104EC6001277B39004C2EFF07D0A7C00AF03AE0206
:104ED6001277B39004C1EDF078651278EC1274F590
:104EE600AD07AC06EC1274BCC004C005C006C00712
:104EF60078651278ECD003D002D001D0001271A3ED
:104F0600E4FBFA797A78441272981274F59004A444
:104F160012793DE47B64FAF9F89004A4E0FCA3E07E
:104F2600FDA3E0FEA3E0FF12783B9004C0EFF0E49F
:104F36007B64FAF9F89004A4E0FCA3E0FDA3E0FE8C
:104F4600A3E0FF12783BAC00AD01AE02AF03E47BF9
:104F56000AFAF9F812783B9004BFEFF0E47B64FAA2
:104F6600F9F89004A4E0FCA3E0FDA3E0FEA3E0FFB3
:104F760012783BAC00AD01AE02AF03E47B0AFAF94E
:104F8600F812783B9004BEEBF090049EE0FB241AE6
:104F9600F582E43402F583E0FF7E007C037DE812AF
:104FA600774CAC06AD07744D2BF582E43400F583DF
:104FB600E075F064A42DFDEC35F0FC90049EE02431
:104FC60002F582E43400F583E075F00AA42DFFE5CE
:104FD600F03CFE74192BF582E43401F583E07C0085
:104FE6002FFDEC3EFCE41274BC782D12793190044E
:104FF6009EE0FB241BF582E43402F583E0FF7E008D
:105006007C037DE812774CAC06AD07744E2BF58217
:10501600E43400F583E075F064A42DFDEC35F0FC76
:1050260090049EE02403F582E43400F583E075F0F5
:105036000AA42DFFE5F03CFE741A2BF582E4340138
:10504600F583E07C002FFDEC3EFCE41274BCE4FB2F
:10505600FA797A78441273A178311279317851E667
:10506600FC08E6FDE41274BC782D1279081271A3CF
:10507600783112790812729890016212793DE4FF34
:10508600FEFDFC900162E0F8A3E0F9A3E0FAA3E0DC
:10509600FB12743E500A9001621279620000000011
:1050A600E4FBFA797A7844900162E0FCA3E0FDA380
:1050B600E0FEA3E0FF1273A178691279319004BD76
:1050C600E0D3940940030251FE9004BCE0940940E9
:1050D600030251FE9004BBE0940940030251FE9086
:1050E60004BAE0940940030251FE9004B9E0940921
:1050F60040030251FE9004B8E0940940030251FEB9
:1051060078691278EC1274F5AB07AA067C007D6408
:105116001277B39004BDEFF07C007D64AF03AE025E
:105126001277B3AA04AB057D0A7C00AF03AE021268
:1051360077B39004BCEFF07D0A7C00AF03AE021299
:1051460077B39004BBEDF078691278EC1274F5AD84
:1051560007AC06EC1274BCC004C005C006C00778D4
:10516600691278ECD003D002D001D0001271A3E40A
:10517600FBFA797A78441272981274F59004A812A0
:10518600793DE47B64FAF9F89004A8E0FCA3E0FD1D
:10519600A3E0FEA3E0FF12783B9004BAEFF0E47BB5
:1051A60064FAF9F89004A8E0FCA3E0FDA3E0FEA3EE
:1051B600E0FF12783BAC00AD01AE02AF03E47B0A20
:1051C600FAF9F812783B9004B9EFF0E47B64FAF947
:1051D600F89004A8E0FCA3E0FDA3E0FEA3E0FF1224
:1051E600783BAC00AD01AE02AF03E47B0AFAF9F8F6
:1051F60012783B9004B8EBF07BFF7A9579EE7D3A16
:105206007C007FC87E001299C79001DDE0FB7A0022
:105216007D3A7C007F907E01128AEE7BFF7A95793B
:10522600F77D747C007F0A7E001299C77BFF7A9512
:1052360079AB7D747C007FA07E001299C77BFF7AD4
:105246009579FE7DAE7C007FDC7E001299C77BFFE0
:105256007A9679047DAE7C007F087E021299C77B20
:10526600FF7A9679087D227C017F0A7E001299C713
:105276007BFF7A9579AB7D227C017FA07E00129917
:10528600C77BFF7A96790F7D5C7C017FDC7E0012FE
:1052960099C77BFF7A9679157D5C7C017F087E0233
:1052A6001299C79004C3E070030253A0FB7A007DF5
:1052B600AE7C007F0A7E00128AEE9004C2E0FB7A82
:1052C600007DAE7C007F287E00128AEE9004C1E04D
:1052D600FB7A007DAE7C007F467E00128AEE7BFF65
:1052E6007A9579AD7DAE7C007F647E001299C79079
:1052F60004C0E0FB7A007DAE7C007F827E00128ACD
:10530600EE9004BFE0FB7A007DAE7C007FA07E00BD
:10531600128AEE9004BEE0FB7A007DAE7C007FBE72
:105326007E00128AEE7853E6FA08E6FBC3940AEA90
:10533600940050030254ED7853E6FE08E6FFC3944A
:105346000AEE9400400BEF9464EE9400500302556D
:105356000D7853E6FE08E6FFC39464EE9400400B16
:10536600EF94E8EE940350030255327853E6FE08B4
:10537600E6FFC394E8EE9403400BEF9410EE9427F7
:1053860050030255577853E6FA08E6FBC39410EA31
:105396009427500302557F0255749004C2E07003AF
:1053A600025485FB7A007DAE7C007F287E00128A3F
:1053B600EE9004C1E0FB7A007DAE7C007F467E0065
:1053C600128AEE7BFF7A9579AD7DAE7C007F647E96
:1053D600001299C79004C0E0FB7A007DAE7C007F86
:1053E600827E00128AEE9004BFE0FB7A007DAE7CDE
:1053F600007FA07E00128AEE9004BEE0FB7A007D5C
:10540600AE7C007FBE7E00128AEE7853E6FA08E68E
:10541600FBC3940AEA940050030254ED7853E6FE67
:1054260008E6FFC3940AEE9400400BEF9464EE94F2
:1054360000500302550D7853E6FE08E6FFC3946458
:10544600EE9400400BEF94E8EE94035003025532BD
:105456007853E6FE08E6FFC394E8EE9403400BEFAC
:105466009410EE942750030255577853E6FA08E64F
:10547600FBC39410EA9427500302557F025574909B
:1054860004C1E0FB7A007DAE7C007F467E00128A76
:10549600EE7BFF7A9579AD7DAE7C007F647E00124F
:1054A60099C79004C0E0FB7A007DAE7C007F827EC7
:1054B60000128AEE9004BFE0FB7A007DAE7C007F8E
:1054C600A07E00128AEE9004BEE0FB7A007DAE7CE0
:1054D600007FBE7E00128AEE7853E6FA08E6FBC32A
:1054E600940AEA940050097DAE7C007FEA02557A60
:1054F6007853E6FE08E6FFC3940AEE94004016EFE2
:105506009464EE9400500E18E6FA08E6FB7DAE7C35
:10551600007FCC805F7853E6FE08E6FFC39464EE16
:1055260094004016EF94E8EE9403500E18E6FA083D
:10553600E6FB7DAE7C007FAE803A7853E6FE08E659
:10554600FFC394E8EE94034016EF9410EE942750B0
:105556000E18E6FA08E6FB7DAE7C007F9080157893
:1055660053E6FA08E6FBC39410EA9427400B7DAE97
:105576007C007F727E01128AEE9004BDE070030209
:105586005676FB7A007D5C7C017F0A7E00128AEEED
:105596009004BCE0FB7A007D5C7C017F287E0012D3
:1055A6008AEE9004BBE0FB7A007D5C7C017F467E40
:1055B60000128AEE7BFF7A9579AD7D5C7C017F6473
:1055C6007E001299C79004BAE0FB7A007D5C7C01EC
:1055D6007F827E00128AEE9004B9E0FB7A007D5C41
:1055E6007C017FA07E00128AEE9004B8E0FB7A0070
:1055F6007D5C7C017FBE7E00128AEE7851E6FA0859
:10560600E6FBC3940AEA940050030257C37851E6B6
:10561600FE08E6FFC3940AEE9400400BEF9464EE96
:10562600940050030257E37851E6FE08E6FFC39460
:1056360064EE9400400BEF94E8EE94035003025896
:10564600087851E6FE08E6FFC394E8EE9403400BA3
:10565600EF9410EE9427500302582D7851E6FA087D
:10566600E6FBC39410EA9427500302585502584AA1
:105676009004BCE0700302575BFB7A007D5C7C0102
:105686007F287E00128AEE9004BBE0FB7A007D5CE8
:105696007C017F467E00128AEE7BFF7A9579AD7D8E
:1056A6005C7C017F647E001299C79004BAE0FB7AA5
:1056B600007D5C7C017F827E00128AEE9004B9E058
:1056C600FB7A007D5C7C017FA07E00128AEE90044E
:1056D600B8E0FB7A007D5C7C017FBE7E00128AEE1C
:1056E6007851E6FA08E6FBC3940AEA9400500302EE
:1056F60057C37851E6FE08E6FFC3940AEE940040CD
:105706000BEF9464EE940050030257E37851E6FEE3
:1057160008E6FFC39464EE9400400BEF94E8EE9421
:105726000350030258087851E6FE08E6FFC394E8E2
:10573600EE9403400BEF9410EE9427500302582D7D
:105746007851E6FA08E6FBC39410EA942750030260
:10575600585502584A9004BBE0FB7A007D5C7C01F8
:105766007F467E00128AEE7BFF7A9579AD7D5C7C62
